{
	"contracts/Invoice.sol": {
		"Invoice": {
			"abi": [
				{
					"anonymous": false,
					"inputs": [
						{
							"indexed": true,
							"internalType": "address",
							"name": "from",
							"type": "address"
						},
						{
							"indexed": true,
							"internalType": "address",
							"name": "to",
							"type": "address"
						}
					],
					"name": "OwnershipTransferRequested",
					"type": "event"
				},
				{
					"anonymous": false,
					"inputs": [
						{
							"indexed": true,
							"internalType": "address",
							"name": "from",
							"type": "address"
						},
						{
							"indexed": true,
							"internalType": "address",
							"name": "to",
							"type": "address"
						}
					],
					"name": "OwnershipTransferred",
					"type": "event"
				},
				{
					"inputs": [
						{
							"internalType": "uint256",
							"name": "",
							"type": "uint256"
						}
					],
					"name": "Invoices",
					"outputs": [
						{
							"internalType": "uint256",
							"name": "invoiceId",
							"type": "uint256"
						},
						{
							"internalType": "string",
							"name": "buyerPAN",
							"type": "string"
						},
						{
							"internalType": "string",
							"name": "sellerPAN",
							"type": "string"
						},
						{
							"internalType": "uint256",
							"name": "invoiceAmount",
							"type": "uint256"
						},
						{
							"internalType": "uint256",
							"name": "invoiceDate",
							"type": "uint256"
						},
						{
							"internalType": "uint256",
							"name": "invoiceNo",
							"type": "uint256"
						},
						{
							"internalType": "enum Invoice.paymentStatuses",
							"name": "paymentStatus",
							"type": "uint8"
						}
					],
					"stateMutability": "view",
					"type": "function"
				},
				{
					"inputs": [
						{
							"internalType": "uint256",
							"name": "_invoiceId",
							"type": "uint256"
						},
						{
							"internalType": "bool",
							"name": "isPaymentCompleted",
							"type": "bool"
						}
					],
					"name": "UpdatePaymentStatus",
					"outputs": [
						{
							"components": [
								{
									"internalType": "uint256",
									"name": "invoiceId",
									"type": "uint256"
								},
								{
									"internalType": "string",
									"name": "buyerPAN",
									"type": "string"
								},
								{
									"internalType": "string",
									"name": "sellerPAN",
									"type": "string"
								},
								{
									"internalType": "uint256",
									"name": "invoiceAmount",
									"type": "uint256"
								},
								{
									"internalType": "uint256",
									"name": "invoiceDate",
									"type": "uint256"
								},
								{
									"internalType": "uint256",
									"name": "invoiceNo",
									"type": "uint256"
								},
								{
									"internalType": "enum Invoice.paymentStatuses",
									"name": "paymentStatus",
									"type": "uint8"
								}
							],
							"internalType": "struct Invoice.Invoice",
							"name": "",
							"type": "tuple"
						}
					],
					"stateMutability": "nonpayable",
					"type": "function"
				},
				{
					"inputs": [
						{
							"internalType": "string",
							"name": "_buyerPAN",
							"type": "string"
						},
						{
							"internalType": "string",
							"name": "_sellerPAN",
							"type": "string"
						},
						{
							"internalType": "uint256",
							"name": "_invoiceAmount",
							"type": "uint256"
						}
					],
					"name": "_invoiceCreation",
					"outputs": [
						{
							"internalType": "uint256",
							"name": "",
							"type": "uint256"
						}
					],
					"stateMutability": "nonpayable",
					"type": "function"
				},
				{
					"inputs": [],
					"name": "acceptOwnership",
					"outputs": [],
					"stateMutability": "nonpayable",
					"type": "function"
				},
				{
					"inputs": [
						{
							"internalType": "string",
							"name": "",
							"type": "string"
						}
					],
					"name": "buyerPANCount",
					"outputs": [
						{
							"internalType": "uint256",
							"name": "",
							"type": "uint256"
						}
					],
					"stateMutability": "view",
					"type": "function"
				},
				{
					"inputs": [
						{
							"internalType": "string",
							"name": "_buyerPAN",
							"type": "string"
						}
					],
					"name": "getInvoicesByPan",
					"outputs": [
						{
							"components": [
								{
									"internalType": "uint256",
									"name": "invoiceId",
									"type": "uint256"
								},
								{
									"internalType": "string",
									"name": "buyerPAN",
									"type": "string"
								},
								{
									"internalType": "string",
									"name": "sellerPAN",
									"type": "string"
								},
								{
									"internalType": "uint256",
									"name": "invoiceAmount",
									"type": "uint256"
								},
								{
									"internalType": "uint256",
									"name": "invoiceDate",
									"type": "uint256"
								},
								{
									"internalType": "uint256",
									"name": "invoiceNo",
									"type": "uint256"
								},
								{
									"internalType": "enum Invoice.paymentStatuses",
									"name": "paymentStatus",
									"type": "uint8"
								}
							],
							"internalType": "struct Invoice.Invoice[]",
							"name": "",
							"type": "tuple[]"
						}
					],
					"stateMutability": "view",
					"type": "function"
				},
				{
					"inputs": [
						{
							"internalType": "uint256",
							"name": "_invoiceId",
							"type": "uint256"
						}
					],
					"name": "getPaymentStatus",
					"outputs": [
						{
							"internalType": "enum Invoice.paymentStatuses",
							"name": "",
							"type": "uint8"
						}
					],
					"stateMutability": "view",
					"type": "function"
				},
				{
					"inputs": [
						{
							"internalType": "uint256",
							"name": "",
							"type": "uint256"
						}
					],
					"name": "invoiceIdtoInvoice",
					"outputs": [
						{
							"internalType": "uint256",
							"name": "invoiceId",
							"type": "uint256"
						},
						{
							"internalType": "string",
							"name": "buyerPAN",
							"type": "string"
						},
						{
							"internalType": "string",
							"name": "sellerPAN",
							"type": "string"
						},
						{
							"internalType": "uint256",
							"name": "invoiceAmount",
							"type": "uint256"
						},
						{
							"internalType": "uint256",
							"name": "invoiceDate",
							"type": "uint256"
						},
						{
							"internalType": "uint256",
							"name": "invoiceNo",
							"type": "uint256"
						},
						{
							"internalType": "enum Invoice.paymentStatuses",
							"name": "paymentStatus",
							"type": "uint8"
						}
					],
					"stateMutability": "view",
					"type": "function"
				},
				{
					"inputs": [],
					"name": "owner",
					"outputs": [
						{
							"internalType": "address",
							"name": "",
							"type": "address"
						}
					],
					"stateMutability": "view",
					"type": "function"
				},
				{
					"inputs": [
						{
							"internalType": "address",
							"name": "to",
							"type": "address"
						}
					],
					"name": "transferOwnership",
					"outputs": [],
					"stateMutability": "nonpayable",
					"type": "function"
				}
			],
			"devdoc": {
				"kind": "dev",
				"methods": {},
				"version": 1
			},
			"evm": {
				"assembly": "    /* \"contracts/Invoice.sol\":152:3376  contract Invoice is ConfirmedOwner(msg.sender) {... */\n  mstore(0x40, 0x80)\n    /* \"contracts/Invoice.sol\":532:533  0 */\n  0x00\n    /* \"contracts/Invoice.sol\":515:533  uint randNonce = 0 */\n  0x02\n  sstore\n    /* \"contracts/Invoice.sol\":152:3376  contract Invoice is ConfirmedOwner(msg.sender) {... */\n  callvalue\n  dup1\n  iszero\n  tag_1\n  jumpi\n  0x00\n  dup1\n  revert\ntag_1:\n  pop\n    /* \"contracts/Invoice.sol\":187:197  msg.sender */\n  caller\n    /* \"@chainlink/contracts/src/v0.8/ConfirmedOwner.sol\":327:335  newOwner */\n  dup1\n    /* \"@chainlink/contracts/src/v0.8/ConfirmedOwner.sol\":345:346  0 */\n  0x00\n    /* \"@chainlink/contracts/src/v0.8/ConfirmedOwnerWithProposal.sol\":572:573  0 */\n  dup1\n    /* \"@chainlink/contracts/src/v0.8/ConfirmedOwnerWithProposal.sol\":552:574  newOwner != address(0) */\n  0xffffffffffffffffffffffffffffffffffffffff\n  and\n    /* \"@chainlink/contracts/src/v0.8/ConfirmedOwnerWithProposal.sol\":552:560  newOwner */\n  dup3\n    /* \"@chainlink/contracts/src/v0.8/ConfirmedOwnerWithProposal.sol\":552:574  newOwner != address(0) */\n  0xffffffffffffffffffffffffffffffffffffffff\n  and\n  eq\n  iszero\n    /* \"@chainlink/contracts/src/v0.8/ConfirmedOwnerWithProposal.sol\":544:603  require(newOwner != address(0), \"Cannot set owner to zero\") */\n  tag_5\n  jumpi\n  mload(0x40)\n  0x08c379a000000000000000000000000000000000000000000000000000000000\n  dup2\n  mstore\n  0x04\n  add\n  tag_6\n  swap1\n  tag_7\n  jump\t// in\ntag_6:\n  mload(0x40)\n  dup1\n  swap2\n  sub\n  swap1\n  revert\ntag_5:\n    /* \"@chainlink/contracts/src/v0.8/ConfirmedOwnerWithProposal.sol\":620:628  newOwner */\n  dup2\n    /* \"@chainlink/contracts/src/v0.8/ConfirmedOwnerWithProposal.sol\":610:617  s_owner */\n  0x00\n  dup1\n    /* \"@chainlink/contracts/src/v0.8/ConfirmedOwnerWithProposal.sol\":610:628  s_owner = newOwner */\n  0x0100\n  exp\n  dup2\n  sload\n  dup2\n  0xffffffffffffffffffffffffffffffffffffffff\n  mul\n  not\n  and\n  swap1\n  dup4\n  0xffffffffffffffffffffffffffffffffffffffff\n  and\n  mul\n  or\n  swap1\n  sstore\n  pop\n    /* \"@chainlink/contracts/src/v0.8/ConfirmedOwnerWithProposal.sol\":662:663  0 */\n  0x00\n    /* \"@chainlink/contracts/src/v0.8/ConfirmedOwnerWithProposal.sol\":638:664  pendingOwner != address(0) */\n  0xffffffffffffffffffffffffffffffffffffffff\n  and\n    /* \"@chainlink/contracts/src/v0.8/ConfirmedOwnerWithProposal.sol\":638:650  pendingOwner */\n  dup2\n    /* \"@chainlink/contracts/src/v0.8/ConfirmedOwnerWithProposal.sol\":638:664  pendingOwner != address(0) */\n  0xffffffffffffffffffffffffffffffffffffffff\n  and\n  eq\n    /* \"@chainlink/contracts/src/v0.8/ConfirmedOwnerWithProposal.sol\":634:713  if (pendingOwner != address(0)) {... */\n  tag_8\n  jumpi\n    /* \"@chainlink/contracts/src/v0.8/ConfirmedOwnerWithProposal.sol\":674:706  _transferOwnership(pendingOwner) */\n  tag_9\n    /* \"@chainlink/contracts/src/v0.8/ConfirmedOwnerWithProposal.sol\":693:705  pendingOwner */\n  dup2\n    /* \"@chainlink/contracts/src/v0.8/ConfirmedOwnerWithProposal.sol\":674:692  _transferOwnership */\n  shl(0x20, tag_10)\n    /* \"@chainlink/contracts/src/v0.8/ConfirmedOwnerWithProposal.sol\":674:706  _transferOwnership(pendingOwner) */\n  0x20\n  shr\n  jump\t// in\ntag_9:\n    /* \"@chainlink/contracts/src/v0.8/ConfirmedOwnerWithProposal.sol\":634:713  if (pendingOwner != address(0)) {... */\ntag_8:\n    /* \"@chainlink/contracts/src/v0.8/ConfirmedOwnerWithProposal.sol\":486:717  constructor(address newOwner, address pendingOwner) {... */\n  pop\n  pop\n    /* \"@chainlink/contracts/src/v0.8/ConfirmedOwner.sol\":270:351  constructor(address newOwner) ConfirmedOwnerWithProposal(newOwner, address(0)) {} */\n  pop\n    /* \"contracts/Invoice.sol\":152:3376  contract Invoice is ConfirmedOwner(msg.sender) {... */\n  jump(tag_12)\n    /* \"@chainlink/contracts/src/v0.8/ConfirmedOwnerWithProposal.sol\":1497:1685  function _transferOwnership(address to) private {... */\ntag_10:\n    /* \"@chainlink/contracts/src/v0.8/ConfirmedOwnerWithProposal.sol\":1565:1575  msg.sender */\n  caller\n    /* \"@chainlink/contracts/src/v0.8/ConfirmedOwnerWithProposal.sol\":1559:1575  to != msg.sender */\n  0xffffffffffffffffffffffffffffffffffffffff\n  and\n    /* \"@chainlink/contracts/src/v0.8/ConfirmedOwnerWithProposal.sol\":1559:1561  to */\n  dup2\n    /* \"@chainlink/contracts/src/v0.8/ConfirmedOwnerWithProposal.sol\":1559:1575  to != msg.sender */\n  0xffffffffffffffffffffffffffffffffffffffff\n  and\n  eq\n  iszero\n    /* \"@chainlink/contracts/src/v0.8/ConfirmedOwnerWithProposal.sol\":1551:1603  require(to != msg.sender, \"Cannot transfer to self\") */\n  tag_14\n  jumpi\n  mload(0x40)\n  0x08c379a000000000000000000000000000000000000000000000000000000000\n  dup2\n  mstore\n  0x04\n  add\n  tag_15\n  swap1\n  tag_16\n  jump\t// in\ntag_15:\n  mload(0x40)\n  dup1\n  swap2\n  sub\n  swap1\n  revert\ntag_14:\n    /* \"@chainlink/contracts/src/v0.8/ConfirmedOwnerWithProposal.sol\":1627:1629  to */\n  dup1\n    /* \"@chainlink/contracts/src/v0.8/ConfirmedOwnerWithProposal.sol\":1610:1624  s_pendingOwner */\n  0x01\n  0x00\n    /* \"@chainlink/contracts/src/v0.8/ConfirmedOwnerWithProposal.sol\":1610:1629  s_pendingOwner = to */\n  0x0100\n  exp\n  dup2\n  sload\n  dup2\n  0xffffffffffffffffffffffffffffffffffffffff\n  mul\n  not\n  and\n  swap1\n  dup4\n  0xffffffffffffffffffffffffffffffffffffffff\n  and\n  mul\n  or\n  swap1\n  sstore\n  pop\n    /* \"@chainlink/contracts/src/v0.8/ConfirmedOwnerWithProposal.sol\":1677:1679  to */\n  dup1\n    /* \"@chainlink/contracts/src/v0.8/ConfirmedOwnerWithProposal.sol\":1641:1680  OwnershipTransferRequested(s_owner, to) */\n  0xffffffffffffffffffffffffffffffffffffffff\n  and\n    /* \"@chainlink/contracts/src/v0.8/ConfirmedOwnerWithProposal.sol\":1668:1675  s_owner */\n  0x00\n  dup1\n  sload\n  swap1\n  0x0100\n  exp\n  swap1\n  div\n  0xffffffffffffffffffffffffffffffffffffffff\n  and\n    /* \"@chainlink/contracts/src/v0.8/ConfirmedOwnerWithProposal.sol\":1641:1680  OwnershipTransferRequested(s_owner, to) */\n  0xffffffffffffffffffffffffffffffffffffffff\n  and\n  0xed8889f560326eb138920d842192f0eb3dd22b4f139c87a2c57538e05bae1278\n  mload(0x40)\n  mload(0x40)\n  dup1\n  swap2\n  sub\n  swap1\n  log3\n    /* \"@chainlink/contracts/src/v0.8/ConfirmedOwnerWithProposal.sol\":1497:1685  function _transferOwnership(address to) private {... */\n  pop\n  jump\t// out\n    /* \"#utility.yul\":7:176   */\ntag_17:\n    /* \"#utility.yul\":91:102   */\n  0x00\n    /* \"#utility.yul\":125:131   */\n  dup3\n    /* \"#utility.yul\":120:123   */\n  dup3\n    /* \"#utility.yul\":113:132   */\n  mstore\n    /* \"#utility.yul\":165:169   */\n  0x20\n    /* \"#utility.yul\":160:163   */\n  dup3\n    /* \"#utility.yul\":156:170   */\n  add\n    /* \"#utility.yul\":141:170   */\n  swap1\n  pop\n    /* \"#utility.yul\":7:176   */\n  swap3\n  swap2\n  pop\n  pop\n  jump\t// out\n    /* \"#utility.yul\":182:356   */\ntag_18:\n    /* \"#utility.yul\":322:348   */\n  0x43616e6e6f7420736574206f776e657220746f207a65726f0000000000000000\n    /* \"#utility.yul\":318:319   */\n  0x00\n    /* \"#utility.yul\":310:316   */\n  dup3\n    /* \"#utility.yul\":306:320   */\n  add\n    /* \"#utility.yul\":299:349   */\n  mstore\n    /* \"#utility.yul\":182:356   */\n  pop\n  jump\t// out\n    /* \"#utility.yul\":362:728   */\ntag_19:\n    /* \"#utility.yul\":504:507   */\n  0x00\n    /* \"#utility.yul\":525:592   */\n  tag_26\n    /* \"#utility.yul\":589:591   */\n  0x18\n    /* \"#utility.yul\":584:587   */\n  dup4\n    /* \"#utility.yul\":525:592   */\n  tag_17\n  jump\t// in\ntag_26:\n    /* \"#utility.yul\":518:592   */\n  swap2\n  pop\n    /* \"#utility.yul\":601:694   */\n  tag_27\n    /* \"#utility.yul\":690:693   */\n  dup3\n    /* \"#utility.yul\":601:694   */\n  tag_18\n  jump\t// in\ntag_27:\n    /* \"#utility.yul\":719:721   */\n  0x20\n    /* \"#utility.yul\":714:717   */\n  dup3\n    /* \"#utility.yul\":710:722   */\n  add\n    /* \"#utility.yul\":703:722   */\n  swap1\n  pop\n    /* \"#utility.yul\":362:728   */\n  swap2\n  swap1\n  pop\n  jump\t// out\n    /* \"#utility.yul\":734:1153   */\ntag_7:\n    /* \"#utility.yul\":900:904   */\n  0x00\n    /* \"#utility.yul\":938:940   */\n  0x20\n    /* \"#utility.yul\":927:936   */\n  dup3\n    /* \"#utility.yul\":923:941   */\n  add\n    /* \"#utility.yul\":915:941   */\n  swap1\n  pop\n    /* \"#utility.yul\":987:996   */\n  dup2\n    /* \"#utility.yul\":981:985   */\n  dup2\n    /* \"#utility.yul\":977:997   */\n  sub\n    /* \"#utility.yul\":973:974   */\n  0x00\n    /* \"#utility.yul\":962:971   */\n  dup4\n    /* \"#utility.yul\":958:975   */\n  add\n    /* \"#utility.yul\":951:998   */\n  mstore\n    /* \"#utility.yul\":1015:1146   */\n  tag_29\n    /* \"#utility.yul\":1141:1145   */\n  dup2\n    /* \"#utility.yul\":1015:1146   */\n  tag_19\n  jump\t// in\ntag_29:\n    /* \"#utility.yul\":1007:1146   */\n  swap1\n  pop\n    /* \"#utility.yul\":734:1153   */\n  swap2\n  swap1\n  pop\n  jump\t// out\n    /* \"#utility.yul\":1159:1332   */\ntag_20:\n    /* \"#utility.yul\":1299:1324   */\n  0x43616e6e6f74207472616e7366657220746f2073656c66000000000000000000\n    /* \"#utility.yul\":1295:1296   */\n  0x00\n    /* \"#utility.yul\":1287:1293   */\n  dup3\n    /* \"#utility.yul\":1283:1297   */\n  add\n    /* \"#utility.yul\":1276:1325   */\n  mstore\n    /* \"#utility.yul\":1159:1332   */\n  pop\n  jump\t// out\n    /* \"#utility.yul\":1338:1704   */\ntag_21:\n    /* \"#utility.yul\":1480:1483   */\n  0x00\n    /* \"#utility.yul\":1501:1568   */\n  tag_32\n    /* \"#utility.yul\":1565:1567   */\n  0x17\n    /* \"#utility.yul\":1560:1563   */\n  dup4\n    /* \"#utility.yul\":1501:1568   */\n  tag_17\n  jump\t// in\ntag_32:\n    /* \"#utility.yul\":1494:1568   */\n  swap2\n  pop\n    /* \"#utility.yul\":1577:1670   */\n  tag_33\n    /* \"#utility.yul\":1666:1669   */\n  dup3\n    /* \"#utility.yul\":1577:1670   */\n  tag_20\n  jump\t// in\ntag_33:\n    /* \"#utility.yul\":1695:1697   */\n  0x20\n    /* \"#utility.yul\":1690:1693   */\n  dup3\n    /* \"#utility.yul\":1686:1698   */\n  add\n    /* \"#utility.yul\":1679:1698   */\n  swap1\n  pop\n    /* \"#utility.yul\":1338:1704   */\n  swap2\n  swap1\n  pop\n  jump\t// out\n    /* \"#utility.yul\":1710:2129   */\ntag_16:\n    /* \"#utility.yul\":1876:1880   */\n  0x00\n    /* \"#utility.yul\":1914:1916   */\n  0x20\n    /* \"#utility.yul\":1903:1912   */\n  dup3\n    /* \"#utility.yul\":1899:1917   */\n  add\n    /* \"#utility.yul\":1891:1917   */\n  swap1\n  pop\n    /* \"#utility.yul\":1963:1972   */\n  dup2\n    /* \"#utility.yul\":1957:1961   */\n  dup2\n    /* \"#utility.yul\":1953:1973   */\n  sub\n    /* \"#utility.yul\":1949:1950   */\n  0x00\n    /* \"#utility.yul\":1938:1947   */\n  dup4\n    /* \"#utility.yul\":1934:1951   */\n  add\n    /* \"#utility.yul\":1927:1974   */\n  mstore\n    /* \"#utility.yul\":1991:2122   */\n  tag_35\n    /* \"#utility.yul\":2117:2121   */\n  dup2\n    /* \"#utility.yul\":1991:2122   */\n  tag_21\n  jump\t// in\ntag_35:\n    /* \"#utility.yul\":1983:2122   */\n  swap1\n  pop\n    /* \"#utility.yul\":1710:2129   */\n  swap2\n  swap1\n  pop\n  jump\t// out\n    /* \"contracts/Invoice.sol\":152:3376  contract Invoice is ConfirmedOwner(msg.sender) {... */\ntag_12:\n  dataSize(sub_0)\n  dup1\n  dataOffset(sub_0)\n  0x00\n  codecopy\n  0x00\n  return\nstop\n\nsub_0: assembly {\n        /* \"contracts/Invoice.sol\":152:3376  contract Invoice is ConfirmedOwner(msg.sender) {... */\n      mstore(0x40, 0x80)\n      callvalue\n      dup1\n      iszero\n      tag_1\n      jumpi\n      0x00\n      dup1\n      revert\n    tag_1:\n      pop\n      jumpi(tag_2, lt(calldatasize, 0x04))\n      shr(0xe0, calldataload(0x00))\n      dup1\n      0x79ba5097\n      gt\n      tag_13\n      jumpi\n      dup1\n      0x79ba5097\n      eq\n      tag_8\n      jumpi\n      dup1\n      0x83e8e6a4\n      eq\n      tag_9\n      jumpi\n      dup1\n      0x8da5cb5b\n      eq\n      tag_10\n      jumpi\n      dup1\n      0xa1650043\n      eq\n      tag_11\n      jumpi\n      dup1\n      0xf2fde38b\n      eq\n      tag_12\n      jumpi\n      jump(tag_2)\n    tag_13:\n      dup1\n      0x24c407b1\n      eq\n      tag_3\n      jumpi\n      dup1\n      0x286f44ef\n      eq\n      tag_4\n      jumpi\n      dup1\n      0x5ef3fc61\n      eq\n      tag_5\n      jumpi\n      dup1\n      0x602640cd\n      eq\n      tag_6\n      jumpi\n      dup1\n      0x6f522e50\n      eq\n      tag_7\n      jumpi\n    tag_2:\n      0x00\n      dup1\n      revert\n        /* \"contracts/Invoice.sol\":1606:2209  function UpdatePaymentStatus(uint _invoiceId,bool isPaymentCompleted) external onlyOwner returns(Invoice memory){... */\n    tag_3:\n      tag_14\n      0x04\n      dup1\n      calldatasize\n      sub\n      dup2\n      add\n      swap1\n      tag_15\n      swap2\n      swap1\n      tag_16\n      jump\t// in\n    tag_15:\n      tag_17\n      jump\t// in\n    tag_14:\n      mload(0x40)\n      tag_18\n      swap2\n      swap1\n      tag_19\n      jump\t// in\n    tag_18:\n      mload(0x40)\n      dup1\n      swap2\n      sub\n      swap1\n      return\n        /* \"contracts/Invoice.sol\":597:641  mapping(string => uint) public buyerPANCount */\n    tag_4:\n      tag_20\n      0x04\n      dup1\n      calldatasize\n      sub\n      dup2\n      add\n      swap1\n      tag_21\n      swap2\n      swap1\n      tag_22\n      jump\t// in\n    tag_21:\n      tag_23\n      jump\t// in\n    tag_20:\n      mload(0x40)\n      tag_24\n      swap2\n      swap1\n      tag_25\n      jump\t// in\n    tag_24:\n      mload(0x40)\n      dup1\n      swap2\n      sub\n      swap1\n      return\n        /* \"contracts/Invoice.sol\":648:673  Invoice[] public Invoices */\n    tag_5:\n      tag_26\n      0x04\n      dup1\n      calldatasize\n      sub\n      dup2\n      add\n      swap1\n      tag_27\n      swap2\n      swap1\n      tag_28\n      jump\t// in\n    tag_27:\n      tag_29\n      jump\t// in\n    tag_26:\n      mload(0x40)\n      tag_30\n      swap8\n      swap7\n      swap6\n      swap5\n      swap4\n      swap3\n      swap2\n      swap1\n      tag_31\n      jump\t// in\n    tag_30:\n      mload(0x40)\n      dup1\n      swap2\n      sub\n      swap1\n      return\n        /* \"contracts/Invoice.sol\":705:1356  function _invoiceCreation(string memory _buyerPAN,string memory _sellerPAN,uint256 _invoiceAmount) external onlyOwner returns(uint) {... */\n    tag_6:\n      tag_32\n      0x04\n      dup1\n      calldatasize\n      sub\n      dup2\n      add\n      swap1\n      tag_33\n      swap2\n      swap1\n      tag_34\n      jump\t// in\n    tag_33:\n      tag_35\n      jump\t// in\n    tag_32:\n      mload(0x40)\n      tag_36\n      swap2\n      swap1\n      tag_25\n      jump\t// in\n    tag_36:\n      mload(0x40)\n      dup1\n      swap2\n      sub\n      swap1\n      return\n        /* \"contracts/Invoice.sol\":540:590  mapping(uint => Invoice) public invoiceIdtoInvoice */\n    tag_7:\n      tag_37\n      0x04\n      dup1\n      calldatasize\n      sub\n      dup2\n      add\n      swap1\n      tag_38\n      swap2\n      swap1\n      tag_28\n      jump\t// in\n    tag_38:\n      tag_39\n      jump\t// in\n    tag_37:\n      mload(0x40)\n      tag_40\n      swap8\n      swap7\n      swap6\n      swap5\n      swap4\n      swap3\n      swap2\n      swap1\n      tag_31\n      jump\t// in\n    tag_40:\n      mload(0x40)\n      dup1\n      swap2\n      sub\n      swap1\n      return\n        /* \"@chainlink/contracts/src/v0.8/ConfirmedOwnerWithProposal.sol\":1016:1281  function acceptOwnership() external override {... */\n    tag_8:\n      tag_41\n      tag_42\n      jump\t// in\n    tag_41:\n      stop\n        /* \"contracts/Invoice.sol\":2283:2776  function getInvoicesByPan(string memory _buyerPAN) external view returns(Invoice[] memory) {... */\n    tag_9:\n      tag_43\n      0x04\n      dup1\n      calldatasize\n      sub\n      dup2\n      add\n      swap1\n      tag_44\n      swap2\n      swap1\n      tag_22\n      jump\t// in\n    tag_44:\n      tag_45\n      jump\t// in\n    tag_43:\n      mload(0x40)\n      tag_46\n      swap2\n      swap1\n      tag_47\n      jump\t// in\n    tag_46:\n      mload(0x40)\n      dup1\n      swap2\n      sub\n      swap1\n      return\n        /* \"@chainlink/contracts/src/v0.8/ConfirmedOwnerWithProposal.sol\":1332:1413  function owner() public view override returns (address) {... */\n    tag_10:\n      tag_48\n      tag_49\n      jump\t// in\n    tag_48:\n      mload(0x40)\n      tag_50\n      swap2\n      swap1\n      tag_51\n      jump\t// in\n    tag_50:\n      mload(0x40)\n      dup1\n      swap2\n      sub\n      swap1\n      return\n        /* \"contracts/Invoice.sol\":1404:1555  function getPaymentStatus(uint _invoiceId) external view returns(paymentStatuses){... */\n    tag_11:\n      tag_52\n      0x04\n      dup1\n      calldatasize\n      sub\n      dup2\n      add\n      swap1\n      tag_53\n      swap2\n      swap1\n      tag_28\n      jump\t// in\n    tag_53:\n      tag_54\n      jump\t// in\n    tag_52:\n      mload(0x40)\n      tag_55\n      swap2\n      swap1\n      tag_56\n      jump\t// in\n    tag_55:\n      mload(0x40)\n      dup1\n      swap2\n      sub\n      swap1\n      return\n        /* \"@chainlink/contracts/src/v0.8/ConfirmedOwnerWithProposal.sol\":826:924  function transferOwnership(address to) public override onlyOwner {... */\n    tag_12:\n      tag_57\n      0x04\n      dup1\n      calldatasize\n      sub\n      dup2\n      add\n      swap1\n      tag_58\n      swap2\n      swap1\n      tag_59\n      jump\t// in\n    tag_58:\n      tag_60\n      jump\t// in\n    tag_57:\n      stop\n        /* \"contracts/Invoice.sol\":1606:2209  function UpdatePaymentStatus(uint _invoiceId,bool isPaymentCompleted) external onlyOwner returns(Invoice memory){... */\n    tag_17:\n        /* \"contracts/Invoice.sol\":1703:1717  Invoice memory */\n      tag_61\n      tag_62\n      jump\t// in\n    tag_61:\n        /* \"@chainlink/contracts/src/v0.8/ConfirmedOwnerWithProposal.sol\":1956:1976  _validateOwnership() */\n      tag_64\n        /* \"@chainlink/contracts/src/v0.8/ConfirmedOwnerWithProposal.sol\":1956:1974  _validateOwnership */\n      tag_65\n        /* \"@chainlink/contracts/src/v0.8/ConfirmedOwnerWithProposal.sol\":1956:1976  _validateOwnership() */\n      jump\t// in\n    tag_64:\n        /* \"contracts/Invoice.sol\":1732:1750  isPaymentCompleted */\n      dup2\n        /* \"contracts/Invoice.sol\":1729:2154  if(isPaymentCompleted){... */\n      iszero\n      tag_67\n      jumpi\n        /* \"contracts/Invoice.sol\":1833:1853  paymentStatuses.PAID */\n      0x01\n        /* \"contracts/Invoice.sol\":1766:1774  Invoices */\n      0x05\n        /* \"contracts/Invoice.sol\":1775:1793  invoiceIdtoInvoice */\n      0x03\n        /* \"contracts/Invoice.sol\":1775:1805  invoiceIdtoInvoice[_invoiceId] */\n      0x00\n        /* \"contracts/Invoice.sol\":1794:1804  _invoiceId */\n      dup7\n        /* \"contracts/Invoice.sol\":1775:1805  invoiceIdtoInvoice[_invoiceId] */\n      dup2\n      mstore\n      0x20\n      add\n      swap1\n      dup2\n      mstore\n      0x20\n      add\n      0x00\n      keccak256\n        /* \"contracts/Invoice.sol\":1775:1815  invoiceIdtoInvoice[_invoiceId].invoiceNo */\n      0x05\n      add\n      sload\n        /* \"contracts/Invoice.sol\":1766:1816  Invoices[invoiceIdtoInvoice[_invoiceId].invoiceNo] */\n      dup2\n      sload\n      dup2\n      lt\n      tag_68\n      jumpi\n      tag_69\n      tag_70\n      jump\t// in\n    tag_69:\n    tag_68:\n      swap1\n      0x00\n      mstore\n      keccak256(0x00, 0x20)\n      swap1\n      0x07\n      mul\n      add\n        /* \"contracts/Invoice.sol\":1766:1830  Invoices[invoiceIdtoInvoice[_invoiceId].invoiceNo].paymentStatus */\n      0x06\n      add\n      0x00\n        /* \"contracts/Invoice.sol\":1766:1853  Invoices[invoiceIdtoInvoice[_invoiceId].invoiceNo].paymentStatus = paymentStatuses.PAID */\n      0x0100\n      exp\n      dup2\n      sload\n      dup2\n      0xff\n      mul\n      not\n      and\n      swap1\n      dup4\n      0x01\n      dup2\n      gt\n      iszero\n      tag_72\n      jumpi\n      tag_73\n      tag_74\n      jump\t// in\n    tag_73:\n    tag_72:\n      mul\n      or\n      swap1\n      sstore\n      pop\n        /* \"contracts/Invoice.sol\":1915:1935  paymentStatuses.PAID */\n      0x01\n        /* \"contracts/Invoice.sol\":1868:1886  invoiceIdtoInvoice */\n      0x03\n        /* \"contracts/Invoice.sol\":1868:1898  invoiceIdtoInvoice[_invoiceId] */\n      0x00\n        /* \"contracts/Invoice.sol\":1887:1897  _invoiceId */\n      dup6\n        /* \"contracts/Invoice.sol\":1868:1898  invoiceIdtoInvoice[_invoiceId] */\n      dup2\n      mstore\n      0x20\n      add\n      swap1\n      dup2\n      mstore\n      0x20\n      add\n      0x00\n      keccak256\n        /* \"contracts/Invoice.sol\":1868:1912  invoiceIdtoInvoice[_invoiceId].paymentStatus */\n      0x06\n      add\n      0x00\n        /* \"contracts/Invoice.sol\":1868:1935  invoiceIdtoInvoice[_invoiceId].paymentStatus = paymentStatuses.PAID */\n      0x0100\n      exp\n      dup2\n      sload\n      dup2\n      0xff\n      mul\n      not\n      and\n      swap1\n      dup4\n      0x01\n      dup2\n      gt\n      iszero\n      tag_75\n      jumpi\n      tag_76\n      tag_74\n      jump\t// in\n    tag_76:\n    tag_75:\n      mul\n      or\n      swap1\n      sstore\n      pop\n        /* \"contracts/Invoice.sol\":1729:2154  if(isPaymentCompleted){... */\n      jump(tag_77)\n    tag_67:\n        /* \"contracts/Invoice.sol\":2034:2057  paymentStatuses.PENDING */\n      0x00\n        /* \"contracts/Invoice.sol\":1967:1975  Invoices */\n      0x05\n        /* \"contracts/Invoice.sol\":1976:1994  invoiceIdtoInvoice */\n      0x03\n        /* \"contracts/Invoice.sol\":1976:2006  invoiceIdtoInvoice[_invoiceId] */\n      0x00\n        /* \"contracts/Invoice.sol\":1995:2005  _invoiceId */\n      dup7\n        /* \"contracts/Invoice.sol\":1976:2006  invoiceIdtoInvoice[_invoiceId] */\n      dup2\n      mstore\n      0x20\n      add\n      swap1\n      dup2\n      mstore\n      0x20\n      add\n      0x00\n      keccak256\n        /* \"contracts/Invoice.sol\":1976:2016  invoiceIdtoInvoice[_invoiceId].invoiceNo */\n      0x05\n      add\n      sload\n        /* \"contracts/Invoice.sol\":1967:2017  Invoices[invoiceIdtoInvoice[_invoiceId].invoiceNo] */\n      dup2\n      sload\n      dup2\n      lt\n      tag_78\n      jumpi\n      tag_79\n      tag_70\n      jump\t// in\n    tag_79:\n    tag_78:\n      swap1\n      0x00\n      mstore\n      keccak256(0x00, 0x20)\n      swap1\n      0x07\n      mul\n      add\n        /* \"contracts/Invoice.sol\":1967:2031  Invoices[invoiceIdtoInvoice[_invoiceId].invoiceNo].paymentStatus */\n      0x06\n      add\n      0x00\n        /* \"contracts/Invoice.sol\":1967:2057  Invoices[invoiceIdtoInvoice[_invoiceId].invoiceNo].paymentStatus = paymentStatuses.PENDING */\n      0x0100\n      exp\n      dup2\n      sload\n      dup2\n      0xff\n      mul\n      not\n      and\n      swap1\n      dup4\n      0x01\n      dup2\n      gt\n      iszero\n      tag_81\n      jumpi\n      tag_82\n      tag_74\n      jump\t// in\n    tag_82:\n    tag_81:\n      mul\n      or\n      swap1\n      sstore\n      pop\n        /* \"contracts/Invoice.sol\":2119:2142  paymentStatuses.PENDING */\n      0x00\n        /* \"contracts/Invoice.sol\":2072:2090  invoiceIdtoInvoice */\n      0x03\n        /* \"contracts/Invoice.sol\":2072:2102  invoiceIdtoInvoice[_invoiceId] */\n      0x00\n        /* \"contracts/Invoice.sol\":2091:2101  _invoiceId */\n      dup6\n        /* \"contracts/Invoice.sol\":2072:2102  invoiceIdtoInvoice[_invoiceId] */\n      dup2\n      mstore\n      0x20\n      add\n      swap1\n      dup2\n      mstore\n      0x20\n      add\n      0x00\n      keccak256\n        /* \"contracts/Invoice.sol\":2072:2116  invoiceIdtoInvoice[_invoiceId].paymentStatus */\n      0x06\n      add\n      0x00\n        /* \"contracts/Invoice.sol\":2072:2142  invoiceIdtoInvoice[_invoiceId].paymentStatus = paymentStatuses.PENDING */\n      0x0100\n      exp\n      dup2\n      sload\n      dup2\n      0xff\n      mul\n      not\n      and\n      swap1\n      dup4\n      0x01\n      dup2\n      gt\n      iszero\n      tag_83\n      jumpi\n      tag_84\n      tag_74\n      jump\t// in\n    tag_84:\n    tag_83:\n      mul\n      or\n      swap1\n      sstore\n      pop\n        /* \"contracts/Invoice.sol\":1729:2154  if(isPaymentCompleted){... */\n    tag_77:\n        /* \"contracts/Invoice.sol\":2171:2189  invoiceIdtoInvoice */\n      0x03\n        /* \"contracts/Invoice.sol\":2171:2201  invoiceIdtoInvoice[_invoiceId] */\n      0x00\n        /* \"contracts/Invoice.sol\":2190:2200  _invoiceId */\n      dup5\n        /* \"contracts/Invoice.sol\":2171:2201  invoiceIdtoInvoice[_invoiceId] */\n      dup2\n      mstore\n      0x20\n      add\n      swap1\n      dup2\n      mstore\n      0x20\n      add\n      0x00\n      keccak256\n        /* \"contracts/Invoice.sol\":2164:2201  return invoiceIdtoInvoice[_invoiceId] */\n      mload(0x40)\n      dup1\n      0xe0\n      add\n      0x40\n      mstore\n      swap1\n      dup2\n      0x00\n      dup3\n      add\n      sload\n      dup2\n      mstore\n      0x20\n      add\n      0x01\n      dup3\n      add\n      dup1\n      sload\n      tag_85\n      swap1\n      tag_86\n      jump\t// in\n    tag_85:\n      dup1\n      0x1f\n      add\n      0x20\n      dup1\n      swap2\n      div\n      mul\n      0x20\n      add\n      mload(0x40)\n      swap1\n      dup2\n      add\n      0x40\n      mstore\n      dup1\n      swap3\n      swap2\n      swap1\n      dup2\n      dup2\n      mstore\n      0x20\n      add\n      dup3\n      dup1\n      sload\n      tag_87\n      swap1\n      tag_86\n      jump\t// in\n    tag_87:\n      dup1\n      iszero\n      tag_88\n      jumpi\n      dup1\n      0x1f\n      lt\n      tag_89\n      jumpi\n      0x0100\n      dup1\n      dup4\n      sload\n      div\n      mul\n      dup4\n      mstore\n      swap2\n      0x20\n      add\n      swap2\n      jump(tag_88)\n    tag_89:\n      dup3\n      add\n      swap2\n      swap1\n      0x00\n      mstore\n      keccak256(0x00, 0x20)\n      swap1\n    tag_90:\n      dup2\n      sload\n      dup2\n      mstore\n      swap1\n      0x01\n      add\n      swap1\n      0x20\n      add\n      dup1\n      dup4\n      gt\n      tag_90\n      jumpi\n      dup3\n      swap1\n      sub\n      0x1f\n      and\n      dup3\n      add\n      swap2\n    tag_88:\n      pop\n      pop\n      pop\n      pop\n      pop\n      dup2\n      mstore\n      0x20\n      add\n      0x02\n      dup3\n      add\n      dup1\n      sload\n      tag_91\n      swap1\n      tag_86\n      jump\t// in\n    tag_91:\n      dup1\n      0x1f\n      add\n      0x20\n      dup1\n      swap2\n      div\n      mul\n      0x20\n      add\n      mload(0x40)\n      swap1\n      dup2\n      add\n      0x40\n      mstore\n      dup1\n      swap3\n      swap2\n      swap1\n      dup2\n      dup2\n      mstore\n      0x20\n      add\n      dup3\n      dup1\n      sload\n      tag_92\n      swap1\n      tag_86\n      jump\t// in\n    tag_92:\n      dup1\n      iszero\n      tag_93\n      jumpi\n      dup1\n      0x1f\n      lt\n      tag_94\n      jumpi\n      0x0100\n      dup1\n      dup4\n      sload\n      div\n      mul\n      dup4\n      mstore\n      swap2\n      0x20\n      add\n      swap2\n      jump(tag_93)\n    tag_94:\n      dup3\n      add\n      swap2\n      swap1\n      0x00\n      mstore\n      keccak256(0x00, 0x20)\n      swap1\n    tag_95:\n      dup2\n      sload\n      dup2\n      mstore\n      swap1\n      0x01\n      add\n      swap1\n      0x20\n      add\n      dup1\n      dup4\n      gt\n      tag_95\n      jumpi\n      dup3\n      swap1\n      sub\n      0x1f\n      and\n      dup3\n      add\n      swap2\n    tag_93:\n      pop\n      pop\n      pop\n      pop\n      pop\n      dup2\n      mstore\n      0x20\n      add\n      0x03\n      dup3\n      add\n      sload\n      dup2\n      mstore\n      0x20\n      add\n      0x04\n      dup3\n      add\n      sload\n      dup2\n      mstore\n      0x20\n      add\n      0x05\n      dup3\n      add\n      sload\n      dup2\n      mstore\n      0x20\n      add\n      0x06\n      dup3\n      add\n      0x00\n      swap1\n      sload\n      swap1\n      0x0100\n      exp\n      swap1\n      div\n      0xff\n      and\n      0x01\n      dup2\n      gt\n      iszero\n      tag_96\n      jumpi\n      tag_97\n      tag_74\n      jump\t// in\n    tag_97:\n    tag_96:\n      0x01\n      dup2\n      gt\n      iszero\n      tag_98\n      jumpi\n      tag_99\n      tag_74\n      jump\t// in\n    tag_99:\n    tag_98:\n      dup2\n      mstore\n      pop\n      pop\n      swap1\n      pop\n        /* \"contracts/Invoice.sol\":1606:2209  function UpdatePaymentStatus(uint _invoiceId,bool isPaymentCompleted) external onlyOwner returns(Invoice memory){... */\n      swap3\n      swap2\n      pop\n      pop\n      jump\t// out\n        /* \"contracts/Invoice.sol\":597:641  mapping(string => uint) public buyerPANCount */\n    tag_23:\n      0x04\n      dup2\n      dup1\n      mload\n      0x20\n      dup2\n      add\n      dup3\n      add\n      dup1\n      mload\n      dup5\n      dup3\n      mstore\n      0x20\n      dup4\n      add\n      0x20\n      dup6\n      add\n      keccak256\n      dup2\n      dup4\n      mstore\n      dup1\n      swap6\n      pop\n      pop\n      pop\n      pop\n      pop\n      pop\n      0x00\n      swap2\n      pop\n      swap1\n      pop\n      sload\n      dup2\n      jump\t// out\n        /* \"contracts/Invoice.sol\":648:673  Invoice[] public Invoices */\n    tag_29:\n      0x05\n      dup2\n      dup2\n      sload\n      dup2\n      lt\n      tag_100\n      jumpi\n      0x00\n      dup1\n      revert\n    tag_100:\n      swap1\n      0x00\n      mstore\n      keccak256(0x00, 0x20)\n      swap1\n      0x07\n      mul\n      add\n      0x00\n      swap2\n      pop\n      swap1\n      pop\n      dup1\n      0x00\n      add\n      sload\n      swap1\n      dup1\n      0x01\n      add\n      dup1\n      sload\n      tag_102\n      swap1\n      tag_86\n      jump\t// in\n    tag_102:\n      dup1\n      0x1f\n      add\n      0x20\n      dup1\n      swap2\n      div\n      mul\n      0x20\n      add\n      mload(0x40)\n      swap1\n      dup2\n      add\n      0x40\n      mstore\n      dup1\n      swap3\n      swap2\n      swap1\n      dup2\n      dup2\n      mstore\n      0x20\n      add\n      dup3\n      dup1\n      sload\n      tag_103\n      swap1\n      tag_86\n      jump\t// in\n    tag_103:\n      dup1\n      iszero\n      tag_104\n      jumpi\n      dup1\n      0x1f\n      lt\n      tag_105\n      jumpi\n      0x0100\n      dup1\n      dup4\n      sload\n      div\n      mul\n      dup4\n      mstore\n      swap2\n      0x20\n      add\n      swap2\n      jump(tag_104)\n    tag_105:\n      dup3\n      add\n      swap2\n      swap1\n      0x00\n      mstore\n      keccak256(0x00, 0x20)\n      swap1\n    tag_106:\n      dup2\n      sload\n      dup2\n      mstore\n      swap1\n      0x01\n      add\n      swap1\n      0x20\n      add\n      dup1\n      dup4\n      gt\n      tag_106\n      jumpi\n      dup3\n      swap1\n      sub\n      0x1f\n      and\n      dup3\n      add\n      swap2\n    tag_104:\n      pop\n      pop\n      pop\n      pop\n      pop\n      swap1\n      dup1\n      0x02\n      add\n      dup1\n      sload\n      tag_107\n      swap1\n      tag_86\n      jump\t// in\n    tag_107:\n      dup1\n      0x1f\n      add\n      0x20\n      dup1\n      swap2\n      div\n      mul\n      0x20\n      add\n      mload(0x40)\n      swap1\n      dup2\n      add\n      0x40\n      mstore\n      dup1\n      swap3\n      swap2\n      swap1\n      dup2\n      dup2\n      mstore\n      0x20\n      add\n      dup3\n      dup1\n      sload\n      tag_108\n      swap1\n      tag_86\n      jump\t// in\n    tag_108:\n      dup1\n      iszero\n      tag_109\n      jumpi\n      dup1\n      0x1f\n      lt\n      tag_110\n      jumpi\n      0x0100\n      dup1\n      dup4\n      sload\n      div\n      mul\n      dup4\n      mstore\n      swap2\n      0x20\n      add\n      swap2\n      jump(tag_109)\n    tag_110:\n      dup3\n      add\n      swap2\n      swap1\n      0x00\n      mstore\n      keccak256(0x00, 0x20)\n      swap1\n    tag_111:\n      dup2\n      sload\n      dup2\n      mstore\n      swap1\n      0x01\n      add\n      swap1\n      0x20\n      add\n      dup1\n      dup4\n      gt\n      tag_111\n      jumpi\n      dup3\n      swap1\n      sub\n      0x1f\n      and\n      dup3\n      add\n      swap2\n    tag_109:\n      pop\n      pop\n      pop\n      pop\n      pop\n      swap1\n      dup1\n      0x03\n      add\n      sload\n      swap1\n      dup1\n      0x04\n      add\n      sload\n      swap1\n      dup1\n      0x05\n      add\n      sload\n      swap1\n      dup1\n      0x06\n      add\n      0x00\n      swap1\n      sload\n      swap1\n      0x0100\n      exp\n      swap1\n      div\n      0xff\n      and\n      swap1\n      pop\n      dup8\n      jump\t// out\n        /* \"contracts/Invoice.sol\":705:1356  function _invoiceCreation(string memory _buyerPAN,string memory _sellerPAN,uint256 _invoiceAmount) external onlyOwner returns(uint) {... */\n    tag_35:\n        /* \"contracts/Invoice.sol\":831:835  uint */\n      0x00\n        /* \"@chainlink/contracts/src/v0.8/ConfirmedOwnerWithProposal.sol\":1956:1976  _validateOwnership() */\n      tag_113\n        /* \"@chainlink/contracts/src/v0.8/ConfirmedOwnerWithProposal.sol\":1956:1974  _validateOwnership */\n      tag_65\n        /* \"@chainlink/contracts/src/v0.8/ConfirmedOwnerWithProposal.sol\":1956:1976  _validateOwnership() */\n      jump\t// in\n    tag_113:\n        /* \"contracts/Invoice.sol\":848:873  uint newGenratedInvoiceId */\n      0x00\n        /* \"contracts/Invoice.sol\":876:942  _genratePseudoRandomInvoiceId(_buyerPAN,_sellerPAN,_invoiceAmount) */\n      tag_115\n        /* \"contracts/Invoice.sol\":906:915  _buyerPAN */\n      dup6\n        /* \"contracts/Invoice.sol\":916:926  _sellerPAN */\n      dup6\n        /* \"contracts/Invoice.sol\":927:941  _invoiceAmount */\n      dup6\n        /* \"contracts/Invoice.sol\":876:905  _genratePseudoRandomInvoiceId */\n      tag_116\n        /* \"contracts/Invoice.sol\":876:942  _genratePseudoRandomInvoiceId(_buyerPAN,_sellerPAN,_invoiceAmount) */\n      jump\t// in\n    tag_115:\n        /* \"contracts/Invoice.sol\":848:942  uint newGenratedInvoiceId = _genratePseudoRandomInvoiceId(_buyerPAN,_sellerPAN,_invoiceAmount) */\n      swap1\n      pop\n        /* \"contracts/Invoice.sol\":953:981  uint256 newGenratedinvoiceNo */\n      0x00\n        /* \"contracts/Invoice.sol\":992:1000  Invoices */\n      0x05\n        /* \"contracts/Invoice.sol\":992:1007  Invoices.length */\n      dup1\n      sload\n      swap1\n      pop\n        /* \"contracts/Invoice.sol\":953:1008  uint256 newGenratedinvoiceNo = uint256(Invoices.length) */\n      swap1\n      pop\n        /* \"contracts/Invoice.sol\":1019:1044  Invoice memory newInvoice */\n      0x00\n        /* \"contracts/Invoice.sol\":1047:1173  Invoice(newGenratedInvoiceId,_buyerPAN,_sellerPAN,_invoiceAmount,block.timestamp,newGenratedinvoiceNo,paymentStatuses.PENDING) */\n      mload(0x40)\n      dup1\n      0xe0\n      add\n      0x40\n      mstore\n      dup1\n        /* \"contracts/Invoice.sol\":1055:1075  newGenratedInvoiceId */\n      dup5\n        /* \"contracts/Invoice.sol\":1047:1173  Invoice(newGenratedInvoiceId,_buyerPAN,_sellerPAN,_invoiceAmount,block.timestamp,newGenratedinvoiceNo,paymentStatuses.PENDING) */\n      dup2\n      mstore\n      0x20\n      add\n        /* \"contracts/Invoice.sol\":1076:1085  _buyerPAN */\n      dup9\n        /* \"contracts/Invoice.sol\":1047:1173  Invoice(newGenratedInvoiceId,_buyerPAN,_sellerPAN,_invoiceAmount,block.timestamp,newGenratedinvoiceNo,paymentStatuses.PENDING) */\n      dup2\n      mstore\n      0x20\n      add\n        /* \"contracts/Invoice.sol\":1086:1096  _sellerPAN */\n      dup8\n        /* \"contracts/Invoice.sol\":1047:1173  Invoice(newGenratedInvoiceId,_buyerPAN,_sellerPAN,_invoiceAmount,block.timestamp,newGenratedinvoiceNo,paymentStatuses.PENDING) */\n      dup2\n      mstore\n      0x20\n      add\n        /* \"contracts/Invoice.sol\":1097:1111  _invoiceAmount */\n      dup7\n        /* \"contracts/Invoice.sol\":1047:1173  Invoice(newGenratedInvoiceId,_buyerPAN,_sellerPAN,_invoiceAmount,block.timestamp,newGenratedinvoiceNo,paymentStatuses.PENDING) */\n      dup2\n      mstore\n      0x20\n      add\n        /* \"contracts/Invoice.sol\":1112:1127  block.timestamp */\n      timestamp\n        /* \"contracts/Invoice.sol\":1047:1173  Invoice(newGenratedInvoiceId,_buyerPAN,_sellerPAN,_invoiceAmount,block.timestamp,newGenratedinvoiceNo,paymentStatuses.PENDING) */\n      dup2\n      mstore\n      0x20\n      add\n        /* \"contracts/Invoice.sol\":1128:1148  newGenratedinvoiceNo */\n      dup4\n        /* \"contracts/Invoice.sol\":1047:1173  Invoice(newGenratedInvoiceId,_buyerPAN,_sellerPAN,_invoiceAmount,block.timestamp,newGenratedinvoiceNo,paymentStatuses.PENDING) */\n      dup2\n      mstore\n      0x20\n      add\n        /* \"contracts/Invoice.sol\":1149:1172  paymentStatuses.PENDING */\n      0x00\n        /* \"contracts/Invoice.sol\":1047:1173  Invoice(newGenratedInvoiceId,_buyerPAN,_sellerPAN,_invoiceAmount,block.timestamp,newGenratedinvoiceNo,paymentStatuses.PENDING) */\n      0x01\n      dup2\n      gt\n      iszero\n      tag_117\n      jumpi\n      tag_118\n      tag_74\n      jump\t// in\n    tag_118:\n    tag_117:\n      dup2\n      mstore\n      pop\n        /* \"contracts/Invoice.sol\":1019:1173  Invoice memory newInvoice = Invoice(newGenratedInvoiceId,_buyerPAN,_sellerPAN,_invoiceAmount,block.timestamp,newGenratedinvoiceNo,paymentStatuses.PENDING) */\n      swap1\n      pop\n        /* \"contracts/Invoice.sol\":1227:1237  newInvoice */\n      dup1\n        /* \"contracts/Invoice.sol\":1184:1202  invoiceIdtoInvoice */\n      0x03\n        /* \"contracts/Invoice.sol\":1184:1224  invoiceIdtoInvoice[newGenratedInvoiceId] */\n      0x00\n        /* \"contracts/Invoice.sol\":1203:1223  newGenratedInvoiceId */\n      dup6\n        /* \"contracts/Invoice.sol\":1184:1224  invoiceIdtoInvoice[newGenratedInvoiceId] */\n      dup2\n      mstore\n      0x20\n      add\n      swap1\n      dup2\n      mstore\n      0x20\n      add\n      0x00\n      keccak256\n        /* \"contracts/Invoice.sol\":1184:1237  invoiceIdtoInvoice[newGenratedInvoiceId] = newInvoice */\n      0x00\n      dup3\n      add\n      mload\n      dup2\n      0x00\n      add\n      sstore\n      0x20\n      dup3\n      add\n      mload\n      dup2\n      0x01\n      add\n      swap1\n      dup1\n      mload\n      swap1\n      0x20\n      add\n      swap1\n      tag_119\n      swap3\n      swap2\n      swap1\n      tag_120\n      jump\t// in\n    tag_119:\n      pop\n      0x40\n      dup3\n      add\n      mload\n      dup2\n      0x02\n      add\n      swap1\n      dup1\n      mload\n      swap1\n      0x20\n      add\n      swap1\n      tag_121\n      swap3\n      swap2\n      swap1\n      tag_120\n      jump\t// in\n    tag_121:\n      pop\n      0x60\n      dup3\n      add\n      mload\n      dup2\n      0x03\n      add\n      sstore\n      0x80\n      dup3\n      add\n      mload\n      dup2\n      0x04\n      add\n      sstore\n      0xa0\n      dup3\n      add\n      mload\n      dup2\n      0x05\n      add\n      sstore\n      0xc0\n      dup3\n      add\n      mload\n      dup2\n      0x06\n      add\n      exp(0x0100, 0x00)\n      dup2\n      sload\n      dup2\n      0xff\n      mul\n      not\n      and\n      swap1\n      dup4\n      0x01\n      dup2\n      gt\n      iszero\n      tag_122\n      jumpi\n      tag_123\n      tag_74\n      jump\t// in\n    tag_123:\n    tag_122:\n      mul\n      or\n      swap1\n      sstore\n      pop\n      swap1\n      pop\n      pop\n        /* \"contracts/Invoice.sol\":1248:1261  buyerPANCount */\n      0x04\n        /* \"contracts/Invoice.sol\":1262:1271  _buyerPAN */\n      dup8\n        /* \"contracts/Invoice.sol\":1248:1272  buyerPANCount[_buyerPAN] */\n      mload(0x40)\n      tag_124\n      swap2\n      swap1\n      tag_125\n      jump\t// in\n    tag_124:\n      swap1\n      dup2\n      mstore\n      0x20\n      add\n      mload(0x40)\n      dup1\n      swap2\n      sub\n      swap1\n      keccak256\n      0x00\n        /* \"contracts/Invoice.sol\":1248:1274  buyerPANCount[_buyerPAN]++ */\n      dup2\n      sload\n      dup1\n      swap3\n      swap2\n      swap1\n      tag_126\n      swap1\n      tag_127\n      jump\t// in\n    tag_126:\n      swap2\n      swap1\n      pop\n      sstore\n      pop\n        /* \"contracts/Invoice.sol\":1285:1293  Invoices */\n      0x05\n        /* \"contracts/Invoice.sol\":1299:1309  newInvoice */\n      dup2\n        /* \"contracts/Invoice.sol\":1285:1310  Invoices.push(newInvoice) */\n      swap1\n      dup1\n      0x01\n      dup2\n      sload\n      add\n      dup1\n      dup3\n      sstore\n      dup1\n      swap2\n      pop\n      pop\n      0x01\n      swap1\n      sub\n      swap1\n      0x00\n      mstore\n      keccak256(0x00, 0x20)\n      swap1\n      0x07\n      mul\n      add\n      0x00\n      swap1\n      swap2\n      swap1\n      swap2\n      swap1\n      swap2\n      pop\n      0x00\n      dup3\n      add\n      mload\n      dup2\n      0x00\n      add\n      sstore\n      0x20\n      dup3\n      add\n      mload\n      dup2\n      0x01\n      add\n      swap1\n      dup1\n      mload\n      swap1\n      0x20\n      add\n      swap1\n      tag_129\n      swap3\n      swap2\n      swap1\n      tag_120\n      jump\t// in\n    tag_129:\n      pop\n      0x40\n      dup3\n      add\n      mload\n      dup2\n      0x02\n      add\n      swap1\n      dup1\n      mload\n      swap1\n      0x20\n      add\n      swap1\n      tag_130\n      swap3\n      swap2\n      swap1\n      tag_120\n      jump\t// in\n    tag_130:\n      pop\n      0x60\n      dup3\n      add\n      mload\n      dup2\n      0x03\n      add\n      sstore\n      0x80\n      dup3\n      add\n      mload\n      dup2\n      0x04\n      add\n      sstore\n      0xa0\n      dup3\n      add\n      mload\n      dup2\n      0x05\n      add\n      sstore\n      0xc0\n      dup3\n      add\n      mload\n      dup2\n      0x06\n      add\n      exp(0x0100, 0x00)\n      dup2\n      sload\n      dup2\n      0xff\n      mul\n      not\n      and\n      swap1\n      dup4\n      0x01\n      dup2\n      gt\n      iszero\n      tag_131\n      jumpi\n      tag_132\n      tag_74\n      jump\t// in\n    tag_132:\n    tag_131:\n      mul\n      or\n      swap1\n      sstore\n      pop\n      pop\n      pop\n        /* \"contracts/Invoice.sol\":1328:1348  newGenratedInvoiceId */\n      dup3\n        /* \"contracts/Invoice.sol\":1321:1348  return newGenratedInvoiceId */\n      swap4\n      pop\n      pop\n      pop\n      pop\n        /* \"contracts/Invoice.sol\":705:1356  function _invoiceCreation(string memory _buyerPAN,string memory _sellerPAN,uint256 _invoiceAmount) external onlyOwner returns(uint) {... */\n      swap4\n      swap3\n      pop\n      pop\n      pop\n      jump\t// out\n        /* \"contracts/Invoice.sol\":540:590  mapping(uint => Invoice) public invoiceIdtoInvoice */\n    tag_39:\n      mstore(0x20, 0x03)\n      dup1\n      0x00\n      mstore\n      keccak256(0x00, 0x40)\n      0x00\n      swap2\n      pop\n      swap1\n      pop\n      dup1\n      0x00\n      add\n      sload\n      swap1\n      dup1\n      0x01\n      add\n      dup1\n      sload\n      tag_133\n      swap1\n      tag_86\n      jump\t// in\n    tag_133:\n      dup1\n      0x1f\n      add\n      0x20\n      dup1\n      swap2\n      div\n      mul\n      0x20\n      add\n      mload(0x40)\n      swap1\n      dup2\n      add\n      0x40\n      mstore\n      dup1\n      swap3\n      swap2\n      swap1\n      dup2\n      dup2\n      mstore\n      0x20\n      add\n      dup3\n      dup1\n      sload\n      tag_134\n      swap1\n      tag_86\n      jump\t// in\n    tag_134:\n      dup1\n      iszero\n      tag_135\n      jumpi\n      dup1\n      0x1f\n      lt\n      tag_136\n      jumpi\n      0x0100\n      dup1\n      dup4\n      sload\n      div\n      mul\n      dup4\n      mstore\n      swap2\n      0x20\n      add\n      swap2\n      jump(tag_135)\n    tag_136:\n      dup3\n      add\n      swap2\n      swap1\n      0x00\n      mstore\n      keccak256(0x00, 0x20)\n      swap1\n    tag_137:\n      dup2\n      sload\n      dup2\n      mstore\n      swap1\n      0x01\n      add\n      swap1\n      0x20\n      add\n      dup1\n      dup4\n      gt\n      tag_137\n      jumpi\n      dup3\n      swap1\n      sub\n      0x1f\n      and\n      dup3\n      add\n      swap2\n    tag_135:\n      pop\n      pop\n      pop\n      pop\n      pop\n      swap1\n      dup1\n      0x02\n      add\n      dup1\n      sload\n      tag_138\n      swap1\n      tag_86\n      jump\t// in\n    tag_138:\n      dup1\n      0x1f\n      add\n      0x20\n      dup1\n      swap2\n      div\n      mul\n      0x20\n      add\n      mload(0x40)\n      swap1\n      dup2\n      add\n      0x40\n      mstore\n      dup1\n      swap3\n      swap2\n      swap1\n      dup2\n      dup2\n      mstore\n      0x20\n      add\n      dup3\n      dup1\n      sload\n      tag_139\n      swap1\n      tag_86\n      jump\t// in\n    tag_139:\n      dup1\n      iszero\n      tag_140\n      jumpi\n      dup1\n      0x1f\n      lt\n      tag_141\n      jumpi\n      0x0100\n      dup1\n      dup4\n      sload\n      div\n      mul\n      dup4\n      mstore\n      swap2\n      0x20\n      add\n      swap2\n      jump(tag_140)\n    tag_141:\n      dup3\n      add\n      swap2\n      swap1\n      0x00\n      mstore\n      keccak256(0x00, 0x20)\n      swap1\n    tag_142:\n      dup2\n      sload\n      dup2\n      mstore\n      swap1\n      0x01\n      add\n      swap1\n      0x20\n      add\n      dup1\n      dup4\n      gt\n      tag_142\n      jumpi\n      dup3\n      swap1\n      sub\n      0x1f\n      and\n      dup3\n      add\n      swap2\n    tag_140:\n      pop\n      pop\n      pop\n      pop\n      pop\n      swap1\n      dup1\n      0x03\n      add\n      sload\n      swap1\n      dup1\n      0x04\n      add\n      sload\n      swap1\n      dup1\n      0x05\n      add\n      sload\n      swap1\n      dup1\n      0x06\n      add\n      0x00\n      swap1\n      sload\n      swap1\n      0x0100\n      exp\n      swap1\n      div\n      0xff\n      and\n      swap1\n      pop\n      dup8\n      jump\t// out\n        /* \"@chainlink/contracts/src/v0.8/ConfirmedOwnerWithProposal.sol\":1016:1281  function acceptOwnership() external override {... */\n    tag_42:\n        /* \"@chainlink/contracts/src/v0.8/ConfirmedOwnerWithProposal.sol\":1089:1103  s_pendingOwner */\n      0x01\n      0x00\n      swap1\n      sload\n      swap1\n      0x0100\n      exp\n      swap1\n      div\n      0xffffffffffffffffffffffffffffffffffffffff\n      and\n        /* \"@chainlink/contracts/src/v0.8/ConfirmedOwnerWithProposal.sol\":1075:1103  msg.sender == s_pendingOwner */\n      0xffffffffffffffffffffffffffffffffffffffff\n      and\n        /* \"@chainlink/contracts/src/v0.8/ConfirmedOwnerWithProposal.sol\":1075:1085  msg.sender */\n      caller\n        /* \"@chainlink/contracts/src/v0.8/ConfirmedOwnerWithProposal.sol\":1075:1103  msg.sender == s_pendingOwner */\n      0xffffffffffffffffffffffffffffffffffffffff\n      and\n      eq\n        /* \"@chainlink/contracts/src/v0.8/ConfirmedOwnerWithProposal.sol\":1067:1130  require(msg.sender == s_pendingOwner, \"Must be proposed owner\") */\n      tag_144\n      jumpi\n      mload(0x40)\n      0x08c379a000000000000000000000000000000000000000000000000000000000\n      dup2\n      mstore\n      0x04\n      add\n      tag_145\n      swap1\n      tag_146\n      jump\t// in\n    tag_145:\n      mload(0x40)\n      dup1\n      swap2\n      sub\n      swap1\n      revert\n    tag_144:\n        /* \"@chainlink/contracts/src/v0.8/ConfirmedOwnerWithProposal.sol\":1137:1153  address oldOwner */\n      0x00\n        /* \"@chainlink/contracts/src/v0.8/ConfirmedOwnerWithProposal.sol\":1156:1163  s_owner */\n      dup1\n      0x00\n      swap1\n      sload\n      swap1\n      0x0100\n      exp\n      swap1\n      div\n      0xffffffffffffffffffffffffffffffffffffffff\n      and\n        /* \"@chainlink/contracts/src/v0.8/ConfirmedOwnerWithProposal.sol\":1137:1163  address oldOwner = s_owner */\n      swap1\n      pop\n        /* \"@chainlink/contracts/src/v0.8/ConfirmedOwnerWithProposal.sol\":1179:1189  msg.sender */\n      caller\n        /* \"@chainlink/contracts/src/v0.8/ConfirmedOwnerWithProposal.sol\":1169:1176  s_owner */\n      0x00\n      dup1\n        /* \"@chainlink/contracts/src/v0.8/ConfirmedOwnerWithProposal.sol\":1169:1189  s_owner = msg.sender */\n      0x0100\n      exp\n      dup2\n      sload\n      dup2\n      0xffffffffffffffffffffffffffffffffffffffff\n      mul\n      not\n      and\n      swap1\n      dup4\n      0xffffffffffffffffffffffffffffffffffffffff\n      and\n      mul\n      or\n      swap1\n      sstore\n      pop\n        /* \"@chainlink/contracts/src/v0.8/ConfirmedOwnerWithProposal.sol\":1220:1221  0 */\n      0x00\n        /* \"@chainlink/contracts/src/v0.8/ConfirmedOwnerWithProposal.sol\":1195:1209  s_pendingOwner */\n      0x01\n      0x00\n        /* \"@chainlink/contracts/src/v0.8/ConfirmedOwnerWithProposal.sol\":1195:1222  s_pendingOwner = address(0) */\n      0x0100\n      exp\n      dup2\n      sload\n      dup2\n      0xffffffffffffffffffffffffffffffffffffffff\n      mul\n      not\n      and\n      swap1\n      dup4\n      0xffffffffffffffffffffffffffffffffffffffff\n      and\n      mul\n      or\n      swap1\n      sstore\n      pop\n        /* \"@chainlink/contracts/src/v0.8/ConfirmedOwnerWithProposal.sol\":1265:1275  msg.sender */\n      caller\n        /* \"@chainlink/contracts/src/v0.8/ConfirmedOwnerWithProposal.sol\":1234:1276  OwnershipTransferred(oldOwner, msg.sender) */\n      0xffffffffffffffffffffffffffffffffffffffff\n      and\n        /* \"@chainlink/contracts/src/v0.8/ConfirmedOwnerWithProposal.sol\":1255:1263  oldOwner */\n      dup2\n        /* \"@chainlink/contracts/src/v0.8/ConfirmedOwnerWithProposal.sol\":1234:1276  OwnershipTransferred(oldOwner, msg.sender) */\n      0xffffffffffffffffffffffffffffffffffffffff\n      and\n      0x8be0079c531659141344cd1fd0a4f28419497f9722a3daafe3b4186f6b6457e0\n      mload(0x40)\n      mload(0x40)\n      dup1\n      swap2\n      sub\n      swap1\n      log3\n        /* \"@chainlink/contracts/src/v0.8/ConfirmedOwnerWithProposal.sol\":1061:1281  {... */\n      pop\n        /* \"@chainlink/contracts/src/v0.8/ConfirmedOwnerWithProposal.sol\":1016:1281  function acceptOwnership() external override {... */\n      jump\t// out\n        /* \"contracts/Invoice.sol\":2283:2776  function getInvoicesByPan(string memory _buyerPAN) external view returns(Invoice[] memory) {... */\n    tag_45:\n        /* \"contracts/Invoice.sol\":2356:2372  Invoice[] memory */\n      0x60\n        /* \"contracts/Invoice.sol\":2385:2408  Invoice[] memory result */\n      0x00\n        /* \"contracts/Invoice.sol\":2425:2438  buyerPANCount */\n      0x04\n        /* \"contracts/Invoice.sol\":2439:2448  _buyerPAN */\n      dup4\n        /* \"contracts/Invoice.sol\":2425:2449  buyerPANCount[_buyerPAN] */\n      mload(0x40)\n      tag_148\n      swap2\n      swap1\n      tag_125\n      jump\t// in\n    tag_148:\n      swap1\n      dup2\n      mstore\n      0x20\n      add\n      mload(0x40)\n      dup1\n      swap2\n      sub\n      swap1\n      keccak256\n      sload\n        /* \"contracts/Invoice.sol\":2411:2450  new Invoice[](buyerPANCount[_buyerPAN]) */\n      0xffffffffffffffff\n      dup2\n      gt\n      iszero\n      tag_149\n      jumpi\n      tag_150\n      tag_151\n      jump\t// in\n    tag_150:\n    tag_149:\n      mload(0x40)\n      swap1\n      dup1\n      dup3\n      mstore\n      dup1\n      0x20\n      mul\n      0x20\n      add\n      dup3\n      add\n      0x40\n      mstore\n      dup1\n      iszero\n      tag_152\n      jumpi\n      dup2\n      0x20\n      add\n    tag_153:\n      tag_154\n      tag_62\n      jump\t// in\n    tag_154:\n      dup2\n      mstore\n      0x20\n      add\n      swap1\n      0x01\n      swap1\n      sub\n      swap1\n      dup2\n      tag_153\n      jumpi\n      swap1\n      pop\n    tag_152:\n      pop\n        /* \"contracts/Invoice.sol\":2385:2450  Invoice[] memory result = new Invoice[](buyerPANCount[_buyerPAN]) */\n      swap1\n      pop\n        /* \"contracts/Invoice.sol\":2461:2473  uint counter */\n      0x00\n        /* \"contracts/Invoice.sol\":2493:2499  uint i */\n      dup1\n        /* \"contracts/Invoice.sol\":2488:2745  for (uint i = 0; i < Invoices.length; i++) {... */\n    tag_155:\n        /* \"contracts/Invoice.sol\":2509:2517  Invoices */\n      0x05\n        /* \"contracts/Invoice.sol\":2509:2524  Invoices.length */\n      dup1\n      sload\n      swap1\n      pop\n        /* \"contracts/Invoice.sol\":2505:2506  i */\n      dup2\n        /* \"contracts/Invoice.sol\":2505:2524  i < Invoices.length */\n      lt\n        /* \"contracts/Invoice.sol\":2488:2745  for (uint i = 0; i < Invoices.length; i++) {... */\n      iszero\n      tag_156\n      jumpi\n        /* \"contracts/Invoice.sol\":2630:2639  _buyerPAN */\n      dup5\n        /* \"contracts/Invoice.sol\":2613:2640  abi.encodePacked(_buyerPAN) */\n      add(0x20, mload(0x40))\n      tag_158\n      swap2\n      swap1\n      tag_125\n      jump\t// in\n    tag_158:\n      mload(0x40)\n      0x20\n      dup2\n      dup4\n      sub\n      sub\n      dup2\n      mstore\n      swap1\n      0x40\n      mstore\n        /* \"contracts/Invoice.sol\":2603:2641  keccak256(abi.encodePacked(_buyerPAN)) */\n      dup1\n      mload\n      swap1\n      0x20\n      add\n      keccak256\n        /* \"contracts/Invoice.sol\":2577:2585  Invoices */\n      0x05\n        /* \"contracts/Invoice.sol\":2586:2587  i */\n      dup3\n        /* \"contracts/Invoice.sol\":2577:2588  Invoices[i] */\n      dup2\n      sload\n      dup2\n      lt\n      tag_159\n      jumpi\n      tag_160\n      tag_70\n      jump\t// in\n    tag_160:\n    tag_159:\n      swap1\n      0x00\n      mstore\n      keccak256(0x00, 0x20)\n      swap1\n      0x07\n      mul\n      add\n        /* \"contracts/Invoice.sol\":2577:2597  Invoices[i].buyerPAN */\n      0x01\n      add\n        /* \"contracts/Invoice.sol\":2560:2598  abi.encodePacked(Invoices[i].buyerPAN) */\n      add(0x20, mload(0x40))\n      tag_162\n      swap2\n      swap1\n      tag_163\n      jump\t// in\n    tag_162:\n      mload(0x40)\n      0x20\n      dup2\n      dup4\n      sub\n      sub\n      dup2\n      mstore\n      swap1\n      0x40\n      mstore\n        /* \"contracts/Invoice.sol\":2550:2599  keccak256(abi.encodePacked(Invoices[i].buyerPAN)) */\n      dup1\n      mload\n      swap1\n      0x20\n      add\n      keccak256\n        /* \"contracts/Invoice.sol\":2550:2641  keccak256(abi.encodePacked(Invoices[i].buyerPAN)) == keccak256(abi.encodePacked(_buyerPAN)) */\n      eq\n        /* \"contracts/Invoice.sol\":2546:2734  if (keccak256(abi.encodePacked(Invoices[i].buyerPAN)) == keccak256(abi.encodePacked(_buyerPAN))) {... */\n      iszero\n      tag_164\n      jumpi\n        /* \"contracts/Invoice.sol\":2679:2687  Invoices */\n      0x05\n        /* \"contracts/Invoice.sol\":2688:2689  i */\n      dup2\n        /* \"contracts/Invoice.sol\":2679:2690  Invoices[i] */\n      dup2\n      sload\n      dup2\n      lt\n      tag_165\n      jumpi\n      tag_166\n      tag_70\n      jump\t// in\n    tag_166:\n    tag_165:\n      swap1\n      0x00\n      mstore\n      keccak256(0x00, 0x20)\n      swap1\n      0x07\n      mul\n      add\n        /* \"contracts/Invoice.sol\":2662:2690  result[counter] =Invoices[i] */\n      mload(0x40)\n      dup1\n      0xe0\n      add\n      0x40\n      mstore\n      swap1\n      dup2\n      0x00\n      dup3\n      add\n      sload\n      dup2\n      mstore\n      0x20\n      add\n      0x01\n      dup3\n      add\n      dup1\n      sload\n      tag_168\n      swap1\n      tag_86\n      jump\t// in\n    tag_168:\n      dup1\n      0x1f\n      add\n      0x20\n      dup1\n      swap2\n      div\n      mul\n      0x20\n      add\n      mload(0x40)\n      swap1\n      dup2\n      add\n      0x40\n      mstore\n      dup1\n      swap3\n      swap2\n      swap1\n      dup2\n      dup2\n      mstore\n      0x20\n      add\n      dup3\n      dup1\n      sload\n      tag_169\n      swap1\n      tag_86\n      jump\t// in\n    tag_169:\n      dup1\n      iszero\n      tag_170\n      jumpi\n      dup1\n      0x1f\n      lt\n      tag_171\n      jumpi\n      0x0100\n      dup1\n      dup4\n      sload\n      div\n      mul\n      dup4\n      mstore\n      swap2\n      0x20\n      add\n      swap2\n      jump(tag_170)\n    tag_171:\n      dup3\n      add\n      swap2\n      swap1\n      0x00\n      mstore\n      keccak256(0x00, 0x20)\n      swap1\n    tag_172:\n      dup2\n      sload\n      dup2\n      mstore\n      swap1\n      0x01\n      add\n      swap1\n      0x20\n      add\n      dup1\n      dup4\n      gt\n      tag_172\n      jumpi\n      dup3\n      swap1\n      sub\n      0x1f\n      and\n      dup3\n      add\n      swap2\n    tag_170:\n      pop\n      pop\n      pop\n      pop\n      pop\n      dup2\n      mstore\n      0x20\n      add\n      0x02\n      dup3\n      add\n      dup1\n      sload\n      tag_173\n      swap1\n      tag_86\n      jump\t// in\n    tag_173:\n      dup1\n      0x1f\n      add\n      0x20\n      dup1\n      swap2\n      div\n      mul\n      0x20\n      add\n      mload(0x40)\n      swap1\n      dup2\n      add\n      0x40\n      mstore\n      dup1\n      swap3\n      swap2\n      swap1\n      dup2\n      dup2\n      mstore\n      0x20\n      add\n      dup3\n      dup1\n      sload\n      tag_174\n      swap1\n      tag_86\n      jump\t// in\n    tag_174:\n      dup1\n      iszero\n      tag_175\n      jumpi\n      dup1\n      0x1f\n      lt\n      tag_176\n      jumpi\n      0x0100\n      dup1\n      dup4\n      sload\n      div\n      mul\n      dup4\n      mstore\n      swap2\n      0x20\n      add\n      swap2\n      jump(tag_175)\n    tag_176:\n      dup3\n      add\n      swap2\n      swap1\n      0x00\n      mstore\n      keccak256(0x00, 0x20)\n      swap1\n    tag_177:\n      dup2\n      sload\n      dup2\n      mstore\n      swap1\n      0x01\n      add\n      swap1\n      0x20\n      add\n      dup1\n      dup4\n      gt\n      tag_177\n      jumpi\n      dup3\n      swap1\n      sub\n      0x1f\n      and\n      dup3\n      add\n      swap2\n    tag_175:\n      pop\n      pop\n      pop\n      pop\n      pop\n      dup2\n      mstore\n      0x20\n      add\n      0x03\n      dup3\n      add\n      sload\n      dup2\n      mstore\n      0x20\n      add\n      0x04\n      dup3\n      add\n      sload\n      dup2\n      mstore\n      0x20\n      add\n      0x05\n      dup3\n      add\n      sload\n      dup2\n      mstore\n      0x20\n      add\n      0x06\n      dup3\n      add\n      0x00\n      swap1\n      sload\n      swap1\n      0x0100\n      exp\n      swap1\n      div\n      0xff\n      and\n      0x01\n      dup2\n      gt\n      iszero\n      tag_178\n      jumpi\n      tag_179\n      tag_74\n      jump\t// in\n    tag_179:\n    tag_178:\n      0x01\n      dup2\n      gt\n      iszero\n      tag_180\n      jumpi\n      tag_181\n      tag_74\n      jump\t// in\n    tag_181:\n    tag_180:\n      dup2\n      mstore\n      pop\n      pop\n        /* \"contracts/Invoice.sol\":2662:2668  result */\n      dup4\n        /* \"contracts/Invoice.sol\":2669:2676  counter */\n      dup4\n        /* \"contracts/Invoice.sol\":2662:2677  result[counter] */\n      dup2\n      mload\n      dup2\n      lt\n      tag_182\n      jumpi\n      tag_183\n      tag_70\n      jump\t// in\n    tag_183:\n    tag_182:\n      0x20\n      mul\n      0x20\n      add\n      add\n        /* \"contracts/Invoice.sol\":2662:2690  result[counter] =Invoices[i] */\n      dup2\n      swap1\n      mstore\n      pop\n        /* \"contracts/Invoice.sol\":2709:2718  counter++ */\n      dup2\n      dup1\n      tag_184\n      swap1\n      tag_127\n      jump\t// in\n    tag_184:\n      swap3\n      pop\n      pop\n        /* \"contracts/Invoice.sol\":2546:2734  if (keccak256(abi.encodePacked(Invoices[i].buyerPAN)) == keccak256(abi.encodePacked(_buyerPAN))) {... */\n    tag_164:\n        /* \"contracts/Invoice.sol\":2526:2529  i++ */\n      dup1\n      dup1\n      tag_185\n      swap1\n      tag_127\n      jump\t// in\n    tag_185:\n      swap2\n      pop\n      pop\n        /* \"contracts/Invoice.sol\":2488:2745  for (uint i = 0; i < Invoices.length; i++) {... */\n      jump(tag_155)\n    tag_156:\n      pop\n        /* \"contracts/Invoice.sol\":2762:2768  result */\n      dup2\n        /* \"contracts/Invoice.sol\":2755:2768  return result */\n      swap3\n      pop\n      pop\n      pop\n        /* \"contracts/Invoice.sol\":2283:2776  function getInvoicesByPan(string memory _buyerPAN) external view returns(Invoice[] memory) {... */\n      swap2\n      swap1\n      pop\n      jump\t// out\n        /* \"@chainlink/contracts/src/v0.8/ConfirmedOwnerWithProposal.sol\":1332:1413  function owner() public view override returns (address) {... */\n    tag_49:\n        /* \"@chainlink/contracts/src/v0.8/ConfirmedOwnerWithProposal.sol\":1379:1386  address */\n      0x00\n        /* \"@chainlink/contracts/src/v0.8/ConfirmedOwnerWithProposal.sol\":1401:1408  s_owner */\n      dup1\n      0x00\n      swap1\n      sload\n      swap1\n      0x0100\n      exp\n      swap1\n      div\n      0xffffffffffffffffffffffffffffffffffffffff\n      and\n        /* \"@chainlink/contracts/src/v0.8/ConfirmedOwnerWithProposal.sol\":1394:1408  return s_owner */\n      swap1\n      pop\n        /* \"@chainlink/contracts/src/v0.8/ConfirmedOwnerWithProposal.sol\":1332:1413  function owner() public view override returns (address) {... */\n      swap1\n      jump\t// out\n        /* \"contracts/Invoice.sol\":1404:1555  function getPaymentStatus(uint _invoiceId) external view returns(paymentStatuses){... */\n    tag_54:\n        /* \"contracts/Invoice.sol\":1469:1484  paymentStatuses */\n      0x00\n        /* \"contracts/Invoice.sol\":1503:1521  invoiceIdtoInvoice */\n      0x03\n        /* \"contracts/Invoice.sol\":1503:1533  invoiceIdtoInvoice[_invoiceId] */\n      0x00\n        /* \"contracts/Invoice.sol\":1522:1532  _invoiceId */\n      dup4\n        /* \"contracts/Invoice.sol\":1503:1533  invoiceIdtoInvoice[_invoiceId] */\n      dup2\n      mstore\n      0x20\n      add\n      swap1\n      dup2\n      mstore\n      0x20\n      add\n      0x00\n      keccak256\n        /* \"contracts/Invoice.sol\":1503:1547  invoiceIdtoInvoice[_invoiceId].paymentStatus */\n      0x06\n      add\n      0x00\n      swap1\n      sload\n      swap1\n      0x0100\n      exp\n      swap1\n      div\n      0xff\n      and\n        /* \"contracts/Invoice.sol\":1496:1547  return invoiceIdtoInvoice[_invoiceId].paymentStatus */\n      swap1\n      pop\n        /* \"contracts/Invoice.sol\":1404:1555  function getPaymentStatus(uint _invoiceId) external view returns(paymentStatuses){... */\n      swap2\n      swap1\n      pop\n      jump\t// out\n        /* \"@chainlink/contracts/src/v0.8/ConfirmedOwnerWithProposal.sol\":826:924  function transferOwnership(address to) public override onlyOwner {... */\n    tag_60:\n        /* \"@chainlink/contracts/src/v0.8/ConfirmedOwnerWithProposal.sol\":1956:1976  _validateOwnership() */\n      tag_189\n        /* \"@chainlink/contracts/src/v0.8/ConfirmedOwnerWithProposal.sol\":1956:1974  _validateOwnership */\n      tag_65\n        /* \"@chainlink/contracts/src/v0.8/ConfirmedOwnerWithProposal.sol\":1956:1976  _validateOwnership() */\n      jump\t// in\n    tag_189:\n        /* \"@chainlink/contracts/src/v0.8/ConfirmedOwnerWithProposal.sol\":897:919  _transferOwnership(to) */\n      tag_191\n        /* \"@chainlink/contracts/src/v0.8/ConfirmedOwnerWithProposal.sol\":916:918  to */\n      dup2\n        /* \"@chainlink/contracts/src/v0.8/ConfirmedOwnerWithProposal.sol\":897:915  _transferOwnership */\n      tag_192\n        /* \"@chainlink/contracts/src/v0.8/ConfirmedOwnerWithProposal.sol\":897:919  _transferOwnership(to) */\n      jump\t// in\n    tag_191:\n        /* \"@chainlink/contracts/src/v0.8/ConfirmedOwnerWithProposal.sol\":826:924  function transferOwnership(address to) public override onlyOwner {... */\n      pop\n      jump\t// out\n        /* \"@chainlink/contracts/src/v0.8/ConfirmedOwnerWithProposal.sol\":1730:1841  function _validateOwnership() internal view {... */\n    tag_65:\n        /* \"@chainlink/contracts/src/v0.8/ConfirmedOwnerWithProposal.sol\":1802:1809  s_owner */\n      0x00\n      dup1\n      sload\n      swap1\n      0x0100\n      exp\n      swap1\n      div\n      0xffffffffffffffffffffffffffffffffffffffff\n      and\n        /* \"@chainlink/contracts/src/v0.8/ConfirmedOwnerWithProposal.sol\":1788:1809  msg.sender == s_owner */\n      0xffffffffffffffffffffffffffffffffffffffff\n      and\n        /* \"@chainlink/contracts/src/v0.8/ConfirmedOwnerWithProposal.sol\":1788:1798  msg.sender */\n      caller\n        /* \"@chainlink/contracts/src/v0.8/ConfirmedOwnerWithProposal.sol\":1788:1809  msg.sender == s_owner */\n      0xffffffffffffffffffffffffffffffffffffffff\n      and\n      eq\n        /* \"@chainlink/contracts/src/v0.8/ConfirmedOwnerWithProposal.sol\":1780:1836  require(msg.sender == s_owner, \"Only callable by owner\") */\n      tag_194\n      jumpi\n      mload(0x40)\n      0x08c379a000000000000000000000000000000000000000000000000000000000\n      dup2\n      mstore\n      0x04\n      add\n      tag_195\n      swap1\n      tag_196\n      jump\t// in\n    tag_195:\n      mload(0x40)\n      dup1\n      swap2\n      sub\n      swap1\n      revert\n    tag_194:\n        /* \"@chainlink/contracts/src/v0.8/ConfirmedOwnerWithProposal.sol\":1730:1841  function _validateOwnership() internal view {... */\n      jump\t// out\n        /* \"contracts/Invoice.sol\":2843:3373  function _genratePseudoRandomInvoiceId(string memory _buyerPAN,string memory _sellerPAN,uint256 _invoiceAmount) private returns(uint){... */\n    tag_116:\n        /* \"contracts/Invoice.sol\":2971:2975  uint */\n      0x00\n        /* \"contracts/Invoice.sol\":2987:2996  randNonce */\n      0x02\n      0x00\n        /* \"contracts/Invoice.sol\":2987:2998  randNonce++ */\n      dup2\n      sload\n      dup1\n      swap3\n      swap2\n      swap1\n      tag_198\n      swap1\n      tag_127\n      jump\t// in\n    tag_198:\n      swap2\n      swap1\n      pop\n      sstore\n      pop\n        /* \"contracts/Invoice.sol\":3358:3365  10 ** 8 */\n      0x05f5e100\n        /* \"contracts/Invoice.sol\":3050:3059  _buyerPAN */\n      dup5\n        /* \"contracts/Invoice.sol\":3110:3120  _sellerPAN */\n      dup5\n        /* \"contracts/Invoice.sol\":3171:3185  _invoiceAmount */\n      dup5\n        /* \"contracts/Invoice.sol\":3236:3246  msg.sender */\n      caller\n        /* \"contracts/Invoice.sol\":3297:3306  randNonce */\n      sload(0x02)\n        /* \"contracts/Invoice.sol\":3032:3353  abi.encodePacked( _buyerPAN,... */\n      add(0x20, mload(0x40))\n      tag_199\n      swap6\n      swap5\n      swap4\n      swap3\n      swap2\n      swap1\n      tag_200\n      jump\t// in\n    tag_199:\n      mload(0x40)\n      0x20\n      dup2\n      dup4\n      sub\n      sub\n      dup2\n      mstore\n      swap1\n      0x40\n      mstore\n        /* \"contracts/Invoice.sol\":3022:3354  keccak256(abi.encodePacked( _buyerPAN,... */\n      dup1\n      mload\n      swap1\n      0x20\n      add\n      keccak256\n        /* \"contracts/Invoice.sol\":3017:3355  uint(keccak256(abi.encodePacked( _buyerPAN,... */\n      0x00\n      shr\n        /* \"contracts/Invoice.sol\":3017:3365  uint(keccak256(abi.encodePacked( _buyerPAN,... */\n      tag_201\n      swap2\n      swap1\n      tag_202\n      jump\t// in\n    tag_201:\n        /* \"contracts/Invoice.sol\":3010:3365  return uint(keccak256(abi.encodePacked( _buyerPAN,... */\n      swap1\n      pop\n        /* \"contracts/Invoice.sol\":2843:3373  function _genratePseudoRandomInvoiceId(string memory _buyerPAN,string memory _sellerPAN,uint256 _invoiceAmount) private returns(uint){... */\n      swap4\n      swap3\n      pop\n      pop\n      pop\n      jump\t// out\n        /* \"@chainlink/contracts/src/v0.8/ConfirmedOwnerWithProposal.sol\":1497:1685  function _transferOwnership(address to) private {... */\n    tag_192:\n        /* \"@chainlink/contracts/src/v0.8/ConfirmedOwnerWithProposal.sol\":1565:1575  msg.sender */\n      caller\n        /* \"@chainlink/contracts/src/v0.8/ConfirmedOwnerWithProposal.sol\":1559:1575  to != msg.sender */\n      0xffffffffffffffffffffffffffffffffffffffff\n      and\n        /* \"@chainlink/contracts/src/v0.8/ConfirmedOwnerWithProposal.sol\":1559:1561  to */\n      dup2\n        /* \"@chainlink/contracts/src/v0.8/ConfirmedOwnerWithProposal.sol\":1559:1575  to != msg.sender */\n      0xffffffffffffffffffffffffffffffffffffffff\n      and\n      eq\n      iszero\n        /* \"@chainlink/contracts/src/v0.8/ConfirmedOwnerWithProposal.sol\":1551:1603  require(to != msg.sender, \"Cannot transfer to self\") */\n      tag_204\n      jumpi\n      mload(0x40)\n      0x08c379a000000000000000000000000000000000000000000000000000000000\n      dup2\n      mstore\n      0x04\n      add\n      tag_205\n      swap1\n      tag_206\n      jump\t// in\n    tag_205:\n      mload(0x40)\n      dup1\n      swap2\n      sub\n      swap1\n      revert\n    tag_204:\n        /* \"@chainlink/contracts/src/v0.8/ConfirmedOwnerWithProposal.sol\":1627:1629  to */\n      dup1\n        /* \"@chainlink/contracts/src/v0.8/ConfirmedOwnerWithProposal.sol\":1610:1624  s_pendingOwner */\n      0x01\n      0x00\n        /* \"@chainlink/contracts/src/v0.8/ConfirmedOwnerWithProposal.sol\":1610:1629  s_pendingOwner = to */\n      0x0100\n      exp\n      dup2\n      sload\n      dup2\n      0xffffffffffffffffffffffffffffffffffffffff\n      mul\n      not\n      and\n      swap1\n      dup4\n      0xffffffffffffffffffffffffffffffffffffffff\n      and\n      mul\n      or\n      swap1\n      sstore\n      pop\n        /* \"@chainlink/contracts/src/v0.8/ConfirmedOwnerWithProposal.sol\":1677:1679  to */\n      dup1\n        /* \"@chainlink/contracts/src/v0.8/ConfirmedOwnerWithProposal.sol\":1641:1680  OwnershipTransferRequested(s_owner, to) */\n      0xffffffffffffffffffffffffffffffffffffffff\n      and\n        /* \"@chainlink/contracts/src/v0.8/ConfirmedOwnerWithProposal.sol\":1668:1675  s_owner */\n      0x00\n      dup1\n      sload\n      swap1\n      0x0100\n      exp\n      swap1\n      div\n      0xffffffffffffffffffffffffffffffffffffffff\n      and\n        /* \"@chainlink/contracts/src/v0.8/ConfirmedOwnerWithProposal.sol\":1641:1680  OwnershipTransferRequested(s_owner, to) */\n      0xffffffffffffffffffffffffffffffffffffffff\n      and\n      0xed8889f560326eb138920d842192f0eb3dd22b4f139c87a2c57538e05bae1278\n      mload(0x40)\n      mload(0x40)\n      dup1\n      swap2\n      sub\n      swap1\n      log3\n        /* \"@chainlink/contracts/src/v0.8/ConfirmedOwnerWithProposal.sol\":1497:1685  function _transferOwnership(address to) private {... */\n      pop\n      jump\t// out\n    tag_62:\n      mload(0x40)\n      dup1\n      0xe0\n      add\n      0x40\n      mstore\n      dup1\n      0x00\n      dup2\n      mstore\n      0x20\n      add\n      0x60\n      dup2\n      mstore\n      0x20\n      add\n      0x60\n      dup2\n      mstore\n      0x20\n      add\n      0x00\n      dup2\n      mstore\n      0x20\n      add\n      0x00\n      dup2\n      mstore\n      0x20\n      add\n      0x00\n      dup2\n      mstore\n      0x20\n      add\n      0x00\n      0x01\n      dup2\n      gt\n      iszero\n      tag_207\n      jumpi\n      tag_208\n      tag_74\n      jump\t// in\n    tag_208:\n    tag_207:\n      dup2\n      mstore\n      pop\n      swap1\n      jump\t// out\n    tag_120:\n      dup3\n      dup1\n      sload\n      tag_209\n      swap1\n      tag_86\n      jump\t// in\n    tag_209:\n      swap1\n      0x00\n      mstore\n      keccak256(0x00, 0x20)\n      swap1\n      0x1f\n      add\n      0x20\n      swap1\n      div\n      dup2\n      add\n      swap3\n      dup3\n      tag_211\n      jumpi\n      0x00\n      dup6\n      sstore\n      jump(tag_210)\n    tag_211:\n      dup3\n      0x1f\n      lt\n      tag_212\n      jumpi\n      dup1\n      mload\n      not(0xff)\n      and\n      dup4\n      dup1\n      add\n      or\n      dup6\n      sstore\n      jump(tag_210)\n    tag_212:\n      dup3\n      dup1\n      add\n      0x01\n      add\n      dup6\n      sstore\n      dup3\n      iszero\n      tag_210\n      jumpi\n      swap2\n      dup3\n      add\n    tag_213:\n      dup3\n      dup2\n      gt\n      iszero\n      tag_214\n      jumpi\n      dup3\n      mload\n      dup3\n      sstore\n      swap2\n      0x20\n      add\n      swap2\n      swap1\n      0x01\n      add\n      swap1\n      jump(tag_213)\n    tag_214:\n    tag_210:\n      pop\n      swap1\n      pop\n      tag_215\n      swap2\n      swap1\n      tag_216\n      jump\t// in\n    tag_215:\n      pop\n      swap1\n      jump\t// out\n    tag_216:\n    tag_217:\n      dup1\n      dup3\n      gt\n      iszero\n      tag_218\n      jumpi\n      0x00\n      dup2\n      0x00\n      swap1\n      sstore\n      pop\n      0x01\n      add\n      jump(tag_217)\n    tag_218:\n      pop\n      swap1\n      jump\t// out\n        /* \"#utility.yul\":7:82   */\n    tag_219:\n        /* \"#utility.yul\":40:46   */\n      0x00\n        /* \"#utility.yul\":73:75   */\n      0x40\n        /* \"#utility.yul\":67:76   */\n      mload\n        /* \"#utility.yul\":57:76   */\n      swap1\n      pop\n        /* \"#utility.yul\":7:82   */\n      swap1\n      jump\t// out\n        /* \"#utility.yul\":88:205   */\n    tag_220:\n        /* \"#utility.yul\":197:198   */\n      0x00\n        /* \"#utility.yul\":194:195   */\n      dup1\n        /* \"#utility.yul\":187:199   */\n      revert\n        /* \"#utility.yul\":211:328   */\n    tag_221:\n        /* \"#utility.yul\":320:321   */\n      0x00\n        /* \"#utility.yul\":317:318   */\n      dup1\n        /* \"#utility.yul\":310:322   */\n      revert\n        /* \"#utility.yul\":334:411   */\n    tag_222:\n        /* \"#utility.yul\":371:378   */\n      0x00\n        /* \"#utility.yul\":400:405   */\n      dup2\n        /* \"#utility.yul\":389:405   */\n      swap1\n      pop\n        /* \"#utility.yul\":334:411   */\n      swap2\n      swap1\n      pop\n      jump\t// out\n        /* \"#utility.yul\":417:539   */\n    tag_223:\n        /* \"#utility.yul\":490:514   */\n      tag_288\n        /* \"#utility.yul\":508:513   */\n      dup2\n        /* \"#utility.yul\":490:514   */\n      tag_222\n      jump\t// in\n    tag_288:\n        /* \"#utility.yul\":483:488   */\n      dup2\n        /* \"#utility.yul\":480:515   */\n      eq\n        /* \"#utility.yul\":470:533   */\n      tag_289\n      jumpi\n        /* \"#utility.yul\":529:530   */\n      0x00\n        /* \"#utility.yul\":526:527   */\n      dup1\n        /* \"#utility.yul\":519:531   */\n      revert\n        /* \"#utility.yul\":470:533   */\n    tag_289:\n        /* \"#utility.yul\":417:539   */\n      pop\n      jump\t// out\n        /* \"#utility.yul\":545:684   */\n    tag_224:\n        /* \"#utility.yul\":591:596   */\n      0x00\n        /* \"#utility.yul\":629:635   */\n      dup2\n        /* \"#utility.yul\":616:636   */\n      calldataload\n        /* \"#utility.yul\":607:636   */\n      swap1\n      pop\n        /* \"#utility.yul\":645:678   */\n      tag_291\n        /* \"#utility.yul\":672:677   */\n      dup2\n        /* \"#utility.yul\":645:678   */\n      tag_223\n      jump\t// in\n    tag_291:\n        /* \"#utility.yul\":545:684   */\n      swap3\n      swap2\n      pop\n      pop\n      jump\t// out\n        /* \"#utility.yul\":690:780   */\n    tag_225:\n        /* \"#utility.yul\":724:731   */\n      0x00\n        /* \"#utility.yul\":767:772   */\n      dup2\n        /* \"#utility.yul\":760:773   */\n      iszero\n        /* \"#utility.yul\":753:774   */\n      iszero\n        /* \"#utility.yul\":742:774   */\n      swap1\n      pop\n        /* \"#utility.yul\":690:780   */\n      swap2\n      swap1\n      pop\n      jump\t// out\n        /* \"#utility.yul\":786:902   */\n    tag_226:\n        /* \"#utility.yul\":856:877   */\n      tag_294\n        /* \"#utility.yul\":871:876   */\n      dup2\n        /* \"#utility.yul\":856:877   */\n      tag_225\n      jump\t// in\n    tag_294:\n        /* \"#utility.yul\":849:854   */\n      dup2\n        /* \"#utility.yul\":846:878   */\n      eq\n        /* \"#utility.yul\":836:896   */\n      tag_295\n      jumpi\n        /* \"#utility.yul\":892:893   */\n      0x00\n        /* \"#utility.yul\":889:890   */\n      dup1\n        /* \"#utility.yul\":882:894   */\n      revert\n        /* \"#utility.yul\":836:896   */\n    tag_295:\n        /* \"#utility.yul\":786:902   */\n      pop\n      jump\t// out\n        /* \"#utility.yul\":908:1041   */\n    tag_227:\n        /* \"#utility.yul\":951:956   */\n      0x00\n        /* \"#utility.yul\":989:995   */\n      dup2\n        /* \"#utility.yul\":976:996   */\n      calldataload\n        /* \"#utility.yul\":967:996   */\n      swap1\n      pop\n        /* \"#utility.yul\":1005:1035   */\n      tag_297\n        /* \"#utility.yul\":1029:1034   */\n      dup2\n        /* \"#utility.yul\":1005:1035   */\n      tag_226\n      jump\t// in\n    tag_297:\n        /* \"#utility.yul\":908:1041   */\n      swap3\n      swap2\n      pop\n      pop\n      jump\t// out\n        /* \"#utility.yul\":1047:1515   */\n    tag_16:\n        /* \"#utility.yul\":1112:1118   */\n      0x00\n        /* \"#utility.yul\":1120:1126   */\n      dup1\n        /* \"#utility.yul\":1169:1171   */\n      0x40\n        /* \"#utility.yul\":1157:1166   */\n      dup4\n        /* \"#utility.yul\":1148:1155   */\n      dup6\n        /* \"#utility.yul\":1144:1167   */\n      sub\n        /* \"#utility.yul\":1140:1172   */\n      slt\n        /* \"#utility.yul\":1137:1256   */\n      iszero\n      tag_299\n      jumpi\n        /* \"#utility.yul\":1175:1254   */\n      tag_300\n      tag_220\n      jump\t// in\n    tag_300:\n        /* \"#utility.yul\":1137:1256   */\n    tag_299:\n        /* \"#utility.yul\":1295:1296   */\n      0x00\n        /* \"#utility.yul\":1320:1373   */\n      tag_301\n        /* \"#utility.yul\":1365:1372   */\n      dup6\n        /* \"#utility.yul\":1356:1362   */\n      dup3\n        /* \"#utility.yul\":1345:1354   */\n      dup7\n        /* \"#utility.yul\":1341:1363   */\n      add\n        /* \"#utility.yul\":1320:1373   */\n      tag_224\n      jump\t// in\n    tag_301:\n        /* \"#utility.yul\":1310:1373   */\n      swap3\n      pop\n        /* \"#utility.yul\":1266:1383   */\n      pop\n        /* \"#utility.yul\":1422:1424   */\n      0x20\n        /* \"#utility.yul\":1448:1498   */\n      tag_302\n        /* \"#utility.yul\":1490:1497   */\n      dup6\n        /* \"#utility.yul\":1481:1487   */\n      dup3\n        /* \"#utility.yul\":1470:1479   */\n      dup7\n        /* \"#utility.yul\":1466:1488   */\n      add\n        /* \"#utility.yul\":1448:1498   */\n      tag_227\n      jump\t// in\n    tag_302:\n        /* \"#utility.yul\":1438:1498   */\n      swap2\n      pop\n        /* \"#utility.yul\":1393:1508   */\n      pop\n        /* \"#utility.yul\":1047:1515   */\n      swap3\n      pop\n      swap3\n      swap1\n      pop\n      jump\t// out\n        /* \"#utility.yul\":1521:1629   */\n    tag_228:\n        /* \"#utility.yul\":1598:1622   */\n      tag_304\n        /* \"#utility.yul\":1616:1621   */\n      dup2\n        /* \"#utility.yul\":1598:1622   */\n      tag_222\n      jump\t// in\n    tag_304:\n        /* \"#utility.yul\":1593:1596   */\n      dup3\n        /* \"#utility.yul\":1586:1623   */\n      mstore\n        /* \"#utility.yul\":1521:1629   */\n      pop\n      pop\n      jump\t// out\n        /* \"#utility.yul\":1635:1734   */\n    tag_229:\n        /* \"#utility.yul\":1687:1693   */\n      0x00\n        /* \"#utility.yul\":1721:1726   */\n      dup2\n        /* \"#utility.yul\":1715:1727   */\n      mload\n        /* \"#utility.yul\":1705:1727   */\n      swap1\n      pop\n        /* \"#utility.yul\":1635:1734   */\n      swap2\n      swap1\n      pop\n      jump\t// out\n        /* \"#utility.yul\":1740:1899   */\n    tag_230:\n        /* \"#utility.yul\":1814:1825   */\n      0x00\n        /* \"#utility.yul\":1848:1854   */\n      dup3\n        /* \"#utility.yul\":1843:1846   */\n      dup3\n        /* \"#utility.yul\":1836:1855   */\n      mstore\n        /* \"#utility.yul\":1888:1892   */\n      0x20\n        /* \"#utility.yul\":1883:1886   */\n      dup3\n        /* \"#utility.yul\":1879:1893   */\n      add\n        /* \"#utility.yul\":1864:1893   */\n      swap1\n      pop\n        /* \"#utility.yul\":1740:1899   */\n      swap3\n      swap2\n      pop\n      pop\n      jump\t// out\n        /* \"#utility.yul\":1905:2212   */\n    tag_231:\n        /* \"#utility.yul\":1973:1974   */\n      0x00\n        /* \"#utility.yul\":1983:2096   */\n    tag_308:\n        /* \"#utility.yul\":1997:2003   */\n      dup4\n        /* \"#utility.yul\":1994:1995   */\n      dup2\n        /* \"#utility.yul\":1991:2004   */\n      lt\n        /* \"#utility.yul\":1983:2096   */\n      iszero\n      tag_310\n      jumpi\n        /* \"#utility.yul\":2082:2083   */\n      dup1\n        /* \"#utility.yul\":2077:2080   */\n      dup3\n        /* \"#utility.yul\":2073:2084   */\n      add\n        /* \"#utility.yul\":2067:2085   */\n      mload\n        /* \"#utility.yul\":2063:2064   */\n      dup2\n        /* \"#utility.yul\":2058:2061   */\n      dup5\n        /* \"#utility.yul\":2054:2065   */\n      add\n        /* \"#utility.yul\":2047:2086   */\n      mstore\n        /* \"#utility.yul\":2019:2021   */\n      0x20\n        /* \"#utility.yul\":2016:2017   */\n      dup2\n        /* \"#utility.yul\":2012:2022   */\n      add\n        /* \"#utility.yul\":2007:2022   */\n      swap1\n      pop\n        /* \"#utility.yul\":1983:2096   */\n      jump(tag_308)\n    tag_310:\n        /* \"#utility.yul\":2114:2120   */\n      dup4\n        /* \"#utility.yul\":2111:2112   */\n      dup2\n        /* \"#utility.yul\":2108:2121   */\n      gt\n        /* \"#utility.yul\":2105:2206   */\n      iszero\n      tag_311\n      jumpi\n        /* \"#utility.yul\":2194:2195   */\n      0x00\n        /* \"#utility.yul\":2185:2191   */\n      dup5\n        /* \"#utility.yul\":2180:2183   */\n      dup5\n        /* \"#utility.yul\":2176:2192   */\n      add\n        /* \"#utility.yul\":2169:2196   */\n      mstore\n        /* \"#utility.yul\":2105:2206   */\n    tag_311:\n        /* \"#utility.yul\":1954:2212   */\n      pop\n        /* \"#utility.yul\":1905:2212   */\n      pop\n      pop\n      pop\n      jump\t// out\n        /* \"#utility.yul\":2218:2320   */\n    tag_232:\n        /* \"#utility.yul\":2259:2265   */\n      0x00\n        /* \"#utility.yul\":2310:2312   */\n      0x1f\n        /* \"#utility.yul\":2306:2313   */\n      not\n        /* \"#utility.yul\":2301:2303   */\n      0x1f\n        /* \"#utility.yul\":2294:2299   */\n      dup4\n        /* \"#utility.yul\":2290:2304   */\n      add\n        /* \"#utility.yul\":2286:2314   */\n      and\n        /* \"#utility.yul\":2276:2314   */\n      swap1\n      pop\n        /* \"#utility.yul\":2218:2320   */\n      swap2\n      swap1\n      pop\n      jump\t// out\n        /* \"#utility.yul\":2326:2670   */\n    tag_233:\n        /* \"#utility.yul\":2404:2407   */\n      0x00\n        /* \"#utility.yul\":2432:2471   */\n      tag_314\n        /* \"#utility.yul\":2465:2470   */\n      dup3\n        /* \"#utility.yul\":2432:2471   */\n      tag_229\n      jump\t// in\n    tag_314:\n        /* \"#utility.yul\":2487:2548   */\n      tag_315\n        /* \"#utility.yul\":2541:2547   */\n      dup2\n        /* \"#utility.yul\":2536:2539   */\n      dup6\n        /* \"#utility.yul\":2487:2548   */\n      tag_230\n      jump\t// in\n    tag_315:\n        /* \"#utility.yul\":2480:2548   */\n      swap4\n      pop\n        /* \"#utility.yul\":2557:2609   */\n      tag_316\n        /* \"#utility.yul\":2602:2608   */\n      dup2\n        /* \"#utility.yul\":2597:2600   */\n      dup6\n        /* \"#utility.yul\":2590:2594   */\n      0x20\n        /* \"#utility.yul\":2583:2588   */\n      dup7\n        /* \"#utility.yul\":2579:2595   */\n      add\n        /* \"#utility.yul\":2557:2609   */\n      tag_231\n      jump\t// in\n    tag_316:\n        /* \"#utility.yul\":2634:2663   */\n      tag_317\n        /* \"#utility.yul\":2656:2662   */\n      dup2\n        /* \"#utility.yul\":2634:2663   */\n      tag_232\n      jump\t// in\n    tag_317:\n        /* \"#utility.yul\":2629:2632   */\n      dup5\n        /* \"#utility.yul\":2625:2664   */\n      add\n        /* \"#utility.yul\":2618:2664   */\n      swap2\n      pop\n        /* \"#utility.yul\":2408:2670   */\n      pop\n        /* \"#utility.yul\":2326:2670   */\n      swap3\n      swap2\n      pop\n      pop\n      jump\t// out\n        /* \"#utility.yul\":2676:2856   */\n    tag_74:\n        /* \"#utility.yul\":2724:2801   */\n      0x4e487b7100000000000000000000000000000000000000000000000000000000\n        /* \"#utility.yul\":2721:2722   */\n      0x00\n        /* \"#utility.yul\":2714:2802   */\n      mstore\n        /* \"#utility.yul\":2821:2825   */\n      0x21\n        /* \"#utility.yul\":2818:2819   */\n      0x04\n        /* \"#utility.yul\":2811:2826   */\n      mstore\n        /* \"#utility.yul\":2845:2849   */\n      0x24\n        /* \"#utility.yul\":2842:2843   */\n      0x00\n        /* \"#utility.yul\":2835:2850   */\n      revert\n        /* \"#utility.yul\":2862:2986   */\n    tag_234:\n        /* \"#utility.yul\":2954:2955   */\n      0x02\n        /* \"#utility.yul\":2947:2952   */\n      dup2\n        /* \"#utility.yul\":2944:2956   */\n      lt\n        /* \"#utility.yul\":2934:2980   */\n      tag_320\n      jumpi\n        /* \"#utility.yul\":2960:2978   */\n      tag_321\n      tag_74\n      jump\t// in\n    tag_321:\n        /* \"#utility.yul\":2934:2980   */\n    tag_320:\n        /* \"#utility.yul\":2862:2986   */\n      pop\n      jump\t// out\n        /* \"#utility.yul\":2992:3141   */\n    tag_235:\n        /* \"#utility.yul\":3048:3055   */\n      0x00\n        /* \"#utility.yul\":3077:3082   */\n      dup2\n        /* \"#utility.yul\":3066:3082   */\n      swap1\n      pop\n        /* \"#utility.yul\":3083:3135   */\n      tag_323\n        /* \"#utility.yul\":3129:3134   */\n      dup3\n        /* \"#utility.yul\":3083:3135   */\n      tag_234\n      jump\t// in\n    tag_323:\n        /* \"#utility.yul\":2992:3141   */\n      swap2\n      swap1\n      pop\n      jump\t// out\n        /* \"#utility.yul\":3147:3296   */\n    tag_236:\n        /* \"#utility.yul\":3214:3223   */\n      0x00\n        /* \"#utility.yul\":3247:3290   */\n      tag_325\n        /* \"#utility.yul\":3284:3289   */\n      dup3\n        /* \"#utility.yul\":3247:3290   */\n      tag_235\n      jump\t// in\n    tag_325:\n        /* \"#utility.yul\":3234:3290   */\n      swap1\n      pop\n        /* \"#utility.yul\":3147:3296   */\n      swap2\n      swap1\n      pop\n      jump\t// out\n        /* \"#utility.yul\":3302:3457   */\n    tag_237:\n        /* \"#utility.yul\":3396:3450   */\n      tag_327\n        /* \"#utility.yul\":3444:3449   */\n      dup2\n        /* \"#utility.yul\":3396:3450   */\n      tag_236\n      jump\t// in\n    tag_327:\n        /* \"#utility.yul\":3391:3394   */\n      dup3\n        /* \"#utility.yul\":3384:3451   */\n      mstore\n        /* \"#utility.yul\":3302:3457   */\n      pop\n      pop\n      jump\t// out\n        /* \"#utility.yul\":3519:5125   */\n    tag_238:\n        /* \"#utility.yul\":3636:3639   */\n      0x00\n        /* \"#utility.yul\":3672:3676   */\n      0xe0\n        /* \"#utility.yul\":3667:3670   */\n      dup4\n        /* \"#utility.yul\":3663:3677   */\n      add\n        /* \"#utility.yul\":3764:3768   */\n      0x00\n        /* \"#utility.yul\":3757:3762   */\n      dup4\n        /* \"#utility.yul\":3753:3769   */\n      add\n        /* \"#utility.yul\":3747:3770   */\n      mload\n        /* \"#utility.yul\":3783:3846   */\n      tag_329\n        /* \"#utility.yul\":3840:3844   */\n      0x00\n        /* \"#utility.yul\":3835:3838   */\n      dup7\n        /* \"#utility.yul\":3831:3845   */\n      add\n        /* \"#utility.yul\":3817:3829   */\n      dup3\n        /* \"#utility.yul\":3783:3846   */\n      tag_228\n      jump\t// in\n    tag_329:\n        /* \"#utility.yul\":3687:3856   */\n      pop\n        /* \"#utility.yul\":3942:3946   */\n      0x20\n        /* \"#utility.yul\":3935:3940   */\n      dup4\n        /* \"#utility.yul\":3931:3947   */\n      add\n        /* \"#utility.yul\":3925:3948   */\n      mload\n        /* \"#utility.yul\":3995:3998   */\n      dup5\n        /* \"#utility.yul\":3989:3993   */\n      dup3\n        /* \"#utility.yul\":3985:3999   */\n      sub\n        /* \"#utility.yul\":3978:3982   */\n      0x20\n        /* \"#utility.yul\":3973:3976   */\n      dup7\n        /* \"#utility.yul\":3969:3983   */\n      add\n        /* \"#utility.yul\":3962:4000   */\n      mstore\n        /* \"#utility.yul\":4021:4094   */\n      tag_330\n        /* \"#utility.yul\":4089:4093   */\n      dup3\n        /* \"#utility.yul\":4075:4087   */\n      dup3\n        /* \"#utility.yul\":4021:4094   */\n      tag_233\n      jump\t// in\n    tag_330:\n        /* \"#utility.yul\":4013:4094   */\n      swap2\n      pop\n        /* \"#utility.yul\":3866:4105   */\n      pop\n        /* \"#utility.yul\":4192:4196   */\n      0x40\n        /* \"#utility.yul\":4185:4190   */\n      dup4\n        /* \"#utility.yul\":4181:4197   */\n      add\n        /* \"#utility.yul\":4175:4198   */\n      mload\n        /* \"#utility.yul\":4245:4248   */\n      dup5\n        /* \"#utility.yul\":4239:4243   */\n      dup3\n        /* \"#utility.yul\":4235:4249   */\n      sub\n        /* \"#utility.yul\":4228:4232   */\n      0x40\n        /* \"#utility.yul\":4223:4226   */\n      dup7\n        /* \"#utility.yul\":4219:4233   */\n      add\n        /* \"#utility.yul\":4212:4250   */\n      mstore\n        /* \"#utility.yul\":4271:4344   */\n      tag_331\n        /* \"#utility.yul\":4339:4343   */\n      dup3\n        /* \"#utility.yul\":4325:4337   */\n      dup3\n        /* \"#utility.yul\":4271:4344   */\n      tag_233\n      jump\t// in\n    tag_331:\n        /* \"#utility.yul\":4263:4344   */\n      swap2\n      pop\n        /* \"#utility.yul\":4115:4355   */\n      pop\n        /* \"#utility.yul\":4446:4450   */\n      0x60\n        /* \"#utility.yul\":4439:4444   */\n      dup4\n        /* \"#utility.yul\":4435:4451   */\n      add\n        /* \"#utility.yul\":4429:4452   */\n      mload\n        /* \"#utility.yul\":4465:4528   */\n      tag_332\n        /* \"#utility.yul\":4522:4526   */\n      0x60\n        /* \"#utility.yul\":4517:4520   */\n      dup7\n        /* \"#utility.yul\":4513:4527   */\n      add\n        /* \"#utility.yul\":4499:4511   */\n      dup3\n        /* \"#utility.yul\":4465:4528   */\n      tag_228\n      jump\t// in\n    tag_332:\n        /* \"#utility.yul\":4365:4538   */\n      pop\n        /* \"#utility.yul\":4627:4631   */\n      0x80\n        /* \"#utility.yul\":4620:4625   */\n      dup4\n        /* \"#utility.yul\":4616:4632   */\n      add\n        /* \"#utility.yul\":4610:4633   */\n      mload\n        /* \"#utility.yul\":4646:4709   */\n      tag_333\n        /* \"#utility.yul\":4703:4707   */\n      0x80\n        /* \"#utility.yul\":4698:4701   */\n      dup7\n        /* \"#utility.yul\":4694:4708   */\n      add\n        /* \"#utility.yul\":4680:4692   */\n      dup3\n        /* \"#utility.yul\":4646:4709   */\n      tag_228\n      jump\t// in\n    tag_333:\n        /* \"#utility.yul\":4548:4719   */\n      pop\n        /* \"#utility.yul\":4806:4810   */\n      0xa0\n        /* \"#utility.yul\":4799:4804   */\n      dup4\n        /* \"#utility.yul\":4795:4811   */\n      add\n        /* \"#utility.yul\":4789:4812   */\n      mload\n        /* \"#utility.yul\":4825:4888   */\n      tag_334\n        /* \"#utility.yul\":4882:4886   */\n      0xa0\n        /* \"#utility.yul\":4877:4880   */\n      dup7\n        /* \"#utility.yul\":4873:4887   */\n      add\n        /* \"#utility.yul\":4859:4871   */\n      dup3\n        /* \"#utility.yul\":4825:4888   */\n      tag_228\n      jump\t// in\n    tag_334:\n        /* \"#utility.yul\":4729:4898   */\n      pop\n        /* \"#utility.yul\":4989:4993   */\n      0xc0\n        /* \"#utility.yul\":4982:4987   */\n      dup4\n        /* \"#utility.yul\":4978:4994   */\n      add\n        /* \"#utility.yul\":4972:4995   */\n      mload\n        /* \"#utility.yul\":5008:5088   */\n      tag_335\n        /* \"#utility.yul\":5082:5086   */\n      0xc0\n        /* \"#utility.yul\":5077:5080   */\n      dup7\n        /* \"#utility.yul\":5073:5087   */\n      add\n        /* \"#utility.yul\":5059:5071   */\n      dup3\n        /* \"#utility.yul\":5008:5088   */\n      tag_237\n      jump\t// in\n    tag_335:\n        /* \"#utility.yul\":4908:5098   */\n      pop\n        /* \"#utility.yul\":5115:5119   */\n      dup1\n        /* \"#utility.yul\":5108:5119   */\n      swap2\n      pop\n        /* \"#utility.yul\":3641:5125   */\n      pop\n        /* \"#utility.yul\":3519:5125   */\n      swap3\n      swap2\n      pop\n      pop\n      jump\t// out\n        /* \"#utility.yul\":5131:5500   */\n    tag_19:\n        /* \"#utility.yul\":5272:5276   */\n      0x00\n        /* \"#utility.yul\":5310:5312   */\n      0x20\n        /* \"#utility.yul\":5299:5308   */\n      dup3\n        /* \"#utility.yul\":5295:5313   */\n      add\n        /* \"#utility.yul\":5287:5313   */\n      swap1\n      pop\n        /* \"#utility.yul\":5359:5368   */\n      dup2\n        /* \"#utility.yul\":5353:5357   */\n      dup2\n        /* \"#utility.yul\":5349:5369   */\n      sub\n        /* \"#utility.yul\":5345:5346   */\n      0x00\n        /* \"#utility.yul\":5334:5343   */\n      dup4\n        /* \"#utility.yul\":5330:5347   */\n      add\n        /* \"#utility.yul\":5323:5370   */\n      mstore\n        /* \"#utility.yul\":5387:5493   */\n      tag_337\n        /* \"#utility.yul\":5488:5492   */\n      dup2\n        /* \"#utility.yul\":5479:5485   */\n      dup5\n        /* \"#utility.yul\":5387:5493   */\n      tag_238\n      jump\t// in\n    tag_337:\n        /* \"#utility.yul\":5379:5493   */\n      swap1\n      pop\n        /* \"#utility.yul\":5131:5500   */\n      swap3\n      swap2\n      pop\n      pop\n      jump\t// out\n        /* \"#utility.yul\":5506:5623   */\n    tag_239:\n        /* \"#utility.yul\":5615:5616   */\n      0x00\n        /* \"#utility.yul\":5612:5613   */\n      dup1\n        /* \"#utility.yul\":5605:5617   */\n      revert\n        /* \"#utility.yul\":5629:5746   */\n    tag_240:\n        /* \"#utility.yul\":5738:5739   */\n      0x00\n        /* \"#utility.yul\":5735:5736   */\n      dup1\n        /* \"#utility.yul\":5728:5740   */\n      revert\n        /* \"#utility.yul\":5752:5932   */\n    tag_151:\n        /* \"#utility.yul\":5800:5877   */\n      0x4e487b7100000000000000000000000000000000000000000000000000000000\n        /* \"#utility.yul\":5797:5798   */\n      0x00\n        /* \"#utility.yul\":5790:5878   */\n      mstore\n        /* \"#utility.yul\":5897:5901   */\n      0x41\n        /* \"#utility.yul\":5894:5895   */\n      0x04\n        /* \"#utility.yul\":5887:5902   */\n      mstore\n        /* \"#utility.yul\":5921:5925   */\n      0x24\n        /* \"#utility.yul\":5918:5919   */\n      0x00\n        /* \"#utility.yul\":5911:5926   */\n      revert\n        /* \"#utility.yul\":5938:6219   */\n    tag_241:\n        /* \"#utility.yul\":6021:6048   */\n      tag_342\n        /* \"#utility.yul\":6043:6047   */\n      dup3\n        /* \"#utility.yul\":6021:6048   */\n      tag_232\n      jump\t// in\n    tag_342:\n        /* \"#utility.yul\":6013:6019   */\n      dup2\n        /* \"#utility.yul\":6009:6049   */\n      add\n        /* \"#utility.yul\":6151:6157   */\n      dup2\n        /* \"#utility.yul\":6139:6149   */\n      dup2\n        /* \"#utility.yul\":6136:6158   */\n      lt\n        /* \"#utility.yul\":6115:6133   */\n      0xffffffffffffffff\n        /* \"#utility.yul\":6103:6113   */\n      dup3\n        /* \"#utility.yul\":6100:6134   */\n      gt\n        /* \"#utility.yul\":6097:6159   */\n      or\n        /* \"#utility.yul\":6094:6182   */\n      iszero\n      tag_343\n      jumpi\n        /* \"#utility.yul\":6162:6180   */\n      tag_344\n      tag_151\n      jump\t// in\n    tag_344:\n        /* \"#utility.yul\":6094:6182   */\n    tag_343:\n        /* \"#utility.yul\":6202:6212   */\n      dup1\n        /* \"#utility.yul\":6198:6200   */\n      0x40\n        /* \"#utility.yul\":6191:6213   */\n      mstore\n        /* \"#utility.yul\":5981:6219   */\n      pop\n        /* \"#utility.yul\":5938:6219   */\n      pop\n      pop\n      jump\t// out\n        /* \"#utility.yul\":6225:6354   */\n    tag_242:\n        /* \"#utility.yul\":6259:6265   */\n      0x00\n        /* \"#utility.yul\":6286:6306   */\n      tag_346\n      tag_219\n      jump\t// in\n    tag_346:\n        /* \"#utility.yul\":6276:6306   */\n      swap1\n      pop\n        /* \"#utility.yul\":6315:6348   */\n      tag_347\n        /* \"#utility.yul\":6343:6347   */\n      dup3\n        /* \"#utility.yul\":6335:6341   */\n      dup3\n        /* \"#utility.yul\":6315:6348   */\n      tag_241\n      jump\t// in\n    tag_347:\n        /* \"#utility.yul\":6225:6354   */\n      swap2\n      swap1\n      pop\n      jump\t// out\n        /* \"#utility.yul\":6360:6668   */\n    tag_243:\n        /* \"#utility.yul\":6422:6426   */\n      0x00\n        /* \"#utility.yul\":6512:6530   */\n      0xffffffffffffffff\n        /* \"#utility.yul\":6504:6510   */\n      dup3\n        /* \"#utility.yul\":6501:6531   */\n      gt\n        /* \"#utility.yul\":6498:6554   */\n      iszero\n      tag_349\n      jumpi\n        /* \"#utility.yul\":6534:6552   */\n      tag_350\n      tag_151\n      jump\t// in\n    tag_350:\n        /* \"#utility.yul\":6498:6554   */\n    tag_349:\n        /* \"#utility.yul\":6572:6601   */\n      tag_351\n        /* \"#utility.yul\":6594:6600   */\n      dup3\n        /* \"#utility.yul\":6572:6601   */\n      tag_232\n      jump\t// in\n    tag_351:\n        /* \"#utility.yul\":6564:6601   */\n      swap1\n      pop\n        /* \"#utility.yul\":6656:6660   */\n      0x20\n        /* \"#utility.yul\":6650:6654   */\n      dup2\n        /* \"#utility.yul\":6646:6661   */\n      add\n        /* \"#utility.yul\":6638:6661   */\n      swap1\n      pop\n        /* \"#utility.yul\":6360:6668   */\n      swap2\n      swap1\n      pop\n      jump\t// out\n        /* \"#utility.yul\":6674:6828   */\n    tag_244:\n        /* \"#utility.yul\":6758:6764   */\n      dup3\n        /* \"#utility.yul\":6753:6756   */\n      dup2\n        /* \"#utility.yul\":6748:6751   */\n      dup4\n        /* \"#utility.yul\":6735:6765   */\n      calldatacopy\n        /* \"#utility.yul\":6820:6821   */\n      0x00\n        /* \"#utility.yul\":6811:6817   */\n      dup4\n        /* \"#utility.yul\":6806:6809   */\n      dup4\n        /* \"#utility.yul\":6802:6818   */\n      add\n        /* \"#utility.yul\":6795:6822   */\n      mstore\n        /* \"#utility.yul\":6674:6828   */\n      pop\n      pop\n      pop\n      jump\t// out\n        /* \"#utility.yul\":6834:7246   */\n    tag_245:\n        /* \"#utility.yul\":6912:6917   */\n      0x00\n        /* \"#utility.yul\":6937:7003   */\n      tag_354\n        /* \"#utility.yul\":6953:7002   */\n      tag_355\n        /* \"#utility.yul\":6995:7001   */\n      dup5\n        /* \"#utility.yul\":6953:7002   */\n      tag_243\n      jump\t// in\n    tag_355:\n        /* \"#utility.yul\":6937:7003   */\n      tag_242\n      jump\t// in\n    tag_354:\n        /* \"#utility.yul\":6928:7003   */\n      swap1\n      pop\n        /* \"#utility.yul\":7026:7032   */\n      dup3\n        /* \"#utility.yul\":7019:7024   */\n      dup2\n        /* \"#utility.yul\":7012:7033   */\n      mstore\n        /* \"#utility.yul\":7064:7068   */\n      0x20\n        /* \"#utility.yul\":7057:7062   */\n      dup2\n        /* \"#utility.yul\":7053:7069   */\n      add\n        /* \"#utility.yul\":7102:7105   */\n      dup5\n        /* \"#utility.yul\":7093:7099   */\n      dup5\n        /* \"#utility.yul\":7088:7091   */\n      dup5\n        /* \"#utility.yul\":7084:7100   */\n      add\n        /* \"#utility.yul\":7081:7106   */\n      gt\n        /* \"#utility.yul\":7078:7190   */\n      iszero\n      tag_356\n      jumpi\n        /* \"#utility.yul\":7109:7188   */\n      tag_357\n      tag_240\n      jump\t// in\n    tag_357:\n        /* \"#utility.yul\":7078:7190   */\n    tag_356:\n        /* \"#utility.yul\":7199:7240   */\n      tag_358\n        /* \"#utility.yul\":7233:7239   */\n      dup5\n        /* \"#utility.yul\":7228:7231   */\n      dup3\n        /* \"#utility.yul\":7223:7226   */\n      dup6\n        /* \"#utility.yul\":7199:7240   */\n      tag_244\n      jump\t// in\n    tag_358:\n        /* \"#utility.yul\":6918:7246   */\n      pop\n        /* \"#utility.yul\":6834:7246   */\n      swap4\n      swap3\n      pop\n      pop\n      pop\n      jump\t// out\n        /* \"#utility.yul\":7266:7606   */\n    tag_246:\n        /* \"#utility.yul\":7322:7327   */\n      0x00\n        /* \"#utility.yul\":7371:7374   */\n      dup3\n        /* \"#utility.yul\":7364:7368   */\n      0x1f\n        /* \"#utility.yul\":7356:7362   */\n      dup4\n        /* \"#utility.yul\":7352:7369   */\n      add\n        /* \"#utility.yul\":7348:7375   */\n      slt\n        /* \"#utility.yul\":7338:7460   */\n      tag_360\n      jumpi\n        /* \"#utility.yul\":7379:7458   */\n      tag_361\n      tag_239\n      jump\t// in\n    tag_361:\n        /* \"#utility.yul\":7338:7460   */\n    tag_360:\n        /* \"#utility.yul\":7496:7502   */\n      dup2\n        /* \"#utility.yul\":7483:7503   */\n      calldataload\n        /* \"#utility.yul\":7521:7600   */\n      tag_362\n        /* \"#utility.yul\":7596:7599   */\n      dup5\n        /* \"#utility.yul\":7588:7594   */\n      dup3\n        /* \"#utility.yul\":7581:7585   */\n      0x20\n        /* \"#utility.yul\":7573:7579   */\n      dup7\n        /* \"#utility.yul\":7569:7586   */\n      add\n        /* \"#utility.yul\":7521:7600   */\n      tag_245\n      jump\t// in\n    tag_362:\n        /* \"#utility.yul\":7512:7600   */\n      swap2\n      pop\n        /* \"#utility.yul\":7328:7606   */\n      pop\n        /* \"#utility.yul\":7266:7606   */\n      swap3\n      swap2\n      pop\n      pop\n      jump\t// out\n        /* \"#utility.yul\":7612:8121   */\n    tag_22:\n        /* \"#utility.yul\":7681:7687   */\n      0x00\n        /* \"#utility.yul\":7730:7732   */\n      0x20\n        /* \"#utility.yul\":7718:7727   */\n      dup3\n        /* \"#utility.yul\":7709:7716   */\n      dup5\n        /* \"#utility.yul\":7705:7728   */\n      sub\n        /* \"#utility.yul\":7701:7733   */\n      slt\n        /* \"#utility.yul\":7698:7817   */\n      iszero\n      tag_364\n      jumpi\n        /* \"#utility.yul\":7736:7815   */\n      tag_365\n      tag_220\n      jump\t// in\n    tag_365:\n        /* \"#utility.yul\":7698:7817   */\n    tag_364:\n        /* \"#utility.yul\":7884:7885   */\n      0x00\n        /* \"#utility.yul\":7873:7882   */\n      dup3\n        /* \"#utility.yul\":7869:7886   */\n      add\n        /* \"#utility.yul\":7856:7887   */\n      calldataload\n        /* \"#utility.yul\":7914:7932   */\n      0xffffffffffffffff\n        /* \"#utility.yul\":7906:7912   */\n      dup2\n        /* \"#utility.yul\":7903:7933   */\n      gt\n        /* \"#utility.yul\":7900:8017   */\n      iszero\n      tag_366\n      jumpi\n        /* \"#utility.yul\":7936:8015   */\n      tag_367\n      tag_221\n      jump\t// in\n    tag_367:\n        /* \"#utility.yul\":7900:8017   */\n    tag_366:\n        /* \"#utility.yul\":8041:8104   */\n      tag_368\n        /* \"#utility.yul\":8096:8103   */\n      dup5\n        /* \"#utility.yul\":8087:8093   */\n      dup3\n        /* \"#utility.yul\":8076:8085   */\n      dup6\n        /* \"#utility.yul\":8072:8094   */\n      add\n        /* \"#utility.yul\":8041:8104   */\n      tag_246\n      jump\t// in\n    tag_368:\n        /* \"#utility.yul\":8031:8104   */\n      swap2\n      pop\n        /* \"#utility.yul\":7827:8114   */\n      pop\n        /* \"#utility.yul\":7612:8121   */\n      swap3\n      swap2\n      pop\n      pop\n      jump\t// out\n        /* \"#utility.yul\":8127:8245   */\n    tag_247:\n        /* \"#utility.yul\":8214:8238   */\n      tag_370\n        /* \"#utility.yul\":8232:8237   */\n      dup2\n        /* \"#utility.yul\":8214:8238   */\n      tag_222\n      jump\t// in\n    tag_370:\n        /* \"#utility.yul\":8209:8212   */\n      dup3\n        /* \"#utility.yul\":8202:8239   */\n      mstore\n        /* \"#utility.yul\":8127:8245   */\n      pop\n      pop\n      jump\t// out\n        /* \"#utility.yul\":8251:8473   */\n    tag_25:\n        /* \"#utility.yul\":8344:8348   */\n      0x00\n        /* \"#utility.yul\":8382:8384   */\n      0x20\n        /* \"#utility.yul\":8371:8380   */\n      dup3\n        /* \"#utility.yul\":8367:8385   */\n      add\n        /* \"#utility.yul\":8359:8385   */\n      swap1\n      pop\n        /* \"#utility.yul\":8395:8466   */\n      tag_372\n        /* \"#utility.yul\":8463:8464   */\n      0x00\n        /* \"#utility.yul\":8452:8461   */\n      dup4\n        /* \"#utility.yul\":8448:8465   */\n      add\n        /* \"#utility.yul\":8439:8445   */\n      dup5\n        /* \"#utility.yul\":8395:8466   */\n      tag_247\n      jump\t// in\n    tag_372:\n        /* \"#utility.yul\":8251:8473   */\n      swap3\n      swap2\n      pop\n      pop\n      jump\t// out\n        /* \"#utility.yul\":8479:8808   */\n    tag_28:\n        /* \"#utility.yul\":8538:8544   */\n      0x00\n        /* \"#utility.yul\":8587:8589   */\n      0x20\n        /* \"#utility.yul\":8575:8584   */\n      dup3\n        /* \"#utility.yul\":8566:8573   */\n      dup5\n        /* \"#utility.yul\":8562:8585   */\n      sub\n        /* \"#utility.yul\":8558:8590   */\n      slt\n        /* \"#utility.yul\":8555:8674   */\n      iszero\n      tag_374\n      jumpi\n        /* \"#utility.yul\":8593:8672   */\n      tag_375\n      tag_220\n      jump\t// in\n    tag_375:\n        /* \"#utility.yul\":8555:8674   */\n    tag_374:\n        /* \"#utility.yul\":8713:8714   */\n      0x00\n        /* \"#utility.yul\":8738:8791   */\n      tag_376\n        /* \"#utility.yul\":8783:8790   */\n      dup5\n        /* \"#utility.yul\":8774:8780   */\n      dup3\n        /* \"#utility.yul\":8763:8772   */\n      dup6\n        /* \"#utility.yul\":8759:8781   */\n      add\n        /* \"#utility.yul\":8738:8791   */\n      tag_224\n      jump\t// in\n    tag_376:\n        /* \"#utility.yul\":8728:8791   */\n      swap2\n      pop\n        /* \"#utility.yul\":8684:8801   */\n      pop\n        /* \"#utility.yul\":8479:8808   */\n      swap3\n      swap2\n      pop\n      pop\n      jump\t// out\n        /* \"#utility.yul\":8814:8983   */\n    tag_248:\n        /* \"#utility.yul\":8898:8909   */\n      0x00\n        /* \"#utility.yul\":8932:8938   */\n      dup3\n        /* \"#utility.yul\":8927:8930   */\n      dup3\n        /* \"#utility.yul\":8920:8939   */\n      mstore\n        /* \"#utility.yul\":8972:8976   */\n      0x20\n        /* \"#utility.yul\":8967:8970   */\n      dup3\n        /* \"#utility.yul\":8963:8977   */\n      add\n        /* \"#utility.yul\":8948:8977   */\n      swap1\n      pop\n        /* \"#utility.yul\":8814:8983   */\n      swap3\n      swap2\n      pop\n      pop\n      jump\t// out\n        /* \"#utility.yul\":8989:9353   */\n    tag_249:\n        /* \"#utility.yul\":9077:9080   */\n      0x00\n        /* \"#utility.yul\":9105:9144   */\n      tag_379\n        /* \"#utility.yul\":9138:9143   */\n      dup3\n        /* \"#utility.yul\":9105:9144   */\n      tag_229\n      jump\t// in\n    tag_379:\n        /* \"#utility.yul\":9160:9231   */\n      tag_380\n        /* \"#utility.yul\":9224:9230   */\n      dup2\n        /* \"#utility.yul\":9219:9222   */\n      dup6\n        /* \"#utility.yul\":9160:9231   */\n      tag_248\n      jump\t// in\n    tag_380:\n        /* \"#utility.yul\":9153:9231   */\n      swap4\n      pop\n        /* \"#utility.yul\":9240:9292   */\n      tag_381\n        /* \"#utility.yul\":9285:9291   */\n      dup2\n        /* \"#utility.yul\":9280:9283   */\n      dup6\n        /* \"#utility.yul\":9273:9277   */\n      0x20\n        /* \"#utility.yul\":9266:9271   */\n      dup7\n        /* \"#utility.yul\":9262:9278   */\n      add\n        /* \"#utility.yul\":9240:9292   */\n      tag_231\n      jump\t// in\n    tag_381:\n        /* \"#utility.yul\":9317:9346   */\n      tag_382\n        /* \"#utility.yul\":9339:9345   */\n      dup2\n        /* \"#utility.yul\":9317:9346   */\n      tag_232\n      jump\t// in\n    tag_382:\n        /* \"#utility.yul\":9312:9315   */\n      dup5\n        /* \"#utility.yul\":9308:9347   */\n      add\n        /* \"#utility.yul\":9301:9347   */\n      swap2\n      pop\n        /* \"#utility.yul\":9081:9353   */\n      pop\n        /* \"#utility.yul\":8989:9353   */\n      swap3\n      swap2\n      pop\n      pop\n      jump\t// out\n        /* \"#utility.yul\":9359:9524   */\n    tag_250:\n        /* \"#utility.yul\":9463:9517   */\n      tag_384\n        /* \"#utility.yul\":9511:9516   */\n      dup2\n        /* \"#utility.yul\":9463:9517   */\n      tag_236\n      jump\t// in\n    tag_384:\n        /* \"#utility.yul\":9458:9461   */\n      dup3\n        /* \"#utility.yul\":9451:9518   */\n      mstore\n        /* \"#utility.yul\":9359:9524   */\n      pop\n      pop\n      jump\t// out\n        /* \"#utility.yul\":9530:10632   */\n    tag_31:\n        /* \"#utility.yul\":9848:9852   */\n      0x00\n        /* \"#utility.yul\":9886:9889   */\n      0xe0\n        /* \"#utility.yul\":9875:9884   */\n      dup3\n        /* \"#utility.yul\":9871:9890   */\n      add\n        /* \"#utility.yul\":9863:9890   */\n      swap1\n      pop\n        /* \"#utility.yul\":9900:9971   */\n      tag_386\n        /* \"#utility.yul\":9968:9969   */\n      0x00\n        /* \"#utility.yul\":9957:9966   */\n      dup4\n        /* \"#utility.yul\":9953:9970   */\n      add\n        /* \"#utility.yul\":9944:9950   */\n      dup11\n        /* \"#utility.yul\":9900:9971   */\n      tag_247\n      jump\t// in\n    tag_386:\n        /* \"#utility.yul\":10018:10027   */\n      dup2\n        /* \"#utility.yul\":10012:10016   */\n      dup2\n        /* \"#utility.yul\":10008:10028   */\n      sub\n        /* \"#utility.yul\":10003:10005   */\n      0x20\n        /* \"#utility.yul\":9992:10001   */\n      dup4\n        /* \"#utility.yul\":9988:10006   */\n      add\n        /* \"#utility.yul\":9981:10029   */\n      mstore\n        /* \"#utility.yul\":10046:10124   */\n      tag_387\n        /* \"#utility.yul\":10119:10123   */\n      dup2\n        /* \"#utility.yul\":10110:10116   */\n      dup10\n        /* \"#utility.yul\":10046:10124   */\n      tag_249\n      jump\t// in\n    tag_387:\n        /* \"#utility.yul\":10038:10124   */\n      swap1\n      pop\n        /* \"#utility.yul\":10171:10180   */\n      dup2\n        /* \"#utility.yul\":10165:10169   */\n      dup2\n        /* \"#utility.yul\":10161:10181   */\n      sub\n        /* \"#utility.yul\":10156:10158   */\n      0x40\n        /* \"#utility.yul\":10145:10154   */\n      dup4\n        /* \"#utility.yul\":10141:10159   */\n      add\n        /* \"#utility.yul\":10134:10182   */\n      mstore\n        /* \"#utility.yul\":10199:10277   */\n      tag_388\n        /* \"#utility.yul\":10272:10276   */\n      dup2\n        /* \"#utility.yul\":10263:10269   */\n      dup9\n        /* \"#utility.yul\":10199:10277   */\n      tag_249\n      jump\t// in\n    tag_388:\n        /* \"#utility.yul\":10191:10277   */\n      swap1\n      pop\n        /* \"#utility.yul\":10287:10359   */\n      tag_389\n        /* \"#utility.yul\":10355:10357   */\n      0x60\n        /* \"#utility.yul\":10344:10353   */\n      dup4\n        /* \"#utility.yul\":10340:10358   */\n      add\n        /* \"#utility.yul\":10331:10337   */\n      dup8\n        /* \"#utility.yul\":10287:10359   */\n      tag_247\n      jump\t// in\n    tag_389:\n        /* \"#utility.yul\":10369:10442   */\n      tag_390\n        /* \"#utility.yul\":10437:10440   */\n      0x80\n        /* \"#utility.yul\":10426:10435   */\n      dup4\n        /* \"#utility.yul\":10422:10441   */\n      add\n        /* \"#utility.yul\":10413:10419   */\n      dup7\n        /* \"#utility.yul\":10369:10442   */\n      tag_247\n      jump\t// in\n    tag_390:\n        /* \"#utility.yul\":10452:10525   */\n      tag_391\n        /* \"#utility.yul\":10520:10523   */\n      0xa0\n        /* \"#utility.yul\":10509:10518   */\n      dup4\n        /* \"#utility.yul\":10505:10524   */\n      add\n        /* \"#utility.yul\":10496:10502   */\n      dup6\n        /* \"#utility.yul\":10452:10525   */\n      tag_247\n      jump\t// in\n    tag_391:\n        /* \"#utility.yul\":10535:10625   */\n      tag_392\n        /* \"#utility.yul\":10620:10623   */\n      0xc0\n        /* \"#utility.yul\":10609:10618   */\n      dup4\n        /* \"#utility.yul\":10605:10624   */\n      add\n        /* \"#utility.yul\":10596:10602   */\n      dup5\n        /* \"#utility.yul\":10535:10625   */\n      tag_250\n      jump\t// in\n    tag_392:\n        /* \"#utility.yul\":9530:10632   */\n      swap9\n      swap8\n      pop\n      pop\n      pop\n      pop\n      pop\n      pop\n      pop\n      pop\n      jump\t// out\n        /* \"#utility.yul\":10638:11617   */\n    tag_34:\n        /* \"#utility.yul\":10735:10741   */\n      0x00\n        /* \"#utility.yul\":10743:10749   */\n      dup1\n        /* \"#utility.yul\":10751:10757   */\n      0x00\n        /* \"#utility.yul\":10800:10802   */\n      0x60\n        /* \"#utility.yul\":10788:10797   */\n      dup5\n        /* \"#utility.yul\":10779:10786   */\n      dup7\n        /* \"#utility.yul\":10775:10798   */\n      sub\n        /* \"#utility.yul\":10771:10803   */\n      slt\n        /* \"#utility.yul\":10768:10887   */\n      iszero\n      tag_394\n      jumpi\n        /* \"#utility.yul\":10806:10885   */\n      tag_395\n      tag_220\n      jump\t// in\n    tag_395:\n        /* \"#utility.yul\":10768:10887   */\n    tag_394:\n        /* \"#utility.yul\":10954:10955   */\n      0x00\n        /* \"#utility.yul\":10943:10952   */\n      dup5\n        /* \"#utility.yul\":10939:10956   */\n      add\n        /* \"#utility.yul\":10926:10957   */\n      calldataload\n        /* \"#utility.yul\":10984:11002   */\n      0xffffffffffffffff\n        /* \"#utility.yul\":10976:10982   */\n      dup2\n        /* \"#utility.yul\":10973:11003   */\n      gt\n        /* \"#utility.yul\":10970:11087   */\n      iszero\n      tag_396\n      jumpi\n        /* \"#utility.yul\":11006:11085   */\n      tag_397\n      tag_221\n      jump\t// in\n    tag_397:\n        /* \"#utility.yul\":10970:11087   */\n    tag_396:\n        /* \"#utility.yul\":11111:11174   */\n      tag_398\n        /* \"#utility.yul\":11166:11173   */\n      dup7\n        /* \"#utility.yul\":11157:11163   */\n      dup3\n        /* \"#utility.yul\":11146:11155   */\n      dup8\n        /* \"#utility.yul\":11142:11164   */\n      add\n        /* \"#utility.yul\":11111:11174   */\n      tag_246\n      jump\t// in\n    tag_398:\n        /* \"#utility.yul\":11101:11174   */\n      swap4\n      pop\n        /* \"#utility.yul\":10897:11184   */\n      pop\n        /* \"#utility.yul\":11251:11253   */\n      0x20\n        /* \"#utility.yul\":11240:11249   */\n      dup5\n        /* \"#utility.yul\":11236:11254   */\n      add\n        /* \"#utility.yul\":11223:11255   */\n      calldataload\n        /* \"#utility.yul\":11282:11300   */\n      0xffffffffffffffff\n        /* \"#utility.yul\":11274:11280   */\n      dup2\n        /* \"#utility.yul\":11271:11301   */\n      gt\n        /* \"#utility.yul\":11268:11385   */\n      iszero\n      tag_399\n      jumpi\n        /* \"#utility.yul\":11304:11383   */\n      tag_400\n      tag_221\n      jump\t// in\n    tag_400:\n        /* \"#utility.yul\":11268:11385   */\n    tag_399:\n        /* \"#utility.yul\":11409:11472   */\n      tag_401\n        /* \"#utility.yul\":11464:11471   */\n      dup7\n        /* \"#utility.yul\":11455:11461   */\n      dup3\n        /* \"#utility.yul\":11444:11453   */\n      dup8\n        /* \"#utility.yul\":11440:11462   */\n      add\n        /* \"#utility.yul\":11409:11472   */\n      tag_246\n      jump\t// in\n    tag_401:\n        /* \"#utility.yul\":11399:11472   */\n      swap3\n      pop\n        /* \"#utility.yul\":11194:11482   */\n      pop\n        /* \"#utility.yul\":11521:11523   */\n      0x40\n        /* \"#utility.yul\":11547:11600   */\n      tag_402\n        /* \"#utility.yul\":11592:11599   */\n      dup7\n        /* \"#utility.yul\":11583:11589   */\n      dup3\n        /* \"#utility.yul\":11572:11581   */\n      dup8\n        /* \"#utility.yul\":11568:11590   */\n      add\n        /* \"#utility.yul\":11547:11600   */\n      tag_224\n      jump\t// in\n    tag_402:\n        /* \"#utility.yul\":11537:11600   */\n      swap2\n      pop\n        /* \"#utility.yul\":11492:11610   */\n      pop\n        /* \"#utility.yul\":10638:11617   */\n      swap3\n      pop\n      swap3\n      pop\n      swap3\n      jump\t// out\n        /* \"#utility.yul\":11623:11761   */\n    tag_251:\n        /* \"#utility.yul\":11714:11720   */\n      0x00\n        /* \"#utility.yul\":11748:11753   */\n      dup2\n        /* \"#utility.yul\":11742:11754   */\n      mload\n        /* \"#utility.yul\":11732:11754   */\n      swap1\n      pop\n        /* \"#utility.yul\":11623:11761   */\n      swap2\n      swap1\n      pop\n      jump\t// out\n        /* \"#utility.yul\":11767:11975   */\n    tag_252:\n        /* \"#utility.yul\":11890:11901   */\n      0x00\n        /* \"#utility.yul\":11924:11930   */\n      dup3\n        /* \"#utility.yul\":11919:11922   */\n      dup3\n        /* \"#utility.yul\":11912:11931   */\n      mstore\n        /* \"#utility.yul\":11964:11968   */\n      0x20\n        /* \"#utility.yul\":11959:11962   */\n      dup3\n        /* \"#utility.yul\":11955:11969   */\n      add\n        /* \"#utility.yul\":11940:11969   */\n      swap1\n      pop\n        /* \"#utility.yul\":11767:11975   */\n      swap3\n      swap2\n      pop\n      pop\n      jump\t// out\n        /* \"#utility.yul\":11981:12137   */\n    tag_253:\n        /* \"#utility.yul\":12072:12076   */\n      0x00\n        /* \"#utility.yul\":12095:12098   */\n      dup2\n        /* \"#utility.yul\":12087:12098   */\n      swap1\n      pop\n        /* \"#utility.yul\":12125:12129   */\n      0x20\n        /* \"#utility.yul\":12120:12123   */\n      dup3\n        /* \"#utility.yul\":12116:12130   */\n      add\n        /* \"#utility.yul\":12108:12130   */\n      swap1\n      pop\n        /* \"#utility.yul\":11981:12137   */\n      swap2\n      swap1\n      pop\n      jump\t// out\n        /* \"#utility.yul\":12199:13795   */\n    tag_254:\n        /* \"#utility.yul\":12306:12309   */\n      0x00\n        /* \"#utility.yul\":12342:12346   */\n      0xe0\n        /* \"#utility.yul\":12337:12340   */\n      dup4\n        /* \"#utility.yul\":12333:12347   */\n      add\n        /* \"#utility.yul\":12434:12438   */\n      0x00\n        /* \"#utility.yul\":12427:12432   */\n      dup4\n        /* \"#utility.yul\":12423:12439   */\n      add\n        /* \"#utility.yul\":12417:12440   */\n      mload\n        /* \"#utility.yul\":12453:12516   */\n      tag_407\n        /* \"#utility.yul\":12510:12514   */\n      0x00\n        /* \"#utility.yul\":12505:12508   */\n      dup7\n        /* \"#utility.yul\":12501:12515   */\n      add\n        /* \"#utility.yul\":12487:12499   */\n      dup3\n        /* \"#utility.yul\":12453:12516   */\n      tag_228\n      jump\t// in\n    tag_407:\n        /* \"#utility.yul\":12357:12526   */\n      pop\n        /* \"#utility.yul\":12612:12616   */\n      0x20\n        /* \"#utility.yul\":12605:12610   */\n      dup4\n        /* \"#utility.yul\":12601:12617   */\n      add\n        /* \"#utility.yul\":12595:12618   */\n      mload\n        /* \"#utility.yul\":12665:12668   */\n      dup5\n        /* \"#utility.yul\":12659:12663   */\n      dup3\n        /* \"#utility.yul\":12655:12669   */\n      sub\n        /* \"#utility.yul\":12648:12652   */\n      0x20\n        /* \"#utility.yul\":12643:12646   */\n      dup7\n        /* \"#utility.yul\":12639:12653   */\n      add\n        /* \"#utility.yul\":12632:12670   */\n      mstore\n        /* \"#utility.yul\":12691:12764   */\n      tag_408\n        /* \"#utility.yul\":12759:12763   */\n      dup3\n        /* \"#utility.yul\":12745:12757   */\n      dup3\n        /* \"#utility.yul\":12691:12764   */\n      tag_233\n      jump\t// in\n    tag_408:\n        /* \"#utility.yul\":12683:12764   */\n      swap2\n      pop\n        /* \"#utility.yul\":12536:12775   */\n      pop\n        /* \"#utility.yul\":12862:12866   */\n      0x40\n        /* \"#utility.yul\":12855:12860   */\n      dup4\n        /* \"#utility.yul\":12851:12867   */\n      add\n        /* \"#utility.yul\":12845:12868   */\n      mload\n        /* \"#utility.yul\":12915:12918   */\n      dup5\n        /* \"#utility.yul\":12909:12913   */\n      dup3\n        /* \"#utility.yul\":12905:12919   */\n      sub\n        /* \"#utility.yul\":12898:12902   */\n      0x40\n        /* \"#utility.yul\":12893:12896   */\n      dup7\n        /* \"#utility.yul\":12889:12903   */\n      add\n        /* \"#utility.yul\":12882:12920   */\n      mstore\n        /* \"#utility.yul\":12941:13014   */\n      tag_409\n        /* \"#utility.yul\":13009:13013   */\n      dup3\n        /* \"#utility.yul\":12995:13007   */\n      dup3\n        /* \"#utility.yul\":12941:13014   */\n      tag_233\n      jump\t// in\n    tag_409:\n        /* \"#utility.yul\":12933:13014   */\n      swap2\n      pop\n        /* \"#utility.yul\":12785:13025   */\n      pop\n        /* \"#utility.yul\":13116:13120   */\n      0x60\n        /* \"#utility.yul\":13109:13114   */\n      dup4\n        /* \"#utility.yul\":13105:13121   */\n      add\n        /* \"#utility.yul\":13099:13122   */\n      mload\n        /* \"#utility.yul\":13135:13198   */\n      tag_410\n        /* \"#utility.yul\":13192:13196   */\n      0x60\n        /* \"#utility.yul\":13187:13190   */\n      dup7\n        /* \"#utility.yul\":13183:13197   */\n      add\n        /* \"#utility.yul\":13169:13181   */\n      dup3\n        /* \"#utility.yul\":13135:13198   */\n      tag_228\n      jump\t// in\n    tag_410:\n        /* \"#utility.yul\":13035:13208   */\n      pop\n        /* \"#utility.yul\":13297:13301   */\n      0x80\n        /* \"#utility.yul\":13290:13295   */\n      dup4\n        /* \"#utility.yul\":13286:13302   */\n      add\n        /* \"#utility.yul\":13280:13303   */\n      mload\n        /* \"#utility.yul\":13316:13379   */\n      tag_411\n        /* \"#utility.yul\":13373:13377   */\n      0x80\n        /* \"#utility.yul\":13368:13371   */\n      dup7\n        /* \"#utility.yul\":13364:13378   */\n      add\n        /* \"#utility.yul\":13350:13362   */\n      dup3\n        /* \"#utility.yul\":13316:13379   */\n      tag_228\n      jump\t// in\n    tag_411:\n        /* \"#utility.yul\":13218:13389   */\n      pop\n        /* \"#utility.yul\":13476:13480   */\n      0xa0\n        /* \"#utility.yul\":13469:13474   */\n      dup4\n        /* \"#utility.yul\":13465:13481   */\n      add\n        /* \"#utility.yul\":13459:13482   */\n      mload\n        /* \"#utility.yul\":13495:13558   */\n      tag_412\n        /* \"#utility.yul\":13552:13556   */\n      0xa0\n        /* \"#utility.yul\":13547:13550   */\n      dup7\n        /* \"#utility.yul\":13543:13557   */\n      add\n        /* \"#utility.yul\":13529:13541   */\n      dup3\n        /* \"#utility.yul\":13495:13558   */\n      tag_228\n      jump\t// in\n    tag_412:\n        /* \"#utility.yul\":13399:13568   */\n      pop\n        /* \"#utility.yul\":13659:13663   */\n      0xc0\n        /* \"#utility.yul\":13652:13657   */\n      dup4\n        /* \"#utility.yul\":13648:13664   */\n      add\n        /* \"#utility.yul\":13642:13665   */\n      mload\n        /* \"#utility.yul\":13678:13758   */\n      tag_413\n        /* \"#utility.yul\":13752:13756   */\n      0xc0\n        /* \"#utility.yul\":13747:13750   */\n      dup7\n        /* \"#utility.yul\":13743:13757   */\n      add\n        /* \"#utility.yul\":13729:13741   */\n      dup3\n        /* \"#utility.yul\":13678:13758   */\n      tag_237\n      jump\t// in\n    tag_413:\n        /* \"#utility.yul\":13578:13768   */\n      pop\n        /* \"#utility.yul\":13785:13789   */\n      dup1\n        /* \"#utility.yul\":13778:13789   */\n      swap2\n      pop\n        /* \"#utility.yul\":12311:13795   */\n      pop\n        /* \"#utility.yul\":12199:13795   */\n      swap3\n      swap2\n      pop\n      pop\n      jump\t// out\n        /* \"#utility.yul\":13801:14053   */\n    tag_255:\n        /* \"#utility.yul\":13918:13928   */\n      0x00\n        /* \"#utility.yul\":13953:14047   */\n      tag_415\n        /* \"#utility.yul\":14043:14046   */\n      dup4\n        /* \"#utility.yul\":14035:14041   */\n      dup4\n        /* \"#utility.yul\":13953:14047   */\n      tag_254\n      jump\t// in\n    tag_415:\n        /* \"#utility.yul\":13939:14047   */\n      swap1\n      pop\n        /* \"#utility.yul\":13801:14053   */\n      swap3\n      swap2\n      pop\n      pop\n      jump\t// out\n        /* \"#utility.yul\":14059:14196   */\n    tag_256:\n        /* \"#utility.yul\":14153:14157   */\n      0x00\n        /* \"#utility.yul\":14185:14189   */\n      0x20\n        /* \"#utility.yul\":14180:14183   */\n      dup3\n        /* \"#utility.yul\":14176:14190   */\n      add\n        /* \"#utility.yul\":14168:14190   */\n      swap1\n      pop\n        /* \"#utility.yul\":14059:14196   */\n      swap2\n      swap1\n      pop\n      jump\t// out\n        /* \"#utility.yul\":14262:15365   */\n    tag_257:\n        /* \"#utility.yul\":14429:14432   */\n      0x00\n        /* \"#utility.yul\":14458:14536   */\n      tag_418\n        /* \"#utility.yul\":14530:14535   */\n      dup3\n        /* \"#utility.yul\":14458:14536   */\n      tag_251\n      jump\t// in\n    tag_418:\n        /* \"#utility.yul\":14552:14662   */\n      tag_419\n        /* \"#utility.yul\":14655:14661   */\n      dup2\n        /* \"#utility.yul\":14650:14653   */\n      dup6\n        /* \"#utility.yul\":14552:14662   */\n      tag_252\n      jump\t// in\n    tag_419:\n        /* \"#utility.yul\":14545:14662   */\n      swap4\n      pop\n        /* \"#utility.yul\":14688:14691   */\n      dup4\n        /* \"#utility.yul\":14733:14737   */\n      0x20\n        /* \"#utility.yul\":14725:14731   */\n      dup3\n        /* \"#utility.yul\":14721:14738   */\n      mul\n        /* \"#utility.yul\":14716:14719   */\n      dup6\n        /* \"#utility.yul\":14712:14739   */\n      add\n        /* \"#utility.yul\":14763:14843   */\n      tag_420\n        /* \"#utility.yul\":14837:14842   */\n      dup6\n        /* \"#utility.yul\":14763:14843   */\n      tag_253\n      jump\t// in\n    tag_420:\n        /* \"#utility.yul\":14866:14873   */\n      dup1\n        /* \"#utility.yul\":14897:14898   */\n      0x00\n        /* \"#utility.yul\":14882:15320   */\n    tag_421:\n        /* \"#utility.yul\":14907:14913   */\n      dup6\n        /* \"#utility.yul\":14904:14905   */\n      dup2\n        /* \"#utility.yul\":14901:14914   */\n      lt\n        /* \"#utility.yul\":14882:15320   */\n      iszero\n      tag_423\n      jumpi\n        /* \"#utility.yul\":14978:14987   */\n      dup5\n        /* \"#utility.yul\":14972:14976   */\n      dup5\n        /* \"#utility.yul\":14968:14988   */\n      sub\n        /* \"#utility.yul\":14963:14966   */\n      dup10\n        /* \"#utility.yul\":14956:14989   */\n      mstore\n        /* \"#utility.yul\":15029:15035   */\n      dup2\n        /* \"#utility.yul\":15023:15036   */\n      mload\n        /* \"#utility.yul\":15057:15169   */\n      tag_424\n        /* \"#utility.yul\":15164:15168   */\n      dup6\n        /* \"#utility.yul\":15149:15162   */\n      dup3\n        /* \"#utility.yul\":15057:15169   */\n      tag_255\n      jump\t// in\n    tag_424:\n        /* \"#utility.yul\":15049:15169   */\n      swap5\n      pop\n        /* \"#utility.yul\":15192:15276   */\n      tag_425\n        /* \"#utility.yul\":15269:15275   */\n      dup4\n        /* \"#utility.yul\":15192:15276   */\n      tag_256\n      jump\t// in\n    tag_425:\n        /* \"#utility.yul\":15182:15276   */\n      swap3\n      pop\n        /* \"#utility.yul\":15305:15309   */\n      0x20\n        /* \"#utility.yul\":15300:15303   */\n      dup11\n        /* \"#utility.yul\":15296:15310   */\n      add\n        /* \"#utility.yul\":15289:15310   */\n      swap10\n      pop\n        /* \"#utility.yul\":14942:15320   */\n      pop\n        /* \"#utility.yul\":14929:14930   */\n      0x01\n        /* \"#utility.yul\":14926:14927   */\n      dup2\n        /* \"#utility.yul\":14922:14931   */\n      add\n        /* \"#utility.yul\":14917:14931   */\n      swap1\n      pop\n        /* \"#utility.yul\":14882:15320   */\n      jump(tag_421)\n    tag_423:\n        /* \"#utility.yul\":14886:14900   */\n      pop\n        /* \"#utility.yul\":15336:15340   */\n      dup3\n        /* \"#utility.yul\":15329:15340   */\n      swap8\n      pop\n        /* \"#utility.yul\":15356:15359   */\n      dup8\n        /* \"#utility.yul\":15349:15359   */\n      swap6\n      pop\n        /* \"#utility.yul\":14434:15365   */\n      pop\n      pop\n      pop\n      pop\n      pop\n        /* \"#utility.yul\":14262:15365   */\n      swap3\n      swap2\n      pop\n      pop\n      jump\t// out\n        /* \"#utility.yul\":15371:15840   */\n    tag_47:\n        /* \"#utility.yul\":15562:15566   */\n      0x00\n        /* \"#utility.yul\":15600:15602   */\n      0x20\n        /* \"#utility.yul\":15589:15598   */\n      dup3\n        /* \"#utility.yul\":15585:15603   */\n      add\n        /* \"#utility.yul\":15577:15603   */\n      swap1\n      pop\n        /* \"#utility.yul\":15649:15658   */\n      dup2\n        /* \"#utility.yul\":15643:15647   */\n      dup2\n        /* \"#utility.yul\":15639:15659   */\n      sub\n        /* \"#utility.yul\":15635:15636   */\n      0x00\n        /* \"#utility.yul\":15624:15633   */\n      dup4\n        /* \"#utility.yul\":15620:15637   */\n      add\n        /* \"#utility.yul\":15613:15660   */\n      mstore\n        /* \"#utility.yul\":15677:15833   */\n      tag_427\n        /* \"#utility.yul\":15828:15832   */\n      dup2\n        /* \"#utility.yul\":15819:15825   */\n      dup5\n        /* \"#utility.yul\":15677:15833   */\n      tag_257\n      jump\t// in\n    tag_427:\n        /* \"#utility.yul\":15669:15833   */\n      swap1\n      pop\n        /* \"#utility.yul\":15371:15840   */\n      swap3\n      swap2\n      pop\n      pop\n      jump\t// out\n        /* \"#utility.yul\":15846:15972   */\n    tag_258:\n        /* \"#utility.yul\":15883:15890   */\n      0x00\n        /* \"#utility.yul\":15923:15965   */\n      0xffffffffffffffffffffffffffffffffffffffff\n        /* \"#utility.yul\":15916:15921   */\n      dup3\n        /* \"#utility.yul\":15912:15966   */\n      and\n        /* \"#utility.yul\":15901:15966   */\n      swap1\n      pop\n        /* \"#utility.yul\":15846:15972   */\n      swap2\n      swap1\n      pop\n      jump\t// out\n        /* \"#utility.yul\":15978:16074   */\n    tag_259:\n        /* \"#utility.yul\":16015:16022   */\n      0x00\n        /* \"#utility.yul\":16044:16068   */\n      tag_430\n        /* \"#utility.yul\":16062:16067   */\n      dup3\n        /* \"#utility.yul\":16044:16068   */\n      tag_258\n      jump\t// in\n    tag_430:\n        /* \"#utility.yul\":16033:16068   */\n      swap1\n      pop\n        /* \"#utility.yul\":15978:16074   */\n      swap2\n      swap1\n      pop\n      jump\t// out\n        /* \"#utility.yul\":16080:16198   */\n    tag_260:\n        /* \"#utility.yul\":16167:16191   */\n      tag_432\n        /* \"#utility.yul\":16185:16190   */\n      dup2\n        /* \"#utility.yul\":16167:16191   */\n      tag_259\n      jump\t// in\n    tag_432:\n        /* \"#utility.yul\":16162:16165   */\n      dup3\n        /* \"#utility.yul\":16155:16192   */\n      mstore\n        /* \"#utility.yul\":16080:16198   */\n      pop\n      pop\n      jump\t// out\n        /* \"#utility.yul\":16204:16426   */\n    tag_51:\n        /* \"#utility.yul\":16297:16301   */\n      0x00\n        /* \"#utility.yul\":16335:16337   */\n      0x20\n        /* \"#utility.yul\":16324:16333   */\n      dup3\n        /* \"#utility.yul\":16320:16338   */\n      add\n        /* \"#utility.yul\":16312:16338   */\n      swap1\n      pop\n        /* \"#utility.yul\":16348:16419   */\n      tag_434\n        /* \"#utility.yul\":16416:16417   */\n      0x00\n        /* \"#utility.yul\":16405:16414   */\n      dup4\n        /* \"#utility.yul\":16401:16418   */\n      add\n        /* \"#utility.yul\":16392:16398   */\n      dup5\n        /* \"#utility.yul\":16348:16419   */\n      tag_260\n      jump\t// in\n    tag_434:\n        /* \"#utility.yul\":16204:16426   */\n      swap3\n      swap2\n      pop\n      pop\n      jump\t// out\n        /* \"#utility.yul\":16432:16688   */\n    tag_56:\n        /* \"#utility.yul\":16542:16546   */\n      0x00\n        /* \"#utility.yul\":16580:16582   */\n      0x20\n        /* \"#utility.yul\":16569:16578   */\n      dup3\n        /* \"#utility.yul\":16565:16583   */\n      add\n        /* \"#utility.yul\":16557:16583   */\n      swap1\n      pop\n        /* \"#utility.yul\":16593:16681   */\n      tag_436\n        /* \"#utility.yul\":16678:16679   */\n      0x00\n        /* \"#utility.yul\":16667:16676   */\n      dup4\n        /* \"#utility.yul\":16663:16680   */\n      add\n        /* \"#utility.yul\":16654:16660   */\n      dup5\n        /* \"#utility.yul\":16593:16681   */\n      tag_250\n      jump\t// in\n    tag_436:\n        /* \"#utility.yul\":16432:16688   */\n      swap3\n      swap2\n      pop\n      pop\n      jump\t// out\n        /* \"#utility.yul\":16694:16816   */\n    tag_261:\n        /* \"#utility.yul\":16767:16791   */\n      tag_438\n        /* \"#utility.yul\":16785:16790   */\n      dup2\n        /* \"#utility.yul\":16767:16791   */\n      tag_259\n      jump\t// in\n    tag_438:\n        /* \"#utility.yul\":16760:16765   */\n      dup2\n        /* \"#utility.yul\":16757:16792   */\n      eq\n        /* \"#utility.yul\":16747:16810   */\n      tag_439\n      jumpi\n        /* \"#utility.yul\":16806:16807   */\n      0x00\n        /* \"#utility.yul\":16803:16804   */\n      dup1\n        /* \"#utility.yul\":16796:16808   */\n      revert\n        /* \"#utility.yul\":16747:16810   */\n    tag_439:\n        /* \"#utility.yul\":16694:16816   */\n      pop\n      jump\t// out\n        /* \"#utility.yul\":16822:16961   */\n    tag_262:\n        /* \"#utility.yul\":16868:16873   */\n      0x00\n        /* \"#utility.yul\":16906:16912   */\n      dup2\n        /* \"#utility.yul\":16893:16913   */\n      calldataload\n        /* \"#utility.yul\":16884:16913   */\n      swap1\n      pop\n        /* \"#utility.yul\":16922:16955   */\n      tag_441\n        /* \"#utility.yul\":16949:16954   */\n      dup2\n        /* \"#utility.yul\":16922:16955   */\n      tag_261\n      jump\t// in\n    tag_441:\n        /* \"#utility.yul\":16822:16961   */\n      swap3\n      swap2\n      pop\n      pop\n      jump\t// out\n        /* \"#utility.yul\":16967:17296   */\n    tag_59:\n        /* \"#utility.yul\":17026:17032   */\n      0x00\n        /* \"#utility.yul\":17075:17077   */\n      0x20\n        /* \"#utility.yul\":17063:17072   */\n      dup3\n        /* \"#utility.yul\":17054:17061   */\n      dup5\n        /* \"#utility.yul\":17050:17073   */\n      sub\n        /* \"#utility.yul\":17046:17078   */\n      slt\n        /* \"#utility.yul\":17043:17162   */\n      iszero\n      tag_443\n      jumpi\n        /* \"#utility.yul\":17081:17160   */\n      tag_444\n      tag_220\n      jump\t// in\n    tag_444:\n        /* \"#utility.yul\":17043:17162   */\n    tag_443:\n        /* \"#utility.yul\":17201:17202   */\n      0x00\n        /* \"#utility.yul\":17226:17279   */\n      tag_445\n        /* \"#utility.yul\":17271:17278   */\n      dup5\n        /* \"#utility.yul\":17262:17268   */\n      dup3\n        /* \"#utility.yul\":17251:17260   */\n      dup6\n        /* \"#utility.yul\":17247:17269   */\n      add\n        /* \"#utility.yul\":17226:17279   */\n      tag_262\n      jump\t// in\n    tag_445:\n        /* \"#utility.yul\":17216:17279   */\n      swap2\n      pop\n        /* \"#utility.yul\":17172:17289   */\n      pop\n        /* \"#utility.yul\":16967:17296   */\n      swap3\n      swap2\n      pop\n      pop\n      jump\t// out\n        /* \"#utility.yul\":17302:17482   */\n    tag_70:\n        /* \"#utility.yul\":17350:17427   */\n      0x4e487b7100000000000000000000000000000000000000000000000000000000\n        /* \"#utility.yul\":17347:17348   */\n      0x00\n        /* \"#utility.yul\":17340:17428   */\n      mstore\n        /* \"#utility.yul\":17447:17451   */\n      0x32\n        /* \"#utility.yul\":17444:17445   */\n      0x04\n        /* \"#utility.yul\":17437:17452   */\n      mstore\n        /* \"#utility.yul\":17471:17475   */\n      0x24\n        /* \"#utility.yul\":17468:17469   */\n      0x00\n        /* \"#utility.yul\":17461:17476   */\n      revert\n        /* \"#utility.yul\":17488:17668   */\n    tag_263:\n        /* \"#utility.yul\":17536:17613   */\n      0x4e487b7100000000000000000000000000000000000000000000000000000000\n        /* \"#utility.yul\":17533:17534   */\n      0x00\n        /* \"#utility.yul\":17526:17614   */\n      mstore\n        /* \"#utility.yul\":17633:17637   */\n      0x22\n        /* \"#utility.yul\":17630:17631   */\n      0x04\n        /* \"#utility.yul\":17623:17638   */\n      mstore\n        /* \"#utility.yul\":17657:17661   */\n      0x24\n        /* \"#utility.yul\":17654:17655   */\n      0x00\n        /* \"#utility.yul\":17647:17662   */\n      revert\n        /* \"#utility.yul\":17674:17994   */\n    tag_86:\n        /* \"#utility.yul\":17718:17724   */\n      0x00\n        /* \"#utility.yul\":17755:17756   */\n      0x02\n        /* \"#utility.yul\":17749:17753   */\n      dup3\n        /* \"#utility.yul\":17745:17757   */\n      div\n        /* \"#utility.yul\":17735:17757   */\n      swap1\n      pop\n        /* \"#utility.yul\":17802:17803   */\n      0x01\n        /* \"#utility.yul\":17796:17800   */\n      dup3\n        /* \"#utility.yul\":17792:17804   */\n      and\n        /* \"#utility.yul\":17823:17841   */\n      dup1\n        /* \"#utility.yul\":17813:17894   */\n      tag_449\n      jumpi\n        /* \"#utility.yul\":17879:17883   */\n      0x7f\n        /* \"#utility.yul\":17871:17877   */\n      dup3\n        /* \"#utility.yul\":17867:17884   */\n      and\n        /* \"#utility.yul\":17857:17884   */\n      swap2\n      pop\n        /* \"#utility.yul\":17813:17894   */\n    tag_449:\n        /* \"#utility.yul\":17941:17943   */\n      0x20\n        /* \"#utility.yul\":17933:17939   */\n      dup3\n        /* \"#utility.yul\":17930:17944   */\n      lt\n        /* \"#utility.yul\":17910:17928   */\n      dup2\n        /* \"#utility.yul\":17907:17945   */\n      eq\n        /* \"#utility.yul\":17904:17988   */\n      iszero\n      tag_450\n      jumpi\n        /* \"#utility.yul\":17960:17978   */\n      tag_451\n      tag_263\n      jump\t// in\n    tag_451:\n        /* \"#utility.yul\":17904:17988   */\n    tag_450:\n        /* \"#utility.yul\":17725:17994   */\n      pop\n        /* \"#utility.yul\":17674:17994   */\n      swap2\n      swap1\n      pop\n      jump\t// out\n        /* \"#utility.yul\":18000:18148   */\n    tag_264:\n        /* \"#utility.yul\":18102:18113   */\n      0x00\n        /* \"#utility.yul\":18139:18142   */\n      dup2\n        /* \"#utility.yul\":18124:18142   */\n      swap1\n      pop\n        /* \"#utility.yul\":18000:18148   */\n      swap3\n      swap2\n      pop\n      pop\n      jump\t// out\n        /* \"#utility.yul\":18154:18531   */\n    tag_265:\n        /* \"#utility.yul\":18260:18263   */\n      0x00\n        /* \"#utility.yul\":18288:18327   */\n      tag_454\n        /* \"#utility.yul\":18321:18326   */\n      dup3\n        /* \"#utility.yul\":18288:18327   */\n      tag_229\n      jump\t// in\n    tag_454:\n        /* \"#utility.yul\":18343:18432   */\n      tag_455\n        /* \"#utility.yul\":18425:18431   */\n      dup2\n        /* \"#utility.yul\":18420:18423   */\n      dup6\n        /* \"#utility.yul\":18343:18432   */\n      tag_264\n      jump\t// in\n    tag_455:\n        /* \"#utility.yul\":18336:18432   */\n      swap4\n      pop\n        /* \"#utility.yul\":18441:18493   */\n      tag_456\n        /* \"#utility.yul\":18486:18492   */\n      dup2\n        /* \"#utility.yul\":18481:18484   */\n      dup6\n        /* \"#utility.yul\":18474:18478   */\n      0x20\n        /* \"#utility.yul\":18467:18472   */\n      dup7\n        /* \"#utility.yul\":18463:18479   */\n      add\n        /* \"#utility.yul\":18441:18493   */\n      tag_231\n      jump\t// in\n    tag_456:\n        /* \"#utility.yul\":18518:18524   */\n      dup1\n        /* \"#utility.yul\":18513:18516   */\n      dup5\n        /* \"#utility.yul\":18509:18525   */\n      add\n        /* \"#utility.yul\":18502:18525   */\n      swap2\n      pop\n        /* \"#utility.yul\":18264:18531   */\n      pop\n        /* \"#utility.yul\":18154:18531   */\n      swap3\n      swap2\n      pop\n      pop\n      jump\t// out\n        /* \"#utility.yul\":18537:18812   */\n    tag_125:\n        /* \"#utility.yul\":18669:18672   */\n      0x00\n        /* \"#utility.yul\":18691:18786   */\n      tag_458\n        /* \"#utility.yul\":18782:18785   */\n      dup3\n        /* \"#utility.yul\":18773:18779   */\n      dup5\n        /* \"#utility.yul\":18691:18786   */\n      tag_265\n      jump\t// in\n    tag_458:\n        /* \"#utility.yul\":18684:18786   */\n      swap2\n      pop\n        /* \"#utility.yul\":18803:18806   */\n      dup2\n        /* \"#utility.yul\":18796:18806   */\n      swap1\n      pop\n        /* \"#utility.yul\":18537:18812   */\n      swap3\n      swap2\n      pop\n      pop\n      jump\t// out\n        /* \"#utility.yul\":18818:18998   */\n    tag_266:\n        /* \"#utility.yul\":18866:18943   */\n      0x4e487b7100000000000000000000000000000000000000000000000000000000\n        /* \"#utility.yul\":18863:18864   */\n      0x00\n        /* \"#utility.yul\":18856:18944   */\n      mstore\n        /* \"#utility.yul\":18963:18967   */\n      0x11\n        /* \"#utility.yul\":18960:18961   */\n      0x04\n        /* \"#utility.yul\":18953:18968   */\n      mstore\n        /* \"#utility.yul\":18987:18991   */\n      0x24\n        /* \"#utility.yul\":18984:18985   */\n      0x00\n        /* \"#utility.yul\":18977:18992   */\n      revert\n        /* \"#utility.yul\":19004:19237   */\n    tag_127:\n        /* \"#utility.yul\":19043:19046   */\n      0x00\n        /* \"#utility.yul\":19066:19090   */\n      tag_461\n        /* \"#utility.yul\":19084:19089   */\n      dup3\n        /* \"#utility.yul\":19066:19090   */\n      tag_222\n      jump\t// in\n    tag_461:\n        /* \"#utility.yul\":19057:19090   */\n      swap2\n      pop\n        /* \"#utility.yul\":19112:19178   */\n      0xffffffffffffffffffffffffffffffffffffffffffffffffffffffffffffffff\n        /* \"#utility.yul\":19105:19110   */\n      dup3\n        /* \"#utility.yul\":19102:19179   */\n      eq\n        /* \"#utility.yul\":19099:19202   */\n      iszero\n      tag_462\n      jumpi\n        /* \"#utility.yul\":19182:19200   */\n      tag_463\n      tag_266\n      jump\t// in\n    tag_463:\n        /* \"#utility.yul\":19099:19202   */\n    tag_462:\n        /* \"#utility.yul\":19229:19230   */\n      0x01\n        /* \"#utility.yul\":19222:19227   */\n      dup3\n        /* \"#utility.yul\":19218:19231   */\n      add\n        /* \"#utility.yul\":19211:19231   */\n      swap1\n      pop\n        /* \"#utility.yul\":19004:19237   */\n      swap2\n      swap1\n      pop\n      jump\t// out\n        /* \"#utility.yul\":19243:19415   */\n    tag_267:\n        /* \"#utility.yul\":19383:19407   */\n      0x4d7573742062652070726f706f736564206f776e657200000000000000000000\n        /* \"#utility.yul\":19379:19380   */\n      0x00\n        /* \"#utility.yul\":19371:19377   */\n      dup3\n        /* \"#utility.yul\":19367:19381   */\n      add\n        /* \"#utility.yul\":19360:19408   */\n      mstore\n        /* \"#utility.yul\":19243:19415   */\n      pop\n      jump\t// out\n        /* \"#utility.yul\":19421:19787   */\n    tag_268:\n        /* \"#utility.yul\":19563:19566   */\n      0x00\n        /* \"#utility.yul\":19584:19651   */\n      tag_466\n        /* \"#utility.yul\":19648:19650   */\n      0x16\n        /* \"#utility.yul\":19643:19646   */\n      dup4\n        /* \"#utility.yul\":19584:19651   */\n      tag_248\n      jump\t// in\n    tag_466:\n        /* \"#utility.yul\":19577:19651   */\n      swap2\n      pop\n        /* \"#utility.yul\":19660:19753   */\n      tag_467\n        /* \"#utility.yul\":19749:19752   */\n      dup3\n        /* \"#utility.yul\":19660:19753   */\n      tag_267\n      jump\t// in\n    tag_467:\n        /* \"#utility.yul\":19778:19780   */\n      0x20\n        /* \"#utility.yul\":19773:19776   */\n      dup3\n        /* \"#utility.yul\":19769:19781   */\n      add\n        /* \"#utility.yul\":19762:19781   */\n      swap1\n      pop\n        /* \"#utility.yul\":19421:19787   */\n      swap2\n      swap1\n      pop\n      jump\t// out\n        /* \"#utility.yul\":19793:20212   */\n    tag_146:\n        /* \"#utility.yul\":19959:19963   */\n      0x00\n        /* \"#utility.yul\":19997:19999   */\n      0x20\n        /* \"#utility.yul\":19986:19995   */\n      dup3\n        /* \"#utility.yul\":19982:20000   */\n      add\n        /* \"#utility.yul\":19974:20000   */\n      swap1\n      pop\n        /* \"#utility.yul\":20046:20055   */\n      dup2\n        /* \"#utility.yul\":20040:20044   */\n      dup2\n        /* \"#utility.yul\":20036:20056   */\n      sub\n        /* \"#utility.yul\":20032:20033   */\n      0x00\n        /* \"#utility.yul\":20021:20030   */\n      dup4\n        /* \"#utility.yul\":20017:20034   */\n      add\n        /* \"#utility.yul\":20010:20057   */\n      mstore\n        /* \"#utility.yul\":20074:20205   */\n      tag_469\n        /* \"#utility.yul\":20200:20204   */\n      dup2\n        /* \"#utility.yul\":20074:20205   */\n      tag_268\n      jump\t// in\n    tag_469:\n        /* \"#utility.yul\":20066:20205   */\n      swap1\n      pop\n        /* \"#utility.yul\":19793:20212   */\n      swap2\n      swap1\n      pop\n      jump\t// out\n        /* \"#utility.yul\":20218:20359   */\n    tag_269:\n        /* \"#utility.yul\":20267:20271   */\n      0x00\n        /* \"#utility.yul\":20290:20293   */\n      dup2\n        /* \"#utility.yul\":20282:20293   */\n      swap1\n      pop\n        /* \"#utility.yul\":20313:20316   */\n      dup2\n        /* \"#utility.yul\":20310:20311   */\n      0x00\n        /* \"#utility.yul\":20303:20317   */\n      mstore\n        /* \"#utility.yul\":20347:20351   */\n      0x20\n        /* \"#utility.yul\":20344:20345   */\n      0x00\n        /* \"#utility.yul\":20334:20352   */\n      keccak256\n        /* \"#utility.yul\":20326:20352   */\n      swap1\n      pop\n        /* \"#utility.yul\":20218:20359   */\n      swap2\n      swap1\n      pop\n      jump\t// out\n        /* \"#utility.yul\":20389:21234   */\n    tag_270:\n        /* \"#utility.yul\":20492:20495   */\n      0x00\n        /* \"#utility.yul\":20529:20534   */\n      dup2\n        /* \"#utility.yul\":20523:20535   */\n      sload\n        /* \"#utility.yul\":20558:20594   */\n      tag_472\n        /* \"#utility.yul\":20584:20593   */\n      dup2\n        /* \"#utility.yul\":20558:20594   */\n      tag_86\n      jump\t// in\n    tag_472:\n        /* \"#utility.yul\":20610:20699   */\n      tag_473\n        /* \"#utility.yul\":20692:20698   */\n      dup2\n        /* \"#utility.yul\":20687:20690   */\n      dup7\n        /* \"#utility.yul\":20610:20699   */\n      tag_264\n      jump\t// in\n    tag_473:\n        /* \"#utility.yul\":20603:20699   */\n      swap5\n      pop\n        /* \"#utility.yul\":20730:20731   */\n      0x01\n        /* \"#utility.yul\":20719:20728   */\n      dup3\n        /* \"#utility.yul\":20715:20732   */\n      and\n        /* \"#utility.yul\":20746:20747   */\n      0x00\n        /* \"#utility.yul\":20741:20878   */\n      dup2\n      eq\n      tag_475\n      jumpi\n        /* \"#utility.yul\":20892:20893   */\n      0x01\n        /* \"#utility.yul\":20887:21228   */\n      dup2\n      eq\n      tag_476\n      jumpi\n        /* \"#utility.yul\":20708:21228   */\n      jump(tag_474)\n        /* \"#utility.yul\":20741:20878   */\n    tag_475:\n        /* \"#utility.yul\":20825:20829   */\n      0xff\n        /* \"#utility.yul\":20821:20830   */\n      not\n        /* \"#utility.yul\":20810:20819   */\n      dup4\n        /* \"#utility.yul\":20806:20831   */\n      and\n        /* \"#utility.yul\":20801:20804   */\n      dup7\n        /* \"#utility.yul\":20794:20832   */\n      mstore\n        /* \"#utility.yul\":20861:20867   */\n      dup2\n        /* \"#utility.yul\":20856:20859   */\n      dup7\n        /* \"#utility.yul\":20852:20868   */\n      add\n        /* \"#utility.yul\":20845:20868   */\n      swap4\n      pop\n        /* \"#utility.yul\":20741:20878   */\n      jump(tag_474)\n        /* \"#utility.yul\":20887:21228   */\n    tag_476:\n        /* \"#utility.yul\":20954:20992   */\n      tag_477\n        /* \"#utility.yul\":20986:20991   */\n      dup6\n        /* \"#utility.yul\":20954:20992   */\n      tag_269\n      jump\t// in\n    tag_477:\n        /* \"#utility.yul\":21014:21015   */\n      0x00\n        /* \"#utility.yul\":21028:21182   */\n    tag_478:\n        /* \"#utility.yul\":21042:21048   */\n      dup4\n        /* \"#utility.yul\":21039:21040   */\n      dup2\n        /* \"#utility.yul\":21036:21049   */\n      lt\n        /* \"#utility.yul\":21028:21182   */\n      iszero\n      tag_480\n      jumpi\n        /* \"#utility.yul\":21116:21123   */\n      dup2\n        /* \"#utility.yul\":21110:21124   */\n      sload\n        /* \"#utility.yul\":21106:21107   */\n      dup2\n        /* \"#utility.yul\":21101:21104   */\n      dup10\n        /* \"#utility.yul\":21097:21108   */\n      add\n        /* \"#utility.yul\":21090:21125   */\n      mstore\n        /* \"#utility.yul\":21166:21167   */\n      0x01\n        /* \"#utility.yul\":21157:21164   */\n      dup3\n        /* \"#utility.yul\":21153:21168   */\n      add\n        /* \"#utility.yul\":21142:21168   */\n      swap2\n      pop\n        /* \"#utility.yul\":21064:21068   */\n      0x20\n        /* \"#utility.yul\":21061:21062   */\n      dup2\n        /* \"#utility.yul\":21057:21069   */\n      add\n        /* \"#utility.yul\":21052:21069   */\n      swap1\n      pop\n        /* \"#utility.yul\":21028:21182   */\n      jump(tag_478)\n    tag_480:\n        /* \"#utility.yul\":21211:21217   */\n      dup4\n        /* \"#utility.yul\":21206:21209   */\n      dup9\n        /* \"#utility.yul\":21202:21218   */\n      add\n        /* \"#utility.yul\":21195:21218   */\n      swap6\n      pop\n        /* \"#utility.yul\":20894:21228   */\n      pop\n      pop\n        /* \"#utility.yul\":20708:21228   */\n    tag_474:\n      pop\n        /* \"#utility.yul\":20496:21234   */\n      pop\n      pop\n        /* \"#utility.yul\":20389:21234   */\n      swap3\n      swap2\n      pop\n      pop\n      jump\t// out\n        /* \"#utility.yul\":21240:21509   */\n    tag_163:\n        /* \"#utility.yul\":21369:21372   */\n      0x00\n        /* \"#utility.yul\":21391:21483   */\n      tag_482\n        /* \"#utility.yul\":21479:21482   */\n      dup3\n        /* \"#utility.yul\":21470:21476   */\n      dup5\n        /* \"#utility.yul\":21391:21483   */\n      tag_270\n      jump\t// in\n    tag_482:\n        /* \"#utility.yul\":21384:21483   */\n      swap2\n      pop\n        /* \"#utility.yul\":21500:21503   */\n      dup2\n        /* \"#utility.yul\":21493:21503   */\n      swap1\n      pop\n        /* \"#utility.yul\":21240:21509   */\n      swap3\n      swap2\n      pop\n      pop\n      jump\t// out\n        /* \"#utility.yul\":21515:21687   */\n    tag_271:\n        /* \"#utility.yul\":21655:21679   */\n      0x4f6e6c792063616c6c61626c65206279206f776e657200000000000000000000\n        /* \"#utility.yul\":21651:21652   */\n      0x00\n        /* \"#utility.yul\":21643:21649   */\n      dup3\n        /* \"#utility.yul\":21639:21653   */\n      add\n        /* \"#utility.yul\":21632:21680   */\n      mstore\n        /* \"#utility.yul\":21515:21687   */\n      pop\n      jump\t// out\n        /* \"#utility.yul\":21693:22059   */\n    tag_272:\n        /* \"#utility.yul\":21835:21838   */\n      0x00\n        /* \"#utility.yul\":21856:21923   */\n      tag_485\n        /* \"#utility.yul\":21920:21922   */\n      0x16\n        /* \"#utility.yul\":21915:21918   */\n      dup4\n        /* \"#utility.yul\":21856:21923   */\n      tag_248\n      jump\t// in\n    tag_485:\n        /* \"#utility.yul\":21849:21923   */\n      swap2\n      pop\n        /* \"#utility.yul\":21932:22025   */\n      tag_486\n        /* \"#utility.yul\":22021:22024   */\n      dup3\n        /* \"#utility.yul\":21932:22025   */\n      tag_271\n      jump\t// in\n    tag_486:\n        /* \"#utility.yul\":22050:22052   */\n      0x20\n        /* \"#utility.yul\":22045:22048   */\n      dup3\n        /* \"#utility.yul\":22041:22053   */\n      add\n        /* \"#utility.yul\":22034:22053   */\n      swap1\n      pop\n        /* \"#utility.yul\":21693:22059   */\n      swap2\n      swap1\n      pop\n      jump\t// out\n        /* \"#utility.yul\":22065:22484   */\n    tag_196:\n        /* \"#utility.yul\":22231:22235   */\n      0x00\n        /* \"#utility.yul\":22269:22271   */\n      0x20\n        /* \"#utility.yul\":22258:22267   */\n      dup3\n        /* \"#utility.yul\":22254:22272   */\n      add\n        /* \"#utility.yul\":22246:22272   */\n      swap1\n      pop\n        /* \"#utility.yul\":22318:22327   */\n      dup2\n        /* \"#utility.yul\":22312:22316   */\n      dup2\n        /* \"#utility.yul\":22308:22328   */\n      sub\n        /* \"#utility.yul\":22304:22305   */\n      0x00\n        /* \"#utility.yul\":22293:22302   */\n      dup4\n        /* \"#utility.yul\":22289:22306   */\n      add\n        /* \"#utility.yul\":22282:22329   */\n      mstore\n        /* \"#utility.yul\":22346:22477   */\n      tag_488\n        /* \"#utility.yul\":22472:22476   */\n      dup2\n        /* \"#utility.yul\":22346:22477   */\n      tag_272\n      jump\t// in\n    tag_488:\n        /* \"#utility.yul\":22338:22477   */\n      swap1\n      pop\n        /* \"#utility.yul\":22065:22484   */\n      swap2\n      swap1\n      pop\n      jump\t// out\n        /* \"#utility.yul\":22490:22569   */\n    tag_273:\n        /* \"#utility.yul\":22529:22536   */\n      0x00\n        /* \"#utility.yul\":22558:22563   */\n      dup2\n        /* \"#utility.yul\":22547:22563   */\n      swap1\n      pop\n        /* \"#utility.yul\":22490:22569   */\n      swap2\n      swap1\n      pop\n      jump\t// out\n        /* \"#utility.yul\":22575:22732   */\n    tag_274:\n        /* \"#utility.yul\":22680:22725   */\n      tag_491\n        /* \"#utility.yul\":22700:22724   */\n      tag_492\n        /* \"#utility.yul\":22718:22723   */\n      dup3\n        /* \"#utility.yul\":22700:22724   */\n      tag_222\n      jump\t// in\n    tag_492:\n        /* \"#utility.yul\":22680:22725   */\n      tag_273\n      jump\t// in\n    tag_491:\n        /* \"#utility.yul\":22675:22678   */\n      dup3\n        /* \"#utility.yul\":22668:22726   */\n      mstore\n        /* \"#utility.yul\":22575:22732   */\n      pop\n      pop\n      jump\t// out\n        /* \"#utility.yul\":22738:22832   */\n    tag_275:\n        /* \"#utility.yul\":22771:22779   */\n      0x00\n        /* \"#utility.yul\":22819:22824   */\n      dup2\n        /* \"#utility.yul\":22815:22817   */\n      0x60\n        /* \"#utility.yul\":22811:22825   */\n      shl\n        /* \"#utility.yul\":22790:22825   */\n      swap1\n      pop\n        /* \"#utility.yul\":22738:22832   */\n      swap2\n      swap1\n      pop\n      jump\t// out\n        /* \"#utility.yul\":22838:22932   */\n    tag_276:\n        /* \"#utility.yul\":22877:22884   */\n      0x00\n        /* \"#utility.yul\":22906:22926   */\n      tag_495\n        /* \"#utility.yul\":22920:22925   */\n      dup3\n        /* \"#utility.yul\":22906:22926   */\n      tag_275\n      jump\t// in\n    tag_495:\n        /* \"#utility.yul\":22895:22926   */\n      swap1\n      pop\n        /* \"#utility.yul\":22838:22932   */\n      swap2\n      swap1\n      pop\n      jump\t// out\n        /* \"#utility.yul\":22938:23038   */\n    tag_277:\n        /* \"#utility.yul\":22977:22984   */\n      0x00\n        /* \"#utility.yul\":23006:23032   */\n      tag_497\n        /* \"#utility.yul\":23026:23031   */\n      dup3\n        /* \"#utility.yul\":23006:23032   */\n      tag_276\n      jump\t// in\n    tag_497:\n        /* \"#utility.yul\":22995:23032   */\n      swap1\n      pop\n        /* \"#utility.yul\":22938:23038   */\n      swap2\n      swap1\n      pop\n      jump\t// out\n        /* \"#utility.yul\":23044:23201   */\n    tag_278:\n        /* \"#utility.yul\":23149:23194   */\n      tag_499\n        /* \"#utility.yul\":23169:23193   */\n      tag_500\n        /* \"#utility.yul\":23187:23192   */\n      dup3\n        /* \"#utility.yul\":23169:23193   */\n      tag_259\n      jump\t// in\n    tag_500:\n        /* \"#utility.yul\":23149:23194   */\n      tag_277\n      jump\t// in\n    tag_499:\n        /* \"#utility.yul\":23144:23147   */\n      dup3\n        /* \"#utility.yul\":23137:23195   */\n      mstore\n        /* \"#utility.yul\":23044:23201   */\n      pop\n      pop\n      jump\t// out\n        /* \"#utility.yul\":23207:24065   */\n    tag_200:\n        /* \"#utility.yul\":23471:23474   */\n      0x00\n        /* \"#utility.yul\":23493:23588   */\n      tag_502\n        /* \"#utility.yul\":23584:23587   */\n      dup3\n        /* \"#utility.yul\":23575:23581   */\n      dup9\n        /* \"#utility.yul\":23493:23588   */\n      tag_265\n      jump\t// in\n    tag_502:\n        /* \"#utility.yul\":23486:23588   */\n      swap2\n      pop\n        /* \"#utility.yul\":23605:23700   */\n      tag_503\n        /* \"#utility.yul\":23696:23699   */\n      dup3\n        /* \"#utility.yul\":23687:23693   */\n      dup8\n        /* \"#utility.yul\":23605:23700   */\n      tag_265\n      jump\t// in\n    tag_503:\n        /* \"#utility.yul\":23598:23700   */\n      swap2\n      pop\n        /* \"#utility.yul\":23710:23785   */\n      tag_504\n        /* \"#utility.yul\":23781:23784   */\n      dup3\n        /* \"#utility.yul\":23772:23778   */\n      dup7\n        /* \"#utility.yul\":23710:23785   */\n      tag_274\n      jump\t// in\n    tag_504:\n        /* \"#utility.yul\":23810:23812   */\n      0x20\n        /* \"#utility.yul\":23805:23808   */\n      dup3\n        /* \"#utility.yul\":23801:23813   */\n      add\n        /* \"#utility.yul\":23794:23813   */\n      swap2\n      pop\n        /* \"#utility.yul\":23823:23898   */\n      tag_505\n        /* \"#utility.yul\":23894:23897   */\n      dup3\n        /* \"#utility.yul\":23885:23891   */\n      dup6\n        /* \"#utility.yul\":23823:23898   */\n      tag_278\n      jump\t// in\n    tag_505:\n        /* \"#utility.yul\":23923:23925   */\n      0x14\n        /* \"#utility.yul\":23918:23921   */\n      dup3\n        /* \"#utility.yul\":23914:23926   */\n      add\n        /* \"#utility.yul\":23907:23926   */\n      swap2\n      pop\n        /* \"#utility.yul\":23936:24011   */\n      tag_506\n        /* \"#utility.yul\":24007:24010   */\n      dup3\n        /* \"#utility.yul\":23998:24004   */\n      dup5\n        /* \"#utility.yul\":23936:24011   */\n      tag_274\n      jump\t// in\n    tag_506:\n        /* \"#utility.yul\":24036:24038   */\n      0x20\n        /* \"#utility.yul\":24031:24034   */\n      dup3\n        /* \"#utility.yul\":24027:24039   */\n      add\n        /* \"#utility.yul\":24020:24039   */\n      swap2\n      pop\n        /* \"#utility.yul\":24056:24059   */\n      dup2\n        /* \"#utility.yul\":24049:24059   */\n      swap1\n      pop\n        /* \"#utility.yul\":23207:24065   */\n      swap7\n      swap6\n      pop\n      pop\n      pop\n      pop\n      pop\n      pop\n      jump\t// out\n        /* \"#utility.yul\":24071:24251   */\n    tag_279:\n        /* \"#utility.yul\":24119:24196   */\n      0x4e487b7100000000000000000000000000000000000000000000000000000000\n        /* \"#utility.yul\":24116:24117   */\n      0x00\n        /* \"#utility.yul\":24109:24197   */\n      mstore\n        /* \"#utility.yul\":24216:24220   */\n      0x12\n        /* \"#utility.yul\":24213:24214   */\n      0x04\n        /* \"#utility.yul\":24206:24221   */\n      mstore\n        /* \"#utility.yul\":24240:24244   */\n      0x24\n        /* \"#utility.yul\":24237:24238   */\n      0x00\n        /* \"#utility.yul\":24230:24245   */\n      revert\n        /* \"#utility.yul\":24257:24433   */\n    tag_202:\n        /* \"#utility.yul\":24289:24290   */\n      0x00\n        /* \"#utility.yul\":24306:24326   */\n      tag_509\n        /* \"#utility.yul\":24324:24325   */\n      dup3\n        /* \"#utility.yul\":24306:24326   */\n      tag_222\n      jump\t// in\n    tag_509:\n        /* \"#utility.yul\":24301:24326   */\n      swap2\n      pop\n        /* \"#utility.yul\":24340:24360   */\n      tag_510\n        /* \"#utility.yul\":24358:24359   */\n      dup4\n        /* \"#utility.yul\":24340:24360   */\n      tag_222\n      jump\t// in\n    tag_510:\n        /* \"#utility.yul\":24335:24360   */\n      swap3\n      pop\n        /* \"#utility.yul\":24379:24380   */\n      dup3\n        /* \"#utility.yul\":24369:24404   */\n      tag_511\n      jumpi\n        /* \"#utility.yul\":24384:24402   */\n      tag_512\n      tag_279\n      jump\t// in\n    tag_512:\n        /* \"#utility.yul\":24369:24404   */\n    tag_511:\n        /* \"#utility.yul\":24425:24426   */\n      dup3\n        /* \"#utility.yul\":24422:24423   */\n      dup3\n        /* \"#utility.yul\":24418:24427   */\n      mod\n        /* \"#utility.yul\":24413:24427   */\n      swap1\n      pop\n        /* \"#utility.yul\":24257:24433   */\n      swap3\n      swap2\n      pop\n      pop\n      jump\t// out\n        /* \"#utility.yul\":24439:24612   */\n    tag_280:\n        /* \"#utility.yul\":24579:24604   */\n      0x43616e6e6f74207472616e7366657220746f2073656c66000000000000000000\n        /* \"#utility.yul\":24575:24576   */\n      0x00\n        /* \"#utility.yul\":24567:24573   */\n      dup3\n        /* \"#utility.yul\":24563:24577   */\n      add\n        /* \"#utility.yul\":24556:24605   */\n      mstore\n        /* \"#utility.yul\":24439:24612   */\n      pop\n      jump\t// out\n        /* \"#utility.yul\":24618:24984   */\n    tag_281:\n        /* \"#utility.yul\":24760:24763   */\n      0x00\n        /* \"#utility.yul\":24781:24848   */\n      tag_515\n        /* \"#utility.yul\":24845:24847   */\n      0x17\n        /* \"#utility.yul\":24840:24843   */\n      dup4\n        /* \"#utility.yul\":24781:24848   */\n      tag_248\n      jump\t// in\n    tag_515:\n        /* \"#utility.yul\":24774:24848   */\n      swap2\n      pop\n        /* \"#utility.yul\":24857:24950   */\n      tag_516\n        /* \"#utility.yul\":24946:24949   */\n      dup3\n        /* \"#utility.yul\":24857:24950   */\n      tag_280\n      jump\t// in\n    tag_516:\n        /* \"#utility.yul\":24975:24977   */\n      0x20\n        /* \"#utility.yul\":24970:24973   */\n      dup3\n        /* \"#utility.yul\":24966:24978   */\n      add\n        /* \"#utility.yul\":24959:24978   */\n      swap1\n      pop\n        /* \"#utility.yul\":24618:24984   */\n      swap2\n      swap1\n      pop\n      jump\t// out\n        /* \"#utility.yul\":24990:25409   */\n    tag_206:\n        /* \"#utility.yul\":25156:25160   */\n      0x00\n        /* \"#utility.yul\":25194:25196   */\n      0x20\n        /* \"#utility.yul\":25183:25192   */\n      dup3\n        /* \"#utility.yul\":25179:25197   */\n      add\n        /* \"#utility.yul\":25171:25197   */\n      swap1\n      pop\n        /* \"#utility.yul\":25243:25252   */\n      dup2\n        /* \"#utility.yul\":25237:25241   */\n      dup2\n        /* \"#utility.yul\":25233:25253   */\n      sub\n        /* \"#utility.yul\":25229:25230   */\n      0x00\n        /* \"#utility.yul\":25218:25227   */\n      dup4\n        /* \"#utility.yul\":25214:25231   */\n      add\n        /* \"#utility.yul\":25207:25254   */\n      mstore\n        /* \"#utility.yul\":25271:25402   */\n      tag_518\n        /* \"#utility.yul\":25397:25401   */\n      dup2\n        /* \"#utility.yul\":25271:25402   */\n      tag_281\n      jump\t// in\n    tag_518:\n        /* \"#utility.yul\":25263:25402   */\n      swap1\n      pop\n        /* \"#utility.yul\":24990:25409   */\n      swap2\n      swap1\n      pop\n      jump\t// out\n\n    auxdata: 0xa264697066735822122006425dcea91400a3df65261ef60e6a3d0ab9c84f8cac19b3b06f6c53817932de64736f6c634300080c0033\n}\n",
				"bytecode": {
					"linkReferences": {},
					"object": "608060405260006002553480156200001657600080fd5b50338060008073ffffffffffffffffffffffffffffffffffffffff168273ffffffffffffffffffffffffffffffffffffffff1614156200008d576040517f08c379a00000000000000000000000000000000000000000000000000000000081526004016200008490620002ae565b60405180910390fd5b816000806101000a81548173ffffffffffffffffffffffffffffffffffffffff021916908373ffffffffffffffffffffffffffffffffffffffff160217905550600073ffffffffffffffffffffffffffffffffffffffff168173ffffffffffffffffffffffffffffffffffffffff1614620001145762000113816200011d60201b60201c565b5b50505062000342565b3373ffffffffffffffffffffffffffffffffffffffff168173ffffffffffffffffffffffffffffffffffffffff1614156200018f576040517f08c379a0000000000000000000000000000000000000000000000000000000008152600401620001869062000320565b60405180910390fd5b80600160006101000a81548173ffffffffffffffffffffffffffffffffffffffff021916908373ffffffffffffffffffffffffffffffffffffffff1602179055508073ffffffffffffffffffffffffffffffffffffffff1660008054906101000a900473ffffffffffffffffffffffffffffffffffffffff1673ffffffffffffffffffffffffffffffffffffffff167fed8889f560326eb138920d842192f0eb3dd22b4f139c87a2c57538e05bae127860405160405180910390a350565b600082825260208201905092915050565b7f43616e6e6f7420736574206f776e657220746f207a65726f0000000000000000600082015250565b6000620002966018836200024d565b9150620002a3826200025e565b602082019050919050565b60006020820190508181036000830152620002c98162000287565b9050919050565b7f43616e6e6f74207472616e7366657220746f2073656c66000000000000000000600082015250565b6000620003086017836200024d565b91506200031582620002d0565b602082019050919050565b600060208201905081810360008301526200033b81620002f9565b9050919050565b611f4c80620003526000396000f3fe608060405234801561001057600080fd5b506004361061009e5760003560e01c806379ba50971161006657806379ba50971461019f57806383e8e6a4146101a95780638da5cb5b146101d9578063a1650043146101f7578063f2fde38b146102275761009e565b806324c407b1146100a3578063286f44ef146100d35780635ef3fc6114610103578063602640cd146101395780636f522e5014610169575b600080fd5b6100bd60048036038101906100b891906112fb565b610243565b6040516100ca91906114fd565b60405180910390f35b6100ed60048036038101906100e89190611654565b610552565b6040516100fa91906116ac565b60405180910390f35b61011d600480360381019061011891906116c7565b610580565b604051610130979695949392919061174d565b60405180910390f35b610153600480360381019061014e91906117ca565b6106ef565b60405161016091906116ac565b60405180910390f35b610183600480360381019061017e91906116c7565b610906565b604051610196979695949392919061174d565b60405180910390f35b6101a7610a65565b005b6101c360048036038101906101be9190611654565b610bfa565b6040516101d091906119ba565b60405180910390f35b6101e1610efa565b6040516101ee9190611a1d565b60405180910390f35b610211600480360381019061020c91906116c7565b610f23565b60405161021e9190611a38565b60405180910390f35b610241600480360381019061023c9190611a7f565b610f50565b005b61024b611187565b610253610f64565b8115610301576001600560036000868152602001908152602001600020600501548154811061028557610284611aac565b5b906000526020600020906007020160060160006101000a81548160ff021916908360018111156102b8576102b76113e3565b5b021790555060016003600085815260200190815260200160002060060160006101000a81548160ff021916908360018111156102f7576102f66113e3565b5b02179055506103a5565b6000600560036000868152602001908152602001600020600501548154811061032d5761032c611aac565b5b906000526020600020906007020160060160006101000a81548160ff021916908360018111156103605761035f6113e3565b5b021790555060006003600085815260200190815260200160002060060160006101000a81548160ff0219169083600181111561039f5761039e6113e3565b5b02179055505b600360008481526020019081526020016000206040518060e0016040529081600082015481526020016001820180546103dd90611b0a565b80601f016020809104026020016040519081016040528092919081815260200182805461040990611b0a565b80156104565780601f1061042b57610100808354040283529160200191610456565b820191906000526020600020905b81548152906001019060200180831161043957829003601f168201915b5050505050815260200160028201805461046f90611b0a565b80601f016020809104026020016040519081016040528092919081815260200182805461049b90611b0a565b80156104e85780601f106104bd576101008083540402835291602001916104e8565b820191906000526020600020905b8154815290600101906020018083116104cb57829003601f168201915b505050505081526020016003820154815260200160048201548152602001600582015481526020016006820160009054906101000a900460ff166001811115610534576105336113e3565b5b6001811115610546576105456113e3565b5b81525050905092915050565b6004818051602081018201805184825260208301602085012081835280955050505050506000915090505481565b6005818154811061059057600080fd5b90600052602060002090600702016000915090508060000154908060010180546105b990611b0a565b80601f01602080910402602001604051908101604052809291908181526020018280546105e590611b0a565b80156106325780601f1061060757610100808354040283529160200191610632565b820191906000526020600020905b81548152906001019060200180831161061557829003601f168201915b50505050509080600201805461064790611b0a565b80601f016020809104026020016040519081016040528092919081815260200182805461067390611b0a565b80156106c05780601f10610695576101008083540402835291602001916106c0565b820191906000526020600020905b8154815290600101906020018083116106a357829003601f168201915b5050505050908060030154908060040154908060050154908060060160009054906101000a900460ff16905087565b60006106f9610f64565b6000610706858585610ff4565b90506000600580549050905060006040518060e0016040528084815260200188815260200187815260200186815260200142815260200183815260200160006001811115610757576107566113e3565b5b815250905080600360008581526020019081526020016000206000820151816000015560208201518160010190805190602001906107969291906111d6565b5060408201518160020190805190602001906107b39291906111d6565b50606082015181600301556080820151816004015560a0820151816005015560c08201518160060160006101000a81548160ff021916908360018111156107fd576107fc6113e3565b5b02179055509050506004876040516108159190611b78565b9081526020016040518091039020600081548092919061083490611bbe565b9190505550600581908060018154018082558091505060019003906000526020600020906007020160009091909190915060008201518160000155602082015181600101908051906020019061088b9291906111d6565b5060408201518160020190805190602001906108a89291906111d6565b50606082015181600301556080820151816004015560a0820151816005015560c08201518160060160006101000a81548160ff021916908360018111156108f2576108f16113e3565b5b021790555050508293505050509392505050565b600360205280600052604060002060009150905080600001549080600101805461092f90611b0a565b80601f016020809104026020016040519081016040528092919081815260200182805461095b90611b0a565b80156109a85780601f1061097d576101008083540402835291602001916109a8565b820191906000526020600020905b81548152906001019060200180831161098b57829003601f168201915b5050505050908060020180546109bd90611b0a565b80601f01602080910402602001604051908101604052809291908181526020018280546109e990611b0a565b8015610a365780601f10610a0b57610100808354040283529160200191610a36565b820191906000526020600020905b815481529060010190602001808311610a1957829003601f168201915b5050505050908060030154908060040154908060050154908060060160009054906101000a900460ff16905087565b600160009054906101000a900473ffffffffffffffffffffffffffffffffffffffff1673ffffffffffffffffffffffffffffffffffffffff163373ffffffffffffffffffffffffffffffffffffffff1614610af5576040517f08c379a0000000000000000000000000000000000000000000000000000000008152600401610aec90611c53565b60405180910390fd5b60008060009054906101000a900473ffffffffffffffffffffffffffffffffffffffff169050336000806101000a81548173ffffffffffffffffffffffffffffffffffffffff021916908373ffffffffffffffffffffffffffffffffffffffff1602179055506000600160006101000a81548173ffffffffffffffffffffffffffffffffffffffff021916908373ffffffffffffffffffffffffffffffffffffffff1602179055503373ffffffffffffffffffffffffffffffffffffffff168173ffffffffffffffffffffffffffffffffffffffff167f8be0079c531659141344cd1fd0a4f28419497f9722a3daafe3b4186f6b6457e060405160405180910390a350565b60606000600483604051610c0e9190611b78565b90815260200160405180910390205467ffffffffffffffff811115610c3657610c35611529565b5b604051908082528060200260200182016040528015610c6f57816020015b610c5c611187565b815260200190600190039081610c545790505b5090506000805b600580549050811015610eef5784604051602001610c949190611b78565b6040516020818303038152906040528051906020012060058281548110610cbe57610cbd611aac565b5b9060005260206000209060070201600101604051602001610cdf9190611d07565b604051602081830303815290604052805190602001201415610edc5760058181548110610d0f57610d0e611aac565b5b90600052602060002090600702016040518060e001604052908160008201548152602001600182018054610d4290611b0a565b80601f0160208091040260200160405190810160405280929190818152602001828054610d6e90611b0a565b8015610dbb5780601f10610d9057610100808354040283529160200191610dbb565b820191906000526020600020905b815481529060010190602001808311610d9e57829003601f168201915b50505050508152602001600282018054610dd490611b0a565b80601f0160208091040260200160405190810160405280929190818152602001828054610e0090611b0a565b8015610e4d5780601f10610e2257610100808354040283529160200191610e4d565b820191906000526020600020905b815481529060010190602001808311610e3057829003601f168201915b505050505081526020016003820154815260200160048201548152602001600582015481526020016006820160009054906101000a900460ff166001811115610e9957610e986113e3565b5b6001811115610eab57610eaa6113e3565b5b81525050838381518110610ec257610ec1611aac565b5b60200260200101819052508180610ed890611bbe565b9250505b8080610ee790611bbe565b915050610c76565b508192505050919050565b60008060009054906101000a900473ffffffffffffffffffffffffffffffffffffffff16905090565b60006003600083815260200190815260200160002060060160009054906101000a900460ff169050919050565b610f58610f64565b610f618161105a565b50565b60008054906101000a900473ffffffffffffffffffffffffffffffffffffffff1673ffffffffffffffffffffffffffffffffffffffff163373ffffffffffffffffffffffffffffffffffffffff1614610ff2576040517f08c379a0000000000000000000000000000000000000000000000000000000008152600401610fe990611d6a565b60405180910390fd5b565b60006002600081548092919061100990611bbe565b91905055506305f5e1008484843360025460405160200161102e959493929190611df3565b6040516020818303038152906040528051906020012060001c6110519190611e79565b90509392505050565b3373ffffffffffffffffffffffffffffffffffffffff168173ffffffffffffffffffffffffffffffffffffffff1614156110c9576040517f08c379a00000000000000000000000000000000000000000000000000000000081526004016110c090611ef6565b60405180910390fd5b80600160006101000a81548173ffffffffffffffffffffffffffffffffffffffff021916908373ffffffffffffffffffffffffffffffffffffffff1602179055508073ffffffffffffffffffffffffffffffffffffffff1660008054906101000a900473ffffffffffffffffffffffffffffffffffffffff1673ffffffffffffffffffffffffffffffffffffffff167fed8889f560326eb138920d842192f0eb3dd22b4f139c87a2c57538e05bae127860405160405180910390a350565b6040518060e00160405280600081526020016060815260200160608152602001600081526020016000815260200160008152602001600060018111156111d0576111cf6113e3565b5b81525090565b8280546111e290611b0a565b90600052602060002090601f016020900481019282611204576000855561124b565b82601f1061121d57805160ff191683800117855561124b565b8280016001018555821561124b579182015b8281111561124a57825182559160200191906001019061122f565b5b509050611258919061125c565b5090565b5b8082111561127557600081600090555060010161125d565b5090565b6000604051905090565b600080fd5b600080fd5b6000819050919050565b6112a08161128d565b81146112ab57600080fd5b50565b6000813590506112bd81611297565b92915050565b60008115159050919050565b6112d8816112c3565b81146112e357600080fd5b50565b6000813590506112f5816112cf565b92915050565b6000806040838503121561131257611311611283565b5b6000611320858286016112ae565b9250506020611331858286016112e6565b9150509250929050565b6113448161128d565b82525050565b600081519050919050565b600082825260208201905092915050565b60005b83811015611384578082015181840152602081019050611369565b83811115611393576000848401525b50505050565b6000601f19601f8301169050919050565b60006113b58261134a565b6113bf8185611355565b93506113cf818560208601611366565b6113d881611399565b840191505092915050565b7f4e487b7100000000000000000000000000000000000000000000000000000000600052602160045260246000fd5b60028110611423576114226113e3565b5b50565b600081905061143482611412565b919050565b600061144482611426565b9050919050565b61145481611439565b82525050565b600060e083016000830151611472600086018261133b565b506020830151848203602086015261148a82826113aa565b915050604083015184820360408601526114a482826113aa565b91505060608301516114b9606086018261133b565b5060808301516114cc608086018261133b565b5060a08301516114df60a086018261133b565b5060c08301516114f260c086018261144b565b508091505092915050565b60006020820190508181036000830152611517818461145a565b905092915050565b600080fd5b600080fd5b7f4e487b7100000000000000000000000000000000000000000000000000000000600052604160045260246000fd5b61156182611399565b810181811067ffffffffffffffff821117156115805761157f611529565b5b80604052505050565b6000611593611279565b905061159f8282611558565b919050565b600067ffffffffffffffff8211156115bf576115be611529565b5b6115c882611399565b9050602081019050919050565b82818337600083830152505050565b60006115f76115f2846115a4565b611589565b90508281526020810184848401111561161357611612611524565b5b61161e8482856115d5565b509392505050565b600082601f83011261163b5761163a61151f565b5b813561164b8482602086016115e4565b91505092915050565b60006020828403121561166a57611669611283565b5b600082013567ffffffffffffffff81111561168857611687611288565b5b61169484828501611626565b91505092915050565b6116a68161128d565b82525050565b60006020820190506116c1600083018461169d565b92915050565b6000602082840312156116dd576116dc611283565b5b60006116eb848285016112ae565b91505092915050565b600082825260208201905092915050565b60006117108261134a565b61171a81856116f4565b935061172a818560208601611366565b61173381611399565b840191505092915050565b61174781611439565b82525050565b600060e082019050611762600083018a61169d565b81810360208301526117748189611705565b905081810360408301526117888188611705565b9050611797606083018761169d565b6117a4608083018661169d565b6117b160a083018561169d565b6117be60c083018461173e565b98975050505050505050565b6000806000606084860312156117e3576117e2611283565b5b600084013567ffffffffffffffff81111561180157611800611288565b5b61180d86828701611626565b935050602084013567ffffffffffffffff81111561182e5761182d611288565b5b61183a86828701611626565b925050604061184b868287016112ae565b9150509250925092565b600081519050919050565b600082825260208201905092915050565b6000819050602082019050919050565b600060e083016000830151611899600086018261133b565b50602083015184820360208601526118b182826113aa565b915050604083015184820360408601526118cb82826113aa565b91505060608301516118e0606086018261133b565b5060808301516118f3608086018261133b565b5060a083015161190660a086018261133b565b5060c083015161191960c086018261144b565b508091505092915050565b60006119308383611881565b905092915050565b6000602082019050919050565b600061195082611855565b61195a8185611860565b93508360208202850161196c85611871565b8060005b858110156119a857848403895281516119898582611924565b945061199483611938565b925060208a01995050600181019050611970565b50829750879550505050505092915050565b600060208201905081810360008301526119d48184611945565b905092915050565b600073ffffffffffffffffffffffffffffffffffffffff82169050919050565b6000611a07826119dc565b9050919050565b611a17816119fc565b82525050565b6000602082019050611a326000830184611a0e565b92915050565b6000602082019050611a4d600083018461173e565b92915050565b611a5c816119fc565b8114611a6757600080fd5b50565b600081359050611a7981611a53565b92915050565b600060208284031215611a9557611a94611283565b5b6000611aa384828501611a6a565b91505092915050565b7f4e487b7100000000000000000000000000000000000000000000000000000000600052603260045260246000fd5b7f4e487b7100000000000000000000000000000000000000000000000000000000600052602260045260246000fd5b60006002820490506001821680611b2257607f821691505b60208210811415611b3657611b35611adb565b5b50919050565b600081905092915050565b6000611b528261134a565b611b5c8185611b3c565b9350611b6c818560208601611366565b80840191505092915050565b6000611b848284611b47565b915081905092915050565b7f4e487b7100000000000000000000000000000000000000000000000000000000600052601160045260246000fd5b6000611bc98261128d565b91507fffffffffffffffffffffffffffffffffffffffffffffffffffffffffffffffff821415611bfc57611bfb611b8f565b5b600182019050919050565b7f4d7573742062652070726f706f736564206f776e657200000000000000000000600082015250565b6000611c3d6016836116f4565b9150611c4882611c07565b602082019050919050565b60006020820190508181036000830152611c6c81611c30565b9050919050565b60008190508160005260206000209050919050565b60008154611c9581611b0a565b611c9f8186611b3c565b94506001821660008114611cba5760018114611ccb57611cfe565b60ff19831686528186019350611cfe565b611cd485611c73565b60005b83811015611cf657815481890152600182019150602081019050611cd7565b838801955050505b50505092915050565b6000611d138284611c88565b915081905092915050565b7f4f6e6c792063616c6c61626c65206279206f776e657200000000000000000000600082015250565b6000611d546016836116f4565b9150611d5f82611d1e565b602082019050919050565b60006020820190508181036000830152611d8381611d47565b9050919050565b6000819050919050565b611da5611da08261128d565b611d8a565b82525050565b60008160601b9050919050565b6000611dc382611dab565b9050919050565b6000611dd582611db8565b9050919050565b611ded611de8826119fc565b611dca565b82525050565b6000611dff8288611b47565b9150611e0b8287611b47565b9150611e178286611d94565b602082019150611e278285611ddc565b601482019150611e378284611d94565b6020820191508190509695505050505050565b7f4e487b7100000000000000000000000000000000000000000000000000000000600052601260045260246000fd5b6000611e848261128d565b9150611e8f8361128d565b925082611e9f57611e9e611e4a565b5b828206905092915050565b7f43616e6e6f74207472616e7366657220746f2073656c66000000000000000000600082015250565b6000611ee06017836116f4565b9150611eeb82611eaa565b602082019050919050565b60006020820190508181036000830152611f0f81611ed3565b905091905056fea264697066735822122006425dcea91400a3df65261ef60e6a3d0ab9c84f8cac19b3b06f6c53817932de64736f6c634300080c0033",
					"opcodes": "PUSH1 0x80 PUSH1 0x40 MSTORE PUSH1 0x0 PUSH1 0x2 SSTORE CALLVALUE DUP1 ISZERO PUSH3 0x16 JUMPI PUSH1 0x0 DUP1 REVERT JUMPDEST POP CALLER DUP1 PUSH1 0x0 DUP1 PUSH20 0xFFFFFFFFFFFFFFFFFFFFFFFFFFFFFFFFFFFFFFFF AND DUP3 PUSH20 0xFFFFFFFFFFFFFFFFFFFFFFFFFFFFFFFFFFFFFFFF AND EQ ISZERO PUSH3 0x8D JUMPI PUSH1 0x40 MLOAD PUSH32 0x8C379A000000000000000000000000000000000000000000000000000000000 DUP2 MSTORE PUSH1 0x4 ADD PUSH3 0x84 SWAP1 PUSH3 0x2AE JUMP JUMPDEST PUSH1 0x40 MLOAD DUP1 SWAP2 SUB SWAP1 REVERT JUMPDEST DUP2 PUSH1 0x0 DUP1 PUSH2 0x100 EXP DUP2 SLOAD DUP2 PUSH20 0xFFFFFFFFFFFFFFFFFFFFFFFFFFFFFFFFFFFFFFFF MUL NOT AND SWAP1 DUP4 PUSH20 0xFFFFFFFFFFFFFFFFFFFFFFFFFFFFFFFFFFFFFFFF AND MUL OR SWAP1 SSTORE POP PUSH1 0x0 PUSH20 0xFFFFFFFFFFFFFFFFFFFFFFFFFFFFFFFFFFFFFFFF AND DUP2 PUSH20 0xFFFFFFFFFFFFFFFFFFFFFFFFFFFFFFFFFFFFFFFF AND EQ PUSH3 0x114 JUMPI PUSH3 0x113 DUP2 PUSH3 0x11D PUSH1 0x20 SHL PUSH1 0x20 SHR JUMP JUMPDEST JUMPDEST POP POP POP PUSH3 0x342 JUMP JUMPDEST CALLER PUSH20 0xFFFFFFFFFFFFFFFFFFFFFFFFFFFFFFFFFFFFFFFF AND DUP2 PUSH20 0xFFFFFFFFFFFFFFFFFFFFFFFFFFFFFFFFFFFFFFFF AND EQ ISZERO PUSH3 0x18F JUMPI PUSH1 0x40 MLOAD PUSH32 0x8C379A000000000000000000000000000000000000000000000000000000000 DUP2 MSTORE PUSH1 0x4 ADD PUSH3 0x186 SWAP1 PUSH3 0x320 JUMP JUMPDEST PUSH1 0x40 MLOAD DUP1 SWAP2 SUB SWAP1 REVERT JUMPDEST DUP1 PUSH1 0x1 PUSH1 0x0 PUSH2 0x100 EXP DUP2 SLOAD DUP2 PUSH20 0xFFFFFFFFFFFFFFFFFFFFFFFFFFFFFFFFFFFFFFFF MUL NOT AND SWAP1 DUP4 PUSH20 0xFFFFFFFFFFFFFFFFFFFFFFFFFFFFFFFFFFFFFFFF AND MUL OR SWAP1 SSTORE POP DUP1 PUSH20 0xFFFFFFFFFFFFFFFFFFFFFFFFFFFFFFFFFFFFFFFF AND PUSH1 0x0 DUP1 SLOAD SWAP1 PUSH2 0x100 EXP SWAP1 DIV PUSH20 0xFFFFFFFFFFFFFFFFFFFFFFFFFFFFFFFFFFFFFFFF AND PUSH20 0xFFFFFFFFFFFFFFFFFFFFFFFFFFFFFFFFFFFFFFFF AND PUSH32 0xED8889F560326EB138920D842192F0EB3DD22B4F139C87A2C57538E05BAE1278 PUSH1 0x40 MLOAD PUSH1 0x40 MLOAD DUP1 SWAP2 SUB SWAP1 LOG3 POP JUMP JUMPDEST PUSH1 0x0 DUP3 DUP3 MSTORE PUSH1 0x20 DUP3 ADD SWAP1 POP SWAP3 SWAP2 POP POP JUMP JUMPDEST PUSH32 0x43616E6E6F7420736574206F776E657220746F207A65726F0000000000000000 PUSH1 0x0 DUP3 ADD MSTORE POP JUMP JUMPDEST PUSH1 0x0 PUSH3 0x296 PUSH1 0x18 DUP4 PUSH3 0x24D JUMP JUMPDEST SWAP2 POP PUSH3 0x2A3 DUP3 PUSH3 0x25E JUMP JUMPDEST PUSH1 0x20 DUP3 ADD SWAP1 POP SWAP2 SWAP1 POP JUMP JUMPDEST PUSH1 0x0 PUSH1 0x20 DUP3 ADD SWAP1 POP DUP2 DUP2 SUB PUSH1 0x0 DUP4 ADD MSTORE PUSH3 0x2C9 DUP2 PUSH3 0x287 JUMP JUMPDEST SWAP1 POP SWAP2 SWAP1 POP JUMP JUMPDEST PUSH32 0x43616E6E6F74207472616E7366657220746F2073656C66000000000000000000 PUSH1 0x0 DUP3 ADD MSTORE POP JUMP JUMPDEST PUSH1 0x0 PUSH3 0x308 PUSH1 0x17 DUP4 PUSH3 0x24D JUMP JUMPDEST SWAP2 POP PUSH3 0x315 DUP3 PUSH3 0x2D0 JUMP JUMPDEST PUSH1 0x20 DUP3 ADD SWAP1 POP SWAP2 SWAP1 POP JUMP JUMPDEST PUSH1 0x0 PUSH1 0x20 DUP3 ADD SWAP1 POP DUP2 DUP2 SUB PUSH1 0x0 DUP4 ADD MSTORE PUSH3 0x33B DUP2 PUSH3 0x2F9 JUMP JUMPDEST SWAP1 POP SWAP2 SWAP1 POP JUMP JUMPDEST PUSH2 0x1F4C DUP1 PUSH3 0x352 PUSH1 0x0 CODECOPY PUSH1 0x0 RETURN INVALID PUSH1 0x80 PUSH1 0x40 MSTORE CALLVALUE DUP1 ISZERO PUSH2 0x10 JUMPI PUSH1 0x0 DUP1 REVERT JUMPDEST POP PUSH1 0x4 CALLDATASIZE LT PUSH2 0x9E JUMPI PUSH1 0x0 CALLDATALOAD PUSH1 0xE0 SHR DUP1 PUSH4 0x79BA5097 GT PUSH2 0x66 JUMPI DUP1 PUSH4 0x79BA5097 EQ PUSH2 0x19F JUMPI DUP1 PUSH4 0x83E8E6A4 EQ PUSH2 0x1A9 JUMPI DUP1 PUSH4 0x8DA5CB5B EQ PUSH2 0x1D9 JUMPI DUP1 PUSH4 0xA1650043 EQ PUSH2 0x1F7 JUMPI DUP1 PUSH4 0xF2FDE38B EQ PUSH2 0x227 JUMPI PUSH2 0x9E JUMP JUMPDEST DUP1 PUSH4 0x24C407B1 EQ PUSH2 0xA3 JUMPI DUP1 PUSH4 0x286F44EF EQ PUSH2 0xD3 JUMPI DUP1 PUSH4 0x5EF3FC61 EQ PUSH2 0x103 JUMPI DUP1 PUSH4 0x602640CD EQ PUSH2 0x139 JUMPI DUP1 PUSH4 0x6F522E50 EQ PUSH2 0x169 JUMPI JUMPDEST PUSH1 0x0 DUP1 REVERT JUMPDEST PUSH2 0xBD PUSH1 0x4 DUP1 CALLDATASIZE SUB DUP2 ADD SWAP1 PUSH2 0xB8 SWAP2 SWAP1 PUSH2 0x12FB JUMP JUMPDEST PUSH2 0x243 JUMP JUMPDEST PUSH1 0x40 MLOAD PUSH2 0xCA SWAP2 SWAP1 PUSH2 0x14FD JUMP JUMPDEST PUSH1 0x40 MLOAD DUP1 SWAP2 SUB SWAP1 RETURN JUMPDEST PUSH2 0xED PUSH1 0x4 DUP1 CALLDATASIZE SUB DUP2 ADD SWAP1 PUSH2 0xE8 SWAP2 SWAP1 PUSH2 0x1654 JUMP JUMPDEST PUSH2 0x552 JUMP JUMPDEST PUSH1 0x40 MLOAD PUSH2 0xFA SWAP2 SWAP1 PUSH2 0x16AC JUMP JUMPDEST PUSH1 0x40 MLOAD DUP1 SWAP2 SUB SWAP1 RETURN JUMPDEST PUSH2 0x11D PUSH1 0x4 DUP1 CALLDATASIZE SUB DUP2 ADD SWAP1 PUSH2 0x118 SWAP2 SWAP1 PUSH2 0x16C7 JUMP JUMPDEST PUSH2 0x580 JUMP JUMPDEST PUSH1 0x40 MLOAD PUSH2 0x130 SWAP8 SWAP7 SWAP6 SWAP5 SWAP4 SWAP3 SWAP2 SWAP1 PUSH2 0x174D JUMP JUMPDEST PUSH1 0x40 MLOAD DUP1 SWAP2 SUB SWAP1 RETURN JUMPDEST PUSH2 0x153 PUSH1 0x4 DUP1 CALLDATASIZE SUB DUP2 ADD SWAP1 PUSH2 0x14E SWAP2 SWAP1 PUSH2 0x17CA JUMP JUMPDEST PUSH2 0x6EF JUMP JUMPDEST PUSH1 0x40 MLOAD PUSH2 0x160 SWAP2 SWAP1 PUSH2 0x16AC JUMP JUMPDEST PUSH1 0x40 MLOAD DUP1 SWAP2 SUB SWAP1 RETURN JUMPDEST PUSH2 0x183 PUSH1 0x4 DUP1 CALLDATASIZE SUB DUP2 ADD SWAP1 PUSH2 0x17E SWAP2 SWAP1 PUSH2 0x16C7 JUMP JUMPDEST PUSH2 0x906 JUMP JUMPDEST PUSH1 0x40 MLOAD PUSH2 0x196 SWAP8 SWAP7 SWAP6 SWAP5 SWAP4 SWAP3 SWAP2 SWAP1 PUSH2 0x174D JUMP JUMPDEST PUSH1 0x40 MLOAD DUP1 SWAP2 SUB SWAP1 RETURN JUMPDEST PUSH2 0x1A7 PUSH2 0xA65 JUMP JUMPDEST STOP JUMPDEST PUSH2 0x1C3 PUSH1 0x4 DUP1 CALLDATASIZE SUB DUP2 ADD SWAP1 PUSH2 0x1BE SWAP2 SWAP1 PUSH2 0x1654 JUMP JUMPDEST PUSH2 0xBFA JUMP JUMPDEST PUSH1 0x40 MLOAD PUSH2 0x1D0 SWAP2 SWAP1 PUSH2 0x19BA JUMP JUMPDEST PUSH1 0x40 MLOAD DUP1 SWAP2 SUB SWAP1 RETURN JUMPDEST PUSH2 0x1E1 PUSH2 0xEFA JUMP JUMPDEST PUSH1 0x40 MLOAD PUSH2 0x1EE SWAP2 SWAP1 PUSH2 0x1A1D JUMP JUMPDEST PUSH1 0x40 MLOAD DUP1 SWAP2 SUB SWAP1 RETURN JUMPDEST PUSH2 0x211 PUSH1 0x4 DUP1 CALLDATASIZE SUB DUP2 ADD SWAP1 PUSH2 0x20C SWAP2 SWAP1 PUSH2 0x16C7 JUMP JUMPDEST PUSH2 0xF23 JUMP JUMPDEST PUSH1 0x40 MLOAD PUSH2 0x21E SWAP2 SWAP1 PUSH2 0x1A38 JUMP JUMPDEST PUSH1 0x40 MLOAD DUP1 SWAP2 SUB SWAP1 RETURN JUMPDEST PUSH2 0x241 PUSH1 0x4 DUP1 CALLDATASIZE SUB DUP2 ADD SWAP1 PUSH2 0x23C SWAP2 SWAP1 PUSH2 0x1A7F JUMP JUMPDEST PUSH2 0xF50 JUMP JUMPDEST STOP JUMPDEST PUSH2 0x24B PUSH2 0x1187 JUMP JUMPDEST PUSH2 0x253 PUSH2 0xF64 JUMP JUMPDEST DUP2 ISZERO PUSH2 0x301 JUMPI PUSH1 0x1 PUSH1 0x5 PUSH1 0x3 PUSH1 0x0 DUP7 DUP2 MSTORE PUSH1 0x20 ADD SWAP1 DUP2 MSTORE PUSH1 0x20 ADD PUSH1 0x0 KECCAK256 PUSH1 0x5 ADD SLOAD DUP2 SLOAD DUP2 LT PUSH2 0x285 JUMPI PUSH2 0x284 PUSH2 0x1AAC JUMP JUMPDEST JUMPDEST SWAP1 PUSH1 0x0 MSTORE PUSH1 0x20 PUSH1 0x0 KECCAK256 SWAP1 PUSH1 0x7 MUL ADD PUSH1 0x6 ADD PUSH1 0x0 PUSH2 0x100 EXP DUP2 SLOAD DUP2 PUSH1 0xFF MUL NOT AND SWAP1 DUP4 PUSH1 0x1 DUP2 GT ISZERO PUSH2 0x2B8 JUMPI PUSH2 0x2B7 PUSH2 0x13E3 JUMP JUMPDEST JUMPDEST MUL OR SWAP1 SSTORE POP PUSH1 0x1 PUSH1 0x3 PUSH1 0x0 DUP6 DUP2 MSTORE PUSH1 0x20 ADD SWAP1 DUP2 MSTORE PUSH1 0x20 ADD PUSH1 0x0 KECCAK256 PUSH1 0x6 ADD PUSH1 0x0 PUSH2 0x100 EXP DUP2 SLOAD DUP2 PUSH1 0xFF MUL NOT AND SWAP1 DUP4 PUSH1 0x1 DUP2 GT ISZERO PUSH2 0x2F7 JUMPI PUSH2 0x2F6 PUSH2 0x13E3 JUMP JUMPDEST JUMPDEST MUL OR SWAP1 SSTORE POP PUSH2 0x3A5 JUMP JUMPDEST PUSH1 0x0 PUSH1 0x5 PUSH1 0x3 PUSH1 0x0 DUP7 DUP2 MSTORE PUSH1 0x20 ADD SWAP1 DUP2 MSTORE PUSH1 0x20 ADD PUSH1 0x0 KECCAK256 PUSH1 0x5 ADD SLOAD DUP2 SLOAD DUP2 LT PUSH2 0x32D JUMPI PUSH2 0x32C PUSH2 0x1AAC JUMP JUMPDEST JUMPDEST SWAP1 PUSH1 0x0 MSTORE PUSH1 0x20 PUSH1 0x0 KECCAK256 SWAP1 PUSH1 0x7 MUL ADD PUSH1 0x6 ADD PUSH1 0x0 PUSH2 0x100 EXP DUP2 SLOAD DUP2 PUSH1 0xFF MUL NOT AND SWAP1 DUP4 PUSH1 0x1 DUP2 GT ISZERO PUSH2 0x360 JUMPI PUSH2 0x35F PUSH2 0x13E3 JUMP JUMPDEST JUMPDEST MUL OR SWAP1 SSTORE POP PUSH1 0x0 PUSH1 0x3 PUSH1 0x0 DUP6 DUP2 MSTORE PUSH1 0x20 ADD SWAP1 DUP2 MSTORE PUSH1 0x20 ADD PUSH1 0x0 KECCAK256 PUSH1 0x6 ADD PUSH1 0x0 PUSH2 0x100 EXP DUP2 SLOAD DUP2 PUSH1 0xFF MUL NOT AND SWAP1 DUP4 PUSH1 0x1 DUP2 GT ISZERO PUSH2 0x39F JUMPI PUSH2 0x39E PUSH2 0x13E3 JUMP JUMPDEST JUMPDEST MUL OR SWAP1 SSTORE POP JUMPDEST PUSH1 0x3 PUSH1 0x0 DUP5 DUP2 MSTORE PUSH1 0x20 ADD SWAP1 DUP2 MSTORE PUSH1 0x20 ADD PUSH1 0x0 KECCAK256 PUSH1 0x40 MLOAD DUP1 PUSH1 0xE0 ADD PUSH1 0x40 MSTORE SWAP1 DUP2 PUSH1 0x0 DUP3 ADD SLOAD DUP2 MSTORE PUSH1 0x20 ADD PUSH1 0x1 DUP3 ADD DUP1 SLOAD PUSH2 0x3DD SWAP1 PUSH2 0x1B0A JUMP JUMPDEST DUP1 PUSH1 0x1F ADD PUSH1 0x20 DUP1 SWAP2 DIV MUL PUSH1 0x20 ADD PUSH1 0x40 MLOAD SWAP1 DUP2 ADD PUSH1 0x40 MSTORE DUP1 SWAP3 SWAP2 SWAP1 DUP2 DUP2 MSTORE PUSH1 0x20 ADD DUP3 DUP1 SLOAD PUSH2 0x409 SWAP1 PUSH2 0x1B0A JUMP JUMPDEST DUP1 ISZERO PUSH2 0x456 JUMPI DUP1 PUSH1 0x1F LT PUSH2 0x42B JUMPI PUSH2 0x100 DUP1 DUP4 SLOAD DIV MUL DUP4 MSTORE SWAP2 PUSH1 0x20 ADD SWAP2 PUSH2 0x456 JUMP JUMPDEST DUP3 ADD SWAP2 SWAP1 PUSH1 0x0 MSTORE PUSH1 0x20 PUSH1 0x0 KECCAK256 SWAP1 JUMPDEST DUP2 SLOAD DUP2 MSTORE SWAP1 PUSH1 0x1 ADD SWAP1 PUSH1 0x20 ADD DUP1 DUP4 GT PUSH2 0x439 JUMPI DUP3 SWAP1 SUB PUSH1 0x1F AND DUP3 ADD SWAP2 JUMPDEST POP POP POP POP POP DUP2 MSTORE PUSH1 0x20 ADD PUSH1 0x2 DUP3 ADD DUP1 SLOAD PUSH2 0x46F SWAP1 PUSH2 0x1B0A JUMP JUMPDEST DUP1 PUSH1 0x1F ADD PUSH1 0x20 DUP1 SWAP2 DIV MUL PUSH1 0x20 ADD PUSH1 0x40 MLOAD SWAP1 DUP2 ADD PUSH1 0x40 MSTORE DUP1 SWAP3 SWAP2 SWAP1 DUP2 DUP2 MSTORE PUSH1 0x20 ADD DUP3 DUP1 SLOAD PUSH2 0x49B SWAP1 PUSH2 0x1B0A JUMP JUMPDEST DUP1 ISZERO PUSH2 0x4E8 JUMPI DUP1 PUSH1 0x1F LT PUSH2 0x4BD JUMPI PUSH2 0x100 DUP1 DUP4 SLOAD DIV MUL DUP4 MSTORE SWAP2 PUSH1 0x20 ADD SWAP2 PUSH2 0x4E8 JUMP JUMPDEST DUP3 ADD SWAP2 SWAP1 PUSH1 0x0 MSTORE PUSH1 0x20 PUSH1 0x0 KECCAK256 SWAP1 JUMPDEST DUP2 SLOAD DUP2 MSTORE SWAP1 PUSH1 0x1 ADD SWAP1 PUSH1 0x20 ADD DUP1 DUP4 GT PUSH2 0x4CB JUMPI DUP3 SWAP1 SUB PUSH1 0x1F AND DUP3 ADD SWAP2 JUMPDEST POP POP POP POP POP DUP2 MSTORE PUSH1 0x20 ADD PUSH1 0x3 DUP3 ADD SLOAD DUP2 MSTORE PUSH1 0x20 ADD PUSH1 0x4 DUP3 ADD SLOAD DUP2 MSTORE PUSH1 0x20 ADD PUSH1 0x5 DUP3 ADD SLOAD DUP2 MSTORE PUSH1 0x20 ADD PUSH1 0x6 DUP3 ADD PUSH1 0x0 SWAP1 SLOAD SWAP1 PUSH2 0x100 EXP SWAP1 DIV PUSH1 0xFF AND PUSH1 0x1 DUP2 GT ISZERO PUSH2 0x534 JUMPI PUSH2 0x533 PUSH2 0x13E3 JUMP JUMPDEST JUMPDEST PUSH1 0x1 DUP2 GT ISZERO PUSH2 0x546 JUMPI PUSH2 0x545 PUSH2 0x13E3 JUMP JUMPDEST JUMPDEST DUP2 MSTORE POP POP SWAP1 POP SWAP3 SWAP2 POP POP JUMP JUMPDEST PUSH1 0x4 DUP2 DUP1 MLOAD PUSH1 0x20 DUP2 ADD DUP3 ADD DUP1 MLOAD DUP5 DUP3 MSTORE PUSH1 0x20 DUP4 ADD PUSH1 0x20 DUP6 ADD KECCAK256 DUP2 DUP4 MSTORE DUP1 SWAP6 POP POP POP POP POP POP PUSH1 0x0 SWAP2 POP SWAP1 POP SLOAD DUP2 JUMP JUMPDEST PUSH1 0x5 DUP2 DUP2 SLOAD DUP2 LT PUSH2 0x590 JUMPI PUSH1 0x0 DUP1 REVERT JUMPDEST SWAP1 PUSH1 0x0 MSTORE PUSH1 0x20 PUSH1 0x0 KECCAK256 SWAP1 PUSH1 0x7 MUL ADD PUSH1 0x0 SWAP2 POP SWAP1 POP DUP1 PUSH1 0x0 ADD SLOAD SWAP1 DUP1 PUSH1 0x1 ADD DUP1 SLOAD PUSH2 0x5B9 SWAP1 PUSH2 0x1B0A JUMP JUMPDEST DUP1 PUSH1 0x1F ADD PUSH1 0x20 DUP1 SWAP2 DIV MUL PUSH1 0x20 ADD PUSH1 0x40 MLOAD SWAP1 DUP2 ADD PUSH1 0x40 MSTORE DUP1 SWAP3 SWAP2 SWAP1 DUP2 DUP2 MSTORE PUSH1 0x20 ADD DUP3 DUP1 SLOAD PUSH2 0x5E5 SWAP1 PUSH2 0x1B0A JUMP JUMPDEST DUP1 ISZERO PUSH2 0x632 JUMPI DUP1 PUSH1 0x1F LT PUSH2 0x607 JUMPI PUSH2 0x100 DUP1 DUP4 SLOAD DIV MUL DUP4 MSTORE SWAP2 PUSH1 0x20 ADD SWAP2 PUSH2 0x632 JUMP JUMPDEST DUP3 ADD SWAP2 SWAP1 PUSH1 0x0 MSTORE PUSH1 0x20 PUSH1 0x0 KECCAK256 SWAP1 JUMPDEST DUP2 SLOAD DUP2 MSTORE SWAP1 PUSH1 0x1 ADD SWAP1 PUSH1 0x20 ADD DUP1 DUP4 GT PUSH2 0x615 JUMPI DUP3 SWAP1 SUB PUSH1 0x1F AND DUP3 ADD SWAP2 JUMPDEST POP POP POP POP POP SWAP1 DUP1 PUSH1 0x2 ADD DUP1 SLOAD PUSH2 0x647 SWAP1 PUSH2 0x1B0A JUMP JUMPDEST DUP1 PUSH1 0x1F ADD PUSH1 0x20 DUP1 SWAP2 DIV MUL PUSH1 0x20 ADD PUSH1 0x40 MLOAD SWAP1 DUP2 ADD PUSH1 0x40 MSTORE DUP1 SWAP3 SWAP2 SWAP1 DUP2 DUP2 MSTORE PUSH1 0x20 ADD DUP3 DUP1 SLOAD PUSH2 0x673 SWAP1 PUSH2 0x1B0A JUMP JUMPDEST DUP1 ISZERO PUSH2 0x6C0 JUMPI DUP1 PUSH1 0x1F LT PUSH2 0x695 JUMPI PUSH2 0x100 DUP1 DUP4 SLOAD DIV MUL DUP4 MSTORE SWAP2 PUSH1 0x20 ADD SWAP2 PUSH2 0x6C0 JUMP JUMPDEST DUP3 ADD SWAP2 SWAP1 PUSH1 0x0 MSTORE PUSH1 0x20 PUSH1 0x0 KECCAK256 SWAP1 JUMPDEST DUP2 SLOAD DUP2 MSTORE SWAP1 PUSH1 0x1 ADD SWAP1 PUSH1 0x20 ADD DUP1 DUP4 GT PUSH2 0x6A3 JUMPI DUP3 SWAP1 SUB PUSH1 0x1F AND DUP3 ADD SWAP2 JUMPDEST POP POP POP POP POP SWAP1 DUP1 PUSH1 0x3 ADD SLOAD SWAP1 DUP1 PUSH1 0x4 ADD SLOAD SWAP1 DUP1 PUSH1 0x5 ADD SLOAD SWAP1 DUP1 PUSH1 0x6 ADD PUSH1 0x0 SWAP1 SLOAD SWAP1 PUSH2 0x100 EXP SWAP1 DIV PUSH1 0xFF AND SWAP1 POP DUP8 JUMP JUMPDEST PUSH1 0x0 PUSH2 0x6F9 PUSH2 0xF64 JUMP JUMPDEST PUSH1 0x0 PUSH2 0x706 DUP6 DUP6 DUP6 PUSH2 0xFF4 JUMP JUMPDEST SWAP1 POP PUSH1 0x0 PUSH1 0x5 DUP1 SLOAD SWAP1 POP SWAP1 POP PUSH1 0x0 PUSH1 0x40 MLOAD DUP1 PUSH1 0xE0 ADD PUSH1 0x40 MSTORE DUP1 DUP5 DUP2 MSTORE PUSH1 0x20 ADD DUP9 DUP2 MSTORE PUSH1 0x20 ADD DUP8 DUP2 MSTORE PUSH1 0x20 ADD DUP7 DUP2 MSTORE PUSH1 0x20 ADD TIMESTAMP DUP2 MSTORE PUSH1 0x20 ADD DUP4 DUP2 MSTORE PUSH1 0x20 ADD PUSH1 0x0 PUSH1 0x1 DUP2 GT ISZERO PUSH2 0x757 JUMPI PUSH2 0x756 PUSH2 0x13E3 JUMP JUMPDEST JUMPDEST DUP2 MSTORE POP SWAP1 POP DUP1 PUSH1 0x3 PUSH1 0x0 DUP6 DUP2 MSTORE PUSH1 0x20 ADD SWAP1 DUP2 MSTORE PUSH1 0x20 ADD PUSH1 0x0 KECCAK256 PUSH1 0x0 DUP3 ADD MLOAD DUP2 PUSH1 0x0 ADD SSTORE PUSH1 0x20 DUP3 ADD MLOAD DUP2 PUSH1 0x1 ADD SWAP1 DUP1 MLOAD SWAP1 PUSH1 0x20 ADD SWAP1 PUSH2 0x796 SWAP3 SWAP2 SWAP1 PUSH2 0x11D6 JUMP JUMPDEST POP PUSH1 0x40 DUP3 ADD MLOAD DUP2 PUSH1 0x2 ADD SWAP1 DUP1 MLOAD SWAP1 PUSH1 0x20 ADD SWAP1 PUSH2 0x7B3 SWAP3 SWAP2 SWAP1 PUSH2 0x11D6 JUMP JUMPDEST POP PUSH1 0x60 DUP3 ADD MLOAD DUP2 PUSH1 0x3 ADD SSTORE PUSH1 0x80 DUP3 ADD MLOAD DUP2 PUSH1 0x4 ADD SSTORE PUSH1 0xA0 DUP3 ADD MLOAD DUP2 PUSH1 0x5 ADD SSTORE PUSH1 0xC0 DUP3 ADD MLOAD DUP2 PUSH1 0x6 ADD PUSH1 0x0 PUSH2 0x100 EXP DUP2 SLOAD DUP2 PUSH1 0xFF MUL NOT AND SWAP1 DUP4 PUSH1 0x1 DUP2 GT ISZERO PUSH2 0x7FD JUMPI PUSH2 0x7FC PUSH2 0x13E3 JUMP JUMPDEST JUMPDEST MUL OR SWAP1 SSTORE POP SWAP1 POP POP PUSH1 0x4 DUP8 PUSH1 0x40 MLOAD PUSH2 0x815 SWAP2 SWAP1 PUSH2 0x1B78 JUMP JUMPDEST SWAP1 DUP2 MSTORE PUSH1 0x20 ADD PUSH1 0x40 MLOAD DUP1 SWAP2 SUB SWAP1 KECCAK256 PUSH1 0x0 DUP2 SLOAD DUP1 SWAP3 SWAP2 SWAP1 PUSH2 0x834 SWAP1 PUSH2 0x1BBE JUMP JUMPDEST SWAP2 SWAP1 POP SSTORE POP PUSH1 0x5 DUP2 SWAP1 DUP1 PUSH1 0x1 DUP2 SLOAD ADD DUP1 DUP3 SSTORE DUP1 SWAP2 POP POP PUSH1 0x1 SWAP1 SUB SWAP1 PUSH1 0x0 MSTORE PUSH1 0x20 PUSH1 0x0 KECCAK256 SWAP1 PUSH1 0x7 MUL ADD PUSH1 0x0 SWAP1 SWAP2 SWAP1 SWAP2 SWAP1 SWAP2 POP PUSH1 0x0 DUP3 ADD MLOAD DUP2 PUSH1 0x0 ADD SSTORE PUSH1 0x20 DUP3 ADD MLOAD DUP2 PUSH1 0x1 ADD SWAP1 DUP1 MLOAD SWAP1 PUSH1 0x20 ADD SWAP1 PUSH2 0x88B SWAP3 SWAP2 SWAP1 PUSH2 0x11D6 JUMP JUMPDEST POP PUSH1 0x40 DUP3 ADD MLOAD DUP2 PUSH1 0x2 ADD SWAP1 DUP1 MLOAD SWAP1 PUSH1 0x20 ADD SWAP1 PUSH2 0x8A8 SWAP3 SWAP2 SWAP1 PUSH2 0x11D6 JUMP JUMPDEST POP PUSH1 0x60 DUP3 ADD MLOAD DUP2 PUSH1 0x3 ADD SSTORE PUSH1 0x80 DUP3 ADD MLOAD DUP2 PUSH1 0x4 ADD SSTORE PUSH1 0xA0 DUP3 ADD MLOAD DUP2 PUSH1 0x5 ADD SSTORE PUSH1 0xC0 DUP3 ADD MLOAD DUP2 PUSH1 0x6 ADD PUSH1 0x0 PUSH2 0x100 EXP DUP2 SLOAD DUP2 PUSH1 0xFF MUL NOT AND SWAP1 DUP4 PUSH1 0x1 DUP2 GT ISZERO PUSH2 0x8F2 JUMPI PUSH2 0x8F1 PUSH2 0x13E3 JUMP JUMPDEST JUMPDEST MUL OR SWAP1 SSTORE POP POP POP DUP3 SWAP4 POP POP POP POP SWAP4 SWAP3 POP POP POP JUMP JUMPDEST PUSH1 0x3 PUSH1 0x20 MSTORE DUP1 PUSH1 0x0 MSTORE PUSH1 0x40 PUSH1 0x0 KECCAK256 PUSH1 0x0 SWAP2 POP SWAP1 POP DUP1 PUSH1 0x0 ADD SLOAD SWAP1 DUP1 PUSH1 0x1 ADD DUP1 SLOAD PUSH2 0x92F SWAP1 PUSH2 0x1B0A JUMP JUMPDEST DUP1 PUSH1 0x1F ADD PUSH1 0x20 DUP1 SWAP2 DIV MUL PUSH1 0x20 ADD PUSH1 0x40 MLOAD SWAP1 DUP2 ADD PUSH1 0x40 MSTORE DUP1 SWAP3 SWAP2 SWAP1 DUP2 DUP2 MSTORE PUSH1 0x20 ADD DUP3 DUP1 SLOAD PUSH2 0x95B SWAP1 PUSH2 0x1B0A JUMP JUMPDEST DUP1 ISZERO PUSH2 0x9A8 JUMPI DUP1 PUSH1 0x1F LT PUSH2 0x97D JUMPI PUSH2 0x100 DUP1 DUP4 SLOAD DIV MUL DUP4 MSTORE SWAP2 PUSH1 0x20 ADD SWAP2 PUSH2 0x9A8 JUMP JUMPDEST DUP3 ADD SWAP2 SWAP1 PUSH1 0x0 MSTORE PUSH1 0x20 PUSH1 0x0 KECCAK256 SWAP1 JUMPDEST DUP2 SLOAD DUP2 MSTORE SWAP1 PUSH1 0x1 ADD SWAP1 PUSH1 0x20 ADD DUP1 DUP4 GT PUSH2 0x98B JUMPI DUP3 SWAP1 SUB PUSH1 0x1F AND DUP3 ADD SWAP2 JUMPDEST POP POP POP POP POP SWAP1 DUP1 PUSH1 0x2 ADD DUP1 SLOAD PUSH2 0x9BD SWAP1 PUSH2 0x1B0A JUMP JUMPDEST DUP1 PUSH1 0x1F ADD PUSH1 0x20 DUP1 SWAP2 DIV MUL PUSH1 0x20 ADD PUSH1 0x40 MLOAD SWAP1 DUP2 ADD PUSH1 0x40 MSTORE DUP1 SWAP3 SWAP2 SWAP1 DUP2 DUP2 MSTORE PUSH1 0x20 ADD DUP3 DUP1 SLOAD PUSH2 0x9E9 SWAP1 PUSH2 0x1B0A JUMP JUMPDEST DUP1 ISZERO PUSH2 0xA36 JUMPI DUP1 PUSH1 0x1F LT PUSH2 0xA0B JUMPI PUSH2 0x100 DUP1 DUP4 SLOAD DIV MUL DUP4 MSTORE SWAP2 PUSH1 0x20 ADD SWAP2 PUSH2 0xA36 JUMP JUMPDEST DUP3 ADD SWAP2 SWAP1 PUSH1 0x0 MSTORE PUSH1 0x20 PUSH1 0x0 KECCAK256 SWAP1 JUMPDEST DUP2 SLOAD DUP2 MSTORE SWAP1 PUSH1 0x1 ADD SWAP1 PUSH1 0x20 ADD DUP1 DUP4 GT PUSH2 0xA19 JUMPI DUP3 SWAP1 SUB PUSH1 0x1F AND DUP3 ADD SWAP2 JUMPDEST POP POP POP POP POP SWAP1 DUP1 PUSH1 0x3 ADD SLOAD SWAP1 DUP1 PUSH1 0x4 ADD SLOAD SWAP1 DUP1 PUSH1 0x5 ADD SLOAD SWAP1 DUP1 PUSH1 0x6 ADD PUSH1 0x0 SWAP1 SLOAD SWAP1 PUSH2 0x100 EXP SWAP1 DIV PUSH1 0xFF AND SWAP1 POP DUP8 JUMP JUMPDEST PUSH1 0x1 PUSH1 0x0 SWAP1 SLOAD SWAP1 PUSH2 0x100 EXP SWAP1 DIV PUSH20 0xFFFFFFFFFFFFFFFFFFFFFFFFFFFFFFFFFFFFFFFF AND PUSH20 0xFFFFFFFFFFFFFFFFFFFFFFFFFFFFFFFFFFFFFFFF AND CALLER PUSH20 0xFFFFFFFFFFFFFFFFFFFFFFFFFFFFFFFFFFFFFFFF AND EQ PUSH2 0xAF5 JUMPI PUSH1 0x40 MLOAD PUSH32 0x8C379A000000000000000000000000000000000000000000000000000000000 DUP2 MSTORE PUSH1 0x4 ADD PUSH2 0xAEC SWAP1 PUSH2 0x1C53 JUMP JUMPDEST PUSH1 0x40 MLOAD DUP1 SWAP2 SUB SWAP1 REVERT JUMPDEST PUSH1 0x0 DUP1 PUSH1 0x0 SWAP1 SLOAD SWAP1 PUSH2 0x100 EXP SWAP1 DIV PUSH20 0xFFFFFFFFFFFFFFFFFFFFFFFFFFFFFFFFFFFFFFFF AND SWAP1 POP CALLER PUSH1 0x0 DUP1 PUSH2 0x100 EXP DUP2 SLOAD DUP2 PUSH20 0xFFFFFFFFFFFFFFFFFFFFFFFFFFFFFFFFFFFFFFFF MUL NOT AND SWAP1 DUP4 PUSH20 0xFFFFFFFFFFFFFFFFFFFFFFFFFFFFFFFFFFFFFFFF AND MUL OR SWAP1 SSTORE POP PUSH1 0x0 PUSH1 0x1 PUSH1 0x0 PUSH2 0x100 EXP DUP2 SLOAD DUP2 PUSH20 0xFFFFFFFFFFFFFFFFFFFFFFFFFFFFFFFFFFFFFFFF MUL NOT AND SWAP1 DUP4 PUSH20 0xFFFFFFFFFFFFFFFFFFFFFFFFFFFFFFFFFFFFFFFF AND MUL OR SWAP1 SSTORE POP CALLER PUSH20 0xFFFFFFFFFFFFFFFFFFFFFFFFFFFFFFFFFFFFFFFF AND DUP2 PUSH20 0xFFFFFFFFFFFFFFFFFFFFFFFFFFFFFFFFFFFFFFFF AND PUSH32 0x8BE0079C531659141344CD1FD0A4F28419497F9722A3DAAFE3B4186F6B6457E0 PUSH1 0x40 MLOAD PUSH1 0x40 MLOAD DUP1 SWAP2 SUB SWAP1 LOG3 POP JUMP JUMPDEST PUSH1 0x60 PUSH1 0x0 PUSH1 0x4 DUP4 PUSH1 0x40 MLOAD PUSH2 0xC0E SWAP2 SWAP1 PUSH2 0x1B78 JUMP JUMPDEST SWAP1 DUP2 MSTORE PUSH1 0x20 ADD PUSH1 0x40 MLOAD DUP1 SWAP2 SUB SWAP1 KECCAK256 SLOAD PUSH8 0xFFFFFFFFFFFFFFFF DUP2 GT ISZERO PUSH2 0xC36 JUMPI PUSH2 0xC35 PUSH2 0x1529 JUMP JUMPDEST JUMPDEST PUSH1 0x40 MLOAD SWAP1 DUP1 DUP3 MSTORE DUP1 PUSH1 0x20 MUL PUSH1 0x20 ADD DUP3 ADD PUSH1 0x40 MSTORE DUP1 ISZERO PUSH2 0xC6F JUMPI DUP2 PUSH1 0x20 ADD JUMPDEST PUSH2 0xC5C PUSH2 0x1187 JUMP JUMPDEST DUP2 MSTORE PUSH1 0x20 ADD SWAP1 PUSH1 0x1 SWAP1 SUB SWAP1 DUP2 PUSH2 0xC54 JUMPI SWAP1 POP JUMPDEST POP SWAP1 POP PUSH1 0x0 DUP1 JUMPDEST PUSH1 0x5 DUP1 SLOAD SWAP1 POP DUP2 LT ISZERO PUSH2 0xEEF JUMPI DUP5 PUSH1 0x40 MLOAD PUSH1 0x20 ADD PUSH2 0xC94 SWAP2 SWAP1 PUSH2 0x1B78 JUMP JUMPDEST PUSH1 0x40 MLOAD PUSH1 0x20 DUP2 DUP4 SUB SUB DUP2 MSTORE SWAP1 PUSH1 0x40 MSTORE DUP1 MLOAD SWAP1 PUSH1 0x20 ADD KECCAK256 PUSH1 0x5 DUP3 DUP2 SLOAD DUP2 LT PUSH2 0xCBE JUMPI PUSH2 0xCBD PUSH2 0x1AAC JUMP JUMPDEST JUMPDEST SWAP1 PUSH1 0x0 MSTORE PUSH1 0x20 PUSH1 0x0 KECCAK256 SWAP1 PUSH1 0x7 MUL ADD PUSH1 0x1 ADD PUSH1 0x40 MLOAD PUSH1 0x20 ADD PUSH2 0xCDF SWAP2 SWAP1 PUSH2 0x1D07 JUMP JUMPDEST PUSH1 0x40 MLOAD PUSH1 0x20 DUP2 DUP4 SUB SUB DUP2 MSTORE SWAP1 PUSH1 0x40 MSTORE DUP1 MLOAD SWAP1 PUSH1 0x20 ADD KECCAK256 EQ ISZERO PUSH2 0xEDC JUMPI PUSH1 0x5 DUP2 DUP2 SLOAD DUP2 LT PUSH2 0xD0F JUMPI PUSH2 0xD0E PUSH2 0x1AAC JUMP JUMPDEST JUMPDEST SWAP1 PUSH1 0x0 MSTORE PUSH1 0x20 PUSH1 0x0 KECCAK256 SWAP1 PUSH1 0x7 MUL ADD PUSH1 0x40 MLOAD DUP1 PUSH1 0xE0 ADD PUSH1 0x40 MSTORE SWAP1 DUP2 PUSH1 0x0 DUP3 ADD SLOAD DUP2 MSTORE PUSH1 0x20 ADD PUSH1 0x1 DUP3 ADD DUP1 SLOAD PUSH2 0xD42 SWAP1 PUSH2 0x1B0A JUMP JUMPDEST DUP1 PUSH1 0x1F ADD PUSH1 0x20 DUP1 SWAP2 DIV MUL PUSH1 0x20 ADD PUSH1 0x40 MLOAD SWAP1 DUP2 ADD PUSH1 0x40 MSTORE DUP1 SWAP3 SWAP2 SWAP1 DUP2 DUP2 MSTORE PUSH1 0x20 ADD DUP3 DUP1 SLOAD PUSH2 0xD6E SWAP1 PUSH2 0x1B0A JUMP JUMPDEST DUP1 ISZERO PUSH2 0xDBB JUMPI DUP1 PUSH1 0x1F LT PUSH2 0xD90 JUMPI PUSH2 0x100 DUP1 DUP4 SLOAD DIV MUL DUP4 MSTORE SWAP2 PUSH1 0x20 ADD SWAP2 PUSH2 0xDBB JUMP JUMPDEST DUP3 ADD SWAP2 SWAP1 PUSH1 0x0 MSTORE PUSH1 0x20 PUSH1 0x0 KECCAK256 SWAP1 JUMPDEST DUP2 SLOAD DUP2 MSTORE SWAP1 PUSH1 0x1 ADD SWAP1 PUSH1 0x20 ADD DUP1 DUP4 GT PUSH2 0xD9E JUMPI DUP3 SWAP1 SUB PUSH1 0x1F AND DUP3 ADD SWAP2 JUMPDEST POP POP POP POP POP DUP2 MSTORE PUSH1 0x20 ADD PUSH1 0x2 DUP3 ADD DUP1 SLOAD PUSH2 0xDD4 SWAP1 PUSH2 0x1B0A JUMP JUMPDEST DUP1 PUSH1 0x1F ADD PUSH1 0x20 DUP1 SWAP2 DIV MUL PUSH1 0x20 ADD PUSH1 0x40 MLOAD SWAP1 DUP2 ADD PUSH1 0x40 MSTORE DUP1 SWAP3 SWAP2 SWAP1 DUP2 DUP2 MSTORE PUSH1 0x20 ADD DUP3 DUP1 SLOAD PUSH2 0xE00 SWAP1 PUSH2 0x1B0A JUMP JUMPDEST DUP1 ISZERO PUSH2 0xE4D JUMPI DUP1 PUSH1 0x1F LT PUSH2 0xE22 JUMPI PUSH2 0x100 DUP1 DUP4 SLOAD DIV MUL DUP4 MSTORE SWAP2 PUSH1 0x20 ADD SWAP2 PUSH2 0xE4D JUMP JUMPDEST DUP3 ADD SWAP2 SWAP1 PUSH1 0x0 MSTORE PUSH1 0x20 PUSH1 0x0 KECCAK256 SWAP1 JUMPDEST DUP2 SLOAD DUP2 MSTORE SWAP1 PUSH1 0x1 ADD SWAP1 PUSH1 0x20 ADD DUP1 DUP4 GT PUSH2 0xE30 JUMPI DUP3 SWAP1 SUB PUSH1 0x1F AND DUP3 ADD SWAP2 JUMPDEST POP POP POP POP POP DUP2 MSTORE PUSH1 0x20 ADD PUSH1 0x3 DUP3 ADD SLOAD DUP2 MSTORE PUSH1 0x20 ADD PUSH1 0x4 DUP3 ADD SLOAD DUP2 MSTORE PUSH1 0x20 ADD PUSH1 0x5 DUP3 ADD SLOAD DUP2 MSTORE PUSH1 0x20 ADD PUSH1 0x6 DUP3 ADD PUSH1 0x0 SWAP1 SLOAD SWAP1 PUSH2 0x100 EXP SWAP1 DIV PUSH1 0xFF AND PUSH1 0x1 DUP2 GT ISZERO PUSH2 0xE99 JUMPI PUSH2 0xE98 PUSH2 0x13E3 JUMP JUMPDEST JUMPDEST PUSH1 0x1 DUP2 GT ISZERO PUSH2 0xEAB JUMPI PUSH2 0xEAA PUSH2 0x13E3 JUMP JUMPDEST JUMPDEST DUP2 MSTORE POP POP DUP4 DUP4 DUP2 MLOAD DUP2 LT PUSH2 0xEC2 JUMPI PUSH2 0xEC1 PUSH2 0x1AAC JUMP JUMPDEST JUMPDEST PUSH1 0x20 MUL PUSH1 0x20 ADD ADD DUP2 SWAP1 MSTORE POP DUP2 DUP1 PUSH2 0xED8 SWAP1 PUSH2 0x1BBE JUMP JUMPDEST SWAP3 POP POP JUMPDEST DUP1 DUP1 PUSH2 0xEE7 SWAP1 PUSH2 0x1BBE JUMP JUMPDEST SWAP2 POP POP PUSH2 0xC76 JUMP JUMPDEST POP DUP2 SWAP3 POP POP POP SWAP2 SWAP1 POP JUMP JUMPDEST PUSH1 0x0 DUP1 PUSH1 0x0 SWAP1 SLOAD SWAP1 PUSH2 0x100 EXP SWAP1 DIV PUSH20 0xFFFFFFFFFFFFFFFFFFFFFFFFFFFFFFFFFFFFFFFF AND SWAP1 POP SWAP1 JUMP JUMPDEST PUSH1 0x0 PUSH1 0x3 PUSH1 0x0 DUP4 DUP2 MSTORE PUSH1 0x20 ADD SWAP1 DUP2 MSTORE PUSH1 0x20 ADD PUSH1 0x0 KECCAK256 PUSH1 0x6 ADD PUSH1 0x0 SWAP1 SLOAD SWAP1 PUSH2 0x100 EXP SWAP1 DIV PUSH1 0xFF AND SWAP1 POP SWAP2 SWAP1 POP JUMP JUMPDEST PUSH2 0xF58 PUSH2 0xF64 JUMP JUMPDEST PUSH2 0xF61 DUP2 PUSH2 0x105A JUMP JUMPDEST POP JUMP JUMPDEST PUSH1 0x0 DUP1 SLOAD SWAP1 PUSH2 0x100 EXP SWAP1 DIV PUSH20 0xFFFFFFFFFFFFFFFFFFFFFFFFFFFFFFFFFFFFFFFF AND PUSH20 0xFFFFFFFFFFFFFFFFFFFFFFFFFFFFFFFFFFFFFFFF AND CALLER PUSH20 0xFFFFFFFFFFFFFFFFFFFFFFFFFFFFFFFFFFFFFFFF AND EQ PUSH2 0xFF2 JUMPI PUSH1 0x40 MLOAD PUSH32 0x8C379A000000000000000000000000000000000000000000000000000000000 DUP2 MSTORE PUSH1 0x4 ADD PUSH2 0xFE9 SWAP1 PUSH2 0x1D6A JUMP JUMPDEST PUSH1 0x40 MLOAD DUP1 SWAP2 SUB SWAP1 REVERT JUMPDEST JUMP JUMPDEST PUSH1 0x0 PUSH1 0x2 PUSH1 0x0 DUP2 SLOAD DUP1 SWAP3 SWAP2 SWAP1 PUSH2 0x1009 SWAP1 PUSH2 0x1BBE JUMP JUMPDEST SWAP2 SWAP1 POP SSTORE POP PUSH4 0x5F5E100 DUP5 DUP5 DUP5 CALLER PUSH1 0x2 SLOAD PUSH1 0x40 MLOAD PUSH1 0x20 ADD PUSH2 0x102E SWAP6 SWAP5 SWAP4 SWAP3 SWAP2 SWAP1 PUSH2 0x1DF3 JUMP JUMPDEST PUSH1 0x40 MLOAD PUSH1 0x20 DUP2 DUP4 SUB SUB DUP2 MSTORE SWAP1 PUSH1 0x40 MSTORE DUP1 MLOAD SWAP1 PUSH1 0x20 ADD KECCAK256 PUSH1 0x0 SHR PUSH2 0x1051 SWAP2 SWAP1 PUSH2 0x1E79 JUMP JUMPDEST SWAP1 POP SWAP4 SWAP3 POP POP POP JUMP JUMPDEST CALLER PUSH20 0xFFFFFFFFFFFFFFFFFFFFFFFFFFFFFFFFFFFFFFFF AND DUP2 PUSH20 0xFFFFFFFFFFFFFFFFFFFFFFFFFFFFFFFFFFFFFFFF AND EQ ISZERO PUSH2 0x10C9 JUMPI PUSH1 0x40 MLOAD PUSH32 0x8C379A000000000000000000000000000000000000000000000000000000000 DUP2 MSTORE PUSH1 0x4 ADD PUSH2 0x10C0 SWAP1 PUSH2 0x1EF6 JUMP JUMPDEST PUSH1 0x40 MLOAD DUP1 SWAP2 SUB SWAP1 REVERT JUMPDEST DUP1 PUSH1 0x1 PUSH1 0x0 PUSH2 0x100 EXP DUP2 SLOAD DUP2 PUSH20 0xFFFFFFFFFFFFFFFFFFFFFFFFFFFFFFFFFFFFFFFF MUL NOT AND SWAP1 DUP4 PUSH20 0xFFFFFFFFFFFFFFFFFFFFFFFFFFFFFFFFFFFFFFFF AND MUL OR SWAP1 SSTORE POP DUP1 PUSH20 0xFFFFFFFFFFFFFFFFFFFFFFFFFFFFFFFFFFFFFFFF AND PUSH1 0x0 DUP1 SLOAD SWAP1 PUSH2 0x100 EXP SWAP1 DIV PUSH20 0xFFFFFFFFFFFFFFFFFFFFFFFFFFFFFFFFFFFFFFFF AND PUSH20 0xFFFFFFFFFFFFFFFFFFFFFFFFFFFFFFFFFFFFFFFF AND PUSH32 0xED8889F560326EB138920D842192F0EB3DD22B4F139C87A2C57538E05BAE1278 PUSH1 0x40 MLOAD PUSH1 0x40 MLOAD DUP1 SWAP2 SUB SWAP1 LOG3 POP JUMP JUMPDEST PUSH1 0x40 MLOAD DUP1 PUSH1 0xE0 ADD PUSH1 0x40 MSTORE DUP1 PUSH1 0x0 DUP2 MSTORE PUSH1 0x20 ADD PUSH1 0x60 DUP2 MSTORE PUSH1 0x20 ADD PUSH1 0x60 DUP2 MSTORE PUSH1 0x20 ADD PUSH1 0x0 DUP2 MSTORE PUSH1 0x20 ADD PUSH1 0x0 DUP2 MSTORE PUSH1 0x20 ADD PUSH1 0x0 DUP2 MSTORE PUSH1 0x20 ADD PUSH1 0x0 PUSH1 0x1 DUP2 GT ISZERO PUSH2 0x11D0 JUMPI PUSH2 0x11CF PUSH2 0x13E3 JUMP JUMPDEST JUMPDEST DUP2 MSTORE POP SWAP1 JUMP JUMPDEST DUP3 DUP1 SLOAD PUSH2 0x11E2 SWAP1 PUSH2 0x1B0A JUMP JUMPDEST SWAP1 PUSH1 0x0 MSTORE PUSH1 0x20 PUSH1 0x0 KECCAK256 SWAP1 PUSH1 0x1F ADD PUSH1 0x20 SWAP1 DIV DUP2 ADD SWAP3 DUP3 PUSH2 0x1204 JUMPI PUSH1 0x0 DUP6 SSTORE PUSH2 0x124B JUMP JUMPDEST DUP3 PUSH1 0x1F LT PUSH2 0x121D JUMPI DUP1 MLOAD PUSH1 0xFF NOT AND DUP4 DUP1 ADD OR DUP6 SSTORE PUSH2 0x124B JUMP JUMPDEST DUP3 DUP1 ADD PUSH1 0x1 ADD DUP6 SSTORE DUP3 ISZERO PUSH2 0x124B JUMPI SWAP2 DUP3 ADD JUMPDEST DUP3 DUP2 GT ISZERO PUSH2 0x124A JUMPI DUP3 MLOAD DUP3 SSTORE SWAP2 PUSH1 0x20 ADD SWAP2 SWAP1 PUSH1 0x1 ADD SWAP1 PUSH2 0x122F JUMP JUMPDEST JUMPDEST POP SWAP1 POP PUSH2 0x1258 SWAP2 SWAP1 PUSH2 0x125C JUMP JUMPDEST POP SWAP1 JUMP JUMPDEST JUMPDEST DUP1 DUP3 GT ISZERO PUSH2 0x1275 JUMPI PUSH1 0x0 DUP2 PUSH1 0x0 SWAP1 SSTORE POP PUSH1 0x1 ADD PUSH2 0x125D JUMP JUMPDEST POP SWAP1 JUMP JUMPDEST PUSH1 0x0 PUSH1 0x40 MLOAD SWAP1 POP SWAP1 JUMP JUMPDEST PUSH1 0x0 DUP1 REVERT JUMPDEST PUSH1 0x0 DUP1 REVERT JUMPDEST PUSH1 0x0 DUP2 SWAP1 POP SWAP2 SWAP1 POP JUMP JUMPDEST PUSH2 0x12A0 DUP2 PUSH2 0x128D JUMP JUMPDEST DUP2 EQ PUSH2 0x12AB JUMPI PUSH1 0x0 DUP1 REVERT JUMPDEST POP JUMP JUMPDEST PUSH1 0x0 DUP2 CALLDATALOAD SWAP1 POP PUSH2 0x12BD DUP2 PUSH2 0x1297 JUMP JUMPDEST SWAP3 SWAP2 POP POP JUMP JUMPDEST PUSH1 0x0 DUP2 ISZERO ISZERO SWAP1 POP SWAP2 SWAP1 POP JUMP JUMPDEST PUSH2 0x12D8 DUP2 PUSH2 0x12C3 JUMP JUMPDEST DUP2 EQ PUSH2 0x12E3 JUMPI PUSH1 0x0 DUP1 REVERT JUMPDEST POP JUMP JUMPDEST PUSH1 0x0 DUP2 CALLDATALOAD SWAP1 POP PUSH2 0x12F5 DUP2 PUSH2 0x12CF JUMP JUMPDEST SWAP3 SWAP2 POP POP JUMP JUMPDEST PUSH1 0x0 DUP1 PUSH1 0x40 DUP4 DUP6 SUB SLT ISZERO PUSH2 0x1312 JUMPI PUSH2 0x1311 PUSH2 0x1283 JUMP JUMPDEST JUMPDEST PUSH1 0x0 PUSH2 0x1320 DUP6 DUP3 DUP7 ADD PUSH2 0x12AE JUMP JUMPDEST SWAP3 POP POP PUSH1 0x20 PUSH2 0x1331 DUP6 DUP3 DUP7 ADD PUSH2 0x12E6 JUMP JUMPDEST SWAP2 POP POP SWAP3 POP SWAP3 SWAP1 POP JUMP JUMPDEST PUSH2 0x1344 DUP2 PUSH2 0x128D JUMP JUMPDEST DUP3 MSTORE POP POP JUMP JUMPDEST PUSH1 0x0 DUP2 MLOAD SWAP1 POP SWAP2 SWAP1 POP JUMP JUMPDEST PUSH1 0x0 DUP3 DUP3 MSTORE PUSH1 0x20 DUP3 ADD SWAP1 POP SWAP3 SWAP2 POP POP JUMP JUMPDEST PUSH1 0x0 JUMPDEST DUP4 DUP2 LT ISZERO PUSH2 0x1384 JUMPI DUP1 DUP3 ADD MLOAD DUP2 DUP5 ADD MSTORE PUSH1 0x20 DUP2 ADD SWAP1 POP PUSH2 0x1369 JUMP JUMPDEST DUP4 DUP2 GT ISZERO PUSH2 0x1393 JUMPI PUSH1 0x0 DUP5 DUP5 ADD MSTORE JUMPDEST POP POP POP POP JUMP JUMPDEST PUSH1 0x0 PUSH1 0x1F NOT PUSH1 0x1F DUP4 ADD AND SWAP1 POP SWAP2 SWAP1 POP JUMP JUMPDEST PUSH1 0x0 PUSH2 0x13B5 DUP3 PUSH2 0x134A JUMP JUMPDEST PUSH2 0x13BF DUP2 DUP6 PUSH2 0x1355 JUMP JUMPDEST SWAP4 POP PUSH2 0x13CF DUP2 DUP6 PUSH1 0x20 DUP7 ADD PUSH2 0x1366 JUMP JUMPDEST PUSH2 0x13D8 DUP2 PUSH2 0x1399 JUMP JUMPDEST DUP5 ADD SWAP2 POP POP SWAP3 SWAP2 POP POP JUMP JUMPDEST PUSH32 0x4E487B7100000000000000000000000000000000000000000000000000000000 PUSH1 0x0 MSTORE PUSH1 0x21 PUSH1 0x4 MSTORE PUSH1 0x24 PUSH1 0x0 REVERT JUMPDEST PUSH1 0x2 DUP2 LT PUSH2 0x1423 JUMPI PUSH2 0x1422 PUSH2 0x13E3 JUMP JUMPDEST JUMPDEST POP JUMP JUMPDEST PUSH1 0x0 DUP2 SWAP1 POP PUSH2 0x1434 DUP3 PUSH2 0x1412 JUMP JUMPDEST SWAP2 SWAP1 POP JUMP JUMPDEST PUSH1 0x0 PUSH2 0x1444 DUP3 PUSH2 0x1426 JUMP JUMPDEST SWAP1 POP SWAP2 SWAP1 POP JUMP JUMPDEST PUSH2 0x1454 DUP2 PUSH2 0x1439 JUMP JUMPDEST DUP3 MSTORE POP POP JUMP JUMPDEST PUSH1 0x0 PUSH1 0xE0 DUP4 ADD PUSH1 0x0 DUP4 ADD MLOAD PUSH2 0x1472 PUSH1 0x0 DUP7 ADD DUP3 PUSH2 0x133B JUMP JUMPDEST POP PUSH1 0x20 DUP4 ADD MLOAD DUP5 DUP3 SUB PUSH1 0x20 DUP7 ADD MSTORE PUSH2 0x148A DUP3 DUP3 PUSH2 0x13AA JUMP JUMPDEST SWAP2 POP POP PUSH1 0x40 DUP4 ADD MLOAD DUP5 DUP3 SUB PUSH1 0x40 DUP7 ADD MSTORE PUSH2 0x14A4 DUP3 DUP3 PUSH2 0x13AA JUMP JUMPDEST SWAP2 POP POP PUSH1 0x60 DUP4 ADD MLOAD PUSH2 0x14B9 PUSH1 0x60 DUP7 ADD DUP3 PUSH2 0x133B JUMP JUMPDEST POP PUSH1 0x80 DUP4 ADD MLOAD PUSH2 0x14CC PUSH1 0x80 DUP7 ADD DUP3 PUSH2 0x133B JUMP JUMPDEST POP PUSH1 0xA0 DUP4 ADD MLOAD PUSH2 0x14DF PUSH1 0xA0 DUP7 ADD DUP3 PUSH2 0x133B JUMP JUMPDEST POP PUSH1 0xC0 DUP4 ADD MLOAD PUSH2 0x14F2 PUSH1 0xC0 DUP7 ADD DUP3 PUSH2 0x144B JUMP JUMPDEST POP DUP1 SWAP2 POP POP SWAP3 SWAP2 POP POP JUMP JUMPDEST PUSH1 0x0 PUSH1 0x20 DUP3 ADD SWAP1 POP DUP2 DUP2 SUB PUSH1 0x0 DUP4 ADD MSTORE PUSH2 0x1517 DUP2 DUP5 PUSH2 0x145A JUMP JUMPDEST SWAP1 POP SWAP3 SWAP2 POP POP JUMP JUMPDEST PUSH1 0x0 DUP1 REVERT JUMPDEST PUSH1 0x0 DUP1 REVERT JUMPDEST PUSH32 0x4E487B7100000000000000000000000000000000000000000000000000000000 PUSH1 0x0 MSTORE PUSH1 0x41 PUSH1 0x4 MSTORE PUSH1 0x24 PUSH1 0x0 REVERT JUMPDEST PUSH2 0x1561 DUP3 PUSH2 0x1399 JUMP JUMPDEST DUP2 ADD DUP2 DUP2 LT PUSH8 0xFFFFFFFFFFFFFFFF DUP3 GT OR ISZERO PUSH2 0x1580 JUMPI PUSH2 0x157F PUSH2 0x1529 JUMP JUMPDEST JUMPDEST DUP1 PUSH1 0x40 MSTORE POP POP POP JUMP JUMPDEST PUSH1 0x0 PUSH2 0x1593 PUSH2 0x1279 JUMP JUMPDEST SWAP1 POP PUSH2 0x159F DUP3 DUP3 PUSH2 0x1558 JUMP JUMPDEST SWAP2 SWAP1 POP JUMP JUMPDEST PUSH1 0x0 PUSH8 0xFFFFFFFFFFFFFFFF DUP3 GT ISZERO PUSH2 0x15BF JUMPI PUSH2 0x15BE PUSH2 0x1529 JUMP JUMPDEST JUMPDEST PUSH2 0x15C8 DUP3 PUSH2 0x1399 JUMP JUMPDEST SWAP1 POP PUSH1 0x20 DUP2 ADD SWAP1 POP SWAP2 SWAP1 POP JUMP JUMPDEST DUP3 DUP2 DUP4 CALLDATACOPY PUSH1 0x0 DUP4 DUP4 ADD MSTORE POP POP POP JUMP JUMPDEST PUSH1 0x0 PUSH2 0x15F7 PUSH2 0x15F2 DUP5 PUSH2 0x15A4 JUMP JUMPDEST PUSH2 0x1589 JUMP JUMPDEST SWAP1 POP DUP3 DUP2 MSTORE PUSH1 0x20 DUP2 ADD DUP5 DUP5 DUP5 ADD GT ISZERO PUSH2 0x1613 JUMPI PUSH2 0x1612 PUSH2 0x1524 JUMP JUMPDEST JUMPDEST PUSH2 0x161E DUP5 DUP3 DUP6 PUSH2 0x15D5 JUMP JUMPDEST POP SWAP4 SWAP3 POP POP POP JUMP JUMPDEST PUSH1 0x0 DUP3 PUSH1 0x1F DUP4 ADD SLT PUSH2 0x163B JUMPI PUSH2 0x163A PUSH2 0x151F JUMP JUMPDEST JUMPDEST DUP2 CALLDATALOAD PUSH2 0x164B DUP5 DUP3 PUSH1 0x20 DUP7 ADD PUSH2 0x15E4 JUMP JUMPDEST SWAP2 POP POP SWAP3 SWAP2 POP POP JUMP JUMPDEST PUSH1 0x0 PUSH1 0x20 DUP3 DUP5 SUB SLT ISZERO PUSH2 0x166A JUMPI PUSH2 0x1669 PUSH2 0x1283 JUMP JUMPDEST JUMPDEST PUSH1 0x0 DUP3 ADD CALLDATALOAD PUSH8 0xFFFFFFFFFFFFFFFF DUP2 GT ISZERO PUSH2 0x1688 JUMPI PUSH2 0x1687 PUSH2 0x1288 JUMP JUMPDEST JUMPDEST PUSH2 0x1694 DUP5 DUP3 DUP6 ADD PUSH2 0x1626 JUMP JUMPDEST SWAP2 POP POP SWAP3 SWAP2 POP POP JUMP JUMPDEST PUSH2 0x16A6 DUP2 PUSH2 0x128D JUMP JUMPDEST DUP3 MSTORE POP POP JUMP JUMPDEST PUSH1 0x0 PUSH1 0x20 DUP3 ADD SWAP1 POP PUSH2 0x16C1 PUSH1 0x0 DUP4 ADD DUP5 PUSH2 0x169D JUMP JUMPDEST SWAP3 SWAP2 POP POP JUMP JUMPDEST PUSH1 0x0 PUSH1 0x20 DUP3 DUP5 SUB SLT ISZERO PUSH2 0x16DD JUMPI PUSH2 0x16DC PUSH2 0x1283 JUMP JUMPDEST JUMPDEST PUSH1 0x0 PUSH2 0x16EB DUP5 DUP3 DUP6 ADD PUSH2 0x12AE JUMP JUMPDEST SWAP2 POP POP SWAP3 SWAP2 POP POP JUMP JUMPDEST PUSH1 0x0 DUP3 DUP3 MSTORE PUSH1 0x20 DUP3 ADD SWAP1 POP SWAP3 SWAP2 POP POP JUMP JUMPDEST PUSH1 0x0 PUSH2 0x1710 DUP3 PUSH2 0x134A JUMP JUMPDEST PUSH2 0x171A DUP2 DUP6 PUSH2 0x16F4 JUMP JUMPDEST SWAP4 POP PUSH2 0x172A DUP2 DUP6 PUSH1 0x20 DUP7 ADD PUSH2 0x1366 JUMP JUMPDEST PUSH2 0x1733 DUP2 PUSH2 0x1399 JUMP JUMPDEST DUP5 ADD SWAP2 POP POP SWAP3 SWAP2 POP POP JUMP JUMPDEST PUSH2 0x1747 DUP2 PUSH2 0x1439 JUMP JUMPDEST DUP3 MSTORE POP POP JUMP JUMPDEST PUSH1 0x0 PUSH1 0xE0 DUP3 ADD SWAP1 POP PUSH2 0x1762 PUSH1 0x0 DUP4 ADD DUP11 PUSH2 0x169D JUMP JUMPDEST DUP2 DUP2 SUB PUSH1 0x20 DUP4 ADD MSTORE PUSH2 0x1774 DUP2 DUP10 PUSH2 0x1705 JUMP JUMPDEST SWAP1 POP DUP2 DUP2 SUB PUSH1 0x40 DUP4 ADD MSTORE PUSH2 0x1788 DUP2 DUP9 PUSH2 0x1705 JUMP JUMPDEST SWAP1 POP PUSH2 0x1797 PUSH1 0x60 DUP4 ADD DUP8 PUSH2 0x169D JUMP JUMPDEST PUSH2 0x17A4 PUSH1 0x80 DUP4 ADD DUP7 PUSH2 0x169D JUMP JUMPDEST PUSH2 0x17B1 PUSH1 0xA0 DUP4 ADD DUP6 PUSH2 0x169D JUMP JUMPDEST PUSH2 0x17BE PUSH1 0xC0 DUP4 ADD DUP5 PUSH2 0x173E JUMP JUMPDEST SWAP9 SWAP8 POP POP POP POP POP POP POP POP JUMP JUMPDEST PUSH1 0x0 DUP1 PUSH1 0x0 PUSH1 0x60 DUP5 DUP7 SUB SLT ISZERO PUSH2 0x17E3 JUMPI PUSH2 0x17E2 PUSH2 0x1283 JUMP JUMPDEST JUMPDEST PUSH1 0x0 DUP5 ADD CALLDATALOAD PUSH8 0xFFFFFFFFFFFFFFFF DUP2 GT ISZERO PUSH2 0x1801 JUMPI PUSH2 0x1800 PUSH2 0x1288 JUMP JUMPDEST JUMPDEST PUSH2 0x180D DUP7 DUP3 DUP8 ADD PUSH2 0x1626 JUMP JUMPDEST SWAP4 POP POP PUSH1 0x20 DUP5 ADD CALLDATALOAD PUSH8 0xFFFFFFFFFFFFFFFF DUP2 GT ISZERO PUSH2 0x182E JUMPI PUSH2 0x182D PUSH2 0x1288 JUMP JUMPDEST JUMPDEST PUSH2 0x183A DUP7 DUP3 DUP8 ADD PUSH2 0x1626 JUMP JUMPDEST SWAP3 POP POP PUSH1 0x40 PUSH2 0x184B DUP7 DUP3 DUP8 ADD PUSH2 0x12AE JUMP JUMPDEST SWAP2 POP POP SWAP3 POP SWAP3 POP SWAP3 JUMP JUMPDEST PUSH1 0x0 DUP2 MLOAD SWAP1 POP SWAP2 SWAP1 POP JUMP JUMPDEST PUSH1 0x0 DUP3 DUP3 MSTORE PUSH1 0x20 DUP3 ADD SWAP1 POP SWAP3 SWAP2 POP POP JUMP JUMPDEST PUSH1 0x0 DUP2 SWAP1 POP PUSH1 0x20 DUP3 ADD SWAP1 POP SWAP2 SWAP1 POP JUMP JUMPDEST PUSH1 0x0 PUSH1 0xE0 DUP4 ADD PUSH1 0x0 DUP4 ADD MLOAD PUSH2 0x1899 PUSH1 0x0 DUP7 ADD DUP3 PUSH2 0x133B JUMP JUMPDEST POP PUSH1 0x20 DUP4 ADD MLOAD DUP5 DUP3 SUB PUSH1 0x20 DUP7 ADD MSTORE PUSH2 0x18B1 DUP3 DUP3 PUSH2 0x13AA JUMP JUMPDEST SWAP2 POP POP PUSH1 0x40 DUP4 ADD MLOAD DUP5 DUP3 SUB PUSH1 0x40 DUP7 ADD MSTORE PUSH2 0x18CB DUP3 DUP3 PUSH2 0x13AA JUMP JUMPDEST SWAP2 POP POP PUSH1 0x60 DUP4 ADD MLOAD PUSH2 0x18E0 PUSH1 0x60 DUP7 ADD DUP3 PUSH2 0x133B JUMP JUMPDEST POP PUSH1 0x80 DUP4 ADD MLOAD PUSH2 0x18F3 PUSH1 0x80 DUP7 ADD DUP3 PUSH2 0x133B JUMP JUMPDEST POP PUSH1 0xA0 DUP4 ADD MLOAD PUSH2 0x1906 PUSH1 0xA0 DUP7 ADD DUP3 PUSH2 0x133B JUMP JUMPDEST POP PUSH1 0xC0 DUP4 ADD MLOAD PUSH2 0x1919 PUSH1 0xC0 DUP7 ADD DUP3 PUSH2 0x144B JUMP JUMPDEST POP DUP1 SWAP2 POP POP SWAP3 SWAP2 POP POP JUMP JUMPDEST PUSH1 0x0 PUSH2 0x1930 DUP4 DUP4 PUSH2 0x1881 JUMP JUMPDEST SWAP1 POP SWAP3 SWAP2 POP POP JUMP JUMPDEST PUSH1 0x0 PUSH1 0x20 DUP3 ADD SWAP1 POP SWAP2 SWAP1 POP JUMP JUMPDEST PUSH1 0x0 PUSH2 0x1950 DUP3 PUSH2 0x1855 JUMP JUMPDEST PUSH2 0x195A DUP2 DUP6 PUSH2 0x1860 JUMP JUMPDEST SWAP4 POP DUP4 PUSH1 0x20 DUP3 MUL DUP6 ADD PUSH2 0x196C DUP6 PUSH2 0x1871 JUMP JUMPDEST DUP1 PUSH1 0x0 JUMPDEST DUP6 DUP2 LT ISZERO PUSH2 0x19A8 JUMPI DUP5 DUP5 SUB DUP10 MSTORE DUP2 MLOAD PUSH2 0x1989 DUP6 DUP3 PUSH2 0x1924 JUMP JUMPDEST SWAP5 POP PUSH2 0x1994 DUP4 PUSH2 0x1938 JUMP JUMPDEST SWAP3 POP PUSH1 0x20 DUP11 ADD SWAP10 POP POP PUSH1 0x1 DUP2 ADD SWAP1 POP PUSH2 0x1970 JUMP JUMPDEST POP DUP3 SWAP8 POP DUP8 SWAP6 POP POP POP POP POP POP SWAP3 SWAP2 POP POP JUMP JUMPDEST PUSH1 0x0 PUSH1 0x20 DUP3 ADD SWAP1 POP DUP2 DUP2 SUB PUSH1 0x0 DUP4 ADD MSTORE PUSH2 0x19D4 DUP2 DUP5 PUSH2 0x1945 JUMP JUMPDEST SWAP1 POP SWAP3 SWAP2 POP POP JUMP JUMPDEST PUSH1 0x0 PUSH20 0xFFFFFFFFFFFFFFFFFFFFFFFFFFFFFFFFFFFFFFFF DUP3 AND SWAP1 POP SWAP2 SWAP1 POP JUMP JUMPDEST PUSH1 0x0 PUSH2 0x1A07 DUP3 PUSH2 0x19DC JUMP JUMPDEST SWAP1 POP SWAP2 SWAP1 POP JUMP JUMPDEST PUSH2 0x1A17 DUP2 PUSH2 0x19FC JUMP JUMPDEST DUP3 MSTORE POP POP JUMP JUMPDEST PUSH1 0x0 PUSH1 0x20 DUP3 ADD SWAP1 POP PUSH2 0x1A32 PUSH1 0x0 DUP4 ADD DUP5 PUSH2 0x1A0E JUMP JUMPDEST SWAP3 SWAP2 POP POP JUMP JUMPDEST PUSH1 0x0 PUSH1 0x20 DUP3 ADD SWAP1 POP PUSH2 0x1A4D PUSH1 0x0 DUP4 ADD DUP5 PUSH2 0x173E JUMP JUMPDEST SWAP3 SWAP2 POP POP JUMP JUMPDEST PUSH2 0x1A5C DUP2 PUSH2 0x19FC JUMP JUMPDEST DUP2 EQ PUSH2 0x1A67 JUMPI PUSH1 0x0 DUP1 REVERT JUMPDEST POP JUMP JUMPDEST PUSH1 0x0 DUP2 CALLDATALOAD SWAP1 POP PUSH2 0x1A79 DUP2 PUSH2 0x1A53 JUMP JUMPDEST SWAP3 SWAP2 POP POP JUMP JUMPDEST PUSH1 0x0 PUSH1 0x20 DUP3 DUP5 SUB SLT ISZERO PUSH2 0x1A95 JUMPI PUSH2 0x1A94 PUSH2 0x1283 JUMP JUMPDEST JUMPDEST PUSH1 0x0 PUSH2 0x1AA3 DUP5 DUP3 DUP6 ADD PUSH2 0x1A6A JUMP JUMPDEST SWAP2 POP POP SWAP3 SWAP2 POP POP JUMP JUMPDEST PUSH32 0x4E487B7100000000000000000000000000000000000000000000000000000000 PUSH1 0x0 MSTORE PUSH1 0x32 PUSH1 0x4 MSTORE PUSH1 0x24 PUSH1 0x0 REVERT JUMPDEST PUSH32 0x4E487B7100000000000000000000000000000000000000000000000000000000 PUSH1 0x0 MSTORE PUSH1 0x22 PUSH1 0x4 MSTORE PUSH1 0x24 PUSH1 0x0 REVERT JUMPDEST PUSH1 0x0 PUSH1 0x2 DUP3 DIV SWAP1 POP PUSH1 0x1 DUP3 AND DUP1 PUSH2 0x1B22 JUMPI PUSH1 0x7F DUP3 AND SWAP2 POP JUMPDEST PUSH1 0x20 DUP3 LT DUP2 EQ ISZERO PUSH2 0x1B36 JUMPI PUSH2 0x1B35 PUSH2 0x1ADB JUMP JUMPDEST JUMPDEST POP SWAP2 SWAP1 POP JUMP JUMPDEST PUSH1 0x0 DUP2 SWAP1 POP SWAP3 SWAP2 POP POP JUMP JUMPDEST PUSH1 0x0 PUSH2 0x1B52 DUP3 PUSH2 0x134A JUMP JUMPDEST PUSH2 0x1B5C DUP2 DUP6 PUSH2 0x1B3C JUMP JUMPDEST SWAP4 POP PUSH2 0x1B6C DUP2 DUP6 PUSH1 0x20 DUP7 ADD PUSH2 0x1366 JUMP JUMPDEST DUP1 DUP5 ADD SWAP2 POP POP SWAP3 SWAP2 POP POP JUMP JUMPDEST PUSH1 0x0 PUSH2 0x1B84 DUP3 DUP5 PUSH2 0x1B47 JUMP JUMPDEST SWAP2 POP DUP2 SWAP1 POP SWAP3 SWAP2 POP POP JUMP JUMPDEST PUSH32 0x4E487B7100000000000000000000000000000000000000000000000000000000 PUSH1 0x0 MSTORE PUSH1 0x11 PUSH1 0x4 MSTORE PUSH1 0x24 PUSH1 0x0 REVERT JUMPDEST PUSH1 0x0 PUSH2 0x1BC9 DUP3 PUSH2 0x128D JUMP JUMPDEST SWAP2 POP PUSH32 0xFFFFFFFFFFFFFFFFFFFFFFFFFFFFFFFFFFFFFFFFFFFFFFFFFFFFFFFFFFFFFFFF DUP3 EQ ISZERO PUSH2 0x1BFC JUMPI PUSH2 0x1BFB PUSH2 0x1B8F JUMP JUMPDEST JUMPDEST PUSH1 0x1 DUP3 ADD SWAP1 POP SWAP2 SWAP1 POP JUMP JUMPDEST PUSH32 0x4D7573742062652070726F706F736564206F776E657200000000000000000000 PUSH1 0x0 DUP3 ADD MSTORE POP JUMP JUMPDEST PUSH1 0x0 PUSH2 0x1C3D PUSH1 0x16 DUP4 PUSH2 0x16F4 JUMP JUMPDEST SWAP2 POP PUSH2 0x1C48 DUP3 PUSH2 0x1C07 JUMP JUMPDEST PUSH1 0x20 DUP3 ADD SWAP1 POP SWAP2 SWAP1 POP JUMP JUMPDEST PUSH1 0x0 PUSH1 0x20 DUP3 ADD SWAP1 POP DUP2 DUP2 SUB PUSH1 0x0 DUP4 ADD MSTORE PUSH2 0x1C6C DUP2 PUSH2 0x1C30 JUMP JUMPDEST SWAP1 POP SWAP2 SWAP1 POP JUMP JUMPDEST PUSH1 0x0 DUP2 SWAP1 POP DUP2 PUSH1 0x0 MSTORE PUSH1 0x20 PUSH1 0x0 KECCAK256 SWAP1 POP SWAP2 SWAP1 POP JUMP JUMPDEST PUSH1 0x0 DUP2 SLOAD PUSH2 0x1C95 DUP2 PUSH2 0x1B0A JUMP JUMPDEST PUSH2 0x1C9F DUP2 DUP7 PUSH2 0x1B3C JUMP JUMPDEST SWAP5 POP PUSH1 0x1 DUP3 AND PUSH1 0x0 DUP2 EQ PUSH2 0x1CBA JUMPI PUSH1 0x1 DUP2 EQ PUSH2 0x1CCB JUMPI PUSH2 0x1CFE JUMP JUMPDEST PUSH1 0xFF NOT DUP4 AND DUP7 MSTORE DUP2 DUP7 ADD SWAP4 POP PUSH2 0x1CFE JUMP JUMPDEST PUSH2 0x1CD4 DUP6 PUSH2 0x1C73 JUMP JUMPDEST PUSH1 0x0 JUMPDEST DUP4 DUP2 LT ISZERO PUSH2 0x1CF6 JUMPI DUP2 SLOAD DUP2 DUP10 ADD MSTORE PUSH1 0x1 DUP3 ADD SWAP2 POP PUSH1 0x20 DUP2 ADD SWAP1 POP PUSH2 0x1CD7 JUMP JUMPDEST DUP4 DUP9 ADD SWAP6 POP POP POP JUMPDEST POP POP POP SWAP3 SWAP2 POP POP JUMP JUMPDEST PUSH1 0x0 PUSH2 0x1D13 DUP3 DUP5 PUSH2 0x1C88 JUMP JUMPDEST SWAP2 POP DUP2 SWAP1 POP SWAP3 SWAP2 POP POP JUMP JUMPDEST PUSH32 0x4F6E6C792063616C6C61626C65206279206F776E657200000000000000000000 PUSH1 0x0 DUP3 ADD MSTORE POP JUMP JUMPDEST PUSH1 0x0 PUSH2 0x1D54 PUSH1 0x16 DUP4 PUSH2 0x16F4 JUMP JUMPDEST SWAP2 POP PUSH2 0x1D5F DUP3 PUSH2 0x1D1E JUMP JUMPDEST PUSH1 0x20 DUP3 ADD SWAP1 POP SWAP2 SWAP1 POP JUMP JUMPDEST PUSH1 0x0 PUSH1 0x20 DUP3 ADD SWAP1 POP DUP2 DUP2 SUB PUSH1 0x0 DUP4 ADD MSTORE PUSH2 0x1D83 DUP2 PUSH2 0x1D47 JUMP JUMPDEST SWAP1 POP SWAP2 SWAP1 POP JUMP JUMPDEST PUSH1 0x0 DUP2 SWAP1 POP SWAP2 SWAP1 POP JUMP JUMPDEST PUSH2 0x1DA5 PUSH2 0x1DA0 DUP3 PUSH2 0x128D JUMP JUMPDEST PUSH2 0x1D8A JUMP JUMPDEST DUP3 MSTORE POP POP JUMP JUMPDEST PUSH1 0x0 DUP2 PUSH1 0x60 SHL SWAP1 POP SWAP2 SWAP1 POP JUMP JUMPDEST PUSH1 0x0 PUSH2 0x1DC3 DUP3 PUSH2 0x1DAB JUMP JUMPDEST SWAP1 POP SWAP2 SWAP1 POP JUMP JUMPDEST PUSH1 0x0 PUSH2 0x1DD5 DUP3 PUSH2 0x1DB8 JUMP JUMPDEST SWAP1 POP SWAP2 SWAP1 POP JUMP JUMPDEST PUSH2 0x1DED PUSH2 0x1DE8 DUP3 PUSH2 0x19FC JUMP JUMPDEST PUSH2 0x1DCA JUMP JUMPDEST DUP3 MSTORE POP POP JUMP JUMPDEST PUSH1 0x0 PUSH2 0x1DFF DUP3 DUP9 PUSH2 0x1B47 JUMP JUMPDEST SWAP2 POP PUSH2 0x1E0B DUP3 DUP8 PUSH2 0x1B47 JUMP JUMPDEST SWAP2 POP PUSH2 0x1E17 DUP3 DUP7 PUSH2 0x1D94 JUMP JUMPDEST PUSH1 0x20 DUP3 ADD SWAP2 POP PUSH2 0x1E27 DUP3 DUP6 PUSH2 0x1DDC JUMP JUMPDEST PUSH1 0x14 DUP3 ADD SWAP2 POP PUSH2 0x1E37 DUP3 DUP5 PUSH2 0x1D94 JUMP JUMPDEST PUSH1 0x20 DUP3 ADD SWAP2 POP DUP2 SWAP1 POP SWAP7 SWAP6 POP POP POP POP POP POP JUMP JUMPDEST PUSH32 0x4E487B7100000000000000000000000000000000000000000000000000000000 PUSH1 0x0 MSTORE PUSH1 0x12 PUSH1 0x4 MSTORE PUSH1 0x24 PUSH1 0x0 REVERT JUMPDEST PUSH1 0x0 PUSH2 0x1E84 DUP3 PUSH2 0x128D JUMP JUMPDEST SWAP2 POP PUSH2 0x1E8F DUP4 PUSH2 0x128D JUMP JUMPDEST SWAP3 POP DUP3 PUSH2 0x1E9F JUMPI PUSH2 0x1E9E PUSH2 0x1E4A JUMP JUMPDEST JUMPDEST DUP3 DUP3 MOD SWAP1 POP SWAP3 SWAP2 POP POP JUMP JUMPDEST PUSH32 0x43616E6E6F74207472616E7366657220746F2073656C66000000000000000000 PUSH1 0x0 DUP3 ADD MSTORE POP JUMP JUMPDEST PUSH1 0x0 PUSH2 0x1EE0 PUSH1 0x17 DUP4 PUSH2 0x16F4 JUMP JUMPDEST SWAP2 POP PUSH2 0x1EEB DUP3 PUSH2 0x1EAA JUMP JUMPDEST PUSH1 0x20 DUP3 ADD SWAP1 POP SWAP2 SWAP1 POP JUMP JUMPDEST PUSH1 0x0 PUSH1 0x20 DUP3 ADD SWAP1 POP DUP2 DUP2 SUB PUSH1 0x0 DUP4 ADD MSTORE PUSH2 0x1F0F DUP2 PUSH2 0x1ED3 JUMP JUMPDEST SWAP1 POP SWAP2 SWAP1 POP JUMP INVALID LOG2 PUSH5 0x6970667358 0x22 SLT KECCAK256 MOD TIMESTAMP 0x5D 0xCE 0xA9 EQ STOP LOG3 0xDF PUSH6 0x261EF60E6A3D EXP 0xB9 0xC8 0x4F DUP13 0xAC NOT 0xB3 0xB0 PUSH16 0x6C53817932DE64736F6C634300080C00 CALLER "
				},
				"gasEstimates": {
					"creation": {
						"codeDepositCost": "1602400",
						"executionCost": "31052",
						"totalCost": "1633452"
					},
					"external": {
						"Invoices(uint256)": "infinite",
						"UpdatePaymentStatus(uint256,bool)": "infinite",
						"_invoiceCreation(string,string,uint256)": "infinite",
						"acceptOwnership()": "54540",
						"buyerPANCount(string)": "infinite",
						"getInvoicesByPan(string)": "infinite",
						"getPaymentStatus(uint256)": "2983",
						"invoiceIdtoInvoice(uint256)": "infinite",
						"owner()": "2566",
						"transferOwnership(address)": "30745"
					},
					"internal": {
						"_genratePseudoRandomInvoiceId(string memory,string memory,uint256)": "infinite"
					}
				},
				"methodIdentifiers": {
					"Invoices(uint256)": "5ef3fc61",
					"UpdatePaymentStatus(uint256,bool)": "24c407b1",
					"_invoiceCreation(string,string,uint256)": "602640cd",
					"acceptOwnership()": "79ba5097",
					"buyerPANCount(string)": "286f44ef",
					"getInvoicesByPan(string)": "83e8e6a4",
					"getPaymentStatus(uint256)": "a1650043",
					"invoiceIdtoInvoice(uint256)": "6f522e50",
					"owner()": "8da5cb5b",
					"transferOwnership(address)": "f2fde38b"
				}
			},
			"userdoc": {
				"kind": "user",
				"methods": {
					"acceptOwnership()": {
						"notice": "Allows an ownership transfer to be completed by the recipient."
					},
					"owner()": {
						"notice": "Get the current owner"
					},
					"transferOwnership(address)": {
						"notice": "Allows an owner to begin transferring ownership to a new address, pending."
					}
				},
				"version": 1
			}
		}
	}
}