{
	"contracts/Invoice.sol": {
		"Invoice": {
			"abi": [
				{
					"anonymous": false,
					"inputs": [
						{
							"indexed": true,
							"internalType": "address",
							"name": "from",
							"type": "address"
						},
						{
							"indexed": true,
							"internalType": "address",
							"name": "to",
							"type": "address"
						}
					],
					"name": "OwnershipTransferRequested",
					"type": "event"
				},
				{
					"anonymous": false,
					"inputs": [
						{
							"indexed": true,
							"internalType": "address",
							"name": "from",
							"type": "address"
						},
						{
							"indexed": true,
							"internalType": "address",
							"name": "to",
							"type": "address"
						}
					],
					"name": "OwnershipTransferred",
					"type": "event"
				},
				{
					"inputs": [
						{
							"internalType": "uint256",
							"name": "",
							"type": "uint256"
						}
					],
					"name": "Invoices",
					"outputs": [
						{
							"internalType": "uint256",
							"name": "invoiceId",
							"type": "uint256"
						},
						{
							"internalType": "string",
							"name": "buyerPAN",
							"type": "string"
						},
						{
							"internalType": "string",
							"name": "sellerPAN",
							"type": "string"
						},
						{
							"internalType": "uint32",
							"name": "invoiceAmount",
							"type": "uint32"
						},
						{
							"internalType": "uint256",
							"name": "invoiceDate",
							"type": "uint256"
						},
						{
							"internalType": "uint32",
							"name": "invoiceNo",
							"type": "uint32"
						},
						{
							"internalType": "enum Invoice.paymentStatuses",
							"name": "paymentStatus",
							"type": "uint8"
						}
					],
					"stateMutability": "view",
					"type": "function"
				},
				{
					"inputs": [
						{
							"internalType": "uint256",
							"name": "_invoiceId",
							"type": "uint256"
						},
						{
							"internalType": "bool",
							"name": "isPaymentCompleted",
							"type": "bool"
						}
					],
					"name": "UpdatePaymentStatus",
					"outputs": [
						{
							"components": [
								{
									"internalType": "uint256",
									"name": "invoiceId",
									"type": "uint256"
								},
								{
									"internalType": "string",
									"name": "buyerPAN",
									"type": "string"
								},
								{
									"internalType": "string",
									"name": "sellerPAN",
									"type": "string"
								},
								{
									"internalType": "uint32",
									"name": "invoiceAmount",
									"type": "uint32"
								},
								{
									"internalType": "uint256",
									"name": "invoiceDate",
									"type": "uint256"
								},
								{
									"internalType": "uint32",
									"name": "invoiceNo",
									"type": "uint32"
								},
								{
									"internalType": "enum Invoice.paymentStatuses",
									"name": "paymentStatus",
									"type": "uint8"
								}
							],
							"internalType": "struct Invoice.Invoice",
							"name": "",
							"type": "tuple"
						}
					],
					"stateMutability": "nonpayable",
					"type": "function"
				},
				{
					"inputs": [
						{
							"internalType": "string",
							"name": "_buyerPAN",
							"type": "string"
						},
						{
							"internalType": "string",
							"name": "_sellerPAN",
							"type": "string"
						},
						{
							"internalType": "uint32",
							"name": "_invoiceAmount",
							"type": "uint32"
						}
					],
					"name": "_invoiceCreation",
					"outputs": [
						{
							"internalType": "uint256",
							"name": "",
							"type": "uint256"
						}
					],
					"stateMutability": "nonpayable",
					"type": "function"
				},
				{
					"inputs": [],
					"name": "acceptOwnership",
					"outputs": [],
					"stateMutability": "nonpayable",
					"type": "function"
				},
				{
					"inputs": [
						{
							"internalType": "string",
							"name": "",
							"type": "string"
						}
					],
					"name": "buyerPANCount",
					"outputs": [
						{
							"internalType": "uint256",
							"name": "",
							"type": "uint256"
						}
					],
					"stateMutability": "view",
					"type": "function"
				},
				{
					"inputs": [
						{
							"internalType": "string",
							"name": "_buyerPAN",
							"type": "string"
						}
					],
					"name": "getInvoicesByPan",
					"outputs": [
						{
							"components": [
								{
									"internalType": "uint256",
									"name": "invoiceId",
									"type": "uint256"
								},
								{
									"internalType": "string",
									"name": "buyerPAN",
									"type": "string"
								},
								{
									"internalType": "string",
									"name": "sellerPAN",
									"type": "string"
								},
								{
									"internalType": "uint32",
									"name": "invoiceAmount",
									"type": "uint32"
								},
								{
									"internalType": "uint256",
									"name": "invoiceDate",
									"type": "uint256"
								},
								{
									"internalType": "uint32",
									"name": "invoiceNo",
									"type": "uint32"
								},
								{
									"internalType": "enum Invoice.paymentStatuses",
									"name": "paymentStatus",
									"type": "uint8"
								}
							],
							"internalType": "struct Invoice.Invoice[]",
							"name": "",
							"type": "tuple[]"
						}
					],
					"stateMutability": "view",
					"type": "function"
				},
				{
					"inputs": [
						{
							"internalType": "uint256",
							"name": "_invoiceId",
							"type": "uint256"
						}
					],
					"name": "getPaymentStatus",
					"outputs": [
						{
							"internalType": "enum Invoice.paymentStatuses",
							"name": "",
							"type": "uint8"
						}
					],
					"stateMutability": "view",
					"type": "function"
				},
				{
					"inputs": [
						{
							"internalType": "uint256",
							"name": "",
							"type": "uint256"
						}
					],
					"name": "invoiceIdtoInvoice",
					"outputs": [
						{
							"internalType": "uint256",
							"name": "invoiceId",
							"type": "uint256"
						},
						{
							"internalType": "string",
							"name": "buyerPAN",
							"type": "string"
						},
						{
							"internalType": "string",
							"name": "sellerPAN",
							"type": "string"
						},
						{
							"internalType": "uint32",
							"name": "invoiceAmount",
							"type": "uint32"
						},
						{
							"internalType": "uint256",
							"name": "invoiceDate",
							"type": "uint256"
						},
						{
							"internalType": "uint32",
							"name": "invoiceNo",
							"type": "uint32"
						},
						{
							"internalType": "enum Invoice.paymentStatuses",
							"name": "paymentStatus",
							"type": "uint8"
						}
					],
					"stateMutability": "view",
					"type": "function"
				},
				{
					"inputs": [],
					"name": "owner",
					"outputs": [
						{
							"internalType": "address",
							"name": "",
							"type": "address"
						}
					],
					"stateMutability": "view",
					"type": "function"
				},
				{
					"inputs": [
						{
							"internalType": "address",
							"name": "to",
							"type": "address"
						}
					],
					"name": "transferOwnership",
					"outputs": [],
					"stateMutability": "nonpayable",
					"type": "function"
				}
			],
			"devdoc": {
				"kind": "dev",
				"methods": {},
				"version": 1
			},
			"evm": {
				"assembly": "    /* \"contracts/Invoice.sol\":152:3362  contract Invoice is ConfirmedOwner(msg.sender) {... */\n  mstore(0x40, 0x80)\n    /* \"contracts/Invoice.sol\":560:561  0 */\n  0x00\n    /* \"contracts/Invoice.sol\":543:561  uint randNonce = 0 */\n  0x02\n  sstore\n    /* \"contracts/Invoice.sol\":152:3362  contract Invoice is ConfirmedOwner(msg.sender) {... */\n  callvalue\n  dup1\n  iszero\n  tag_1\n  jumpi\n  0x00\n  dup1\n  revert\ntag_1:\n  pop\n    /* \"contracts/Invoice.sol\":187:197  msg.sender */\n  caller\n    /* \"@chainlink/contracts/src/v0.8/ConfirmedOwner.sol\":327:335  newOwner */\n  dup1\n    /* \"@chainlink/contracts/src/v0.8/ConfirmedOwner.sol\":345:346  0 */\n  0x00\n    /* \"@chainlink/contracts/src/v0.8/ConfirmedOwnerWithProposal.sol\":572:573  0 */\n  dup1\n    /* \"@chainlink/contracts/src/v0.8/ConfirmedOwnerWithProposal.sol\":552:574  newOwner != address(0) */\n  0xffffffffffffffffffffffffffffffffffffffff\n  and\n    /* \"@chainlink/contracts/src/v0.8/ConfirmedOwnerWithProposal.sol\":552:560  newOwner */\n  dup3\n    /* \"@chainlink/contracts/src/v0.8/ConfirmedOwnerWithProposal.sol\":552:574  newOwner != address(0) */\n  0xffffffffffffffffffffffffffffffffffffffff\n  and\n  eq\n  iszero\n    /* \"@chainlink/contracts/src/v0.8/ConfirmedOwnerWithProposal.sol\":544:603  require(newOwner != address(0), \"Cannot set owner to zero\") */\n  tag_5\n  jumpi\n  mload(0x40)\n  0x08c379a000000000000000000000000000000000000000000000000000000000\n  dup2\n  mstore\n  0x04\n  add\n  tag_6\n  swap1\n  tag_7\n  jump\t// in\ntag_6:\n  mload(0x40)\n  dup1\n  swap2\n  sub\n  swap1\n  revert\ntag_5:\n    /* \"@chainlink/contracts/src/v0.8/ConfirmedOwnerWithProposal.sol\":620:628  newOwner */\n  dup2\n    /* \"@chainlink/contracts/src/v0.8/ConfirmedOwnerWithProposal.sol\":610:617  s_owner */\n  0x00\n  dup1\n    /* \"@chainlink/contracts/src/v0.8/ConfirmedOwnerWithProposal.sol\":610:628  s_owner = newOwner */\n  0x0100\n  exp\n  dup2\n  sload\n  dup2\n  0xffffffffffffffffffffffffffffffffffffffff\n  mul\n  not\n  and\n  swap1\n  dup4\n  0xffffffffffffffffffffffffffffffffffffffff\n  and\n  mul\n  or\n  swap1\n  sstore\n  pop\n    /* \"@chainlink/contracts/src/v0.8/ConfirmedOwnerWithProposal.sol\":662:663  0 */\n  0x00\n    /* \"@chainlink/contracts/src/v0.8/ConfirmedOwnerWithProposal.sol\":638:664  pendingOwner != address(0) */\n  0xffffffffffffffffffffffffffffffffffffffff\n  and\n    /* \"@chainlink/contracts/src/v0.8/ConfirmedOwnerWithProposal.sol\":638:650  pendingOwner */\n  dup2\n    /* \"@chainlink/contracts/src/v0.8/ConfirmedOwnerWithProposal.sol\":638:664  pendingOwner != address(0) */\n  0xffffffffffffffffffffffffffffffffffffffff\n  and\n  eq\n    /* \"@chainlink/contracts/src/v0.8/ConfirmedOwnerWithProposal.sol\":634:713  if (pendingOwner != address(0)) {... */\n  tag_8\n  jumpi\n    /* \"@chainlink/contracts/src/v0.8/ConfirmedOwnerWithProposal.sol\":674:706  _transferOwnership(pendingOwner) */\n  tag_9\n    /* \"@chainlink/contracts/src/v0.8/ConfirmedOwnerWithProposal.sol\":693:705  pendingOwner */\n  dup2\n    /* \"@chainlink/contracts/src/v0.8/ConfirmedOwnerWithProposal.sol\":674:692  _transferOwnership */\n  shl(0x20, tag_10)\n    /* \"@chainlink/contracts/src/v0.8/ConfirmedOwnerWithProposal.sol\":674:706  _transferOwnership(pendingOwner) */\n  0x20\n  shr\n  jump\t// in\ntag_9:\n    /* \"@chainlink/contracts/src/v0.8/ConfirmedOwnerWithProposal.sol\":634:713  if (pendingOwner != address(0)) {... */\ntag_8:\n    /* \"@chainlink/contracts/src/v0.8/ConfirmedOwnerWithProposal.sol\":486:717  constructor(address newOwner, address pendingOwner) {... */\n  pop\n  pop\n    /* \"@chainlink/contracts/src/v0.8/ConfirmedOwner.sol\":270:351  constructor(address newOwner) ConfirmedOwnerWithProposal(newOwner, address(0)) {} */\n  pop\n    /* \"contracts/Invoice.sol\":152:3362  contract Invoice is ConfirmedOwner(msg.sender) {... */\n  jump(tag_12)\n    /* \"@chainlink/contracts/src/v0.8/ConfirmedOwnerWithProposal.sol\":1497:1685  function _transferOwnership(address to) private {... */\ntag_10:\n    /* \"@chainlink/contracts/src/v0.8/ConfirmedOwnerWithProposal.sol\":1565:1575  msg.sender */\n  caller\n    /* \"@chainlink/contracts/src/v0.8/ConfirmedOwnerWithProposal.sol\":1559:1575  to != msg.sender */\n  0xffffffffffffffffffffffffffffffffffffffff\n  and\n    /* \"@chainlink/contracts/src/v0.8/ConfirmedOwnerWithProposal.sol\":1559:1561  to */\n  dup2\n    /* \"@chainlink/contracts/src/v0.8/ConfirmedOwnerWithProposal.sol\":1559:1575  to != msg.sender */\n  0xffffffffffffffffffffffffffffffffffffffff\n  and\n  eq\n  iszero\n    /* \"@chainlink/contracts/src/v0.8/ConfirmedOwnerWithProposal.sol\":1551:1603  require(to != msg.sender, \"Cannot transfer to self\") */\n  tag_14\n  jumpi\n  mload(0x40)\n  0x08c379a000000000000000000000000000000000000000000000000000000000\n  dup2\n  mstore\n  0x04\n  add\n  tag_15\n  swap1\n  tag_16\n  jump\t// in\ntag_15:\n  mload(0x40)\n  dup1\n  swap2\n  sub\n  swap1\n  revert\ntag_14:\n    /* \"@chainlink/contracts/src/v0.8/ConfirmedOwnerWithProposal.sol\":1627:1629  to */\n  dup1\n    /* \"@chainlink/contracts/src/v0.8/ConfirmedOwnerWithProposal.sol\":1610:1624  s_pendingOwner */\n  0x01\n  0x00\n    /* \"@chainlink/contracts/src/v0.8/ConfirmedOwnerWithProposal.sol\":1610:1629  s_pendingOwner = to */\n  0x0100\n  exp\n  dup2\n  sload\n  dup2\n  0xffffffffffffffffffffffffffffffffffffffff\n  mul\n  not\n  and\n  swap1\n  dup4\n  0xffffffffffffffffffffffffffffffffffffffff\n  and\n  mul\n  or\n  swap1\n  sstore\n  pop\n    /* \"@chainlink/contracts/src/v0.8/ConfirmedOwnerWithProposal.sol\":1677:1679  to */\n  dup1\n    /* \"@chainlink/contracts/src/v0.8/ConfirmedOwnerWithProposal.sol\":1641:1680  OwnershipTransferRequested(s_owner, to) */\n  0xffffffffffffffffffffffffffffffffffffffff\n  and\n    /* \"@chainlink/contracts/src/v0.8/ConfirmedOwnerWithProposal.sol\":1668:1675  s_owner */\n  0x00\n  dup1\n  sload\n  swap1\n  0x0100\n  exp\n  swap1\n  div\n  0xffffffffffffffffffffffffffffffffffffffff\n  and\n    /* \"@chainlink/contracts/src/v0.8/ConfirmedOwnerWithProposal.sol\":1641:1680  OwnershipTransferRequested(s_owner, to) */\n  0xffffffffffffffffffffffffffffffffffffffff\n  and\n  0xed8889f560326eb138920d842192f0eb3dd22b4f139c87a2c57538e05bae1278\n  mload(0x40)\n  mload(0x40)\n  dup1\n  swap2\n  sub\n  swap1\n  log3\n    /* \"@chainlink/contracts/src/v0.8/ConfirmedOwnerWithProposal.sol\":1497:1685  function _transferOwnership(address to) private {... */\n  pop\n  jump\t// out\n    /* \"#utility.yul\":7:176   */\ntag_17:\n    /* \"#utility.yul\":91:102   */\n  0x00\n    /* \"#utility.yul\":125:131   */\n  dup3\n    /* \"#utility.yul\":120:123   */\n  dup3\n    /* \"#utility.yul\":113:132   */\n  mstore\n    /* \"#utility.yul\":165:169   */\n  0x20\n    /* \"#utility.yul\":160:163   */\n  dup3\n    /* \"#utility.yul\":156:170   */\n  add\n    /* \"#utility.yul\":141:170   */\n  swap1\n  pop\n    /* \"#utility.yul\":7:176   */\n  swap3\n  swap2\n  pop\n  pop\n  jump\t// out\n    /* \"#utility.yul\":182:356   */\ntag_18:\n    /* \"#utility.yul\":322:348   */\n  0x43616e6e6f7420736574206f776e657220746f207a65726f0000000000000000\n    /* \"#utility.yul\":318:319   */\n  0x00\n    /* \"#utility.yul\":310:316   */\n  dup3\n    /* \"#utility.yul\":306:320   */\n  add\n    /* \"#utility.yul\":299:349   */\n  mstore\n    /* \"#utility.yul\":182:356   */\n  pop\n  jump\t// out\n    /* \"#utility.yul\":362:728   */\ntag_19:\n    /* \"#utility.yul\":504:507   */\n  0x00\n    /* \"#utility.yul\":525:592   */\n  tag_26\n    /* \"#utility.yul\":589:591   */\n  0x18\n    /* \"#utility.yul\":584:587   */\n  dup4\n    /* \"#utility.yul\":525:592   */\n  tag_17\n  jump\t// in\ntag_26:\n    /* \"#utility.yul\":518:592   */\n  swap2\n  pop\n    /* \"#utility.yul\":601:694   */\n  tag_27\n    /* \"#utility.yul\":690:693   */\n  dup3\n    /* \"#utility.yul\":601:694   */\n  tag_18\n  jump\t// in\ntag_27:\n    /* \"#utility.yul\":719:721   */\n  0x20\n    /* \"#utility.yul\":714:717   */\n  dup3\n    /* \"#utility.yul\":710:722   */\n  add\n    /* \"#utility.yul\":703:722   */\n  swap1\n  pop\n    /* \"#utility.yul\":362:728   */\n  swap2\n  swap1\n  pop\n  jump\t// out\n    /* \"#utility.yul\":734:1153   */\ntag_7:\n    /* \"#utility.yul\":900:904   */\n  0x00\n    /* \"#utility.yul\":938:940   */\n  0x20\n    /* \"#utility.yul\":927:936   */\n  dup3\n    /* \"#utility.yul\":923:941   */\n  add\n    /* \"#utility.yul\":915:941   */\n  swap1\n  pop\n    /* \"#utility.yul\":987:996   */\n  dup2\n    /* \"#utility.yul\":981:985   */\n  dup2\n    /* \"#utility.yul\":977:997   */\n  sub\n    /* \"#utility.yul\":973:974   */\n  0x00\n    /* \"#utility.yul\":962:971   */\n  dup4\n    /* \"#utility.yul\":958:975   */\n  add\n    /* \"#utility.yul\":951:998   */\n  mstore\n    /* \"#utility.yul\":1015:1146   */\n  tag_29\n    /* \"#utility.yul\":1141:1145   */\n  dup2\n    /* \"#utility.yul\":1015:1146   */\n  tag_19\n  jump\t// in\ntag_29:\n    /* \"#utility.yul\":1007:1146   */\n  swap1\n  pop\n    /* \"#utility.yul\":734:1153   */\n  swap2\n  swap1\n  pop\n  jump\t// out\n    /* \"#utility.yul\":1159:1332   */\ntag_20:\n    /* \"#utility.yul\":1299:1324   */\n  0x43616e6e6f74207472616e7366657220746f2073656c66000000000000000000\n    /* \"#utility.yul\":1295:1296   */\n  0x00\n    /* \"#utility.yul\":1287:1293   */\n  dup3\n    /* \"#utility.yul\":1283:1297   */\n  add\n    /* \"#utility.yul\":1276:1325   */\n  mstore\n    /* \"#utility.yul\":1159:1332   */\n  pop\n  jump\t// out\n    /* \"#utility.yul\":1338:1704   */\ntag_21:\n    /* \"#utility.yul\":1480:1483   */\n  0x00\n    /* \"#utility.yul\":1501:1568   */\n  tag_32\n    /* \"#utility.yul\":1565:1567   */\n  0x17\n    /* \"#utility.yul\":1560:1563   */\n  dup4\n    /* \"#utility.yul\":1501:1568   */\n  tag_17\n  jump\t// in\ntag_32:\n    /* \"#utility.yul\":1494:1568   */\n  swap2\n  pop\n    /* \"#utility.yul\":1577:1670   */\n  tag_33\n    /* \"#utility.yul\":1666:1669   */\n  dup3\n    /* \"#utility.yul\":1577:1670   */\n  tag_20\n  jump\t// in\ntag_33:\n    /* \"#utility.yul\":1695:1697   */\n  0x20\n    /* \"#utility.yul\":1690:1693   */\n  dup3\n    /* \"#utility.yul\":1686:1698   */\n  add\n    /* \"#utility.yul\":1679:1698   */\n  swap1\n  pop\n    /* \"#utility.yul\":1338:1704   */\n  swap2\n  swap1\n  pop\n  jump\t// out\n    /* \"#utility.yul\":1710:2129   */\ntag_16:\n    /* \"#utility.yul\":1876:1880   */\n  0x00\n    /* \"#utility.yul\":1914:1916   */\n  0x20\n    /* \"#utility.yul\":1903:1912   */\n  dup3\n    /* \"#utility.yul\":1899:1917   */\n  add\n    /* \"#utility.yul\":1891:1917   */\n  swap1\n  pop\n    /* \"#utility.yul\":1963:1972   */\n  dup2\n    /* \"#utility.yul\":1957:1961   */\n  dup2\n    /* \"#utility.yul\":1953:1973   */\n  sub\n    /* \"#utility.yul\":1949:1950   */\n  0x00\n    /* \"#utility.yul\":1938:1947   */\n  dup4\n    /* \"#utility.yul\":1934:1951   */\n  add\n    /* \"#utility.yul\":1927:1974   */\n  mstore\n    /* \"#utility.yul\":1991:2122   */\n  tag_35\n    /* \"#utility.yul\":2117:2121   */\n  dup2\n    /* \"#utility.yul\":1991:2122   */\n  tag_21\n  jump\t// in\ntag_35:\n    /* \"#utility.yul\":1983:2122   */\n  swap1\n  pop\n    /* \"#utility.yul\":1710:2129   */\n  swap2\n  swap1\n  pop\n  jump\t// out\n    /* \"contracts/Invoice.sol\":152:3362  contract Invoice is ConfirmedOwner(msg.sender) {... */\ntag_12:\n  dataSize(sub_0)\n  dup1\n  dataOffset(sub_0)\n  0x00\n  codecopy\n  0x00\n  return\nstop\n\nsub_0: assembly {\n        /* \"contracts/Invoice.sol\":152:3362  contract Invoice is ConfirmedOwner(msg.sender) {... */\n      mstore(0x40, 0x80)\n      callvalue\n      dup1\n      iszero\n      tag_1\n      jumpi\n      0x00\n      dup1\n      revert\n    tag_1:\n      pop\n      jumpi(tag_2, lt(calldatasize, 0x04))\n      shr(0xe0, calldataload(0x00))\n      dup1\n      0x79ba5097\n      gt\n      tag_13\n      jumpi\n      dup1\n      0x79ba5097\n      eq\n      tag_8\n      jumpi\n      dup1\n      0x83e8e6a4\n      eq\n      tag_9\n      jumpi\n      dup1\n      0x8da5cb5b\n      eq\n      tag_10\n      jumpi\n      dup1\n      0xa1650043\n      eq\n      tag_11\n      jumpi\n      dup1\n      0xf2fde38b\n      eq\n      tag_12\n      jumpi\n      jump(tag_2)\n    tag_13:\n      dup1\n      0x0ab4516d\n      eq\n      tag_3\n      jumpi\n      dup1\n      0x24c407b1\n      eq\n      tag_4\n      jumpi\n      dup1\n      0x286f44ef\n      eq\n      tag_5\n      jumpi\n      dup1\n      0x5ef3fc61\n      eq\n      tag_6\n      jumpi\n      dup1\n      0x6f522e50\n      eq\n      tag_7\n      jumpi\n    tag_2:\n      0x00\n      dup1\n      revert\n        /* \"contracts/Invoice.sol\":733:1343  function _invoiceCreation(string memory _buyerPAN,string memory _sellerPAN,uint32 _invoiceAmount) external onlyOwner returns(uint) {... */\n    tag_3:\n      tag_14\n      0x04\n      dup1\n      calldatasize\n      sub\n      dup2\n      add\n      swap1\n      tag_15\n      swap2\n      swap1\n      tag_16\n      jump\t// in\n    tag_15:\n      tag_17\n      jump\t// in\n    tag_14:\n      mload(0x40)\n      tag_18\n      swap2\n      swap1\n      tag_19\n      jump\t// in\n    tag_18:\n      mload(0x40)\n      dup1\n      swap2\n      sub\n      swap1\n      return\n        /* \"contracts/Invoice.sol\":1593:2196  function UpdatePaymentStatus(uint _invoiceId,bool isPaymentCompleted) external onlyOwner returns(Invoice memory){... */\n    tag_4:\n      tag_20\n      0x04\n      dup1\n      calldatasize\n      sub\n      dup2\n      add\n      swap1\n      tag_21\n      swap2\n      swap1\n      tag_22\n      jump\t// in\n    tag_21:\n      tag_23\n      jump\t// in\n    tag_20:\n      mload(0x40)\n      tag_24\n      swap2\n      swap1\n      tag_25\n      jump\t// in\n    tag_24:\n      mload(0x40)\n      dup1\n      swap2\n      sub\n      swap1\n      return\n        /* \"contracts/Invoice.sol\":625:669  mapping(string => uint) public buyerPANCount */\n    tag_5:\n      tag_26\n      0x04\n      dup1\n      calldatasize\n      sub\n      dup2\n      add\n      swap1\n      tag_27\n      swap2\n      swap1\n      tag_28\n      jump\t// in\n    tag_27:\n      tag_29\n      jump\t// in\n    tag_26:\n      mload(0x40)\n      tag_30\n      swap2\n      swap1\n      tag_19\n      jump\t// in\n    tag_30:\n      mload(0x40)\n      dup1\n      swap2\n      sub\n      swap1\n      return\n        /* \"contracts/Invoice.sol\":676:701  Invoice[] public Invoices */\n    tag_6:\n      tag_31\n      0x04\n      dup1\n      calldatasize\n      sub\n      dup2\n      add\n      swap1\n      tag_32\n      swap2\n      swap1\n      tag_33\n      jump\t// in\n    tag_32:\n      tag_34\n      jump\t// in\n    tag_31:\n      mload(0x40)\n      tag_35\n      swap8\n      swap7\n      swap6\n      swap5\n      swap4\n      swap3\n      swap2\n      swap1\n      tag_36\n      jump\t// in\n    tag_35:\n      mload(0x40)\n      dup1\n      swap2\n      sub\n      swap1\n      return\n        /* \"contracts/Invoice.sol\":568:618  mapping(uint => Invoice) public invoiceIdtoInvoice */\n    tag_7:\n      tag_37\n      0x04\n      dup1\n      calldatasize\n      sub\n      dup2\n      add\n      swap1\n      tag_38\n      swap2\n      swap1\n      tag_33\n      jump\t// in\n    tag_38:\n      tag_39\n      jump\t// in\n    tag_37:\n      mload(0x40)\n      tag_40\n      swap8\n      swap7\n      swap6\n      swap5\n      swap4\n      swap3\n      swap2\n      swap1\n      tag_36\n      jump\t// in\n    tag_40:\n      mload(0x40)\n      dup1\n      swap2\n      sub\n      swap1\n      return\n        /* \"@chainlink/contracts/src/v0.8/ConfirmedOwnerWithProposal.sol\":1016:1281  function acceptOwnership() external override {... */\n    tag_8:\n      tag_41\n      tag_42\n      jump\t// in\n    tag_41:\n      stop\n        /* \"contracts/Invoice.sol\":2270:2763  function getInvoicesByPan(string memory _buyerPAN) external view returns(Invoice[] memory) {... */\n    tag_9:\n      tag_43\n      0x04\n      dup1\n      calldatasize\n      sub\n      dup2\n      add\n      swap1\n      tag_44\n      swap2\n      swap1\n      tag_28\n      jump\t// in\n    tag_44:\n      tag_45\n      jump\t// in\n    tag_43:\n      mload(0x40)\n      tag_46\n      swap2\n      swap1\n      tag_47\n      jump\t// in\n    tag_46:\n      mload(0x40)\n      dup1\n      swap2\n      sub\n      swap1\n      return\n        /* \"@chainlink/contracts/src/v0.8/ConfirmedOwnerWithProposal.sol\":1332:1413  function owner() public view override returns (address) {... */\n    tag_10:\n      tag_48\n      tag_49\n      jump\t// in\n    tag_48:\n      mload(0x40)\n      tag_50\n      swap2\n      swap1\n      tag_51\n      jump\t// in\n    tag_50:\n      mload(0x40)\n      dup1\n      swap2\n      sub\n      swap1\n      return\n        /* \"contracts/Invoice.sol\":1391:1542  function getPaymentStatus(uint _invoiceId) external view returns(paymentStatuses){... */\n    tag_11:\n      tag_52\n      0x04\n      dup1\n      calldatasize\n      sub\n      dup2\n      add\n      swap1\n      tag_53\n      swap2\n      swap1\n      tag_33\n      jump\t// in\n    tag_53:\n      tag_54\n      jump\t// in\n    tag_52:\n      mload(0x40)\n      tag_55\n      swap2\n      swap1\n      tag_56\n      jump\t// in\n    tag_55:\n      mload(0x40)\n      dup1\n      swap2\n      sub\n      swap1\n      return\n        /* \"@chainlink/contracts/src/v0.8/ConfirmedOwnerWithProposal.sol\":826:924  function transferOwnership(address to) public override onlyOwner {... */\n    tag_12:\n      tag_57\n      0x04\n      dup1\n      calldatasize\n      sub\n      dup2\n      add\n      swap1\n      tag_58\n      swap2\n      swap1\n      tag_59\n      jump\t// in\n    tag_58:\n      tag_60\n      jump\t// in\n    tag_57:\n      stop\n        /* \"contracts/Invoice.sol\":733:1343  function _invoiceCreation(string memory _buyerPAN,string memory _sellerPAN,uint32 _invoiceAmount) external onlyOwner returns(uint) {... */\n    tag_17:\n        /* \"contracts/Invoice.sol\":858:862  uint */\n      0x00\n        /* \"@chainlink/contracts/src/v0.8/ConfirmedOwnerWithProposal.sol\":1956:1976  _validateOwnership() */\n      tag_62\n        /* \"@chainlink/contracts/src/v0.8/ConfirmedOwnerWithProposal.sol\":1956:1974  _validateOwnership */\n      tag_63\n        /* \"@chainlink/contracts/src/v0.8/ConfirmedOwnerWithProposal.sol\":1956:1976  _validateOwnership() */\n      jump\t// in\n    tag_62:\n        /* \"contracts/Invoice.sol\":875:900  uint newGenratedInvoiceId */\n      0x00\n        /* \"contracts/Invoice.sol\":903:969  _genratePseudoRandomInvoiceId(_buyerPAN,_sellerPAN,_invoiceAmount) */\n      tag_65\n        /* \"contracts/Invoice.sol\":933:942  _buyerPAN */\n      dup6\n        /* \"contracts/Invoice.sol\":943:953  _sellerPAN */\n      dup6\n        /* \"contracts/Invoice.sol\":954:968  _invoiceAmount */\n      dup6\n        /* \"contracts/Invoice.sol\":903:932  _genratePseudoRandomInvoiceId */\n      tag_66\n        /* \"contracts/Invoice.sol\":903:969  _genratePseudoRandomInvoiceId(_buyerPAN,_sellerPAN,_invoiceAmount) */\n      jump\t// in\n    tag_65:\n        /* \"contracts/Invoice.sol\":875:969  uint newGenratedInvoiceId = _genratePseudoRandomInvoiceId(_buyerPAN,_sellerPAN,_invoiceAmount) */\n      swap1\n      pop\n        /* \"contracts/Invoice.sol\":980:1007  uint32 newGenratedinvoiceNo */\n      0x00\n        /* \"contracts/Invoice.sol\":1017:1025  Invoices */\n      0x05\n        /* \"contracts/Invoice.sol\":1017:1032  Invoices.length */\n      dup1\n      sload\n      swap1\n      pop\n        /* \"contracts/Invoice.sol\":980:1033  uint32 newGenratedinvoiceNo = uint32(Invoices.length) */\n      swap1\n      pop\n        /* \"contracts/Invoice.sol\":1044:1069  Invoice memory newInvoice */\n      0x00\n        /* \"contracts/Invoice.sol\":1072:1198  Invoice(newGenratedInvoiceId,_buyerPAN,_sellerPAN,_invoiceAmount,block.timestamp,newGenratedinvoiceNo,paymentStatuses.PENDING) */\n      mload(0x40)\n      dup1\n      0xe0\n      add\n      0x40\n      mstore\n      dup1\n        /* \"contracts/Invoice.sol\":1080:1100  newGenratedInvoiceId */\n      dup5\n        /* \"contracts/Invoice.sol\":1072:1198  Invoice(newGenratedInvoiceId,_buyerPAN,_sellerPAN,_invoiceAmount,block.timestamp,newGenratedinvoiceNo,paymentStatuses.PENDING) */\n      dup2\n      mstore\n      0x20\n      add\n        /* \"contracts/Invoice.sol\":1101:1110  _buyerPAN */\n      dup9\n        /* \"contracts/Invoice.sol\":1072:1198  Invoice(newGenratedInvoiceId,_buyerPAN,_sellerPAN,_invoiceAmount,block.timestamp,newGenratedinvoiceNo,paymentStatuses.PENDING) */\n      dup2\n      mstore\n      0x20\n      add\n        /* \"contracts/Invoice.sol\":1111:1121  _sellerPAN */\n      dup8\n        /* \"contracts/Invoice.sol\":1072:1198  Invoice(newGenratedInvoiceId,_buyerPAN,_sellerPAN,_invoiceAmount,block.timestamp,newGenratedinvoiceNo,paymentStatuses.PENDING) */\n      dup2\n      mstore\n      0x20\n      add\n        /* \"contracts/Invoice.sol\":1122:1136  _invoiceAmount */\n      dup7\n        /* \"contracts/Invoice.sol\":1072:1198  Invoice(newGenratedInvoiceId,_buyerPAN,_sellerPAN,_invoiceAmount,block.timestamp,newGenratedinvoiceNo,paymentStatuses.PENDING) */\n      0xffffffff\n      and\n      dup2\n      mstore\n      0x20\n      add\n        /* \"contracts/Invoice.sol\":1137:1152  block.timestamp */\n      timestamp\n        /* \"contracts/Invoice.sol\":1072:1198  Invoice(newGenratedInvoiceId,_buyerPAN,_sellerPAN,_invoiceAmount,block.timestamp,newGenratedinvoiceNo,paymentStatuses.PENDING) */\n      dup2\n      mstore\n      0x20\n      add\n        /* \"contracts/Invoice.sol\":1153:1173  newGenratedinvoiceNo */\n      dup4\n        /* \"contracts/Invoice.sol\":1072:1198  Invoice(newGenratedInvoiceId,_buyerPAN,_sellerPAN,_invoiceAmount,block.timestamp,newGenratedinvoiceNo,paymentStatuses.PENDING) */\n      0xffffffff\n      and\n      dup2\n      mstore\n      0x20\n      add\n        /* \"contracts/Invoice.sol\":1174:1197  paymentStatuses.PENDING */\n      0x00\n        /* \"contracts/Invoice.sol\":1072:1198  Invoice(newGenratedInvoiceId,_buyerPAN,_sellerPAN,_invoiceAmount,block.timestamp,newGenratedinvoiceNo,paymentStatuses.PENDING) */\n      0x01\n      dup2\n      gt\n      iszero\n      tag_67\n      jumpi\n      tag_68\n      tag_69\n      jump\t// in\n    tag_68:\n    tag_67:\n      dup2\n      mstore\n      pop\n        /* \"contracts/Invoice.sol\":1044:1198  Invoice memory newInvoice = Invoice(newGenratedInvoiceId,_buyerPAN,_sellerPAN,_invoiceAmount,block.timestamp,newGenratedinvoiceNo,paymentStatuses.PENDING) */\n      swap1\n      pop\n        /* \"contracts/Invoice.sol\":1252:1262  newInvoice */\n      dup1\n        /* \"contracts/Invoice.sol\":1209:1227  invoiceIdtoInvoice */\n      0x03\n        /* \"contracts/Invoice.sol\":1209:1249  invoiceIdtoInvoice[newGenratedInvoiceId] */\n      0x00\n        /* \"contracts/Invoice.sol\":1228:1248  newGenratedInvoiceId */\n      dup6\n        /* \"contracts/Invoice.sol\":1209:1249  invoiceIdtoInvoice[newGenratedInvoiceId] */\n      dup2\n      mstore\n      0x20\n      add\n      swap1\n      dup2\n      mstore\n      0x20\n      add\n      0x00\n      keccak256\n        /* \"contracts/Invoice.sol\":1209:1262  invoiceIdtoInvoice[newGenratedInvoiceId] = newInvoice */\n      0x00\n      dup3\n      add\n      mload\n      dup2\n      0x00\n      add\n      sstore\n      0x20\n      dup3\n      add\n      mload\n      dup2\n      0x01\n      add\n      swap1\n      dup1\n      mload\n      swap1\n      0x20\n      add\n      swap1\n      tag_70\n      swap3\n      swap2\n      swap1\n      tag_71\n      jump\t// in\n    tag_70:\n      pop\n      0x40\n      dup3\n      add\n      mload\n      dup2\n      0x02\n      add\n      swap1\n      dup1\n      mload\n      swap1\n      0x20\n      add\n      swap1\n      tag_72\n      swap3\n      swap2\n      swap1\n      tag_71\n      jump\t// in\n    tag_72:\n      pop\n      0x60\n      dup3\n      add\n      mload\n      dup2\n      0x03\n      add\n      exp(0x0100, 0x00)\n      dup2\n      sload\n      dup2\n      0xffffffff\n      mul\n      not\n      and\n      swap1\n      dup4\n      0xffffffff\n      and\n      mul\n      or\n      swap1\n      sstore\n      pop\n      0x80\n      dup3\n      add\n      mload\n      dup2\n      0x04\n      add\n      sstore\n      0xa0\n      dup3\n      add\n      mload\n      dup2\n      0x05\n      add\n      exp(0x0100, 0x00)\n      dup2\n      sload\n      dup2\n      0xffffffff\n      mul\n      not\n      and\n      swap1\n      dup4\n      0xffffffff\n      and\n      mul\n      or\n      swap1\n      sstore\n      pop\n      0xc0\n      dup3\n      add\n      mload\n      dup2\n      0x05\n      add\n      exp(0x0100, 0x04)\n      dup2\n      sload\n      dup2\n      0xff\n      mul\n      not\n      and\n      swap1\n      dup4\n      0x01\n      dup2\n      gt\n      iszero\n      tag_73\n      jumpi\n      tag_74\n      tag_69\n      jump\t// in\n    tag_74:\n    tag_73:\n      mul\n      or\n      swap1\n      sstore\n      pop\n      swap1\n      pop\n      pop\n        /* \"contracts/Invoice.sol\":1273:1286  buyerPANCount */\n      0x04\n        /* \"contracts/Invoice.sol\":1287:1296  _buyerPAN */\n      dup8\n        /* \"contracts/Invoice.sol\":1273:1297  buyerPANCount[_buyerPAN] */\n      mload(0x40)\n      tag_75\n      swap2\n      swap1\n      tag_76\n      jump\t// in\n    tag_75:\n      swap1\n      dup2\n      mstore\n      0x20\n      add\n      mload(0x40)\n      dup1\n      swap2\n      sub\n      swap1\n      keccak256\n      0x00\n        /* \"contracts/Invoice.sol\":1273:1299  buyerPANCount[_buyerPAN]++ */\n      dup2\n      sload\n      dup1\n      swap3\n      swap2\n      swap1\n      tag_77\n      swap1\n      tag_78\n      jump\t// in\n    tag_77:\n      swap2\n      swap1\n      pop\n      sstore\n      pop\n        /* \"contracts/Invoice.sol\":1310:1318  Invoices */\n      0x05\n        /* \"contracts/Invoice.sol\":1324:1334  newInvoice */\n      dup2\n        /* \"contracts/Invoice.sol\":1310:1335  Invoices.push(newInvoice) */\n      swap1\n      dup1\n      0x01\n      dup2\n      sload\n      add\n      dup1\n      dup3\n      sstore\n      dup1\n      swap2\n      pop\n      pop\n      0x01\n      swap1\n      sub\n      swap1\n      0x00\n      mstore\n      keccak256(0x00, 0x20)\n      swap1\n      0x06\n      mul\n      add\n      0x00\n      swap1\n      swap2\n      swap1\n      swap2\n      swap1\n      swap2\n      pop\n      0x00\n      dup3\n      add\n      mload\n      dup2\n      0x00\n      add\n      sstore\n      0x20\n      dup3\n      add\n      mload\n      dup2\n      0x01\n      add\n      swap1\n      dup1\n      mload\n      swap1\n      0x20\n      add\n      swap1\n      tag_80\n      swap3\n      swap2\n      swap1\n      tag_71\n      jump\t// in\n    tag_80:\n      pop\n      0x40\n      dup3\n      add\n      mload\n      dup2\n      0x02\n      add\n      swap1\n      dup1\n      mload\n      swap1\n      0x20\n      add\n      swap1\n      tag_81\n      swap3\n      swap2\n      swap1\n      tag_71\n      jump\t// in\n    tag_81:\n      pop\n      0x60\n      dup3\n      add\n      mload\n      dup2\n      0x03\n      add\n      exp(0x0100, 0x00)\n      dup2\n      sload\n      dup2\n      0xffffffff\n      mul\n      not\n      and\n      swap1\n      dup4\n      0xffffffff\n      and\n      mul\n      or\n      swap1\n      sstore\n      pop\n      0x80\n      dup3\n      add\n      mload\n      dup2\n      0x04\n      add\n      sstore\n      0xa0\n      dup3\n      add\n      mload\n      dup2\n      0x05\n      add\n      exp(0x0100, 0x00)\n      dup2\n      sload\n      dup2\n      0xffffffff\n      mul\n      not\n      and\n      swap1\n      dup4\n      0xffffffff\n      and\n      mul\n      or\n      swap1\n      sstore\n      pop\n      0xc0\n      dup3\n      add\n      mload\n      dup2\n      0x05\n      add\n      exp(0x0100, 0x04)\n      dup2\n      sload\n      dup2\n      0xff\n      mul\n      not\n      and\n      swap1\n      dup4\n      0x01\n      dup2\n      gt\n      iszero\n      tag_82\n      jumpi\n      tag_83\n      tag_69\n      jump\t// in\n    tag_83:\n    tag_82:\n      mul\n      or\n      swap1\n      sstore\n      pop\n      pop\n      pop\n        /* \"contracts/Invoice.sol\":864:1343  {... */\n      pop\n      pop\n      pop\n        /* \"contracts/Invoice.sol\":733:1343  function _invoiceCreation(string memory _buyerPAN,string memory _sellerPAN,uint32 _invoiceAmount) external onlyOwner returns(uint) {... */\n      swap4\n      swap3\n      pop\n      pop\n      pop\n      jump\t// out\n        /* \"contracts/Invoice.sol\":1593:2196  function UpdatePaymentStatus(uint _invoiceId,bool isPaymentCompleted) external onlyOwner returns(Invoice memory){... */\n    tag_23:\n        /* \"contracts/Invoice.sol\":1690:1704  Invoice memory */\n      tag_84\n      tag_85\n      jump\t// in\n    tag_84:\n        /* \"@chainlink/contracts/src/v0.8/ConfirmedOwnerWithProposal.sol\":1956:1976  _validateOwnership() */\n      tag_87\n        /* \"@chainlink/contracts/src/v0.8/ConfirmedOwnerWithProposal.sol\":1956:1974  _validateOwnership */\n      tag_63\n        /* \"@chainlink/contracts/src/v0.8/ConfirmedOwnerWithProposal.sol\":1956:1976  _validateOwnership() */\n      jump\t// in\n    tag_87:\n        /* \"contracts/Invoice.sol\":1719:1737  isPaymentCompleted */\n      dup2\n        /* \"contracts/Invoice.sol\":1716:2141  if(isPaymentCompleted){... */\n      iszero\n      tag_89\n      jumpi\n        /* \"contracts/Invoice.sol\":1820:1840  paymentStatuses.PAID */\n      0x01\n        /* \"contracts/Invoice.sol\":1753:1761  Invoices */\n      0x05\n        /* \"contracts/Invoice.sol\":1762:1780  invoiceIdtoInvoice */\n      0x03\n        /* \"contracts/Invoice.sol\":1762:1792  invoiceIdtoInvoice[_invoiceId] */\n      0x00\n        /* \"contracts/Invoice.sol\":1781:1791  _invoiceId */\n      dup7\n        /* \"contracts/Invoice.sol\":1762:1792  invoiceIdtoInvoice[_invoiceId] */\n      dup2\n      mstore\n      0x20\n      add\n      swap1\n      dup2\n      mstore\n      0x20\n      add\n      0x00\n      keccak256\n        /* \"contracts/Invoice.sol\":1762:1802  invoiceIdtoInvoice[_invoiceId].invoiceNo */\n      0x05\n      add\n      0x00\n      swap1\n      sload\n      swap1\n      0x0100\n      exp\n      swap1\n      div\n      0xffffffff\n      and\n        /* \"contracts/Invoice.sol\":1753:1803  Invoices[invoiceIdtoInvoice[_invoiceId].invoiceNo] */\n      0xffffffff\n      and\n      dup2\n      sload\n      dup2\n      lt\n      tag_90\n      jumpi\n      tag_91\n      tag_92\n      jump\t// in\n    tag_91:\n    tag_90:\n      swap1\n      0x00\n      mstore\n      keccak256(0x00, 0x20)\n      swap1\n      0x06\n      mul\n      add\n        /* \"contracts/Invoice.sol\":1753:1817  Invoices[invoiceIdtoInvoice[_invoiceId].invoiceNo].paymentStatus */\n      0x05\n      add\n      0x04\n        /* \"contracts/Invoice.sol\":1753:1840  Invoices[invoiceIdtoInvoice[_invoiceId].invoiceNo].paymentStatus = paymentStatuses.PAID */\n      0x0100\n      exp\n      dup2\n      sload\n      dup2\n      0xff\n      mul\n      not\n      and\n      swap1\n      dup4\n      0x01\n      dup2\n      gt\n      iszero\n      tag_94\n      jumpi\n      tag_95\n      tag_69\n      jump\t// in\n    tag_95:\n    tag_94:\n      mul\n      or\n      swap1\n      sstore\n      pop\n        /* \"contracts/Invoice.sol\":1902:1922  paymentStatuses.PAID */\n      0x01\n        /* \"contracts/Invoice.sol\":1855:1873  invoiceIdtoInvoice */\n      0x03\n        /* \"contracts/Invoice.sol\":1855:1885  invoiceIdtoInvoice[_invoiceId] */\n      0x00\n        /* \"contracts/Invoice.sol\":1874:1884  _invoiceId */\n      dup6\n        /* \"contracts/Invoice.sol\":1855:1885  invoiceIdtoInvoice[_invoiceId] */\n      dup2\n      mstore\n      0x20\n      add\n      swap1\n      dup2\n      mstore\n      0x20\n      add\n      0x00\n      keccak256\n        /* \"contracts/Invoice.sol\":1855:1899  invoiceIdtoInvoice[_invoiceId].paymentStatus */\n      0x05\n      add\n      0x04\n        /* \"contracts/Invoice.sol\":1855:1922  invoiceIdtoInvoice[_invoiceId].paymentStatus = paymentStatuses.PAID */\n      0x0100\n      exp\n      dup2\n      sload\n      dup2\n      0xff\n      mul\n      not\n      and\n      swap1\n      dup4\n      0x01\n      dup2\n      gt\n      iszero\n      tag_96\n      jumpi\n      tag_97\n      tag_69\n      jump\t// in\n    tag_97:\n    tag_96:\n      mul\n      or\n      swap1\n      sstore\n      pop\n        /* \"contracts/Invoice.sol\":1716:2141  if(isPaymentCompleted){... */\n      jump(tag_98)\n    tag_89:\n        /* \"contracts/Invoice.sol\":2021:2044  paymentStatuses.PENDING */\n      0x00\n        /* \"contracts/Invoice.sol\":1954:1962  Invoices */\n      0x05\n        /* \"contracts/Invoice.sol\":1963:1981  invoiceIdtoInvoice */\n      0x03\n        /* \"contracts/Invoice.sol\":1963:1993  invoiceIdtoInvoice[_invoiceId] */\n      0x00\n        /* \"contracts/Invoice.sol\":1982:1992  _invoiceId */\n      dup7\n        /* \"contracts/Invoice.sol\":1963:1993  invoiceIdtoInvoice[_invoiceId] */\n      dup2\n      mstore\n      0x20\n      add\n      swap1\n      dup2\n      mstore\n      0x20\n      add\n      0x00\n      keccak256\n        /* \"contracts/Invoice.sol\":1963:2003  invoiceIdtoInvoice[_invoiceId].invoiceNo */\n      0x05\n      add\n      0x00\n      swap1\n      sload\n      swap1\n      0x0100\n      exp\n      swap1\n      div\n      0xffffffff\n      and\n        /* \"contracts/Invoice.sol\":1954:2004  Invoices[invoiceIdtoInvoice[_invoiceId].invoiceNo] */\n      0xffffffff\n      and\n      dup2\n      sload\n      dup2\n      lt\n      tag_99\n      jumpi\n      tag_100\n      tag_92\n      jump\t// in\n    tag_100:\n    tag_99:\n      swap1\n      0x00\n      mstore\n      keccak256(0x00, 0x20)\n      swap1\n      0x06\n      mul\n      add\n        /* \"contracts/Invoice.sol\":1954:2018  Invoices[invoiceIdtoInvoice[_invoiceId].invoiceNo].paymentStatus */\n      0x05\n      add\n      0x04\n        /* \"contracts/Invoice.sol\":1954:2044  Invoices[invoiceIdtoInvoice[_invoiceId].invoiceNo].paymentStatus = paymentStatuses.PENDING */\n      0x0100\n      exp\n      dup2\n      sload\n      dup2\n      0xff\n      mul\n      not\n      and\n      swap1\n      dup4\n      0x01\n      dup2\n      gt\n      iszero\n      tag_102\n      jumpi\n      tag_103\n      tag_69\n      jump\t// in\n    tag_103:\n    tag_102:\n      mul\n      or\n      swap1\n      sstore\n      pop\n        /* \"contracts/Invoice.sol\":2106:2129  paymentStatuses.PENDING */\n      0x00\n        /* \"contracts/Invoice.sol\":2059:2077  invoiceIdtoInvoice */\n      0x03\n        /* \"contracts/Invoice.sol\":2059:2089  invoiceIdtoInvoice[_invoiceId] */\n      0x00\n        /* \"contracts/Invoice.sol\":2078:2088  _invoiceId */\n      dup6\n        /* \"contracts/Invoice.sol\":2059:2089  invoiceIdtoInvoice[_invoiceId] */\n      dup2\n      mstore\n      0x20\n      add\n      swap1\n      dup2\n      mstore\n      0x20\n      add\n      0x00\n      keccak256\n        /* \"contracts/Invoice.sol\":2059:2103  invoiceIdtoInvoice[_invoiceId].paymentStatus */\n      0x05\n      add\n      0x04\n        /* \"contracts/Invoice.sol\":2059:2129  invoiceIdtoInvoice[_invoiceId].paymentStatus = paymentStatuses.PENDING */\n      0x0100\n      exp\n      dup2\n      sload\n      dup2\n      0xff\n      mul\n      not\n      and\n      swap1\n      dup4\n      0x01\n      dup2\n      gt\n      iszero\n      tag_104\n      jumpi\n      tag_105\n      tag_69\n      jump\t// in\n    tag_105:\n    tag_104:\n      mul\n      or\n      swap1\n      sstore\n      pop\n        /* \"contracts/Invoice.sol\":1716:2141  if(isPaymentCompleted){... */\n    tag_98:\n        /* \"contracts/Invoice.sol\":2158:2176  invoiceIdtoInvoice */\n      0x03\n        /* \"contracts/Invoice.sol\":2158:2188  invoiceIdtoInvoice[_invoiceId] */\n      0x00\n        /* \"contracts/Invoice.sol\":2177:2187  _invoiceId */\n      dup5\n        /* \"contracts/Invoice.sol\":2158:2188  invoiceIdtoInvoice[_invoiceId] */\n      dup2\n      mstore\n      0x20\n      add\n      swap1\n      dup2\n      mstore\n      0x20\n      add\n      0x00\n      keccak256\n        /* \"contracts/Invoice.sol\":2151:2188  return invoiceIdtoInvoice[_invoiceId] */\n      mload(0x40)\n      dup1\n      0xe0\n      add\n      0x40\n      mstore\n      swap1\n      dup2\n      0x00\n      dup3\n      add\n      sload\n      dup2\n      mstore\n      0x20\n      add\n      0x01\n      dup3\n      add\n      dup1\n      sload\n      tag_106\n      swap1\n      tag_107\n      jump\t// in\n    tag_106:\n      dup1\n      0x1f\n      add\n      0x20\n      dup1\n      swap2\n      div\n      mul\n      0x20\n      add\n      mload(0x40)\n      swap1\n      dup2\n      add\n      0x40\n      mstore\n      dup1\n      swap3\n      swap2\n      swap1\n      dup2\n      dup2\n      mstore\n      0x20\n      add\n      dup3\n      dup1\n      sload\n      tag_108\n      swap1\n      tag_107\n      jump\t// in\n    tag_108:\n      dup1\n      iszero\n      tag_109\n      jumpi\n      dup1\n      0x1f\n      lt\n      tag_110\n      jumpi\n      0x0100\n      dup1\n      dup4\n      sload\n      div\n      mul\n      dup4\n      mstore\n      swap2\n      0x20\n      add\n      swap2\n      jump(tag_109)\n    tag_110:\n      dup3\n      add\n      swap2\n      swap1\n      0x00\n      mstore\n      keccak256(0x00, 0x20)\n      swap1\n    tag_111:\n      dup2\n      sload\n      dup2\n      mstore\n      swap1\n      0x01\n      add\n      swap1\n      0x20\n      add\n      dup1\n      dup4\n      gt\n      tag_111\n      jumpi\n      dup3\n      swap1\n      sub\n      0x1f\n      and\n      dup3\n      add\n      swap2\n    tag_109:\n      pop\n      pop\n      pop\n      pop\n      pop\n      dup2\n      mstore\n      0x20\n      add\n      0x02\n      dup3\n      add\n      dup1\n      sload\n      tag_112\n      swap1\n      tag_107\n      jump\t// in\n    tag_112:\n      dup1\n      0x1f\n      add\n      0x20\n      dup1\n      swap2\n      div\n      mul\n      0x20\n      add\n      mload(0x40)\n      swap1\n      dup2\n      add\n      0x40\n      mstore\n      dup1\n      swap3\n      swap2\n      swap1\n      dup2\n      dup2\n      mstore\n      0x20\n      add\n      dup3\n      dup1\n      sload\n      tag_113\n      swap1\n      tag_107\n      jump\t// in\n    tag_113:\n      dup1\n      iszero\n      tag_114\n      jumpi\n      dup1\n      0x1f\n      lt\n      tag_115\n      jumpi\n      0x0100\n      dup1\n      dup4\n      sload\n      div\n      mul\n      dup4\n      mstore\n      swap2\n      0x20\n      add\n      swap2\n      jump(tag_114)\n    tag_115:\n      dup3\n      add\n      swap2\n      swap1\n      0x00\n      mstore\n      keccak256(0x00, 0x20)\n      swap1\n    tag_116:\n      dup2\n      sload\n      dup2\n      mstore\n      swap1\n      0x01\n      add\n      swap1\n      0x20\n      add\n      dup1\n      dup4\n      gt\n      tag_116\n      jumpi\n      dup3\n      swap1\n      sub\n      0x1f\n      and\n      dup3\n      add\n      swap2\n    tag_114:\n      pop\n      pop\n      pop\n      pop\n      pop\n      dup2\n      mstore\n      0x20\n      add\n      0x03\n      dup3\n      add\n      0x00\n      swap1\n      sload\n      swap1\n      0x0100\n      exp\n      swap1\n      div\n      0xffffffff\n      and\n      0xffffffff\n      and\n      0xffffffff\n      and\n      dup2\n      mstore\n      0x20\n      add\n      0x04\n      dup3\n      add\n      sload\n      dup2\n      mstore\n      0x20\n      add\n      0x05\n      dup3\n      add\n      0x00\n      swap1\n      sload\n      swap1\n      0x0100\n      exp\n      swap1\n      div\n      0xffffffff\n      and\n      0xffffffff\n      and\n      0xffffffff\n      and\n      dup2\n      mstore\n      0x20\n      add\n      0x05\n      dup3\n      add\n      0x04\n      swap1\n      sload\n      swap1\n      0x0100\n      exp\n      swap1\n      div\n      0xff\n      and\n      0x01\n      dup2\n      gt\n      iszero\n      tag_117\n      jumpi\n      tag_118\n      tag_69\n      jump\t// in\n    tag_118:\n    tag_117:\n      0x01\n      dup2\n      gt\n      iszero\n      tag_119\n      jumpi\n      tag_120\n      tag_69\n      jump\t// in\n    tag_120:\n    tag_119:\n      dup2\n      mstore\n      pop\n      pop\n      swap1\n      pop\n        /* \"contracts/Invoice.sol\":1593:2196  function UpdatePaymentStatus(uint _invoiceId,bool isPaymentCompleted) external onlyOwner returns(Invoice memory){... */\n      swap3\n      swap2\n      pop\n      pop\n      jump\t// out\n        /* \"contracts/Invoice.sol\":625:669  mapping(string => uint) public buyerPANCount */\n    tag_29:\n      0x04\n      dup2\n      dup1\n      mload\n      0x20\n      dup2\n      add\n      dup3\n      add\n      dup1\n      mload\n      dup5\n      dup3\n      mstore\n      0x20\n      dup4\n      add\n      0x20\n      dup6\n      add\n      keccak256\n      dup2\n      dup4\n      mstore\n      dup1\n      swap6\n      pop\n      pop\n      pop\n      pop\n      pop\n      pop\n      0x00\n      swap2\n      pop\n      swap1\n      pop\n      sload\n      dup2\n      jump\t// out\n        /* \"contracts/Invoice.sol\":676:701  Invoice[] public Invoices */\n    tag_34:\n      0x05\n      dup2\n      dup2\n      sload\n      dup2\n      lt\n      tag_121\n      jumpi\n      0x00\n      dup1\n      revert\n    tag_121:\n      swap1\n      0x00\n      mstore\n      keccak256(0x00, 0x20)\n      swap1\n      0x06\n      mul\n      add\n      0x00\n      swap2\n      pop\n      swap1\n      pop\n      dup1\n      0x00\n      add\n      sload\n      swap1\n      dup1\n      0x01\n      add\n      dup1\n      sload\n      tag_123\n      swap1\n      tag_107\n      jump\t// in\n    tag_123:\n      dup1\n      0x1f\n      add\n      0x20\n      dup1\n      swap2\n      div\n      mul\n      0x20\n      add\n      mload(0x40)\n      swap1\n      dup2\n      add\n      0x40\n      mstore\n      dup1\n      swap3\n      swap2\n      swap1\n      dup2\n      dup2\n      mstore\n      0x20\n      add\n      dup3\n      dup1\n      sload\n      tag_124\n      swap1\n      tag_107\n      jump\t// in\n    tag_124:\n      dup1\n      iszero\n      tag_125\n      jumpi\n      dup1\n      0x1f\n      lt\n      tag_126\n      jumpi\n      0x0100\n      dup1\n      dup4\n      sload\n      div\n      mul\n      dup4\n      mstore\n      swap2\n      0x20\n      add\n      swap2\n      jump(tag_125)\n    tag_126:\n      dup3\n      add\n      swap2\n      swap1\n      0x00\n      mstore\n      keccak256(0x00, 0x20)\n      swap1\n    tag_127:\n      dup2\n      sload\n      dup2\n      mstore\n      swap1\n      0x01\n      add\n      swap1\n      0x20\n      add\n      dup1\n      dup4\n      gt\n      tag_127\n      jumpi\n      dup3\n      swap1\n      sub\n      0x1f\n      and\n      dup3\n      add\n      swap2\n    tag_125:\n      pop\n      pop\n      pop\n      pop\n      pop\n      swap1\n      dup1\n      0x02\n      add\n      dup1\n      sload\n      tag_128\n      swap1\n      tag_107\n      jump\t// in\n    tag_128:\n      dup1\n      0x1f\n      add\n      0x20\n      dup1\n      swap2\n      div\n      mul\n      0x20\n      add\n      mload(0x40)\n      swap1\n      dup2\n      add\n      0x40\n      mstore\n      dup1\n      swap3\n      swap2\n      swap1\n      dup2\n      dup2\n      mstore\n      0x20\n      add\n      dup3\n      dup1\n      sload\n      tag_129\n      swap1\n      tag_107\n      jump\t// in\n    tag_129:\n      dup1\n      iszero\n      tag_130\n      jumpi\n      dup1\n      0x1f\n      lt\n      tag_131\n      jumpi\n      0x0100\n      dup1\n      dup4\n      sload\n      div\n      mul\n      dup4\n      mstore\n      swap2\n      0x20\n      add\n      swap2\n      jump(tag_130)\n    tag_131:\n      dup3\n      add\n      swap2\n      swap1\n      0x00\n      mstore\n      keccak256(0x00, 0x20)\n      swap1\n    tag_132:\n      dup2\n      sload\n      dup2\n      mstore\n      swap1\n      0x01\n      add\n      swap1\n      0x20\n      add\n      dup1\n      dup4\n      gt\n      tag_132\n      jumpi\n      dup3\n      swap1\n      sub\n      0x1f\n      and\n      dup3\n      add\n      swap2\n    tag_130:\n      pop\n      pop\n      pop\n      pop\n      pop\n      swap1\n      dup1\n      0x03\n      add\n      0x00\n      swap1\n      sload\n      swap1\n      0x0100\n      exp\n      swap1\n      div\n      0xffffffff\n      and\n      swap1\n      dup1\n      0x04\n      add\n      sload\n      swap1\n      dup1\n      0x05\n      add\n      0x00\n      swap1\n      sload\n      swap1\n      0x0100\n      exp\n      swap1\n      div\n      0xffffffff\n      and\n      swap1\n      dup1\n      0x05\n      add\n      0x04\n      swap1\n      sload\n      swap1\n      0x0100\n      exp\n      swap1\n      div\n      0xff\n      and\n      swap1\n      pop\n      dup8\n      jump\t// out\n        /* \"contracts/Invoice.sol\":568:618  mapping(uint => Invoice) public invoiceIdtoInvoice */\n    tag_39:\n      mstore(0x20, 0x03)\n      dup1\n      0x00\n      mstore\n      keccak256(0x00, 0x40)\n      0x00\n      swap2\n      pop\n      swap1\n      pop\n      dup1\n      0x00\n      add\n      sload\n      swap1\n      dup1\n      0x01\n      add\n      dup1\n      sload\n      tag_133\n      swap1\n      tag_107\n      jump\t// in\n    tag_133:\n      dup1\n      0x1f\n      add\n      0x20\n      dup1\n      swap2\n      div\n      mul\n      0x20\n      add\n      mload(0x40)\n      swap1\n      dup2\n      add\n      0x40\n      mstore\n      dup1\n      swap3\n      swap2\n      swap1\n      dup2\n      dup2\n      mstore\n      0x20\n      add\n      dup3\n      dup1\n      sload\n      tag_134\n      swap1\n      tag_107\n      jump\t// in\n    tag_134:\n      dup1\n      iszero\n      tag_135\n      jumpi\n      dup1\n      0x1f\n      lt\n      tag_136\n      jumpi\n      0x0100\n      dup1\n      dup4\n      sload\n      div\n      mul\n      dup4\n      mstore\n      swap2\n      0x20\n      add\n      swap2\n      jump(tag_135)\n    tag_136:\n      dup3\n      add\n      swap2\n      swap1\n      0x00\n      mstore\n      keccak256(0x00, 0x20)\n      swap1\n    tag_137:\n      dup2\n      sload\n      dup2\n      mstore\n      swap1\n      0x01\n      add\n      swap1\n      0x20\n      add\n      dup1\n      dup4\n      gt\n      tag_137\n      jumpi\n      dup3\n      swap1\n      sub\n      0x1f\n      and\n      dup3\n      add\n      swap2\n    tag_135:\n      pop\n      pop\n      pop\n      pop\n      pop\n      swap1\n      dup1\n      0x02\n      add\n      dup1\n      sload\n      tag_138\n      swap1\n      tag_107\n      jump\t// in\n    tag_138:\n      dup1\n      0x1f\n      add\n      0x20\n      dup1\n      swap2\n      div\n      mul\n      0x20\n      add\n      mload(0x40)\n      swap1\n      dup2\n      add\n      0x40\n      mstore\n      dup1\n      swap3\n      swap2\n      swap1\n      dup2\n      dup2\n      mstore\n      0x20\n      add\n      dup3\n      dup1\n      sload\n      tag_139\n      swap1\n      tag_107\n      jump\t// in\n    tag_139:\n      dup1\n      iszero\n      tag_140\n      jumpi\n      dup1\n      0x1f\n      lt\n      tag_141\n      jumpi\n      0x0100\n      dup1\n      dup4\n      sload\n      div\n      mul\n      dup4\n      mstore\n      swap2\n      0x20\n      add\n      swap2\n      jump(tag_140)\n    tag_141:\n      dup3\n      add\n      swap2\n      swap1\n      0x00\n      mstore\n      keccak256(0x00, 0x20)\n      swap1\n    tag_142:\n      dup2\n      sload\n      dup2\n      mstore\n      swap1\n      0x01\n      add\n      swap1\n      0x20\n      add\n      dup1\n      dup4\n      gt\n      tag_142\n      jumpi\n      dup3\n      swap1\n      sub\n      0x1f\n      and\n      dup3\n      add\n      swap2\n    tag_140:\n      pop\n      pop\n      pop\n      pop\n      pop\n      swap1\n      dup1\n      0x03\n      add\n      0x00\n      swap1\n      sload\n      swap1\n      0x0100\n      exp\n      swap1\n      div\n      0xffffffff\n      and\n      swap1\n      dup1\n      0x04\n      add\n      sload\n      swap1\n      dup1\n      0x05\n      add\n      0x00\n      swap1\n      sload\n      swap1\n      0x0100\n      exp\n      swap1\n      div\n      0xffffffff\n      and\n      swap1\n      dup1\n      0x05\n      add\n      0x04\n      swap1\n      sload\n      swap1\n      0x0100\n      exp\n      swap1\n      div\n      0xff\n      and\n      swap1\n      pop\n      dup8\n      jump\t// out\n        /* \"@chainlink/contracts/src/v0.8/ConfirmedOwnerWithProposal.sol\":1016:1281  function acceptOwnership() external override {... */\n    tag_42:\n        /* \"@chainlink/contracts/src/v0.8/ConfirmedOwnerWithProposal.sol\":1089:1103  s_pendingOwner */\n      0x01\n      0x00\n      swap1\n      sload\n      swap1\n      0x0100\n      exp\n      swap1\n      div\n      0xffffffffffffffffffffffffffffffffffffffff\n      and\n        /* \"@chainlink/contracts/src/v0.8/ConfirmedOwnerWithProposal.sol\":1075:1103  msg.sender == s_pendingOwner */\n      0xffffffffffffffffffffffffffffffffffffffff\n      and\n        /* \"@chainlink/contracts/src/v0.8/ConfirmedOwnerWithProposal.sol\":1075:1085  msg.sender */\n      caller\n        /* \"@chainlink/contracts/src/v0.8/ConfirmedOwnerWithProposal.sol\":1075:1103  msg.sender == s_pendingOwner */\n      0xffffffffffffffffffffffffffffffffffffffff\n      and\n      eq\n        /* \"@chainlink/contracts/src/v0.8/ConfirmedOwnerWithProposal.sol\":1067:1130  require(msg.sender == s_pendingOwner, \"Must be proposed owner\") */\n      tag_144\n      jumpi\n      mload(0x40)\n      0x08c379a000000000000000000000000000000000000000000000000000000000\n      dup2\n      mstore\n      0x04\n      add\n      tag_145\n      swap1\n      tag_146\n      jump\t// in\n    tag_145:\n      mload(0x40)\n      dup1\n      swap2\n      sub\n      swap1\n      revert\n    tag_144:\n        /* \"@chainlink/contracts/src/v0.8/ConfirmedOwnerWithProposal.sol\":1137:1153  address oldOwner */\n      0x00\n        /* \"@chainlink/contracts/src/v0.8/ConfirmedOwnerWithProposal.sol\":1156:1163  s_owner */\n      dup1\n      0x00\n      swap1\n      sload\n      swap1\n      0x0100\n      exp\n      swap1\n      div\n      0xffffffffffffffffffffffffffffffffffffffff\n      and\n        /* \"@chainlink/contracts/src/v0.8/ConfirmedOwnerWithProposal.sol\":1137:1163  address oldOwner = s_owner */\n      swap1\n      pop\n        /* \"@chainlink/contracts/src/v0.8/ConfirmedOwnerWithProposal.sol\":1179:1189  msg.sender */\n      caller\n        /* \"@chainlink/contracts/src/v0.8/ConfirmedOwnerWithProposal.sol\":1169:1176  s_owner */\n      0x00\n      dup1\n        /* \"@chainlink/contracts/src/v0.8/ConfirmedOwnerWithProposal.sol\":1169:1189  s_owner = msg.sender */\n      0x0100\n      exp\n      dup2\n      sload\n      dup2\n      0xffffffffffffffffffffffffffffffffffffffff\n      mul\n      not\n      and\n      swap1\n      dup4\n      0xffffffffffffffffffffffffffffffffffffffff\n      and\n      mul\n      or\n      swap1\n      sstore\n      pop\n        /* \"@chainlink/contracts/src/v0.8/ConfirmedOwnerWithProposal.sol\":1220:1221  0 */\n      0x00\n        /* \"@chainlink/contracts/src/v0.8/ConfirmedOwnerWithProposal.sol\":1195:1209  s_pendingOwner */\n      0x01\n      0x00\n        /* \"@chainlink/contracts/src/v0.8/ConfirmedOwnerWithProposal.sol\":1195:1222  s_pendingOwner = address(0) */\n      0x0100\n      exp\n      dup2\n      sload\n      dup2\n      0xffffffffffffffffffffffffffffffffffffffff\n      mul\n      not\n      and\n      swap1\n      dup4\n      0xffffffffffffffffffffffffffffffffffffffff\n      and\n      mul\n      or\n      swap1\n      sstore\n      pop\n        /* \"@chainlink/contracts/src/v0.8/ConfirmedOwnerWithProposal.sol\":1265:1275  msg.sender */\n      caller\n        /* \"@chainlink/contracts/src/v0.8/ConfirmedOwnerWithProposal.sol\":1234:1276  OwnershipTransferred(oldOwner, msg.sender) */\n      0xffffffffffffffffffffffffffffffffffffffff\n      and\n        /* \"@chainlink/contracts/src/v0.8/ConfirmedOwnerWithProposal.sol\":1255:1263  oldOwner */\n      dup2\n        /* \"@chainlink/contracts/src/v0.8/ConfirmedOwnerWithProposal.sol\":1234:1276  OwnershipTransferred(oldOwner, msg.sender) */\n      0xffffffffffffffffffffffffffffffffffffffff\n      and\n      0x8be0079c531659141344cd1fd0a4f28419497f9722a3daafe3b4186f6b6457e0\n      mload(0x40)\n      mload(0x40)\n      dup1\n      swap2\n      sub\n      swap1\n      log3\n        /* \"@chainlink/contracts/src/v0.8/ConfirmedOwnerWithProposal.sol\":1061:1281  {... */\n      pop\n        /* \"@chainlink/contracts/src/v0.8/ConfirmedOwnerWithProposal.sol\":1016:1281  function acceptOwnership() external override {... */\n      jump\t// out\n        /* \"contracts/Invoice.sol\":2270:2763  function getInvoicesByPan(string memory _buyerPAN) external view returns(Invoice[] memory) {... */\n    tag_45:\n        /* \"contracts/Invoice.sol\":2343:2359  Invoice[] memory */\n      0x60\n        /* \"contracts/Invoice.sol\":2372:2395  Invoice[] memory result */\n      0x00\n        /* \"contracts/Invoice.sol\":2412:2425  buyerPANCount */\n      0x04\n        /* \"contracts/Invoice.sol\":2426:2435  _buyerPAN */\n      dup4\n        /* \"contracts/Invoice.sol\":2412:2436  buyerPANCount[_buyerPAN] */\n      mload(0x40)\n      tag_148\n      swap2\n      swap1\n      tag_76\n      jump\t// in\n    tag_148:\n      swap1\n      dup2\n      mstore\n      0x20\n      add\n      mload(0x40)\n      dup1\n      swap2\n      sub\n      swap1\n      keccak256\n      sload\n        /* \"contracts/Invoice.sol\":2398:2437  new Invoice[](buyerPANCount[_buyerPAN]) */\n      0xffffffffffffffff\n      dup2\n      gt\n      iszero\n      tag_149\n      jumpi\n      tag_150\n      tag_151\n      jump\t// in\n    tag_150:\n    tag_149:\n      mload(0x40)\n      swap1\n      dup1\n      dup3\n      mstore\n      dup1\n      0x20\n      mul\n      0x20\n      add\n      dup3\n      add\n      0x40\n      mstore\n      dup1\n      iszero\n      tag_152\n      jumpi\n      dup2\n      0x20\n      add\n    tag_153:\n      tag_154\n      tag_85\n      jump\t// in\n    tag_154:\n      dup2\n      mstore\n      0x20\n      add\n      swap1\n      0x01\n      swap1\n      sub\n      swap1\n      dup2\n      tag_153\n      jumpi\n      swap1\n      pop\n    tag_152:\n      pop\n        /* \"contracts/Invoice.sol\":2372:2437  Invoice[] memory result = new Invoice[](buyerPANCount[_buyerPAN]) */\n      swap1\n      pop\n        /* \"contracts/Invoice.sol\":2448:2460  uint counter */\n      0x00\n        /* \"contracts/Invoice.sol\":2480:2486  uint i */\n      dup1\n        /* \"contracts/Invoice.sol\":2475:2732  for (uint i = 0; i < Invoices.length; i++) {... */\n    tag_155:\n        /* \"contracts/Invoice.sol\":2496:2504  Invoices */\n      0x05\n        /* \"contracts/Invoice.sol\":2496:2511  Invoices.length */\n      dup1\n      sload\n      swap1\n      pop\n        /* \"contracts/Invoice.sol\":2492:2493  i */\n      dup2\n        /* \"contracts/Invoice.sol\":2492:2511  i < Invoices.length */\n      lt\n        /* \"contracts/Invoice.sol\":2475:2732  for (uint i = 0; i < Invoices.length; i++) {... */\n      iszero\n      tag_156\n      jumpi\n        /* \"contracts/Invoice.sol\":2617:2626  _buyerPAN */\n      dup5\n        /* \"contracts/Invoice.sol\":2600:2627  abi.encodePacked(_buyerPAN) */\n      add(0x20, mload(0x40))\n      tag_158\n      swap2\n      swap1\n      tag_76\n      jump\t// in\n    tag_158:\n      mload(0x40)\n      0x20\n      dup2\n      dup4\n      sub\n      sub\n      dup2\n      mstore\n      swap1\n      0x40\n      mstore\n        /* \"contracts/Invoice.sol\":2590:2628  keccak256(abi.encodePacked(_buyerPAN)) */\n      dup1\n      mload\n      swap1\n      0x20\n      add\n      keccak256\n        /* \"contracts/Invoice.sol\":2564:2572  Invoices */\n      0x05\n        /* \"contracts/Invoice.sol\":2573:2574  i */\n      dup3\n        /* \"contracts/Invoice.sol\":2564:2575  Invoices[i] */\n      dup2\n      sload\n      dup2\n      lt\n      tag_159\n      jumpi\n      tag_160\n      tag_92\n      jump\t// in\n    tag_160:\n    tag_159:\n      swap1\n      0x00\n      mstore\n      keccak256(0x00, 0x20)\n      swap1\n      0x06\n      mul\n      add\n        /* \"contracts/Invoice.sol\":2564:2584  Invoices[i].buyerPAN */\n      0x01\n      add\n        /* \"contracts/Invoice.sol\":2547:2585  abi.encodePacked(Invoices[i].buyerPAN) */\n      add(0x20, mload(0x40))\n      tag_162\n      swap2\n      swap1\n      tag_163\n      jump\t// in\n    tag_162:\n      mload(0x40)\n      0x20\n      dup2\n      dup4\n      sub\n      sub\n      dup2\n      mstore\n      swap1\n      0x40\n      mstore\n        /* \"contracts/Invoice.sol\":2537:2586  keccak256(abi.encodePacked(Invoices[i].buyerPAN)) */\n      dup1\n      mload\n      swap1\n      0x20\n      add\n      keccak256\n        /* \"contracts/Invoice.sol\":2537:2628  keccak256(abi.encodePacked(Invoices[i].buyerPAN)) == keccak256(abi.encodePacked(_buyerPAN)) */\n      eq\n        /* \"contracts/Invoice.sol\":2533:2721  if (keccak256(abi.encodePacked(Invoices[i].buyerPAN)) == keccak256(abi.encodePacked(_buyerPAN))) {... */\n      iszero\n      tag_164\n      jumpi\n        /* \"contracts/Invoice.sol\":2666:2674  Invoices */\n      0x05\n        /* \"contracts/Invoice.sol\":2675:2676  i */\n      dup2\n        /* \"contracts/Invoice.sol\":2666:2677  Invoices[i] */\n      dup2\n      sload\n      dup2\n      lt\n      tag_165\n      jumpi\n      tag_166\n      tag_92\n      jump\t// in\n    tag_166:\n    tag_165:\n      swap1\n      0x00\n      mstore\n      keccak256(0x00, 0x20)\n      swap1\n      0x06\n      mul\n      add\n        /* \"contracts/Invoice.sol\":2649:2677  result[counter] =Invoices[i] */\n      mload(0x40)\n      dup1\n      0xe0\n      add\n      0x40\n      mstore\n      swap1\n      dup2\n      0x00\n      dup3\n      add\n      sload\n      dup2\n      mstore\n      0x20\n      add\n      0x01\n      dup3\n      add\n      dup1\n      sload\n      tag_168\n      swap1\n      tag_107\n      jump\t// in\n    tag_168:\n      dup1\n      0x1f\n      add\n      0x20\n      dup1\n      swap2\n      div\n      mul\n      0x20\n      add\n      mload(0x40)\n      swap1\n      dup2\n      add\n      0x40\n      mstore\n      dup1\n      swap3\n      swap2\n      swap1\n      dup2\n      dup2\n      mstore\n      0x20\n      add\n      dup3\n      dup1\n      sload\n      tag_169\n      swap1\n      tag_107\n      jump\t// in\n    tag_169:\n      dup1\n      iszero\n      tag_170\n      jumpi\n      dup1\n      0x1f\n      lt\n      tag_171\n      jumpi\n      0x0100\n      dup1\n      dup4\n      sload\n      div\n      mul\n      dup4\n      mstore\n      swap2\n      0x20\n      add\n      swap2\n      jump(tag_170)\n    tag_171:\n      dup3\n      add\n      swap2\n      swap1\n      0x00\n      mstore\n      keccak256(0x00, 0x20)\n      swap1\n    tag_172:\n      dup2\n      sload\n      dup2\n      mstore\n      swap1\n      0x01\n      add\n      swap1\n      0x20\n      add\n      dup1\n      dup4\n      gt\n      tag_172\n      jumpi\n      dup3\n      swap1\n      sub\n      0x1f\n      and\n      dup3\n      add\n      swap2\n    tag_170:\n      pop\n      pop\n      pop\n      pop\n      pop\n      dup2\n      mstore\n      0x20\n      add\n      0x02\n      dup3\n      add\n      dup1\n      sload\n      tag_173\n      swap1\n      tag_107\n      jump\t// in\n    tag_173:\n      dup1\n      0x1f\n      add\n      0x20\n      dup1\n      swap2\n      div\n      mul\n      0x20\n      add\n      mload(0x40)\n      swap1\n      dup2\n      add\n      0x40\n      mstore\n      dup1\n      swap3\n      swap2\n      swap1\n      dup2\n      dup2\n      mstore\n      0x20\n      add\n      dup3\n      dup1\n      sload\n      tag_174\n      swap1\n      tag_107\n      jump\t// in\n    tag_174:\n      dup1\n      iszero\n      tag_175\n      jumpi\n      dup1\n      0x1f\n      lt\n      tag_176\n      jumpi\n      0x0100\n      dup1\n      dup4\n      sload\n      div\n      mul\n      dup4\n      mstore\n      swap2\n      0x20\n      add\n      swap2\n      jump(tag_175)\n    tag_176:\n      dup3\n      add\n      swap2\n      swap1\n      0x00\n      mstore\n      keccak256(0x00, 0x20)\n      swap1\n    tag_177:\n      dup2\n      sload\n      dup2\n      mstore\n      swap1\n      0x01\n      add\n      swap1\n      0x20\n      add\n      dup1\n      dup4\n      gt\n      tag_177\n      jumpi\n      dup3\n      swap1\n      sub\n      0x1f\n      and\n      dup3\n      add\n      swap2\n    tag_175:\n      pop\n      pop\n      pop\n      pop\n      pop\n      dup2\n      mstore\n      0x20\n      add\n      0x03\n      dup3\n      add\n      0x00\n      swap1\n      sload\n      swap1\n      0x0100\n      exp\n      swap1\n      div\n      0xffffffff\n      and\n      0xffffffff\n      and\n      0xffffffff\n      and\n      dup2\n      mstore\n      0x20\n      add\n      0x04\n      dup3\n      add\n      sload\n      dup2\n      mstore\n      0x20\n      add\n      0x05\n      dup3\n      add\n      0x00\n      swap1\n      sload\n      swap1\n      0x0100\n      exp\n      swap1\n      div\n      0xffffffff\n      and\n      0xffffffff\n      and\n      0xffffffff\n      and\n      dup2\n      mstore\n      0x20\n      add\n      0x05\n      dup3\n      add\n      0x04\n      swap1\n      sload\n      swap1\n      0x0100\n      exp\n      swap1\n      div\n      0xff\n      and\n      0x01\n      dup2\n      gt\n      iszero\n      tag_178\n      jumpi\n      tag_179\n      tag_69\n      jump\t// in\n    tag_179:\n    tag_178:\n      0x01\n      dup2\n      gt\n      iszero\n      tag_180\n      jumpi\n      tag_181\n      tag_69\n      jump\t// in\n    tag_181:\n    tag_180:\n      dup2\n      mstore\n      pop\n      pop\n        /* \"contracts/Invoice.sol\":2649:2655  result */\n      dup4\n        /* \"contracts/Invoice.sol\":2656:2663  counter */\n      dup4\n        /* \"contracts/Invoice.sol\":2649:2664  result[counter] */\n      dup2\n      mload\n      dup2\n      lt\n      tag_182\n      jumpi\n      tag_183\n      tag_92\n      jump\t// in\n    tag_183:\n    tag_182:\n      0x20\n      mul\n      0x20\n      add\n      add\n        /* \"contracts/Invoice.sol\":2649:2677  result[counter] =Invoices[i] */\n      dup2\n      swap1\n      mstore\n      pop\n        /* \"contracts/Invoice.sol\":2696:2705  counter++ */\n      dup2\n      dup1\n      tag_184\n      swap1\n      tag_78\n      jump\t// in\n    tag_184:\n      swap3\n      pop\n      pop\n        /* \"contracts/Invoice.sol\":2533:2721  if (keccak256(abi.encodePacked(Invoices[i].buyerPAN)) == keccak256(abi.encodePacked(_buyerPAN))) {... */\n    tag_164:\n        /* \"contracts/Invoice.sol\":2513:2516  i++ */\n      dup1\n      dup1\n      tag_185\n      swap1\n      tag_78\n      jump\t// in\n    tag_185:\n      swap2\n      pop\n      pop\n        /* \"contracts/Invoice.sol\":2475:2732  for (uint i = 0; i < Invoices.length; i++) {... */\n      jump(tag_155)\n    tag_156:\n      pop\n        /* \"contracts/Invoice.sol\":2749:2755  result */\n      dup2\n        /* \"contracts/Invoice.sol\":2742:2755  return result */\n      swap3\n      pop\n      pop\n      pop\n        /* \"contracts/Invoice.sol\":2270:2763  function getInvoicesByPan(string memory _buyerPAN) external view returns(Invoice[] memory) {... */\n      swap2\n      swap1\n      pop\n      jump\t// out\n        /* \"@chainlink/contracts/src/v0.8/ConfirmedOwnerWithProposal.sol\":1332:1413  function owner() public view override returns (address) {... */\n    tag_49:\n        /* \"@chainlink/contracts/src/v0.8/ConfirmedOwnerWithProposal.sol\":1379:1386  address */\n      0x00\n        /* \"@chainlink/contracts/src/v0.8/ConfirmedOwnerWithProposal.sol\":1401:1408  s_owner */\n      dup1\n      0x00\n      swap1\n      sload\n      swap1\n      0x0100\n      exp\n      swap1\n      div\n      0xffffffffffffffffffffffffffffffffffffffff\n      and\n        /* \"@chainlink/contracts/src/v0.8/ConfirmedOwnerWithProposal.sol\":1394:1408  return s_owner */\n      swap1\n      pop\n        /* \"@chainlink/contracts/src/v0.8/ConfirmedOwnerWithProposal.sol\":1332:1413  function owner() public view override returns (address) {... */\n      swap1\n      jump\t// out\n        /* \"contracts/Invoice.sol\":1391:1542  function getPaymentStatus(uint _invoiceId) external view returns(paymentStatuses){... */\n    tag_54:\n        /* \"contracts/Invoice.sol\":1456:1471  paymentStatuses */\n      0x00\n        /* \"contracts/Invoice.sol\":1490:1508  invoiceIdtoInvoice */\n      0x03\n        /* \"contracts/Invoice.sol\":1490:1520  invoiceIdtoInvoice[_invoiceId] */\n      0x00\n        /* \"contracts/Invoice.sol\":1509:1519  _invoiceId */\n      dup4\n        /* \"contracts/Invoice.sol\":1490:1520  invoiceIdtoInvoice[_invoiceId] */\n      dup2\n      mstore\n      0x20\n      add\n      swap1\n      dup2\n      mstore\n      0x20\n      add\n      0x00\n      keccak256\n        /* \"contracts/Invoice.sol\":1490:1534  invoiceIdtoInvoice[_invoiceId].paymentStatus */\n      0x05\n      add\n      0x04\n      swap1\n      sload\n      swap1\n      0x0100\n      exp\n      swap1\n      div\n      0xff\n      and\n        /* \"contracts/Invoice.sol\":1483:1534  return invoiceIdtoInvoice[_invoiceId].paymentStatus */\n      swap1\n      pop\n        /* \"contracts/Invoice.sol\":1391:1542  function getPaymentStatus(uint _invoiceId) external view returns(paymentStatuses){... */\n      swap2\n      swap1\n      pop\n      jump\t// out\n        /* \"@chainlink/contracts/src/v0.8/ConfirmedOwnerWithProposal.sol\":826:924  function transferOwnership(address to) public override onlyOwner {... */\n    tag_60:\n        /* \"@chainlink/contracts/src/v0.8/ConfirmedOwnerWithProposal.sol\":1956:1976  _validateOwnership() */\n      tag_189\n        /* \"@chainlink/contracts/src/v0.8/ConfirmedOwnerWithProposal.sol\":1956:1974  _validateOwnership */\n      tag_63\n        /* \"@chainlink/contracts/src/v0.8/ConfirmedOwnerWithProposal.sol\":1956:1976  _validateOwnership() */\n      jump\t// in\n    tag_189:\n        /* \"@chainlink/contracts/src/v0.8/ConfirmedOwnerWithProposal.sol\":897:919  _transferOwnership(to) */\n      tag_191\n        /* \"@chainlink/contracts/src/v0.8/ConfirmedOwnerWithProposal.sol\":916:918  to */\n      dup2\n        /* \"@chainlink/contracts/src/v0.8/ConfirmedOwnerWithProposal.sol\":897:915  _transferOwnership */\n      tag_192\n        /* \"@chainlink/contracts/src/v0.8/ConfirmedOwnerWithProposal.sol\":897:919  _transferOwnership(to) */\n      jump\t// in\n    tag_191:\n        /* \"@chainlink/contracts/src/v0.8/ConfirmedOwnerWithProposal.sol\":826:924  function transferOwnership(address to) public override onlyOwner {... */\n      pop\n      jump\t// out\n        /* \"@chainlink/contracts/src/v0.8/ConfirmedOwnerWithProposal.sol\":1730:1841  function _validateOwnership() internal view {... */\n    tag_63:\n        /* \"@chainlink/contracts/src/v0.8/ConfirmedOwnerWithProposal.sol\":1802:1809  s_owner */\n      0x00\n      dup1\n      sload\n      swap1\n      0x0100\n      exp\n      swap1\n      div\n      0xffffffffffffffffffffffffffffffffffffffff\n      and\n        /* \"@chainlink/contracts/src/v0.8/ConfirmedOwnerWithProposal.sol\":1788:1809  msg.sender == s_owner */\n      0xffffffffffffffffffffffffffffffffffffffff\n      and\n        /* \"@chainlink/contracts/src/v0.8/ConfirmedOwnerWithProposal.sol\":1788:1798  msg.sender */\n      caller\n        /* \"@chainlink/contracts/src/v0.8/ConfirmedOwnerWithProposal.sol\":1788:1809  msg.sender == s_owner */\n      0xffffffffffffffffffffffffffffffffffffffff\n      and\n      eq\n        /* \"@chainlink/contracts/src/v0.8/ConfirmedOwnerWithProposal.sol\":1780:1836  require(msg.sender == s_owner, \"Only callable by owner\") */\n      tag_194\n      jumpi\n      mload(0x40)\n      0x08c379a000000000000000000000000000000000000000000000000000000000\n      dup2\n      mstore\n      0x04\n      add\n      tag_195\n      swap1\n      tag_196\n      jump\t// in\n    tag_195:\n      mload(0x40)\n      dup1\n      swap2\n      sub\n      swap1\n      revert\n    tag_194:\n        /* \"@chainlink/contracts/src/v0.8/ConfirmedOwnerWithProposal.sol\":1730:1841  function _validateOwnership() internal view {... */\n      jump\t// out\n        /* \"contracts/Invoice.sol\":2830:3359  function _genratePseudoRandomInvoiceId(string memory _buyerPAN,string memory _sellerPAN,uint32 _invoiceAmount) private returns(uint){... */\n    tag_66:\n        /* \"contracts/Invoice.sol\":2957:2961  uint */\n      0x00\n        /* \"contracts/Invoice.sol\":2973:2982  randNonce */\n      0x02\n      0x00\n        /* \"contracts/Invoice.sol\":2973:2984  randNonce++ */\n      dup2\n      sload\n      dup1\n      swap3\n      swap2\n      swap1\n      tag_198\n      swap1\n      tag_78\n      jump\t// in\n    tag_198:\n      swap2\n      swap1\n      pop\n      sstore\n      pop\n        /* \"contracts/Invoice.sol\":3344:3351  10 ** 8 */\n      0x05f5e100\n        /* \"contracts/Invoice.sol\":3036:3045  _buyerPAN */\n      dup5\n        /* \"contracts/Invoice.sol\":3096:3106  _sellerPAN */\n      dup5\n        /* \"contracts/Invoice.sol\":3157:3171  _invoiceAmount */\n      dup5\n        /* \"contracts/Invoice.sol\":3222:3232  msg.sender */\n      caller\n        /* \"contracts/Invoice.sol\":3283:3292  randNonce */\n      sload(0x02)\n        /* \"contracts/Invoice.sol\":3018:3339  abi.encodePacked( _buyerPAN,... */\n      add(0x20, mload(0x40))\n      tag_199\n      swap6\n      swap5\n      swap4\n      swap3\n      swap2\n      swap1\n      tag_200\n      jump\t// in\n    tag_199:\n      mload(0x40)\n      0x20\n      dup2\n      dup4\n      sub\n      sub\n      dup2\n      mstore\n      swap1\n      0x40\n      mstore\n        /* \"contracts/Invoice.sol\":3008:3340  keccak256(abi.encodePacked( _buyerPAN,... */\n      dup1\n      mload\n      swap1\n      0x20\n      add\n      keccak256\n        /* \"contracts/Invoice.sol\":3003:3341  uint(keccak256(abi.encodePacked( _buyerPAN,... */\n      0x00\n      shr\n        /* \"contracts/Invoice.sol\":3003:3351  uint(keccak256(abi.encodePacked( _buyerPAN,... */\n      tag_201\n      swap2\n      swap1\n      tag_202\n      jump\t// in\n    tag_201:\n        /* \"contracts/Invoice.sol\":2996:3351  return uint(keccak256(abi.encodePacked( _buyerPAN,... */\n      swap1\n      pop\n        /* \"contracts/Invoice.sol\":2830:3359  function _genratePseudoRandomInvoiceId(string memory _buyerPAN,string memory _sellerPAN,uint32 _invoiceAmount) private returns(uint){... */\n      swap4\n      swap3\n      pop\n      pop\n      pop\n      jump\t// out\n        /* \"@chainlink/contracts/src/v0.8/ConfirmedOwnerWithProposal.sol\":1497:1685  function _transferOwnership(address to) private {... */\n    tag_192:\n        /* \"@chainlink/contracts/src/v0.8/ConfirmedOwnerWithProposal.sol\":1565:1575  msg.sender */\n      caller\n        /* \"@chainlink/contracts/src/v0.8/ConfirmedOwnerWithProposal.sol\":1559:1575  to != msg.sender */\n      0xffffffffffffffffffffffffffffffffffffffff\n      and\n        /* \"@chainlink/contracts/src/v0.8/ConfirmedOwnerWithProposal.sol\":1559:1561  to */\n      dup2\n        /* \"@chainlink/contracts/src/v0.8/ConfirmedOwnerWithProposal.sol\":1559:1575  to != msg.sender */\n      0xffffffffffffffffffffffffffffffffffffffff\n      and\n      eq\n      iszero\n        /* \"@chainlink/contracts/src/v0.8/ConfirmedOwnerWithProposal.sol\":1551:1603  require(to != msg.sender, \"Cannot transfer to self\") */\n      tag_204\n      jumpi\n      mload(0x40)\n      0x08c379a000000000000000000000000000000000000000000000000000000000\n      dup2\n      mstore\n      0x04\n      add\n      tag_205\n      swap1\n      tag_206\n      jump\t// in\n    tag_205:\n      mload(0x40)\n      dup1\n      swap2\n      sub\n      swap1\n      revert\n    tag_204:\n        /* \"@chainlink/contracts/src/v0.8/ConfirmedOwnerWithProposal.sol\":1627:1629  to */\n      dup1\n        /* \"@chainlink/contracts/src/v0.8/ConfirmedOwnerWithProposal.sol\":1610:1624  s_pendingOwner */\n      0x01\n      0x00\n        /* \"@chainlink/contracts/src/v0.8/ConfirmedOwnerWithProposal.sol\":1610:1629  s_pendingOwner = to */\n      0x0100\n      exp\n      dup2\n      sload\n      dup2\n      0xffffffffffffffffffffffffffffffffffffffff\n      mul\n      not\n      and\n      swap1\n      dup4\n      0xffffffffffffffffffffffffffffffffffffffff\n      and\n      mul\n      or\n      swap1\n      sstore\n      pop\n        /* \"@chainlink/contracts/src/v0.8/ConfirmedOwnerWithProposal.sol\":1677:1679  to */\n      dup1\n        /* \"@chainlink/contracts/src/v0.8/ConfirmedOwnerWithProposal.sol\":1641:1680  OwnershipTransferRequested(s_owner, to) */\n      0xffffffffffffffffffffffffffffffffffffffff\n      and\n        /* \"@chainlink/contracts/src/v0.8/ConfirmedOwnerWithProposal.sol\":1668:1675  s_owner */\n      0x00\n      dup1\n      sload\n      swap1\n      0x0100\n      exp\n      swap1\n      div\n      0xffffffffffffffffffffffffffffffffffffffff\n      and\n        /* \"@chainlink/contracts/src/v0.8/ConfirmedOwnerWithProposal.sol\":1641:1680  OwnershipTransferRequested(s_owner, to) */\n      0xffffffffffffffffffffffffffffffffffffffff\n      and\n      0xed8889f560326eb138920d842192f0eb3dd22b4f139c87a2c57538e05bae1278\n      mload(0x40)\n      mload(0x40)\n      dup1\n      swap2\n      sub\n      swap1\n      log3\n        /* \"@chainlink/contracts/src/v0.8/ConfirmedOwnerWithProposal.sol\":1497:1685  function _transferOwnership(address to) private {... */\n      pop\n      jump\t// out\n    tag_71:\n      dup3\n      dup1\n      sload\n      tag_207\n      swap1\n      tag_107\n      jump\t// in\n    tag_207:\n      swap1\n      0x00\n      mstore\n      keccak256(0x00, 0x20)\n      swap1\n      0x1f\n      add\n      0x20\n      swap1\n      div\n      dup2\n      add\n      swap3\n      dup3\n      tag_209\n      jumpi\n      0x00\n      dup6\n      sstore\n      jump(tag_208)\n    tag_209:\n      dup3\n      0x1f\n      lt\n      tag_210\n      jumpi\n      dup1\n      mload\n      not(0xff)\n      and\n      dup4\n      dup1\n      add\n      or\n      dup6\n      sstore\n      jump(tag_208)\n    tag_210:\n      dup3\n      dup1\n      add\n      0x01\n      add\n      dup6\n      sstore\n      dup3\n      iszero\n      tag_208\n      jumpi\n      swap2\n      dup3\n      add\n    tag_211:\n      dup3\n      dup2\n      gt\n      iszero\n      tag_212\n      jumpi\n      dup3\n      mload\n      dup3\n      sstore\n      swap2\n      0x20\n      add\n      swap2\n      swap1\n      0x01\n      add\n      swap1\n      jump(tag_211)\n    tag_212:\n    tag_208:\n      pop\n      swap1\n      pop\n      tag_213\n      swap2\n      swap1\n      tag_214\n      jump\t// in\n    tag_213:\n      pop\n      swap1\n      jump\t// out\n    tag_85:\n      mload(0x40)\n      dup1\n      0xe0\n      add\n      0x40\n      mstore\n      dup1\n      0x00\n      dup2\n      mstore\n      0x20\n      add\n      0x60\n      dup2\n      mstore\n      0x20\n      add\n      0x60\n      dup2\n      mstore\n      0x20\n      add\n      and(0xffffffff, 0x00)\n      dup2\n      mstore\n      0x20\n      add\n      0x00\n      dup2\n      mstore\n      0x20\n      add\n      and(0xffffffff, 0x00)\n      dup2\n      mstore\n      0x20\n      add\n      0x00\n      0x01\n      dup2\n      gt\n      iszero\n      tag_215\n      jumpi\n      tag_216\n      tag_69\n      jump\t// in\n    tag_216:\n    tag_215:\n      dup2\n      mstore\n      pop\n      swap1\n      jump\t// out\n    tag_214:\n    tag_217:\n      dup1\n      dup3\n      gt\n      iszero\n      tag_218\n      jumpi\n      0x00\n      dup2\n      0x00\n      swap1\n      sstore\n      pop\n      0x01\n      add\n      jump(tag_217)\n    tag_218:\n      pop\n      swap1\n      jump\t// out\n        /* \"#utility.yul\":7:82   */\n    tag_219:\n        /* \"#utility.yul\":40:46   */\n      0x00\n        /* \"#utility.yul\":73:75   */\n      0x40\n        /* \"#utility.yul\":67:76   */\n      mload\n        /* \"#utility.yul\":57:76   */\n      swap1\n      pop\n        /* \"#utility.yul\":7:82   */\n      swap1\n      jump\t// out\n        /* \"#utility.yul\":88:205   */\n    tag_220:\n        /* \"#utility.yul\":197:198   */\n      0x00\n        /* \"#utility.yul\":194:195   */\n      dup1\n        /* \"#utility.yul\":187:199   */\n      revert\n        /* \"#utility.yul\":211:328   */\n    tag_221:\n        /* \"#utility.yul\":320:321   */\n      0x00\n        /* \"#utility.yul\":317:318   */\n      dup1\n        /* \"#utility.yul\":310:322   */\n      revert\n        /* \"#utility.yul\":334:451   */\n    tag_222:\n        /* \"#utility.yul\":443:444   */\n      0x00\n        /* \"#utility.yul\":440:441   */\n      dup1\n        /* \"#utility.yul\":433:445   */\n      revert\n        /* \"#utility.yul\":457:574   */\n    tag_223:\n        /* \"#utility.yul\":566:567   */\n      0x00\n        /* \"#utility.yul\":563:564   */\n      dup1\n        /* \"#utility.yul\":556:568   */\n      revert\n        /* \"#utility.yul\":580:682   */\n    tag_224:\n        /* \"#utility.yul\":621:627   */\n      0x00\n        /* \"#utility.yul\":672:674   */\n      0x1f\n        /* \"#utility.yul\":668:675   */\n      not\n        /* \"#utility.yul\":663:665   */\n      0x1f\n        /* \"#utility.yul\":656:661   */\n      dup4\n        /* \"#utility.yul\":652:666   */\n      add\n        /* \"#utility.yul\":648:676   */\n      and\n        /* \"#utility.yul\":638:676   */\n      swap1\n      pop\n        /* \"#utility.yul\":580:682   */\n      swap2\n      swap1\n      pop\n      jump\t// out\n        /* \"#utility.yul\":688:868   */\n    tag_151:\n        /* \"#utility.yul\":736:813   */\n      0x4e487b7100000000000000000000000000000000000000000000000000000000\n        /* \"#utility.yul\":733:734   */\n      0x00\n        /* \"#utility.yul\":726:814   */\n      mstore\n        /* \"#utility.yul\":833:837   */\n      0x41\n        /* \"#utility.yul\":830:831   */\n      0x04\n        /* \"#utility.yul\":823:838   */\n      mstore\n        /* \"#utility.yul\":857:861   */\n      0x24\n        /* \"#utility.yul\":854:855   */\n      0x00\n        /* \"#utility.yul\":847:862   */\n      revert\n        /* \"#utility.yul\":874:1155   */\n    tag_225:\n        /* \"#utility.yul\":957:984   */\n      tag_299\n        /* \"#utility.yul\":979:983   */\n      dup3\n        /* \"#utility.yul\":957:984   */\n      tag_224\n      jump\t// in\n    tag_299:\n        /* \"#utility.yul\":949:955   */\n      dup2\n        /* \"#utility.yul\":945:985   */\n      add\n        /* \"#utility.yul\":1087:1093   */\n      dup2\n        /* \"#utility.yul\":1075:1085   */\n      dup2\n        /* \"#utility.yul\":1072:1094   */\n      lt\n        /* \"#utility.yul\":1051:1069   */\n      0xffffffffffffffff\n        /* \"#utility.yul\":1039:1049   */\n      dup3\n        /* \"#utility.yul\":1036:1070   */\n      gt\n        /* \"#utility.yul\":1033:1095   */\n      or\n        /* \"#utility.yul\":1030:1118   */\n      iszero\n      tag_300\n      jumpi\n        /* \"#utility.yul\":1098:1116   */\n      tag_301\n      tag_151\n      jump\t// in\n    tag_301:\n        /* \"#utility.yul\":1030:1118   */\n    tag_300:\n        /* \"#utility.yul\":1138:1148   */\n      dup1\n        /* \"#utility.yul\":1134:1136   */\n      0x40\n        /* \"#utility.yul\":1127:1149   */\n      mstore\n        /* \"#utility.yul\":917:1155   */\n      pop\n        /* \"#utility.yul\":874:1155   */\n      pop\n      pop\n      jump\t// out\n        /* \"#utility.yul\":1161:1290   */\n    tag_226:\n        /* \"#utility.yul\":1195:1201   */\n      0x00\n        /* \"#utility.yul\":1222:1242   */\n      tag_303\n      tag_219\n      jump\t// in\n    tag_303:\n        /* \"#utility.yul\":1212:1242   */\n      swap1\n      pop\n        /* \"#utility.yul\":1251:1284   */\n      tag_304\n        /* \"#utility.yul\":1279:1283   */\n      dup3\n        /* \"#utility.yul\":1271:1277   */\n      dup3\n        /* \"#utility.yul\":1251:1284   */\n      tag_225\n      jump\t// in\n    tag_304:\n        /* \"#utility.yul\":1161:1290   */\n      swap2\n      swap1\n      pop\n      jump\t// out\n        /* \"#utility.yul\":1296:1604   */\n    tag_227:\n        /* \"#utility.yul\":1358:1362   */\n      0x00\n        /* \"#utility.yul\":1448:1466   */\n      0xffffffffffffffff\n        /* \"#utility.yul\":1440:1446   */\n      dup3\n        /* \"#utility.yul\":1437:1467   */\n      gt\n        /* \"#utility.yul\":1434:1490   */\n      iszero\n      tag_306\n      jumpi\n        /* \"#utility.yul\":1470:1488   */\n      tag_307\n      tag_151\n      jump\t// in\n    tag_307:\n        /* \"#utility.yul\":1434:1490   */\n    tag_306:\n        /* \"#utility.yul\":1508:1537   */\n      tag_308\n        /* \"#utility.yul\":1530:1536   */\n      dup3\n        /* \"#utility.yul\":1508:1537   */\n      tag_224\n      jump\t// in\n    tag_308:\n        /* \"#utility.yul\":1500:1537   */\n      swap1\n      pop\n        /* \"#utility.yul\":1592:1596   */\n      0x20\n        /* \"#utility.yul\":1586:1590   */\n      dup2\n        /* \"#utility.yul\":1582:1597   */\n      add\n        /* \"#utility.yul\":1574:1597   */\n      swap1\n      pop\n        /* \"#utility.yul\":1296:1604   */\n      swap2\n      swap1\n      pop\n      jump\t// out\n        /* \"#utility.yul\":1610:1764   */\n    tag_228:\n        /* \"#utility.yul\":1694:1700   */\n      dup3\n        /* \"#utility.yul\":1689:1692   */\n      dup2\n        /* \"#utility.yul\":1684:1687   */\n      dup4\n        /* \"#utility.yul\":1671:1701   */\n      calldatacopy\n        /* \"#utility.yul\":1756:1757   */\n      0x00\n        /* \"#utility.yul\":1747:1753   */\n      dup4\n        /* \"#utility.yul\":1742:1745   */\n      dup4\n        /* \"#utility.yul\":1738:1754   */\n      add\n        /* \"#utility.yul\":1731:1758   */\n      mstore\n        /* \"#utility.yul\":1610:1764   */\n      pop\n      pop\n      pop\n      jump\t// out\n        /* \"#utility.yul\":1770:2182   */\n    tag_229:\n        /* \"#utility.yul\":1848:1853   */\n      0x00\n        /* \"#utility.yul\":1873:1939   */\n      tag_311\n        /* \"#utility.yul\":1889:1938   */\n      tag_312\n        /* \"#utility.yul\":1931:1937   */\n      dup5\n        /* \"#utility.yul\":1889:1938   */\n      tag_227\n      jump\t// in\n    tag_312:\n        /* \"#utility.yul\":1873:1939   */\n      tag_226\n      jump\t// in\n    tag_311:\n        /* \"#utility.yul\":1864:1939   */\n      swap1\n      pop\n        /* \"#utility.yul\":1962:1968   */\n      dup3\n        /* \"#utility.yul\":1955:1960   */\n      dup2\n        /* \"#utility.yul\":1948:1969   */\n      mstore\n        /* \"#utility.yul\":2000:2004   */\n      0x20\n        /* \"#utility.yul\":1993:1998   */\n      dup2\n        /* \"#utility.yul\":1989:2005   */\n      add\n        /* \"#utility.yul\":2038:2041   */\n      dup5\n        /* \"#utility.yul\":2029:2035   */\n      dup5\n        /* \"#utility.yul\":2024:2027   */\n      dup5\n        /* \"#utility.yul\":2020:2036   */\n      add\n        /* \"#utility.yul\":2017:2042   */\n      gt\n        /* \"#utility.yul\":2014:2126   */\n      iszero\n      tag_313\n      jumpi\n        /* \"#utility.yul\":2045:2124   */\n      tag_314\n      tag_223\n      jump\t// in\n    tag_314:\n        /* \"#utility.yul\":2014:2126   */\n    tag_313:\n        /* \"#utility.yul\":2135:2176   */\n      tag_315\n        /* \"#utility.yul\":2169:2175   */\n      dup5\n        /* \"#utility.yul\":2164:2167   */\n      dup3\n        /* \"#utility.yul\":2159:2162   */\n      dup6\n        /* \"#utility.yul\":2135:2176   */\n      tag_228\n      jump\t// in\n    tag_315:\n        /* \"#utility.yul\":1854:2182   */\n      pop\n        /* \"#utility.yul\":1770:2182   */\n      swap4\n      swap3\n      pop\n      pop\n      pop\n      jump\t// out\n        /* \"#utility.yul\":2202:2542   */\n    tag_230:\n        /* \"#utility.yul\":2258:2263   */\n      0x00\n        /* \"#utility.yul\":2307:2310   */\n      dup3\n        /* \"#utility.yul\":2300:2304   */\n      0x1f\n        /* \"#utility.yul\":2292:2298   */\n      dup4\n        /* \"#utility.yul\":2288:2305   */\n      add\n        /* \"#utility.yul\":2284:2311   */\n      slt\n        /* \"#utility.yul\":2274:2396   */\n      tag_317\n      jumpi\n        /* \"#utility.yul\":2315:2394   */\n      tag_318\n      tag_222\n      jump\t// in\n    tag_318:\n        /* \"#utility.yul\":2274:2396   */\n    tag_317:\n        /* \"#utility.yul\":2432:2438   */\n      dup2\n        /* \"#utility.yul\":2419:2439   */\n      calldataload\n        /* \"#utility.yul\":2457:2536   */\n      tag_319\n        /* \"#utility.yul\":2532:2535   */\n      dup5\n        /* \"#utility.yul\":2524:2530   */\n      dup3\n        /* \"#utility.yul\":2517:2521   */\n      0x20\n        /* \"#utility.yul\":2509:2515   */\n      dup7\n        /* \"#utility.yul\":2505:2522   */\n      add\n        /* \"#utility.yul\":2457:2536   */\n      tag_229\n      jump\t// in\n    tag_319:\n        /* \"#utility.yul\":2448:2536   */\n      swap2\n      pop\n        /* \"#utility.yul\":2264:2542   */\n      pop\n        /* \"#utility.yul\":2202:2542   */\n      swap3\n      swap2\n      pop\n      pop\n      jump\t// out\n        /* \"#utility.yul\":2548:2641   */\n    tag_231:\n        /* \"#utility.yul\":2584:2591   */\n      0x00\n        /* \"#utility.yul\":2624:2634   */\n      0xffffffff\n        /* \"#utility.yul\":2617:2622   */\n      dup3\n        /* \"#utility.yul\":2613:2635   */\n      and\n        /* \"#utility.yul\":2602:2635   */\n      swap1\n      pop\n        /* \"#utility.yul\":2548:2641   */\n      swap2\n      swap1\n      pop\n      jump\t// out\n        /* \"#utility.yul\":2647:2767   */\n    tag_232:\n        /* \"#utility.yul\":2719:2742   */\n      tag_322\n        /* \"#utility.yul\":2736:2741   */\n      dup2\n        /* \"#utility.yul\":2719:2742   */\n      tag_231\n      jump\t// in\n    tag_322:\n        /* \"#utility.yul\":2712:2717   */\n      dup2\n        /* \"#utility.yul\":2709:2743   */\n      eq\n        /* \"#utility.yul\":2699:2761   */\n      tag_323\n      jumpi\n        /* \"#utility.yul\":2757:2758   */\n      0x00\n        /* \"#utility.yul\":2754:2755   */\n      dup1\n        /* \"#utility.yul\":2747:2759   */\n      revert\n        /* \"#utility.yul\":2699:2761   */\n    tag_323:\n        /* \"#utility.yul\":2647:2767   */\n      pop\n      jump\t// out\n        /* \"#utility.yul\":2773:2910   */\n    tag_233:\n        /* \"#utility.yul\":2818:2823   */\n      0x00\n        /* \"#utility.yul\":2856:2862   */\n      dup2\n        /* \"#utility.yul\":2843:2863   */\n      calldataload\n        /* \"#utility.yul\":2834:2863   */\n      swap1\n      pop\n        /* \"#utility.yul\":2872:2904   */\n      tag_325\n        /* \"#utility.yul\":2898:2903   */\n      dup2\n        /* \"#utility.yul\":2872:2904   */\n      tag_232\n      jump\t// in\n    tag_325:\n        /* \"#utility.yul\":2773:2910   */\n      swap3\n      swap2\n      pop\n      pop\n      jump\t// out\n        /* \"#utility.yul\":2916:3893   */\n    tag_16:\n        /* \"#utility.yul\":3012:3018   */\n      0x00\n        /* \"#utility.yul\":3020:3026   */\n      dup1\n        /* \"#utility.yul\":3028:3034   */\n      0x00\n        /* \"#utility.yul\":3077:3079   */\n      0x60\n        /* \"#utility.yul\":3065:3074   */\n      dup5\n        /* \"#utility.yul\":3056:3063   */\n      dup7\n        /* \"#utility.yul\":3052:3075   */\n      sub\n        /* \"#utility.yul\":3048:3080   */\n      slt\n        /* \"#utility.yul\":3045:3164   */\n      iszero\n      tag_327\n      jumpi\n        /* \"#utility.yul\":3083:3162   */\n      tag_328\n      tag_220\n      jump\t// in\n    tag_328:\n        /* \"#utility.yul\":3045:3164   */\n    tag_327:\n        /* \"#utility.yul\":3231:3232   */\n      0x00\n        /* \"#utility.yul\":3220:3229   */\n      dup5\n        /* \"#utility.yul\":3216:3233   */\n      add\n        /* \"#utility.yul\":3203:3234   */\n      calldataload\n        /* \"#utility.yul\":3261:3279   */\n      0xffffffffffffffff\n        /* \"#utility.yul\":3253:3259   */\n      dup2\n        /* \"#utility.yul\":3250:3280   */\n      gt\n        /* \"#utility.yul\":3247:3364   */\n      iszero\n      tag_329\n      jumpi\n        /* \"#utility.yul\":3283:3362   */\n      tag_330\n      tag_221\n      jump\t// in\n    tag_330:\n        /* \"#utility.yul\":3247:3364   */\n    tag_329:\n        /* \"#utility.yul\":3388:3451   */\n      tag_331\n        /* \"#utility.yul\":3443:3450   */\n      dup7\n        /* \"#utility.yul\":3434:3440   */\n      dup3\n        /* \"#utility.yul\":3423:3432   */\n      dup8\n        /* \"#utility.yul\":3419:3441   */\n      add\n        /* \"#utility.yul\":3388:3451   */\n      tag_230\n      jump\t// in\n    tag_331:\n        /* \"#utility.yul\":3378:3451   */\n      swap4\n      pop\n        /* \"#utility.yul\":3174:3461   */\n      pop\n        /* \"#utility.yul\":3528:3530   */\n      0x20\n        /* \"#utility.yul\":3517:3526   */\n      dup5\n        /* \"#utility.yul\":3513:3531   */\n      add\n        /* \"#utility.yul\":3500:3532   */\n      calldataload\n        /* \"#utility.yul\":3559:3577   */\n      0xffffffffffffffff\n        /* \"#utility.yul\":3551:3557   */\n      dup2\n        /* \"#utility.yul\":3548:3578   */\n      gt\n        /* \"#utility.yul\":3545:3662   */\n      iszero\n      tag_332\n      jumpi\n        /* \"#utility.yul\":3581:3660   */\n      tag_333\n      tag_221\n      jump\t// in\n    tag_333:\n        /* \"#utility.yul\":3545:3662   */\n    tag_332:\n        /* \"#utility.yul\":3686:3749   */\n      tag_334\n        /* \"#utility.yul\":3741:3748   */\n      dup7\n        /* \"#utility.yul\":3732:3738   */\n      dup3\n        /* \"#utility.yul\":3721:3730   */\n      dup8\n        /* \"#utility.yul\":3717:3739   */\n      add\n        /* \"#utility.yul\":3686:3749   */\n      tag_230\n      jump\t// in\n    tag_334:\n        /* \"#utility.yul\":3676:3749   */\n      swap3\n      pop\n        /* \"#utility.yul\":3471:3759   */\n      pop\n        /* \"#utility.yul\":3798:3800   */\n      0x40\n        /* \"#utility.yul\":3824:3876   */\n      tag_335\n        /* \"#utility.yul\":3868:3875   */\n      dup7\n        /* \"#utility.yul\":3859:3865   */\n      dup3\n        /* \"#utility.yul\":3848:3857   */\n      dup8\n        /* \"#utility.yul\":3844:3866   */\n      add\n        /* \"#utility.yul\":3824:3876   */\n      tag_233\n      jump\t// in\n    tag_335:\n        /* \"#utility.yul\":3814:3876   */\n      swap2\n      pop\n        /* \"#utility.yul\":3769:3886   */\n      pop\n        /* \"#utility.yul\":2916:3893   */\n      swap3\n      pop\n      swap3\n      pop\n      swap3\n      jump\t// out\n        /* \"#utility.yul\":3899:3976   */\n    tag_234:\n        /* \"#utility.yul\":3936:3943   */\n      0x00\n        /* \"#utility.yul\":3965:3970   */\n      dup2\n        /* \"#utility.yul\":3954:3970   */\n      swap1\n      pop\n        /* \"#utility.yul\":3899:3976   */\n      swap2\n      swap1\n      pop\n      jump\t// out\n        /* \"#utility.yul\":3982:4100   */\n    tag_235:\n        /* \"#utility.yul\":4069:4093   */\n      tag_338\n        /* \"#utility.yul\":4087:4092   */\n      dup2\n        /* \"#utility.yul\":4069:4093   */\n      tag_234\n      jump\t// in\n    tag_338:\n        /* \"#utility.yul\":4064:4067   */\n      dup3\n        /* \"#utility.yul\":4057:4094   */\n      mstore\n        /* \"#utility.yul\":3982:4100   */\n      pop\n      pop\n      jump\t// out\n        /* \"#utility.yul\":4106:4328   */\n    tag_19:\n        /* \"#utility.yul\":4199:4203   */\n      0x00\n        /* \"#utility.yul\":4237:4239   */\n      0x20\n        /* \"#utility.yul\":4226:4235   */\n      dup3\n        /* \"#utility.yul\":4222:4240   */\n      add\n        /* \"#utility.yul\":4214:4240   */\n      swap1\n      pop\n        /* \"#utility.yul\":4250:4321   */\n      tag_340\n        /* \"#utility.yul\":4318:4319   */\n      0x00\n        /* \"#utility.yul\":4307:4316   */\n      dup4\n        /* \"#utility.yul\":4303:4320   */\n      add\n        /* \"#utility.yul\":4294:4300   */\n      dup5\n        /* \"#utility.yul\":4250:4321   */\n      tag_235\n      jump\t// in\n    tag_340:\n        /* \"#utility.yul\":4106:4328   */\n      swap3\n      swap2\n      pop\n      pop\n      jump\t// out\n        /* \"#utility.yul\":4334:4456   */\n    tag_236:\n        /* \"#utility.yul\":4407:4431   */\n      tag_342\n        /* \"#utility.yul\":4425:4430   */\n      dup2\n        /* \"#utility.yul\":4407:4431   */\n      tag_234\n      jump\t// in\n    tag_342:\n        /* \"#utility.yul\":4400:4405   */\n      dup2\n        /* \"#utility.yul\":4397:4432   */\n      eq\n        /* \"#utility.yul\":4387:4450   */\n      tag_343\n      jumpi\n        /* \"#utility.yul\":4446:4447   */\n      0x00\n        /* \"#utility.yul\":4443:4444   */\n      dup1\n        /* \"#utility.yul\":4436:4448   */\n      revert\n        /* \"#utility.yul\":4387:4450   */\n    tag_343:\n        /* \"#utility.yul\":4334:4456   */\n      pop\n      jump\t// out\n        /* \"#utility.yul\":4462:4601   */\n    tag_237:\n        /* \"#utility.yul\":4508:4513   */\n      0x00\n        /* \"#utility.yul\":4546:4552   */\n      dup2\n        /* \"#utility.yul\":4533:4553   */\n      calldataload\n        /* \"#utility.yul\":4524:4553   */\n      swap1\n      pop\n        /* \"#utility.yul\":4562:4595   */\n      tag_345\n        /* \"#utility.yul\":4589:4594   */\n      dup2\n        /* \"#utility.yul\":4562:4595   */\n      tag_236\n      jump\t// in\n    tag_345:\n        /* \"#utility.yul\":4462:4601   */\n      swap3\n      swap2\n      pop\n      pop\n      jump\t// out\n        /* \"#utility.yul\":4607:4697   */\n    tag_238:\n        /* \"#utility.yul\":4641:4648   */\n      0x00\n        /* \"#utility.yul\":4684:4689   */\n      dup2\n        /* \"#utility.yul\":4677:4690   */\n      iszero\n        /* \"#utility.yul\":4670:4691   */\n      iszero\n        /* \"#utility.yul\":4659:4691   */\n      swap1\n      pop\n        /* \"#utility.yul\":4607:4697   */\n      swap2\n      swap1\n      pop\n      jump\t// out\n        /* \"#utility.yul\":4703:4819   */\n    tag_239:\n        /* \"#utility.yul\":4773:4794   */\n      tag_348\n        /* \"#utility.yul\":4788:4793   */\n      dup2\n        /* \"#utility.yul\":4773:4794   */\n      tag_238\n      jump\t// in\n    tag_348:\n        /* \"#utility.yul\":4766:4771   */\n      dup2\n        /* \"#utility.yul\":4763:4795   */\n      eq\n        /* \"#utility.yul\":4753:4813   */\n      tag_349\n      jumpi\n        /* \"#utility.yul\":4809:4810   */\n      0x00\n        /* \"#utility.yul\":4806:4807   */\n      dup1\n        /* \"#utility.yul\":4799:4811   */\n      revert\n        /* \"#utility.yul\":4753:4813   */\n    tag_349:\n        /* \"#utility.yul\":4703:4819   */\n      pop\n      jump\t// out\n        /* \"#utility.yul\":4825:4958   */\n    tag_240:\n        /* \"#utility.yul\":4868:4873   */\n      0x00\n        /* \"#utility.yul\":4906:4912   */\n      dup2\n        /* \"#utility.yul\":4893:4913   */\n      calldataload\n        /* \"#utility.yul\":4884:4913   */\n      swap1\n      pop\n        /* \"#utility.yul\":4922:4952   */\n      tag_351\n        /* \"#utility.yul\":4946:4951   */\n      dup2\n        /* \"#utility.yul\":4922:4952   */\n      tag_239\n      jump\t// in\n    tag_351:\n        /* \"#utility.yul\":4825:4958   */\n      swap3\n      swap2\n      pop\n      pop\n      jump\t// out\n        /* \"#utility.yul\":4964:5432   */\n    tag_22:\n        /* \"#utility.yul\":5029:5035   */\n      0x00\n        /* \"#utility.yul\":5037:5043   */\n      dup1\n        /* \"#utility.yul\":5086:5088   */\n      0x40\n        /* \"#utility.yul\":5074:5083   */\n      dup4\n        /* \"#utility.yul\":5065:5072   */\n      dup6\n        /* \"#utility.yul\":5061:5084   */\n      sub\n        /* \"#utility.yul\":5057:5089   */\n      slt\n        /* \"#utility.yul\":5054:5173   */\n      iszero\n      tag_353\n      jumpi\n        /* \"#utility.yul\":5092:5171   */\n      tag_354\n      tag_220\n      jump\t// in\n    tag_354:\n        /* \"#utility.yul\":5054:5173   */\n    tag_353:\n        /* \"#utility.yul\":5212:5213   */\n      0x00\n        /* \"#utility.yul\":5237:5290   */\n      tag_355\n        /* \"#utility.yul\":5282:5289   */\n      dup6\n        /* \"#utility.yul\":5273:5279   */\n      dup3\n        /* \"#utility.yul\":5262:5271   */\n      dup7\n        /* \"#utility.yul\":5258:5280   */\n      add\n        /* \"#utility.yul\":5237:5290   */\n      tag_237\n      jump\t// in\n    tag_355:\n        /* \"#utility.yul\":5227:5290   */\n      swap3\n      pop\n        /* \"#utility.yul\":5183:5300   */\n      pop\n        /* \"#utility.yul\":5339:5341   */\n      0x20\n        /* \"#utility.yul\":5365:5415   */\n      tag_356\n        /* \"#utility.yul\":5407:5414   */\n      dup6\n        /* \"#utility.yul\":5398:5404   */\n      dup3\n        /* \"#utility.yul\":5387:5396   */\n      dup7\n        /* \"#utility.yul\":5383:5405   */\n      add\n        /* \"#utility.yul\":5365:5415   */\n      tag_240\n      jump\t// in\n    tag_356:\n        /* \"#utility.yul\":5355:5415   */\n      swap2\n      pop\n        /* \"#utility.yul\":5310:5425   */\n      pop\n        /* \"#utility.yul\":4964:5432   */\n      swap3\n      pop\n      swap3\n      swap1\n      pop\n      jump\t// out\n        /* \"#utility.yul\":5438:5546   */\n    tag_241:\n        /* \"#utility.yul\":5515:5539   */\n      tag_358\n        /* \"#utility.yul\":5533:5538   */\n      dup2\n        /* \"#utility.yul\":5515:5539   */\n      tag_234\n      jump\t// in\n    tag_358:\n        /* \"#utility.yul\":5510:5513   */\n      dup3\n        /* \"#utility.yul\":5503:5540   */\n      mstore\n        /* \"#utility.yul\":5438:5546   */\n      pop\n      pop\n      jump\t// out\n        /* \"#utility.yul\":5552:5651   */\n    tag_242:\n        /* \"#utility.yul\":5604:5610   */\n      0x00\n        /* \"#utility.yul\":5638:5643   */\n      dup2\n        /* \"#utility.yul\":5632:5644   */\n      mload\n        /* \"#utility.yul\":5622:5644   */\n      swap1\n      pop\n        /* \"#utility.yul\":5552:5651   */\n      swap2\n      swap1\n      pop\n      jump\t// out\n        /* \"#utility.yul\":5657:5816   */\n    tag_243:\n        /* \"#utility.yul\":5731:5742   */\n      0x00\n        /* \"#utility.yul\":5765:5771   */\n      dup3\n        /* \"#utility.yul\":5760:5763   */\n      dup3\n        /* \"#utility.yul\":5753:5772   */\n      mstore\n        /* \"#utility.yul\":5805:5809   */\n      0x20\n        /* \"#utility.yul\":5800:5803   */\n      dup3\n        /* \"#utility.yul\":5796:5810   */\n      add\n        /* \"#utility.yul\":5781:5810   */\n      swap1\n      pop\n        /* \"#utility.yul\":5657:5816   */\n      swap3\n      swap2\n      pop\n      pop\n      jump\t// out\n        /* \"#utility.yul\":5822:6129   */\n    tag_244:\n        /* \"#utility.yul\":5890:5891   */\n      0x00\n        /* \"#utility.yul\":5900:6013   */\n    tag_362:\n        /* \"#utility.yul\":5914:5920   */\n      dup4\n        /* \"#utility.yul\":5911:5912   */\n      dup2\n        /* \"#utility.yul\":5908:5921   */\n      lt\n        /* \"#utility.yul\":5900:6013   */\n      iszero\n      tag_364\n      jumpi\n        /* \"#utility.yul\":5999:6000   */\n      dup1\n        /* \"#utility.yul\":5994:5997   */\n      dup3\n        /* \"#utility.yul\":5990:6001   */\n      add\n        /* \"#utility.yul\":5984:6002   */\n      mload\n        /* \"#utility.yul\":5980:5981   */\n      dup2\n        /* \"#utility.yul\":5975:5978   */\n      dup5\n        /* \"#utility.yul\":5971:5982   */\n      add\n        /* \"#utility.yul\":5964:6003   */\n      mstore\n        /* \"#utility.yul\":5936:5938   */\n      0x20\n        /* \"#utility.yul\":5933:5934   */\n      dup2\n        /* \"#utility.yul\":5929:5939   */\n      add\n        /* \"#utility.yul\":5924:5939   */\n      swap1\n      pop\n        /* \"#utility.yul\":5900:6013   */\n      jump(tag_362)\n    tag_364:\n        /* \"#utility.yul\":6031:6037   */\n      dup4\n        /* \"#utility.yul\":6028:6029   */\n      dup2\n        /* \"#utility.yul\":6025:6038   */\n      gt\n        /* \"#utility.yul\":6022:6123   */\n      iszero\n      tag_365\n      jumpi\n        /* \"#utility.yul\":6111:6112   */\n      0x00\n        /* \"#utility.yul\":6102:6108   */\n      dup5\n        /* \"#utility.yul\":6097:6100   */\n      dup5\n        /* \"#utility.yul\":6093:6109   */\n      add\n        /* \"#utility.yul\":6086:6113   */\n      mstore\n        /* \"#utility.yul\":6022:6123   */\n    tag_365:\n        /* \"#utility.yul\":5871:6129   */\n      pop\n        /* \"#utility.yul\":5822:6129   */\n      pop\n      pop\n      pop\n      jump\t// out\n        /* \"#utility.yul\":6135:6479   */\n    tag_245:\n        /* \"#utility.yul\":6213:6216   */\n      0x00\n        /* \"#utility.yul\":6241:6280   */\n      tag_367\n        /* \"#utility.yul\":6274:6279   */\n      dup3\n        /* \"#utility.yul\":6241:6280   */\n      tag_242\n      jump\t// in\n    tag_367:\n        /* \"#utility.yul\":6296:6357   */\n      tag_368\n        /* \"#utility.yul\":6350:6356   */\n      dup2\n        /* \"#utility.yul\":6345:6348   */\n      dup6\n        /* \"#utility.yul\":6296:6357   */\n      tag_243\n      jump\t// in\n    tag_368:\n        /* \"#utility.yul\":6289:6357   */\n      swap4\n      pop\n        /* \"#utility.yul\":6366:6418   */\n      tag_369\n        /* \"#utility.yul\":6411:6417   */\n      dup2\n        /* \"#utility.yul\":6406:6409   */\n      dup6\n        /* \"#utility.yul\":6399:6403   */\n      0x20\n        /* \"#utility.yul\":6392:6397   */\n      dup7\n        /* \"#utility.yul\":6388:6404   */\n      add\n        /* \"#utility.yul\":6366:6418   */\n      tag_244\n      jump\t// in\n    tag_369:\n        /* \"#utility.yul\":6443:6472   */\n      tag_370\n        /* \"#utility.yul\":6465:6471   */\n      dup2\n        /* \"#utility.yul\":6443:6472   */\n      tag_224\n      jump\t// in\n    tag_370:\n        /* \"#utility.yul\":6438:6441   */\n      dup5\n        /* \"#utility.yul\":6434:6473   */\n      add\n        /* \"#utility.yul\":6427:6473   */\n      swap2\n      pop\n        /* \"#utility.yul\":6217:6479   */\n      pop\n        /* \"#utility.yul\":6135:6479   */\n      swap3\n      swap2\n      pop\n      pop\n      jump\t// out\n        /* \"#utility.yul\":6485:6590   */\n    tag_246:\n        /* \"#utility.yul\":6560:6583   */\n      tag_372\n        /* \"#utility.yul\":6577:6582   */\n      dup2\n        /* \"#utility.yul\":6560:6583   */\n      tag_231\n      jump\t// in\n    tag_372:\n        /* \"#utility.yul\":6555:6558   */\n      dup3\n        /* \"#utility.yul\":6548:6584   */\n      mstore\n        /* \"#utility.yul\":6485:6590   */\n      pop\n      pop\n      jump\t// out\n        /* \"#utility.yul\":6596:6776   */\n    tag_69:\n        /* \"#utility.yul\":6644:6721   */\n      0x4e487b7100000000000000000000000000000000000000000000000000000000\n        /* \"#utility.yul\":6641:6642   */\n      0x00\n        /* \"#utility.yul\":6634:6722   */\n      mstore\n        /* \"#utility.yul\":6741:6745   */\n      0x21\n        /* \"#utility.yul\":6738:6739   */\n      0x04\n        /* \"#utility.yul\":6731:6746   */\n      mstore\n        /* \"#utility.yul\":6765:6769   */\n      0x24\n        /* \"#utility.yul\":6762:6763   */\n      0x00\n        /* \"#utility.yul\":6755:6770   */\n      revert\n        /* \"#utility.yul\":6782:6906   */\n    tag_247:\n        /* \"#utility.yul\":6874:6875   */\n      0x02\n        /* \"#utility.yul\":6867:6872   */\n      dup2\n        /* \"#utility.yul\":6864:6876   */\n      lt\n        /* \"#utility.yul\":6854:6900   */\n      tag_375\n      jumpi\n        /* \"#utility.yul\":6880:6898   */\n      tag_376\n      tag_69\n      jump\t// in\n    tag_376:\n        /* \"#utility.yul\":6854:6900   */\n    tag_375:\n        /* \"#utility.yul\":6782:6906   */\n      pop\n      jump\t// out\n        /* \"#utility.yul\":6912:7061   */\n    tag_248:\n        /* \"#utility.yul\":6968:6975   */\n      0x00\n        /* \"#utility.yul\":6997:7002   */\n      dup2\n        /* \"#utility.yul\":6986:7002   */\n      swap1\n      pop\n        /* \"#utility.yul\":7003:7055   */\n      tag_378\n        /* \"#utility.yul\":7049:7054   */\n      dup3\n        /* \"#utility.yul\":7003:7055   */\n      tag_247\n      jump\t// in\n    tag_378:\n        /* \"#utility.yul\":6912:7061   */\n      swap2\n      swap1\n      pop\n      jump\t// out\n        /* \"#utility.yul\":7067:7216   */\n    tag_249:\n        /* \"#utility.yul\":7134:7143   */\n      0x00\n        /* \"#utility.yul\":7167:7210   */\n      tag_380\n        /* \"#utility.yul\":7204:7209   */\n      dup3\n        /* \"#utility.yul\":7167:7210   */\n      tag_248\n      jump\t// in\n    tag_380:\n        /* \"#utility.yul\":7154:7210   */\n      swap1\n      pop\n        /* \"#utility.yul\":7067:7216   */\n      swap2\n      swap1\n      pop\n      jump\t// out\n        /* \"#utility.yul\":7222:7377   */\n    tag_250:\n        /* \"#utility.yul\":7316:7370   */\n      tag_382\n        /* \"#utility.yul\":7364:7369   */\n      dup2\n        /* \"#utility.yul\":7316:7370   */\n      tag_249\n      jump\t// in\n    tag_382:\n        /* \"#utility.yul\":7311:7314   */\n      dup3\n        /* \"#utility.yul\":7304:7371   */\n      mstore\n        /* \"#utility.yul\":7222:7377   */\n      pop\n      pop\n      jump\t// out\n        /* \"#utility.yul\":7439:9041   */\n    tag_251:\n        /* \"#utility.yul\":7556:7559   */\n      0x00\n        /* \"#utility.yul\":7592:7596   */\n      0xe0\n        /* \"#utility.yul\":7587:7590   */\n      dup4\n        /* \"#utility.yul\":7583:7597   */\n      add\n        /* \"#utility.yul\":7684:7688   */\n      0x00\n        /* \"#utility.yul\":7677:7682   */\n      dup4\n        /* \"#utility.yul\":7673:7689   */\n      add\n        /* \"#utility.yul\":7667:7690   */\n      mload\n        /* \"#utility.yul\":7703:7766   */\n      tag_384\n        /* \"#utility.yul\":7760:7764   */\n      0x00\n        /* \"#utility.yul\":7755:7758   */\n      dup7\n        /* \"#utility.yul\":7751:7765   */\n      add\n        /* \"#utility.yul\":7737:7749   */\n      dup3\n        /* \"#utility.yul\":7703:7766   */\n      tag_241\n      jump\t// in\n    tag_384:\n        /* \"#utility.yul\":7607:7776   */\n      pop\n        /* \"#utility.yul\":7862:7866   */\n      0x20\n        /* \"#utility.yul\":7855:7860   */\n      dup4\n        /* \"#utility.yul\":7851:7867   */\n      add\n        /* \"#utility.yul\":7845:7868   */\n      mload\n        /* \"#utility.yul\":7915:7918   */\n      dup5\n        /* \"#utility.yul\":7909:7913   */\n      dup3\n        /* \"#utility.yul\":7905:7919   */\n      sub\n        /* \"#utility.yul\":7898:7902   */\n      0x20\n        /* \"#utility.yul\":7893:7896   */\n      dup7\n        /* \"#utility.yul\":7889:7903   */\n      add\n        /* \"#utility.yul\":7882:7920   */\n      mstore\n        /* \"#utility.yul\":7941:8014   */\n      tag_385\n        /* \"#utility.yul\":8009:8013   */\n      dup3\n        /* \"#utility.yul\":7995:8007   */\n      dup3\n        /* \"#utility.yul\":7941:8014   */\n      tag_245\n      jump\t// in\n    tag_385:\n        /* \"#utility.yul\":7933:8014   */\n      swap2\n      pop\n        /* \"#utility.yul\":7786:8025   */\n      pop\n        /* \"#utility.yul\":8112:8116   */\n      0x40\n        /* \"#utility.yul\":8105:8110   */\n      dup4\n        /* \"#utility.yul\":8101:8117   */\n      add\n        /* \"#utility.yul\":8095:8118   */\n      mload\n        /* \"#utility.yul\":8165:8168   */\n      dup5\n        /* \"#utility.yul\":8159:8163   */\n      dup3\n        /* \"#utility.yul\":8155:8169   */\n      sub\n        /* \"#utility.yul\":8148:8152   */\n      0x40\n        /* \"#utility.yul\":8143:8146   */\n      dup7\n        /* \"#utility.yul\":8139:8153   */\n      add\n        /* \"#utility.yul\":8132:8170   */\n      mstore\n        /* \"#utility.yul\":8191:8264   */\n      tag_386\n        /* \"#utility.yul\":8259:8263   */\n      dup3\n        /* \"#utility.yul\":8245:8257   */\n      dup3\n        /* \"#utility.yul\":8191:8264   */\n      tag_245\n      jump\t// in\n    tag_386:\n        /* \"#utility.yul\":8183:8264   */\n      swap2\n      pop\n        /* \"#utility.yul\":8035:8275   */\n      pop\n        /* \"#utility.yul\":8366:8370   */\n      0x60\n        /* \"#utility.yul\":8359:8364   */\n      dup4\n        /* \"#utility.yul\":8355:8371   */\n      add\n        /* \"#utility.yul\":8349:8372   */\n      mload\n        /* \"#utility.yul\":8385:8446   */\n      tag_387\n        /* \"#utility.yul\":8440:8444   */\n      0x60\n        /* \"#utility.yul\":8435:8438   */\n      dup7\n        /* \"#utility.yul\":8431:8445   */\n      add\n        /* \"#utility.yul\":8417:8429   */\n      dup3\n        /* \"#utility.yul\":8385:8446   */\n      tag_246\n      jump\t// in\n    tag_387:\n        /* \"#utility.yul\":8285:8456   */\n      pop\n        /* \"#utility.yul\":8545:8549   */\n      0x80\n        /* \"#utility.yul\":8538:8543   */\n      dup4\n        /* \"#utility.yul\":8534:8550   */\n      add\n        /* \"#utility.yul\":8528:8551   */\n      mload\n        /* \"#utility.yul\":8564:8627   */\n      tag_388\n        /* \"#utility.yul\":8621:8625   */\n      0x80\n        /* \"#utility.yul\":8616:8619   */\n      dup7\n        /* \"#utility.yul\":8612:8626   */\n      add\n        /* \"#utility.yul\":8598:8610   */\n      dup3\n        /* \"#utility.yul\":8564:8627   */\n      tag_241\n      jump\t// in\n    tag_388:\n        /* \"#utility.yul\":8466:8637   */\n      pop\n        /* \"#utility.yul\":8724:8728   */\n      0xa0\n        /* \"#utility.yul\":8717:8722   */\n      dup4\n        /* \"#utility.yul\":8713:8729   */\n      add\n        /* \"#utility.yul\":8707:8730   */\n      mload\n        /* \"#utility.yul\":8743:8804   */\n      tag_389\n        /* \"#utility.yul\":8798:8802   */\n      0xa0\n        /* \"#utility.yul\":8793:8796   */\n      dup7\n        /* \"#utility.yul\":8789:8803   */\n      add\n        /* \"#utility.yul\":8775:8787   */\n      dup3\n        /* \"#utility.yul\":8743:8804   */\n      tag_246\n      jump\t// in\n    tag_389:\n        /* \"#utility.yul\":8647:8814   */\n      pop\n        /* \"#utility.yul\":8905:8909   */\n      0xc0\n        /* \"#utility.yul\":8898:8903   */\n      dup4\n        /* \"#utility.yul\":8894:8910   */\n      add\n        /* \"#utility.yul\":8888:8911   */\n      mload\n        /* \"#utility.yul\":8924:9004   */\n      tag_390\n        /* \"#utility.yul\":8998:9002   */\n      0xc0\n        /* \"#utility.yul\":8993:8996   */\n      dup7\n        /* \"#utility.yul\":8989:9003   */\n      add\n        /* \"#utility.yul\":8975:8987   */\n      dup3\n        /* \"#utility.yul\":8924:9004   */\n      tag_250\n      jump\t// in\n    tag_390:\n        /* \"#utility.yul\":8824:9014   */\n      pop\n        /* \"#utility.yul\":9031:9035   */\n      dup1\n        /* \"#utility.yul\":9024:9035   */\n      swap2\n      pop\n        /* \"#utility.yul\":7561:9041   */\n      pop\n        /* \"#utility.yul\":7439:9041   */\n      swap3\n      swap2\n      pop\n      pop\n      jump\t// out\n        /* \"#utility.yul\":9047:9416   */\n    tag_25:\n        /* \"#utility.yul\":9188:9192   */\n      0x00\n        /* \"#utility.yul\":9226:9228   */\n      0x20\n        /* \"#utility.yul\":9215:9224   */\n      dup3\n        /* \"#utility.yul\":9211:9229   */\n      add\n        /* \"#utility.yul\":9203:9229   */\n      swap1\n      pop\n        /* \"#utility.yul\":9275:9284   */\n      dup2\n        /* \"#utility.yul\":9269:9273   */\n      dup2\n        /* \"#utility.yul\":9265:9285   */\n      sub\n        /* \"#utility.yul\":9261:9262   */\n      0x00\n        /* \"#utility.yul\":9250:9259   */\n      dup4\n        /* \"#utility.yul\":9246:9263   */\n      add\n        /* \"#utility.yul\":9239:9286   */\n      mstore\n        /* \"#utility.yul\":9303:9409   */\n      tag_392\n        /* \"#utility.yul\":9404:9408   */\n      dup2\n        /* \"#utility.yul\":9395:9401   */\n      dup5\n        /* \"#utility.yul\":9303:9409   */\n      tag_251\n      jump\t// in\n    tag_392:\n        /* \"#utility.yul\":9295:9409   */\n      swap1\n      pop\n        /* \"#utility.yul\":9047:9416   */\n      swap3\n      swap2\n      pop\n      pop\n      jump\t// out\n        /* \"#utility.yul\":9422:9931   */\n    tag_28:\n        /* \"#utility.yul\":9491:9497   */\n      0x00\n        /* \"#utility.yul\":9540:9542   */\n      0x20\n        /* \"#utility.yul\":9528:9537   */\n      dup3\n        /* \"#utility.yul\":9519:9526   */\n      dup5\n        /* \"#utility.yul\":9515:9538   */\n      sub\n        /* \"#utility.yul\":9511:9543   */\n      slt\n        /* \"#utility.yul\":9508:9627   */\n      iszero\n      tag_394\n      jumpi\n        /* \"#utility.yul\":9546:9625   */\n      tag_395\n      tag_220\n      jump\t// in\n    tag_395:\n        /* \"#utility.yul\":9508:9627   */\n    tag_394:\n        /* \"#utility.yul\":9694:9695   */\n      0x00\n        /* \"#utility.yul\":9683:9692   */\n      dup3\n        /* \"#utility.yul\":9679:9696   */\n      add\n        /* \"#utility.yul\":9666:9697   */\n      calldataload\n        /* \"#utility.yul\":9724:9742   */\n      0xffffffffffffffff\n        /* \"#utility.yul\":9716:9722   */\n      dup2\n        /* \"#utility.yul\":9713:9743   */\n      gt\n        /* \"#utility.yul\":9710:9827   */\n      iszero\n      tag_396\n      jumpi\n        /* \"#utility.yul\":9746:9825   */\n      tag_397\n      tag_221\n      jump\t// in\n    tag_397:\n        /* \"#utility.yul\":9710:9827   */\n    tag_396:\n        /* \"#utility.yul\":9851:9914   */\n      tag_398\n        /* \"#utility.yul\":9906:9913   */\n      dup5\n        /* \"#utility.yul\":9897:9903   */\n      dup3\n        /* \"#utility.yul\":9886:9895   */\n      dup6\n        /* \"#utility.yul\":9882:9904   */\n      add\n        /* \"#utility.yul\":9851:9914   */\n      tag_230\n      jump\t// in\n    tag_398:\n        /* \"#utility.yul\":9841:9914   */\n      swap2\n      pop\n        /* \"#utility.yul\":9637:9924   */\n      pop\n        /* \"#utility.yul\":9422:9931   */\n      swap3\n      swap2\n      pop\n      pop\n      jump\t// out\n        /* \"#utility.yul\":9937:10266   */\n    tag_33:\n        /* \"#utility.yul\":9996:10002   */\n      0x00\n        /* \"#utility.yul\":10045:10047   */\n      0x20\n        /* \"#utility.yul\":10033:10042   */\n      dup3\n        /* \"#utility.yul\":10024:10031   */\n      dup5\n        /* \"#utility.yul\":10020:10043   */\n      sub\n        /* \"#utility.yul\":10016:10048   */\n      slt\n        /* \"#utility.yul\":10013:10132   */\n      iszero\n      tag_400\n      jumpi\n        /* \"#utility.yul\":10051:10130   */\n      tag_401\n      tag_220\n      jump\t// in\n    tag_401:\n        /* \"#utility.yul\":10013:10132   */\n    tag_400:\n        /* \"#utility.yul\":10171:10172   */\n      0x00\n        /* \"#utility.yul\":10196:10249   */\n      tag_402\n        /* \"#utility.yul\":10241:10248   */\n      dup5\n        /* \"#utility.yul\":10232:10238   */\n      dup3\n        /* \"#utility.yul\":10221:10230   */\n      dup6\n        /* \"#utility.yul\":10217:10239   */\n      add\n        /* \"#utility.yul\":10196:10249   */\n      tag_237\n      jump\t// in\n    tag_402:\n        /* \"#utility.yul\":10186:10249   */\n      swap2\n      pop\n        /* \"#utility.yul\":10142:10259   */\n      pop\n        /* \"#utility.yul\":9937:10266   */\n      swap3\n      swap2\n      pop\n      pop\n      jump\t// out\n        /* \"#utility.yul\":10272:10441   */\n    tag_252:\n        /* \"#utility.yul\":10356:10367   */\n      0x00\n        /* \"#utility.yul\":10390:10396   */\n      dup3\n        /* \"#utility.yul\":10385:10388   */\n      dup3\n        /* \"#utility.yul\":10378:10397   */\n      mstore\n        /* \"#utility.yul\":10430:10434   */\n      0x20\n        /* \"#utility.yul\":10425:10428   */\n      dup3\n        /* \"#utility.yul\":10421:10435   */\n      add\n        /* \"#utility.yul\":10406:10435   */\n      swap1\n      pop\n        /* \"#utility.yul\":10272:10441   */\n      swap3\n      swap2\n      pop\n      pop\n      jump\t// out\n        /* \"#utility.yul\":10447:10811   */\n    tag_253:\n        /* \"#utility.yul\":10535:10538   */\n      0x00\n        /* \"#utility.yul\":10563:10602   */\n      tag_405\n        /* \"#utility.yul\":10596:10601   */\n      dup3\n        /* \"#utility.yul\":10563:10602   */\n      tag_242\n      jump\t// in\n    tag_405:\n        /* \"#utility.yul\":10618:10689   */\n      tag_406\n        /* \"#utility.yul\":10682:10688   */\n      dup2\n        /* \"#utility.yul\":10677:10680   */\n      dup6\n        /* \"#utility.yul\":10618:10689   */\n      tag_252\n      jump\t// in\n    tag_406:\n        /* \"#utility.yul\":10611:10689   */\n      swap4\n      pop\n        /* \"#utility.yul\":10698:10750   */\n      tag_407\n        /* \"#utility.yul\":10743:10749   */\n      dup2\n        /* \"#utility.yul\":10738:10741   */\n      dup6\n        /* \"#utility.yul\":10731:10735   */\n      0x20\n        /* \"#utility.yul\":10724:10729   */\n      dup7\n        /* \"#utility.yul\":10720:10736   */\n      add\n        /* \"#utility.yul\":10698:10750   */\n      tag_244\n      jump\t// in\n    tag_407:\n        /* \"#utility.yul\":10775:10804   */\n      tag_408\n        /* \"#utility.yul\":10797:10803   */\n      dup2\n        /* \"#utility.yul\":10775:10804   */\n      tag_224\n      jump\t// in\n    tag_408:\n        /* \"#utility.yul\":10770:10773   */\n      dup5\n        /* \"#utility.yul\":10766:10805   */\n      add\n        /* \"#utility.yul\":10759:10805   */\n      swap2\n      pop\n        /* \"#utility.yul\":10539:10811   */\n      pop\n        /* \"#utility.yul\":10447:10811   */\n      swap3\n      swap2\n      pop\n      pop\n      jump\t// out\n        /* \"#utility.yul\":10817:10932   */\n    tag_254:\n        /* \"#utility.yul\":10902:10925   */\n      tag_410\n        /* \"#utility.yul\":10919:10924   */\n      dup2\n        /* \"#utility.yul\":10902:10925   */\n      tag_231\n      jump\t// in\n    tag_410:\n        /* \"#utility.yul\":10897:10900   */\n      dup3\n        /* \"#utility.yul\":10890:10926   */\n      mstore\n        /* \"#utility.yul\":10817:10932   */\n      pop\n      pop\n      jump\t// out\n        /* \"#utility.yul\":10938:11103   */\n    tag_255:\n        /* \"#utility.yul\":11042:11096   */\n      tag_412\n        /* \"#utility.yul\":11090:11095   */\n      dup2\n        /* \"#utility.yul\":11042:11096   */\n      tag_249\n      jump\t// in\n    tag_412:\n        /* \"#utility.yul\":11037:11040   */\n      dup3\n        /* \"#utility.yul\":11030:11097   */\n      mstore\n        /* \"#utility.yul\":10938:11103   */\n      pop\n      pop\n      jump\t// out\n        /* \"#utility.yul\":11109:12203   */\n    tag_36:\n        /* \"#utility.yul\":11423:11427   */\n      0x00\n        /* \"#utility.yul\":11461:11464   */\n      0xe0\n        /* \"#utility.yul\":11450:11459   */\n      dup3\n        /* \"#utility.yul\":11446:11465   */\n      add\n        /* \"#utility.yul\":11438:11465   */\n      swap1\n      pop\n        /* \"#utility.yul\":11475:11546   */\n      tag_414\n        /* \"#utility.yul\":11543:11544   */\n      0x00\n        /* \"#utility.yul\":11532:11541   */\n      dup4\n        /* \"#utility.yul\":11528:11545   */\n      add\n        /* \"#utility.yul\":11519:11525   */\n      dup11\n        /* \"#utility.yul\":11475:11546   */\n      tag_235\n      jump\t// in\n    tag_414:\n        /* \"#utility.yul\":11593:11602   */\n      dup2\n        /* \"#utility.yul\":11587:11591   */\n      dup2\n        /* \"#utility.yul\":11583:11603   */\n      sub\n        /* \"#utility.yul\":11578:11580   */\n      0x20\n        /* \"#utility.yul\":11567:11576   */\n      dup4\n        /* \"#utility.yul\":11563:11581   */\n      add\n        /* \"#utility.yul\":11556:11604   */\n      mstore\n        /* \"#utility.yul\":11621:11699   */\n      tag_415\n        /* \"#utility.yul\":11694:11698   */\n      dup2\n        /* \"#utility.yul\":11685:11691   */\n      dup10\n        /* \"#utility.yul\":11621:11699   */\n      tag_253\n      jump\t// in\n    tag_415:\n        /* \"#utility.yul\":11613:11699   */\n      swap1\n      pop\n        /* \"#utility.yul\":11746:11755   */\n      dup2\n        /* \"#utility.yul\":11740:11744   */\n      dup2\n        /* \"#utility.yul\":11736:11756   */\n      sub\n        /* \"#utility.yul\":11731:11733   */\n      0x40\n        /* \"#utility.yul\":11720:11729   */\n      dup4\n        /* \"#utility.yul\":11716:11734   */\n      add\n        /* \"#utility.yul\":11709:11757   */\n      mstore\n        /* \"#utility.yul\":11774:11852   */\n      tag_416\n        /* \"#utility.yul\":11847:11851   */\n      dup2\n        /* \"#utility.yul\":11838:11844   */\n      dup9\n        /* \"#utility.yul\":11774:11852   */\n      tag_253\n      jump\t// in\n    tag_416:\n        /* \"#utility.yul\":11766:11852   */\n      swap1\n      pop\n        /* \"#utility.yul\":11862:11932   */\n      tag_417\n        /* \"#utility.yul\":11928:11930   */\n      0x60\n        /* \"#utility.yul\":11917:11926   */\n      dup4\n        /* \"#utility.yul\":11913:11931   */\n      add\n        /* \"#utility.yul\":11904:11910   */\n      dup8\n        /* \"#utility.yul\":11862:11932   */\n      tag_254\n      jump\t// in\n    tag_417:\n        /* \"#utility.yul\":11942:12015   */\n      tag_418\n        /* \"#utility.yul\":12010:12013   */\n      0x80\n        /* \"#utility.yul\":11999:12008   */\n      dup4\n        /* \"#utility.yul\":11995:12014   */\n      add\n        /* \"#utility.yul\":11986:11992   */\n      dup7\n        /* \"#utility.yul\":11942:12015   */\n      tag_235\n      jump\t// in\n    tag_418:\n        /* \"#utility.yul\":12025:12096   */\n      tag_419\n        /* \"#utility.yul\":12091:12094   */\n      0xa0\n        /* \"#utility.yul\":12080:12089   */\n      dup4\n        /* \"#utility.yul\":12076:12095   */\n      add\n        /* \"#utility.yul\":12067:12073   */\n      dup6\n        /* \"#utility.yul\":12025:12096   */\n      tag_254\n      jump\t// in\n    tag_419:\n        /* \"#utility.yul\":12106:12196   */\n      tag_420\n        /* \"#utility.yul\":12191:12194   */\n      0xc0\n        /* \"#utility.yul\":12180:12189   */\n      dup4\n        /* \"#utility.yul\":12176:12195   */\n      add\n        /* \"#utility.yul\":12167:12173   */\n      dup5\n        /* \"#utility.yul\":12106:12196   */\n      tag_255\n      jump\t// in\n    tag_420:\n        /* \"#utility.yul\":11109:12203   */\n      swap9\n      swap8\n      pop\n      pop\n      pop\n      pop\n      pop\n      pop\n      pop\n      pop\n      jump\t// out\n        /* \"#utility.yul\":12209:12347   */\n    tag_256:\n        /* \"#utility.yul\":12300:12306   */\n      0x00\n        /* \"#utility.yul\":12334:12339   */\n      dup2\n        /* \"#utility.yul\":12328:12340   */\n      mload\n        /* \"#utility.yul\":12318:12340   */\n      swap1\n      pop\n        /* \"#utility.yul\":12209:12347   */\n      swap2\n      swap1\n      pop\n      jump\t// out\n        /* \"#utility.yul\":12353:12561   */\n    tag_257:\n        /* \"#utility.yul\":12476:12487   */\n      0x00\n        /* \"#utility.yul\":12510:12516   */\n      dup3\n        /* \"#utility.yul\":12505:12508   */\n      dup3\n        /* \"#utility.yul\":12498:12517   */\n      mstore\n        /* \"#utility.yul\":12550:12554   */\n      0x20\n        /* \"#utility.yul\":12545:12548   */\n      dup3\n        /* \"#utility.yul\":12541:12555   */\n      add\n        /* \"#utility.yul\":12526:12555   */\n      swap1\n      pop\n        /* \"#utility.yul\":12353:12561   */\n      swap3\n      swap2\n      pop\n      pop\n      jump\t// out\n        /* \"#utility.yul\":12567:12723   */\n    tag_258:\n        /* \"#utility.yul\":12658:12662   */\n      0x00\n        /* \"#utility.yul\":12681:12684   */\n      dup2\n        /* \"#utility.yul\":12673:12684   */\n      swap1\n      pop\n        /* \"#utility.yul\":12711:12715   */\n      0x20\n        /* \"#utility.yul\":12706:12709   */\n      dup3\n        /* \"#utility.yul\":12702:12716   */\n      add\n        /* \"#utility.yul\":12694:12716   */\n      swap1\n      pop\n        /* \"#utility.yul\":12567:12723   */\n      swap2\n      swap1\n      pop\n      jump\t// out\n        /* \"#utility.yul\":12785:14377   */\n    tag_259:\n        /* \"#utility.yul\":12892:12895   */\n      0x00\n        /* \"#utility.yul\":12928:12932   */\n      0xe0\n        /* \"#utility.yul\":12923:12926   */\n      dup4\n        /* \"#utility.yul\":12919:12933   */\n      add\n        /* \"#utility.yul\":13020:13024   */\n      0x00\n        /* \"#utility.yul\":13013:13018   */\n      dup4\n        /* \"#utility.yul\":13009:13025   */\n      add\n        /* \"#utility.yul\":13003:13026   */\n      mload\n        /* \"#utility.yul\":13039:13102   */\n      tag_425\n        /* \"#utility.yul\":13096:13100   */\n      0x00\n        /* \"#utility.yul\":13091:13094   */\n      dup7\n        /* \"#utility.yul\":13087:13101   */\n      add\n        /* \"#utility.yul\":13073:13085   */\n      dup3\n        /* \"#utility.yul\":13039:13102   */\n      tag_241\n      jump\t// in\n    tag_425:\n        /* \"#utility.yul\":12943:13112   */\n      pop\n        /* \"#utility.yul\":13198:13202   */\n      0x20\n        /* \"#utility.yul\":13191:13196   */\n      dup4\n        /* \"#utility.yul\":13187:13203   */\n      add\n        /* \"#utility.yul\":13181:13204   */\n      mload\n        /* \"#utility.yul\":13251:13254   */\n      dup5\n        /* \"#utility.yul\":13245:13249   */\n      dup3\n        /* \"#utility.yul\":13241:13255   */\n      sub\n        /* \"#utility.yul\":13234:13238   */\n      0x20\n        /* \"#utility.yul\":13229:13232   */\n      dup7\n        /* \"#utility.yul\":13225:13239   */\n      add\n        /* \"#utility.yul\":13218:13256   */\n      mstore\n        /* \"#utility.yul\":13277:13350   */\n      tag_426\n        /* \"#utility.yul\":13345:13349   */\n      dup3\n        /* \"#utility.yul\":13331:13343   */\n      dup3\n        /* \"#utility.yul\":13277:13350   */\n      tag_245\n      jump\t// in\n    tag_426:\n        /* \"#utility.yul\":13269:13350   */\n      swap2\n      pop\n        /* \"#utility.yul\":13122:13361   */\n      pop\n        /* \"#utility.yul\":13448:13452   */\n      0x40\n        /* \"#utility.yul\":13441:13446   */\n      dup4\n        /* \"#utility.yul\":13437:13453   */\n      add\n        /* \"#utility.yul\":13431:13454   */\n      mload\n        /* \"#utility.yul\":13501:13504   */\n      dup5\n        /* \"#utility.yul\":13495:13499   */\n      dup3\n        /* \"#utility.yul\":13491:13505   */\n      sub\n        /* \"#utility.yul\":13484:13488   */\n      0x40\n        /* \"#utility.yul\":13479:13482   */\n      dup7\n        /* \"#utility.yul\":13475:13489   */\n      add\n        /* \"#utility.yul\":13468:13506   */\n      mstore\n        /* \"#utility.yul\":13527:13600   */\n      tag_427\n        /* \"#utility.yul\":13595:13599   */\n      dup3\n        /* \"#utility.yul\":13581:13593   */\n      dup3\n        /* \"#utility.yul\":13527:13600   */\n      tag_245\n      jump\t// in\n    tag_427:\n        /* \"#utility.yul\":13519:13600   */\n      swap2\n      pop\n        /* \"#utility.yul\":13371:13611   */\n      pop\n        /* \"#utility.yul\":13702:13706   */\n      0x60\n        /* \"#utility.yul\":13695:13700   */\n      dup4\n        /* \"#utility.yul\":13691:13707   */\n      add\n        /* \"#utility.yul\":13685:13708   */\n      mload\n        /* \"#utility.yul\":13721:13782   */\n      tag_428\n        /* \"#utility.yul\":13776:13780   */\n      0x60\n        /* \"#utility.yul\":13771:13774   */\n      dup7\n        /* \"#utility.yul\":13767:13781   */\n      add\n        /* \"#utility.yul\":13753:13765   */\n      dup3\n        /* \"#utility.yul\":13721:13782   */\n      tag_246\n      jump\t// in\n    tag_428:\n        /* \"#utility.yul\":13621:13792   */\n      pop\n        /* \"#utility.yul\":13881:13885   */\n      0x80\n        /* \"#utility.yul\":13874:13879   */\n      dup4\n        /* \"#utility.yul\":13870:13886   */\n      add\n        /* \"#utility.yul\":13864:13887   */\n      mload\n        /* \"#utility.yul\":13900:13963   */\n      tag_429\n        /* \"#utility.yul\":13957:13961   */\n      0x80\n        /* \"#utility.yul\":13952:13955   */\n      dup7\n        /* \"#utility.yul\":13948:13962   */\n      add\n        /* \"#utility.yul\":13934:13946   */\n      dup3\n        /* \"#utility.yul\":13900:13963   */\n      tag_241\n      jump\t// in\n    tag_429:\n        /* \"#utility.yul\":13802:13973   */\n      pop\n        /* \"#utility.yul\":14060:14064   */\n      0xa0\n        /* \"#utility.yul\":14053:14058   */\n      dup4\n        /* \"#utility.yul\":14049:14065   */\n      add\n        /* \"#utility.yul\":14043:14066   */\n      mload\n        /* \"#utility.yul\":14079:14140   */\n      tag_430\n        /* \"#utility.yul\":14134:14138   */\n      0xa0\n        /* \"#utility.yul\":14129:14132   */\n      dup7\n        /* \"#utility.yul\":14125:14139   */\n      add\n        /* \"#utility.yul\":14111:14123   */\n      dup3\n        /* \"#utility.yul\":14079:14140   */\n      tag_246\n      jump\t// in\n    tag_430:\n        /* \"#utility.yul\":13983:14150   */\n      pop\n        /* \"#utility.yul\":14241:14245   */\n      0xc0\n        /* \"#utility.yul\":14234:14239   */\n      dup4\n        /* \"#utility.yul\":14230:14246   */\n      add\n        /* \"#utility.yul\":14224:14247   */\n      mload\n        /* \"#utility.yul\":14260:14340   */\n      tag_431\n        /* \"#utility.yul\":14334:14338   */\n      0xc0\n        /* \"#utility.yul\":14329:14332   */\n      dup7\n        /* \"#utility.yul\":14325:14339   */\n      add\n        /* \"#utility.yul\":14311:14323   */\n      dup3\n        /* \"#utility.yul\":14260:14340   */\n      tag_250\n      jump\t// in\n    tag_431:\n        /* \"#utility.yul\":14160:14350   */\n      pop\n        /* \"#utility.yul\":14367:14371   */\n      dup1\n        /* \"#utility.yul\":14360:14371   */\n      swap2\n      pop\n        /* \"#utility.yul\":12897:14377   */\n      pop\n        /* \"#utility.yul\":12785:14377   */\n      swap3\n      swap2\n      pop\n      pop\n      jump\t// out\n        /* \"#utility.yul\":14383:14635   */\n    tag_260:\n        /* \"#utility.yul\":14500:14510   */\n      0x00\n        /* \"#utility.yul\":14535:14629   */\n      tag_433\n        /* \"#utility.yul\":14625:14628   */\n      dup4\n        /* \"#utility.yul\":14617:14623   */\n      dup4\n        /* \"#utility.yul\":14535:14629   */\n      tag_259\n      jump\t// in\n    tag_433:\n        /* \"#utility.yul\":14521:14629   */\n      swap1\n      pop\n        /* \"#utility.yul\":14383:14635   */\n      swap3\n      swap2\n      pop\n      pop\n      jump\t// out\n        /* \"#utility.yul\":14641:14778   */\n    tag_261:\n        /* \"#utility.yul\":14735:14739   */\n      0x00\n        /* \"#utility.yul\":14767:14771   */\n      0x20\n        /* \"#utility.yul\":14762:14765   */\n      dup3\n        /* \"#utility.yul\":14758:14772   */\n      add\n        /* \"#utility.yul\":14750:14772   */\n      swap1\n      pop\n        /* \"#utility.yul\":14641:14778   */\n      swap2\n      swap1\n      pop\n      jump\t// out\n        /* \"#utility.yul\":14844:15947   */\n    tag_262:\n        /* \"#utility.yul\":15011:15014   */\n      0x00\n        /* \"#utility.yul\":15040:15118   */\n      tag_436\n        /* \"#utility.yul\":15112:15117   */\n      dup3\n        /* \"#utility.yul\":15040:15118   */\n      tag_256\n      jump\t// in\n    tag_436:\n        /* \"#utility.yul\":15134:15244   */\n      tag_437\n        /* \"#utility.yul\":15237:15243   */\n      dup2\n        /* \"#utility.yul\":15232:15235   */\n      dup6\n        /* \"#utility.yul\":15134:15244   */\n      tag_257\n      jump\t// in\n    tag_437:\n        /* \"#utility.yul\":15127:15244   */\n      swap4\n      pop\n        /* \"#utility.yul\":15270:15273   */\n      dup4\n        /* \"#utility.yul\":15315:15319   */\n      0x20\n        /* \"#utility.yul\":15307:15313   */\n      dup3\n        /* \"#utility.yul\":15303:15320   */\n      mul\n        /* \"#utility.yul\":15298:15301   */\n      dup6\n        /* \"#utility.yul\":15294:15321   */\n      add\n        /* \"#utility.yul\":15345:15425   */\n      tag_438\n        /* \"#utility.yul\":15419:15424   */\n      dup6\n        /* \"#utility.yul\":15345:15425   */\n      tag_258\n      jump\t// in\n    tag_438:\n        /* \"#utility.yul\":15448:15455   */\n      dup1\n        /* \"#utility.yul\":15479:15480   */\n      0x00\n        /* \"#utility.yul\":15464:15902   */\n    tag_439:\n        /* \"#utility.yul\":15489:15495   */\n      dup6\n        /* \"#utility.yul\":15486:15487   */\n      dup2\n        /* \"#utility.yul\":15483:15496   */\n      lt\n        /* \"#utility.yul\":15464:15902   */\n      iszero\n      tag_441\n      jumpi\n        /* \"#utility.yul\":15560:15569   */\n      dup5\n        /* \"#utility.yul\":15554:15558   */\n      dup5\n        /* \"#utility.yul\":15550:15570   */\n      sub\n        /* \"#utility.yul\":15545:15548   */\n      dup10\n        /* \"#utility.yul\":15538:15571   */\n      mstore\n        /* \"#utility.yul\":15611:15617   */\n      dup2\n        /* \"#utility.yul\":15605:15618   */\n      mload\n        /* \"#utility.yul\":15639:15751   */\n      tag_442\n        /* \"#utility.yul\":15746:15750   */\n      dup6\n        /* \"#utility.yul\":15731:15744   */\n      dup3\n        /* \"#utility.yul\":15639:15751   */\n      tag_260\n      jump\t// in\n    tag_442:\n        /* \"#utility.yul\":15631:15751   */\n      swap5\n      pop\n        /* \"#utility.yul\":15774:15858   */\n      tag_443\n        /* \"#utility.yul\":15851:15857   */\n      dup4\n        /* \"#utility.yul\":15774:15858   */\n      tag_261\n      jump\t// in\n    tag_443:\n        /* \"#utility.yul\":15764:15858   */\n      swap3\n      pop\n        /* \"#utility.yul\":15887:15891   */\n      0x20\n        /* \"#utility.yul\":15882:15885   */\n      dup11\n        /* \"#utility.yul\":15878:15892   */\n      add\n        /* \"#utility.yul\":15871:15892   */\n      swap10\n      pop\n        /* \"#utility.yul\":15524:15902   */\n      pop\n        /* \"#utility.yul\":15511:15512   */\n      0x01\n        /* \"#utility.yul\":15508:15509   */\n      dup2\n        /* \"#utility.yul\":15504:15513   */\n      add\n        /* \"#utility.yul\":15499:15513   */\n      swap1\n      pop\n        /* \"#utility.yul\":15464:15902   */\n      jump(tag_439)\n    tag_441:\n        /* \"#utility.yul\":15468:15482   */\n      pop\n        /* \"#utility.yul\":15918:15922   */\n      dup3\n        /* \"#utility.yul\":15911:15922   */\n      swap8\n      pop\n        /* \"#utility.yul\":15938:15941   */\n      dup8\n        /* \"#utility.yul\":15931:15941   */\n      swap6\n      pop\n        /* \"#utility.yul\":15016:15947   */\n      pop\n      pop\n      pop\n      pop\n      pop\n        /* \"#utility.yul\":14844:15947   */\n      swap3\n      swap2\n      pop\n      pop\n      jump\t// out\n        /* \"#utility.yul\":15953:16422   */\n    tag_47:\n        /* \"#utility.yul\":16144:16148   */\n      0x00\n        /* \"#utility.yul\":16182:16184   */\n      0x20\n        /* \"#utility.yul\":16171:16180   */\n      dup3\n        /* \"#utility.yul\":16167:16185   */\n      add\n        /* \"#utility.yul\":16159:16185   */\n      swap1\n      pop\n        /* \"#utility.yul\":16231:16240   */\n      dup2\n        /* \"#utility.yul\":16225:16229   */\n      dup2\n        /* \"#utility.yul\":16221:16241   */\n      sub\n        /* \"#utility.yul\":16217:16218   */\n      0x00\n        /* \"#utility.yul\":16206:16215   */\n      dup4\n        /* \"#utility.yul\":16202:16219   */\n      add\n        /* \"#utility.yul\":16195:16242   */\n      mstore\n        /* \"#utility.yul\":16259:16415   */\n      tag_445\n        /* \"#utility.yul\":16410:16414   */\n      dup2\n        /* \"#utility.yul\":16401:16407   */\n      dup5\n        /* \"#utility.yul\":16259:16415   */\n      tag_262\n      jump\t// in\n    tag_445:\n        /* \"#utility.yul\":16251:16415   */\n      swap1\n      pop\n        /* \"#utility.yul\":15953:16422   */\n      swap3\n      swap2\n      pop\n      pop\n      jump\t// out\n        /* \"#utility.yul\":16428:16554   */\n    tag_263:\n        /* \"#utility.yul\":16465:16472   */\n      0x00\n        /* \"#utility.yul\":16505:16547   */\n      0xffffffffffffffffffffffffffffffffffffffff\n        /* \"#utility.yul\":16498:16503   */\n      dup3\n        /* \"#utility.yul\":16494:16548   */\n      and\n        /* \"#utility.yul\":16483:16548   */\n      swap1\n      pop\n        /* \"#utility.yul\":16428:16554   */\n      swap2\n      swap1\n      pop\n      jump\t// out\n        /* \"#utility.yul\":16560:16656   */\n    tag_264:\n        /* \"#utility.yul\":16597:16604   */\n      0x00\n        /* \"#utility.yul\":16626:16650   */\n      tag_448\n        /* \"#utility.yul\":16644:16649   */\n      dup3\n        /* \"#utility.yul\":16626:16650   */\n      tag_263\n      jump\t// in\n    tag_448:\n        /* \"#utility.yul\":16615:16650   */\n      swap1\n      pop\n        /* \"#utility.yul\":16560:16656   */\n      swap2\n      swap1\n      pop\n      jump\t// out\n        /* \"#utility.yul\":16662:16780   */\n    tag_265:\n        /* \"#utility.yul\":16749:16773   */\n      tag_450\n        /* \"#utility.yul\":16767:16772   */\n      dup2\n        /* \"#utility.yul\":16749:16773   */\n      tag_264\n      jump\t// in\n    tag_450:\n        /* \"#utility.yul\":16744:16747   */\n      dup3\n        /* \"#utility.yul\":16737:16774   */\n      mstore\n        /* \"#utility.yul\":16662:16780   */\n      pop\n      pop\n      jump\t// out\n        /* \"#utility.yul\":16786:17008   */\n    tag_51:\n        /* \"#utility.yul\":16879:16883   */\n      0x00\n        /* \"#utility.yul\":16917:16919   */\n      0x20\n        /* \"#utility.yul\":16906:16915   */\n      dup3\n        /* \"#utility.yul\":16902:16920   */\n      add\n        /* \"#utility.yul\":16894:16920   */\n      swap1\n      pop\n        /* \"#utility.yul\":16930:17001   */\n      tag_452\n        /* \"#utility.yul\":16998:16999   */\n      0x00\n        /* \"#utility.yul\":16987:16996   */\n      dup4\n        /* \"#utility.yul\":16983:17000   */\n      add\n        /* \"#utility.yul\":16974:16980   */\n      dup5\n        /* \"#utility.yul\":16930:17001   */\n      tag_265\n      jump\t// in\n    tag_452:\n        /* \"#utility.yul\":16786:17008   */\n      swap3\n      swap2\n      pop\n      pop\n      jump\t// out\n        /* \"#utility.yul\":17014:17270   */\n    tag_56:\n        /* \"#utility.yul\":17124:17128   */\n      0x00\n        /* \"#utility.yul\":17162:17164   */\n      0x20\n        /* \"#utility.yul\":17151:17160   */\n      dup3\n        /* \"#utility.yul\":17147:17165   */\n      add\n        /* \"#utility.yul\":17139:17165   */\n      swap1\n      pop\n        /* \"#utility.yul\":17175:17263   */\n      tag_454\n        /* \"#utility.yul\":17260:17261   */\n      0x00\n        /* \"#utility.yul\":17249:17258   */\n      dup4\n        /* \"#utility.yul\":17245:17262   */\n      add\n        /* \"#utility.yul\":17236:17242   */\n      dup5\n        /* \"#utility.yul\":17175:17263   */\n      tag_255\n      jump\t// in\n    tag_454:\n        /* \"#utility.yul\":17014:17270   */\n      swap3\n      swap2\n      pop\n      pop\n      jump\t// out\n        /* \"#utility.yul\":17276:17398   */\n    tag_266:\n        /* \"#utility.yul\":17349:17373   */\n      tag_456\n        /* \"#utility.yul\":17367:17372   */\n      dup2\n        /* \"#utility.yul\":17349:17373   */\n      tag_264\n      jump\t// in\n    tag_456:\n        /* \"#utility.yul\":17342:17347   */\n      dup2\n        /* \"#utility.yul\":17339:17374   */\n      eq\n        /* \"#utility.yul\":17329:17392   */\n      tag_457\n      jumpi\n        /* \"#utility.yul\":17388:17389   */\n      0x00\n        /* \"#utility.yul\":17385:17386   */\n      dup1\n        /* \"#utility.yul\":17378:17390   */\n      revert\n        /* \"#utility.yul\":17329:17392   */\n    tag_457:\n        /* \"#utility.yul\":17276:17398   */\n      pop\n      jump\t// out\n        /* \"#utility.yul\":17404:17543   */\n    tag_267:\n        /* \"#utility.yul\":17450:17455   */\n      0x00\n        /* \"#utility.yul\":17488:17494   */\n      dup2\n        /* \"#utility.yul\":17475:17495   */\n      calldataload\n        /* \"#utility.yul\":17466:17495   */\n      swap1\n      pop\n        /* \"#utility.yul\":17504:17537   */\n      tag_459\n        /* \"#utility.yul\":17531:17536   */\n      dup2\n        /* \"#utility.yul\":17504:17537   */\n      tag_266\n      jump\t// in\n    tag_459:\n        /* \"#utility.yul\":17404:17543   */\n      swap3\n      swap2\n      pop\n      pop\n      jump\t// out\n        /* \"#utility.yul\":17549:17878   */\n    tag_59:\n        /* \"#utility.yul\":17608:17614   */\n      0x00\n        /* \"#utility.yul\":17657:17659   */\n      0x20\n        /* \"#utility.yul\":17645:17654   */\n      dup3\n        /* \"#utility.yul\":17636:17643   */\n      dup5\n        /* \"#utility.yul\":17632:17655   */\n      sub\n        /* \"#utility.yul\":17628:17660   */\n      slt\n        /* \"#utility.yul\":17625:17744   */\n      iszero\n      tag_461\n      jumpi\n        /* \"#utility.yul\":17663:17742   */\n      tag_462\n      tag_220\n      jump\t// in\n    tag_462:\n        /* \"#utility.yul\":17625:17744   */\n    tag_461:\n        /* \"#utility.yul\":17783:17784   */\n      0x00\n        /* \"#utility.yul\":17808:17861   */\n      tag_463\n        /* \"#utility.yul\":17853:17860   */\n      dup5\n        /* \"#utility.yul\":17844:17850   */\n      dup3\n        /* \"#utility.yul\":17833:17842   */\n      dup6\n        /* \"#utility.yul\":17829:17851   */\n      add\n        /* \"#utility.yul\":17808:17861   */\n      tag_267\n      jump\t// in\n    tag_463:\n        /* \"#utility.yul\":17798:17861   */\n      swap2\n      pop\n        /* \"#utility.yul\":17754:17871   */\n      pop\n        /* \"#utility.yul\":17549:17878   */\n      swap3\n      swap2\n      pop\n      pop\n      jump\t// out\n        /* \"#utility.yul\":17884:18032   */\n    tag_268:\n        /* \"#utility.yul\":17986:17997   */\n      0x00\n        /* \"#utility.yul\":18023:18026   */\n      dup2\n        /* \"#utility.yul\":18008:18026   */\n      swap1\n      pop\n        /* \"#utility.yul\":17884:18032   */\n      swap3\n      swap2\n      pop\n      pop\n      jump\t// out\n        /* \"#utility.yul\":18038:18415   */\n    tag_269:\n        /* \"#utility.yul\":18144:18147   */\n      0x00\n        /* \"#utility.yul\":18172:18211   */\n      tag_466\n        /* \"#utility.yul\":18205:18210   */\n      dup3\n        /* \"#utility.yul\":18172:18211   */\n      tag_242\n      jump\t// in\n    tag_466:\n        /* \"#utility.yul\":18227:18316   */\n      tag_467\n        /* \"#utility.yul\":18309:18315   */\n      dup2\n        /* \"#utility.yul\":18304:18307   */\n      dup6\n        /* \"#utility.yul\":18227:18316   */\n      tag_268\n      jump\t// in\n    tag_467:\n        /* \"#utility.yul\":18220:18316   */\n      swap4\n      pop\n        /* \"#utility.yul\":18325:18377   */\n      tag_468\n        /* \"#utility.yul\":18370:18376   */\n      dup2\n        /* \"#utility.yul\":18365:18368   */\n      dup6\n        /* \"#utility.yul\":18358:18362   */\n      0x20\n        /* \"#utility.yul\":18351:18356   */\n      dup7\n        /* \"#utility.yul\":18347:18363   */\n      add\n        /* \"#utility.yul\":18325:18377   */\n      tag_244\n      jump\t// in\n    tag_468:\n        /* \"#utility.yul\":18402:18408   */\n      dup1\n        /* \"#utility.yul\":18397:18400   */\n      dup5\n        /* \"#utility.yul\":18393:18409   */\n      add\n        /* \"#utility.yul\":18386:18409   */\n      swap2\n      pop\n        /* \"#utility.yul\":18148:18415   */\n      pop\n        /* \"#utility.yul\":18038:18415   */\n      swap3\n      swap2\n      pop\n      pop\n      jump\t// out\n        /* \"#utility.yul\":18421:18696   */\n    tag_76:\n        /* \"#utility.yul\":18553:18556   */\n      0x00\n        /* \"#utility.yul\":18575:18670   */\n      tag_470\n        /* \"#utility.yul\":18666:18669   */\n      dup3\n        /* \"#utility.yul\":18657:18663   */\n      dup5\n        /* \"#utility.yul\":18575:18670   */\n      tag_269\n      jump\t// in\n    tag_470:\n        /* \"#utility.yul\":18568:18670   */\n      swap2\n      pop\n        /* \"#utility.yul\":18687:18690   */\n      dup2\n        /* \"#utility.yul\":18680:18690   */\n      swap1\n      pop\n        /* \"#utility.yul\":18421:18696   */\n      swap3\n      swap2\n      pop\n      pop\n      jump\t// out\n        /* \"#utility.yul\":18702:18882   */\n    tag_270:\n        /* \"#utility.yul\":18750:18827   */\n      0x4e487b7100000000000000000000000000000000000000000000000000000000\n        /* \"#utility.yul\":18747:18748   */\n      0x00\n        /* \"#utility.yul\":18740:18828   */\n      mstore\n        /* \"#utility.yul\":18847:18851   */\n      0x11\n        /* \"#utility.yul\":18844:18845   */\n      0x04\n        /* \"#utility.yul\":18837:18852   */\n      mstore\n        /* \"#utility.yul\":18871:18875   */\n      0x24\n        /* \"#utility.yul\":18868:18869   */\n      0x00\n        /* \"#utility.yul\":18861:18876   */\n      revert\n        /* \"#utility.yul\":18888:19121   */\n    tag_78:\n        /* \"#utility.yul\":18927:18930   */\n      0x00\n        /* \"#utility.yul\":18950:18974   */\n      tag_473\n        /* \"#utility.yul\":18968:18973   */\n      dup3\n        /* \"#utility.yul\":18950:18974   */\n      tag_234\n      jump\t// in\n    tag_473:\n        /* \"#utility.yul\":18941:18974   */\n      swap2\n      pop\n        /* \"#utility.yul\":18996:19062   */\n      0xffffffffffffffffffffffffffffffffffffffffffffffffffffffffffffffff\n        /* \"#utility.yul\":18989:18994   */\n      dup3\n        /* \"#utility.yul\":18986:19063   */\n      eq\n        /* \"#utility.yul\":18983:19086   */\n      iszero\n      tag_474\n      jumpi\n        /* \"#utility.yul\":19066:19084   */\n      tag_475\n      tag_270\n      jump\t// in\n    tag_475:\n        /* \"#utility.yul\":18983:19086   */\n    tag_474:\n        /* \"#utility.yul\":19113:19114   */\n      0x01\n        /* \"#utility.yul\":19106:19111   */\n      dup3\n        /* \"#utility.yul\":19102:19115   */\n      add\n        /* \"#utility.yul\":19095:19115   */\n      swap1\n      pop\n        /* \"#utility.yul\":18888:19121   */\n      swap2\n      swap1\n      pop\n      jump\t// out\n        /* \"#utility.yul\":19127:19307   */\n    tag_92:\n        /* \"#utility.yul\":19175:19252   */\n      0x4e487b7100000000000000000000000000000000000000000000000000000000\n        /* \"#utility.yul\":19172:19173   */\n      0x00\n        /* \"#utility.yul\":19165:19253   */\n      mstore\n        /* \"#utility.yul\":19272:19276   */\n      0x32\n        /* \"#utility.yul\":19269:19270   */\n      0x04\n        /* \"#utility.yul\":19262:19277   */\n      mstore\n        /* \"#utility.yul\":19296:19300   */\n      0x24\n        /* \"#utility.yul\":19293:19294   */\n      0x00\n        /* \"#utility.yul\":19286:19301   */\n      revert\n        /* \"#utility.yul\":19313:19493   */\n    tag_271:\n        /* \"#utility.yul\":19361:19438   */\n      0x4e487b7100000000000000000000000000000000000000000000000000000000\n        /* \"#utility.yul\":19358:19359   */\n      0x00\n        /* \"#utility.yul\":19351:19439   */\n      mstore\n        /* \"#utility.yul\":19458:19462   */\n      0x22\n        /* \"#utility.yul\":19455:19456   */\n      0x04\n        /* \"#utility.yul\":19448:19463   */\n      mstore\n        /* \"#utility.yul\":19482:19486   */\n      0x24\n        /* \"#utility.yul\":19479:19480   */\n      0x00\n        /* \"#utility.yul\":19472:19487   */\n      revert\n        /* \"#utility.yul\":19499:19819   */\n    tag_107:\n        /* \"#utility.yul\":19543:19549   */\n      0x00\n        /* \"#utility.yul\":19580:19581   */\n      0x02\n        /* \"#utility.yul\":19574:19578   */\n      dup3\n        /* \"#utility.yul\":19570:19582   */\n      div\n        /* \"#utility.yul\":19560:19582   */\n      swap1\n      pop\n        /* \"#utility.yul\":19627:19628   */\n      0x01\n        /* \"#utility.yul\":19621:19625   */\n      dup3\n        /* \"#utility.yul\":19617:19629   */\n      and\n        /* \"#utility.yul\":19648:19666   */\n      dup1\n        /* \"#utility.yul\":19638:19719   */\n      tag_479\n      jumpi\n        /* \"#utility.yul\":19704:19708   */\n      0x7f\n        /* \"#utility.yul\":19696:19702   */\n      dup3\n        /* \"#utility.yul\":19692:19709   */\n      and\n        /* \"#utility.yul\":19682:19709   */\n      swap2\n      pop\n        /* \"#utility.yul\":19638:19719   */\n    tag_479:\n        /* \"#utility.yul\":19766:19768   */\n      0x20\n        /* \"#utility.yul\":19758:19764   */\n      dup3\n        /* \"#utility.yul\":19755:19769   */\n      lt\n        /* \"#utility.yul\":19735:19753   */\n      dup2\n        /* \"#utility.yul\":19732:19770   */\n      eq\n        /* \"#utility.yul\":19729:19813   */\n      iszero\n      tag_480\n      jumpi\n        /* \"#utility.yul\":19785:19803   */\n      tag_481\n      tag_271\n      jump\t// in\n    tag_481:\n        /* \"#utility.yul\":19729:19813   */\n    tag_480:\n        /* \"#utility.yul\":19550:19819   */\n      pop\n        /* \"#utility.yul\":19499:19819   */\n      swap2\n      swap1\n      pop\n      jump\t// out\n        /* \"#utility.yul\":19825:19997   */\n    tag_272:\n        /* \"#utility.yul\":19965:19989   */\n      0x4d7573742062652070726f706f736564206f776e657200000000000000000000\n        /* \"#utility.yul\":19961:19962   */\n      0x00\n        /* \"#utility.yul\":19953:19959   */\n      dup3\n        /* \"#utility.yul\":19949:19963   */\n      add\n        /* \"#utility.yul\":19942:19990   */\n      mstore\n        /* \"#utility.yul\":19825:19997   */\n      pop\n      jump\t// out\n        /* \"#utility.yul\":20003:20369   */\n    tag_273:\n        /* \"#utility.yul\":20145:20148   */\n      0x00\n        /* \"#utility.yul\":20166:20233   */\n      tag_484\n        /* \"#utility.yul\":20230:20232   */\n      0x16\n        /* \"#utility.yul\":20225:20228   */\n      dup4\n        /* \"#utility.yul\":20166:20233   */\n      tag_252\n      jump\t// in\n    tag_484:\n        /* \"#utility.yul\":20159:20233   */\n      swap2\n      pop\n        /* \"#utility.yul\":20242:20335   */\n      tag_485\n        /* \"#utility.yul\":20331:20334   */\n      dup3\n        /* \"#utility.yul\":20242:20335   */\n      tag_272\n      jump\t// in\n    tag_485:\n        /* \"#utility.yul\":20360:20362   */\n      0x20\n        /* \"#utility.yul\":20355:20358   */\n      dup3\n        /* \"#utility.yul\":20351:20363   */\n      add\n        /* \"#utility.yul\":20344:20363   */\n      swap1\n      pop\n        /* \"#utility.yul\":20003:20369   */\n      swap2\n      swap1\n      pop\n      jump\t// out\n        /* \"#utility.yul\":20375:20794   */\n    tag_146:\n        /* \"#utility.yul\":20541:20545   */\n      0x00\n        /* \"#utility.yul\":20579:20581   */\n      0x20\n        /* \"#utility.yul\":20568:20577   */\n      dup3\n        /* \"#utility.yul\":20564:20582   */\n      add\n        /* \"#utility.yul\":20556:20582   */\n      swap1\n      pop\n        /* \"#utility.yul\":20628:20637   */\n      dup2\n        /* \"#utility.yul\":20622:20626   */\n      dup2\n        /* \"#utility.yul\":20618:20638   */\n      sub\n        /* \"#utility.yul\":20614:20615   */\n      0x00\n        /* \"#utility.yul\":20603:20612   */\n      dup4\n        /* \"#utility.yul\":20599:20616   */\n      add\n        /* \"#utility.yul\":20592:20639   */\n      mstore\n        /* \"#utility.yul\":20656:20787   */\n      tag_487\n        /* \"#utility.yul\":20782:20786   */\n      dup2\n        /* \"#utility.yul\":20656:20787   */\n      tag_273\n      jump\t// in\n    tag_487:\n        /* \"#utility.yul\":20648:20787   */\n      swap1\n      pop\n        /* \"#utility.yul\":20375:20794   */\n      swap2\n      swap1\n      pop\n      jump\t// out\n        /* \"#utility.yul\":20800:20941   */\n    tag_274:\n        /* \"#utility.yul\":20849:20853   */\n      0x00\n        /* \"#utility.yul\":20872:20875   */\n      dup2\n        /* \"#utility.yul\":20864:20875   */\n      swap1\n      pop\n        /* \"#utility.yul\":20895:20898   */\n      dup2\n        /* \"#utility.yul\":20892:20893   */\n      0x00\n        /* \"#utility.yul\":20885:20899   */\n      mstore\n        /* \"#utility.yul\":20929:20933   */\n      0x20\n        /* \"#utility.yul\":20926:20927   */\n      0x00\n        /* \"#utility.yul\":20916:20934   */\n      keccak256\n        /* \"#utility.yul\":20908:20934   */\n      swap1\n      pop\n        /* \"#utility.yul\":20800:20941   */\n      swap2\n      swap1\n      pop\n      jump\t// out\n        /* \"#utility.yul\":20971:21816   */\n    tag_275:\n        /* \"#utility.yul\":21074:21077   */\n      0x00\n        /* \"#utility.yul\":21111:21116   */\n      dup2\n        /* \"#utility.yul\":21105:21117   */\n      sload\n        /* \"#utility.yul\":21140:21176   */\n      tag_490\n        /* \"#utility.yul\":21166:21175   */\n      dup2\n        /* \"#utility.yul\":21140:21176   */\n      tag_107\n      jump\t// in\n    tag_490:\n        /* \"#utility.yul\":21192:21281   */\n      tag_491\n        /* \"#utility.yul\":21274:21280   */\n      dup2\n        /* \"#utility.yul\":21269:21272   */\n      dup7\n        /* \"#utility.yul\":21192:21281   */\n      tag_268\n      jump\t// in\n    tag_491:\n        /* \"#utility.yul\":21185:21281   */\n      swap5\n      pop\n        /* \"#utility.yul\":21312:21313   */\n      0x01\n        /* \"#utility.yul\":21301:21310   */\n      dup3\n        /* \"#utility.yul\":21297:21314   */\n      and\n        /* \"#utility.yul\":21328:21329   */\n      0x00\n        /* \"#utility.yul\":21323:21460   */\n      dup2\n      eq\n      tag_493\n      jumpi\n        /* \"#utility.yul\":21474:21475   */\n      0x01\n        /* \"#utility.yul\":21469:21810   */\n      dup2\n      eq\n      tag_494\n      jumpi\n        /* \"#utility.yul\":21290:21810   */\n      jump(tag_492)\n        /* \"#utility.yul\":21323:21460   */\n    tag_493:\n        /* \"#utility.yul\":21407:21411   */\n      0xff\n        /* \"#utility.yul\":21403:21412   */\n      not\n        /* \"#utility.yul\":21392:21401   */\n      dup4\n        /* \"#utility.yul\":21388:21413   */\n      and\n        /* \"#utility.yul\":21383:21386   */\n      dup7\n        /* \"#utility.yul\":21376:21414   */\n      mstore\n        /* \"#utility.yul\":21443:21449   */\n      dup2\n        /* \"#utility.yul\":21438:21441   */\n      dup7\n        /* \"#utility.yul\":21434:21450   */\n      add\n        /* \"#utility.yul\":21427:21450   */\n      swap4\n      pop\n        /* \"#utility.yul\":21323:21460   */\n      jump(tag_492)\n        /* \"#utility.yul\":21469:21810   */\n    tag_494:\n        /* \"#utility.yul\":21536:21574   */\n      tag_495\n        /* \"#utility.yul\":21568:21573   */\n      dup6\n        /* \"#utility.yul\":21536:21574   */\n      tag_274\n      jump\t// in\n    tag_495:\n        /* \"#utility.yul\":21596:21597   */\n      0x00\n        /* \"#utility.yul\":21610:21764   */\n    tag_496:\n        /* \"#utility.yul\":21624:21630   */\n      dup4\n        /* \"#utility.yul\":21621:21622   */\n      dup2\n        /* \"#utility.yul\":21618:21631   */\n      lt\n        /* \"#utility.yul\":21610:21764   */\n      iszero\n      tag_498\n      jumpi\n        /* \"#utility.yul\":21698:21705   */\n      dup2\n        /* \"#utility.yul\":21692:21706   */\n      sload\n        /* \"#utility.yul\":21688:21689   */\n      dup2\n        /* \"#utility.yul\":21683:21686   */\n      dup10\n        /* \"#utility.yul\":21679:21690   */\n      add\n        /* \"#utility.yul\":21672:21707   */\n      mstore\n        /* \"#utility.yul\":21748:21749   */\n      0x01\n        /* \"#utility.yul\":21739:21746   */\n      dup3\n        /* \"#utility.yul\":21735:21750   */\n      add\n        /* \"#utility.yul\":21724:21750   */\n      swap2\n      pop\n        /* \"#utility.yul\":21646:21650   */\n      0x20\n        /* \"#utility.yul\":21643:21644   */\n      dup2\n        /* \"#utility.yul\":21639:21651   */\n      add\n        /* \"#utility.yul\":21634:21651   */\n      swap1\n      pop\n        /* \"#utility.yul\":21610:21764   */\n      jump(tag_496)\n    tag_498:\n        /* \"#utility.yul\":21793:21799   */\n      dup4\n        /* \"#utility.yul\":21788:21791   */\n      dup9\n        /* \"#utility.yul\":21784:21800   */\n      add\n        /* \"#utility.yul\":21777:21800   */\n      swap6\n      pop\n        /* \"#utility.yul\":21476:21810   */\n      pop\n      pop\n        /* \"#utility.yul\":21290:21810   */\n    tag_492:\n      pop\n        /* \"#utility.yul\":21078:21816   */\n      pop\n      pop\n        /* \"#utility.yul\":20971:21816   */\n      swap3\n      swap2\n      pop\n      pop\n      jump\t// out\n        /* \"#utility.yul\":21822:22091   */\n    tag_163:\n        /* \"#utility.yul\":21951:21954   */\n      0x00\n        /* \"#utility.yul\":21973:22065   */\n      tag_500\n        /* \"#utility.yul\":22061:22064   */\n      dup3\n        /* \"#utility.yul\":22052:22058   */\n      dup5\n        /* \"#utility.yul\":21973:22065   */\n      tag_275\n      jump\t// in\n    tag_500:\n        /* \"#utility.yul\":21966:22065   */\n      swap2\n      pop\n        /* \"#utility.yul\":22082:22085   */\n      dup2\n        /* \"#utility.yul\":22075:22085   */\n      swap1\n      pop\n        /* \"#utility.yul\":21822:22091   */\n      swap3\n      swap2\n      pop\n      pop\n      jump\t// out\n        /* \"#utility.yul\":22097:22269   */\n    tag_276:\n        /* \"#utility.yul\":22237:22261   */\n      0x4f6e6c792063616c6c61626c65206279206f776e657200000000000000000000\n        /* \"#utility.yul\":22233:22234   */\n      0x00\n        /* \"#utility.yul\":22225:22231   */\n      dup3\n        /* \"#utility.yul\":22221:22235   */\n      add\n        /* \"#utility.yul\":22214:22262   */\n      mstore\n        /* \"#utility.yul\":22097:22269   */\n      pop\n      jump\t// out\n        /* \"#utility.yul\":22275:22641   */\n    tag_277:\n        /* \"#utility.yul\":22417:22420   */\n      0x00\n        /* \"#utility.yul\":22438:22505   */\n      tag_503\n        /* \"#utility.yul\":22502:22504   */\n      0x16\n        /* \"#utility.yul\":22497:22500   */\n      dup4\n        /* \"#utility.yul\":22438:22505   */\n      tag_252\n      jump\t// in\n    tag_503:\n        /* \"#utility.yul\":22431:22505   */\n      swap2\n      pop\n        /* \"#utility.yul\":22514:22607   */\n      tag_504\n        /* \"#utility.yul\":22603:22606   */\n      dup3\n        /* \"#utility.yul\":22514:22607   */\n      tag_276\n      jump\t// in\n    tag_504:\n        /* \"#utility.yul\":22632:22634   */\n      0x20\n        /* \"#utility.yul\":22627:22630   */\n      dup3\n        /* \"#utility.yul\":22623:22635   */\n      add\n        /* \"#utility.yul\":22616:22635   */\n      swap1\n      pop\n        /* \"#utility.yul\":22275:22641   */\n      swap2\n      swap1\n      pop\n      jump\t// out\n        /* \"#utility.yul\":22647:23066   */\n    tag_196:\n        /* \"#utility.yul\":22813:22817   */\n      0x00\n        /* \"#utility.yul\":22851:22853   */\n      0x20\n        /* \"#utility.yul\":22840:22849   */\n      dup3\n        /* \"#utility.yul\":22836:22854   */\n      add\n        /* \"#utility.yul\":22828:22854   */\n      swap1\n      pop\n        /* \"#utility.yul\":22900:22909   */\n      dup2\n        /* \"#utility.yul\":22894:22898   */\n      dup2\n        /* \"#utility.yul\":22890:22910   */\n      sub\n        /* \"#utility.yul\":22886:22887   */\n      0x00\n        /* \"#utility.yul\":22875:22884   */\n      dup4\n        /* \"#utility.yul\":22871:22888   */\n      add\n        /* \"#utility.yul\":22864:22911   */\n      mstore\n        /* \"#utility.yul\":22928:23059   */\n      tag_506\n        /* \"#utility.yul\":23054:23058   */\n      dup2\n        /* \"#utility.yul\":22928:23059   */\n      tag_277\n      jump\t// in\n    tag_506:\n        /* \"#utility.yul\":22920:23059   */\n      swap1\n      pop\n        /* \"#utility.yul\":22647:23066   */\n      swap2\n      swap1\n      pop\n      jump\t// out\n        /* \"#utility.yul\":23072:23168   */\n    tag_278:\n        /* \"#utility.yul\":23106:23114   */\n      0x00\n        /* \"#utility.yul\":23155:23160   */\n      dup2\n        /* \"#utility.yul\":23150:23153   */\n      0xe0\n        /* \"#utility.yul\":23146:23161   */\n      shl\n        /* \"#utility.yul\":23125:23161   */\n      swap1\n      pop\n        /* \"#utility.yul\":23072:23168   */\n      swap2\n      swap1\n      pop\n      jump\t// out\n        /* \"#utility.yul\":23174:23268   */\n    tag_279:\n        /* \"#utility.yul\":23212:23219   */\n      0x00\n        /* \"#utility.yul\":23241:23262   */\n      tag_509\n        /* \"#utility.yul\":23256:23261   */\n      dup3\n        /* \"#utility.yul\":23241:23262   */\n      tag_278\n      jump\t// in\n    tag_509:\n        /* \"#utility.yul\":23230:23262   */\n      swap1\n      pop\n        /* \"#utility.yul\":23174:23268   */\n      swap2\n      swap1\n      pop\n      jump\t// out\n        /* \"#utility.yul\":23274:23427   */\n    tag_280:\n        /* \"#utility.yul\":23377:23420   */\n      tag_511\n        /* \"#utility.yul\":23396:23419   */\n      tag_512\n        /* \"#utility.yul\":23413:23418   */\n      dup3\n        /* \"#utility.yul\":23396:23419   */\n      tag_231\n      jump\t// in\n    tag_512:\n        /* \"#utility.yul\":23377:23420   */\n      tag_279\n      jump\t// in\n    tag_511:\n        /* \"#utility.yul\":23372:23375   */\n      dup3\n        /* \"#utility.yul\":23365:23421   */\n      mstore\n        /* \"#utility.yul\":23274:23427   */\n      pop\n      pop\n      jump\t// out\n        /* \"#utility.yul\":23433:23527   */\n    tag_281:\n        /* \"#utility.yul\":23466:23474   */\n      0x00\n        /* \"#utility.yul\":23514:23519   */\n      dup2\n        /* \"#utility.yul\":23510:23512   */\n      0x60\n        /* \"#utility.yul\":23506:23520   */\n      shl\n        /* \"#utility.yul\":23485:23520   */\n      swap1\n      pop\n        /* \"#utility.yul\":23433:23527   */\n      swap2\n      swap1\n      pop\n      jump\t// out\n        /* \"#utility.yul\":23533:23627   */\n    tag_282:\n        /* \"#utility.yul\":23572:23579   */\n      0x00\n        /* \"#utility.yul\":23601:23621   */\n      tag_515\n        /* \"#utility.yul\":23615:23620   */\n      dup3\n        /* \"#utility.yul\":23601:23621   */\n      tag_281\n      jump\t// in\n    tag_515:\n        /* \"#utility.yul\":23590:23621   */\n      swap1\n      pop\n        /* \"#utility.yul\":23533:23627   */\n      swap2\n      swap1\n      pop\n      jump\t// out\n        /* \"#utility.yul\":23633:23733   */\n    tag_283:\n        /* \"#utility.yul\":23672:23679   */\n      0x00\n        /* \"#utility.yul\":23701:23727   */\n      tag_517\n        /* \"#utility.yul\":23721:23726   */\n      dup3\n        /* \"#utility.yul\":23701:23727   */\n      tag_282\n      jump\t// in\n    tag_517:\n        /* \"#utility.yul\":23690:23727   */\n      swap1\n      pop\n        /* \"#utility.yul\":23633:23733   */\n      swap2\n      swap1\n      pop\n      jump\t// out\n        /* \"#utility.yul\":23739:23896   */\n    tag_284:\n        /* \"#utility.yul\":23844:23889   */\n      tag_519\n        /* \"#utility.yul\":23864:23888   */\n      tag_520\n        /* \"#utility.yul\":23882:23887   */\n      dup3\n        /* \"#utility.yul\":23864:23888   */\n      tag_264\n      jump\t// in\n    tag_520:\n        /* \"#utility.yul\":23844:23889   */\n      tag_283\n      jump\t// in\n    tag_519:\n        /* \"#utility.yul\":23839:23842   */\n      dup3\n        /* \"#utility.yul\":23832:23890   */\n      mstore\n        /* \"#utility.yul\":23739:23896   */\n      pop\n      pop\n      jump\t// out\n        /* \"#utility.yul\":23902:23981   */\n    tag_285:\n        /* \"#utility.yul\":23941:23948   */\n      0x00\n        /* \"#utility.yul\":23970:23975   */\n      dup2\n        /* \"#utility.yul\":23959:23975   */\n      swap1\n      pop\n        /* \"#utility.yul\":23902:23981   */\n      swap2\n      swap1\n      pop\n      jump\t// out\n        /* \"#utility.yul\":23987:24144   */\n    tag_286:\n        /* \"#utility.yul\":24092:24137   */\n      tag_523\n        /* \"#utility.yul\":24112:24136   */\n      tag_524\n        /* \"#utility.yul\":24130:24135   */\n      dup3\n        /* \"#utility.yul\":24112:24136   */\n      tag_234\n      jump\t// in\n    tag_524:\n        /* \"#utility.yul\":24092:24137   */\n      tag_285\n      jump\t// in\n    tag_523:\n        /* \"#utility.yul\":24087:24090   */\n      dup3\n        /* \"#utility.yul\":24080:24138   */\n      mstore\n        /* \"#utility.yul\":23987:24144   */\n      pop\n      pop\n      jump\t// out\n        /* \"#utility.yul\":24150:25003   */\n    tag_200:\n        /* \"#utility.yul\":24412:24415   */\n      0x00\n        /* \"#utility.yul\":24434:24529   */\n      tag_526\n        /* \"#utility.yul\":24525:24528   */\n      dup3\n        /* \"#utility.yul\":24516:24522   */\n      dup9\n        /* \"#utility.yul\":24434:24529   */\n      tag_269\n      jump\t// in\n    tag_526:\n        /* \"#utility.yul\":24427:24529   */\n      swap2\n      pop\n        /* \"#utility.yul\":24546:24641   */\n      tag_527\n        /* \"#utility.yul\":24637:24640   */\n      dup3\n        /* \"#utility.yul\":24628:24634   */\n      dup8\n        /* \"#utility.yul\":24546:24641   */\n      tag_269\n      jump\t// in\n    tag_527:\n        /* \"#utility.yul\":24539:24641   */\n      swap2\n      pop\n        /* \"#utility.yul\":24651:24724   */\n      tag_528\n        /* \"#utility.yul\":24720:24723   */\n      dup3\n        /* \"#utility.yul\":24711:24717   */\n      dup7\n        /* \"#utility.yul\":24651:24724   */\n      tag_280\n      jump\t// in\n    tag_528:\n        /* \"#utility.yul\":24749:24750   */\n      0x04\n        /* \"#utility.yul\":24744:24747   */\n      dup3\n        /* \"#utility.yul\":24740:24751   */\n      add\n        /* \"#utility.yul\":24733:24751   */\n      swap2\n      pop\n        /* \"#utility.yul\":24761:24836   */\n      tag_529\n        /* \"#utility.yul\":24832:24835   */\n      dup3\n        /* \"#utility.yul\":24823:24829   */\n      dup6\n        /* \"#utility.yul\":24761:24836   */\n      tag_284\n      jump\t// in\n    tag_529:\n        /* \"#utility.yul\":24861:24863   */\n      0x14\n        /* \"#utility.yul\":24856:24859   */\n      dup3\n        /* \"#utility.yul\":24852:24864   */\n      add\n        /* \"#utility.yul\":24845:24864   */\n      swap2\n      pop\n        /* \"#utility.yul\":24874:24949   */\n      tag_530\n        /* \"#utility.yul\":24945:24948   */\n      dup3\n        /* \"#utility.yul\":24936:24942   */\n      dup5\n        /* \"#utility.yul\":24874:24949   */\n      tag_286\n      jump\t// in\n    tag_530:\n        /* \"#utility.yul\":24974:24976   */\n      0x20\n        /* \"#utility.yul\":24969:24972   */\n      dup3\n        /* \"#utility.yul\":24965:24977   */\n      add\n        /* \"#utility.yul\":24958:24977   */\n      swap2\n      pop\n        /* \"#utility.yul\":24994:24997   */\n      dup2\n        /* \"#utility.yul\":24987:24997   */\n      swap1\n      pop\n        /* \"#utility.yul\":24150:25003   */\n      swap7\n      swap6\n      pop\n      pop\n      pop\n      pop\n      pop\n      pop\n      jump\t// out\n        /* \"#utility.yul\":25009:25189   */\n    tag_287:\n        /* \"#utility.yul\":25057:25134   */\n      0x4e487b7100000000000000000000000000000000000000000000000000000000\n        /* \"#utility.yul\":25054:25055   */\n      0x00\n        /* \"#utility.yul\":25047:25135   */\n      mstore\n        /* \"#utility.yul\":25154:25158   */\n      0x12\n        /* \"#utility.yul\":25151:25152   */\n      0x04\n        /* \"#utility.yul\":25144:25159   */\n      mstore\n        /* \"#utility.yul\":25178:25182   */\n      0x24\n        /* \"#utility.yul\":25175:25176   */\n      0x00\n        /* \"#utility.yul\":25168:25183   */\n      revert\n        /* \"#utility.yul\":25195:25371   */\n    tag_202:\n        /* \"#utility.yul\":25227:25228   */\n      0x00\n        /* \"#utility.yul\":25244:25264   */\n      tag_533\n        /* \"#utility.yul\":25262:25263   */\n      dup3\n        /* \"#utility.yul\":25244:25264   */\n      tag_234\n      jump\t// in\n    tag_533:\n        /* \"#utility.yul\":25239:25264   */\n      swap2\n      pop\n        /* \"#utility.yul\":25278:25298   */\n      tag_534\n        /* \"#utility.yul\":25296:25297   */\n      dup4\n        /* \"#utility.yul\":25278:25298   */\n      tag_234\n      jump\t// in\n    tag_534:\n        /* \"#utility.yul\":25273:25298   */\n      swap3\n      pop\n        /* \"#utility.yul\":25317:25318   */\n      dup3\n        /* \"#utility.yul\":25307:25342   */\n      tag_535\n      jumpi\n        /* \"#utility.yul\":25322:25340   */\n      tag_536\n      tag_287\n      jump\t// in\n    tag_536:\n        /* \"#utility.yul\":25307:25342   */\n    tag_535:\n        /* \"#utility.yul\":25363:25364   */\n      dup3\n        /* \"#utility.yul\":25360:25361   */\n      dup3\n        /* \"#utility.yul\":25356:25365   */\n      mod\n        /* \"#utility.yul\":25351:25365   */\n      swap1\n      pop\n        /* \"#utility.yul\":25195:25371   */\n      swap3\n      swap2\n      pop\n      pop\n      jump\t// out\n        /* \"#utility.yul\":25377:25550   */\n    tag_288:\n        /* \"#utility.yul\":25517:25542   */\n      0x43616e6e6f74207472616e7366657220746f2073656c66000000000000000000\n        /* \"#utility.yul\":25513:25514   */\n      0x00\n        /* \"#utility.yul\":25505:25511   */\n      dup3\n        /* \"#utility.yul\":25501:25515   */\n      add\n        /* \"#utility.yul\":25494:25543   */\n      mstore\n        /* \"#utility.yul\":25377:25550   */\n      pop\n      jump\t// out\n        /* \"#utility.yul\":25556:25922   */\n    tag_289:\n        /* \"#utility.yul\":25698:25701   */\n      0x00\n        /* \"#utility.yul\":25719:25786   */\n      tag_539\n        /* \"#utility.yul\":25783:25785   */\n      0x17\n        /* \"#utility.yul\":25778:25781   */\n      dup4\n        /* \"#utility.yul\":25719:25786   */\n      tag_252\n      jump\t// in\n    tag_539:\n        /* \"#utility.yul\":25712:25786   */\n      swap2\n      pop\n        /* \"#utility.yul\":25795:25888   */\n      tag_540\n        /* \"#utility.yul\":25884:25887   */\n      dup3\n        /* \"#utility.yul\":25795:25888   */\n      tag_288\n      jump\t// in\n    tag_540:\n        /* \"#utility.yul\":25913:25915   */\n      0x20\n        /* \"#utility.yul\":25908:25911   */\n      dup3\n        /* \"#utility.yul\":25904:25916   */\n      add\n        /* \"#utility.yul\":25897:25916   */\n      swap1\n      pop\n        /* \"#utility.yul\":25556:25922   */\n      swap2\n      swap1\n      pop\n      jump\t// out\n        /* \"#utility.yul\":25928:26347   */\n    tag_206:\n        /* \"#utility.yul\":26094:26098   */\n      0x00\n        /* \"#utility.yul\":26132:26134   */\n      0x20\n        /* \"#utility.yul\":26121:26130   */\n      dup3\n        /* \"#utility.yul\":26117:26135   */\n      add\n        /* \"#utility.yul\":26109:26135   */\n      swap1\n      pop\n        /* \"#utility.yul\":26181:26190   */\n      dup2\n        /* \"#utility.yul\":26175:26179   */\n      dup2\n        /* \"#utility.yul\":26171:26191   */\n      sub\n        /* \"#utility.yul\":26167:26168   */\n      0x00\n        /* \"#utility.yul\":26156:26165   */\n      dup4\n        /* \"#utility.yul\":26152:26169   */\n      add\n        /* \"#utility.yul\":26145:26192   */\n      mstore\n        /* \"#utility.yul\":26209:26340   */\n      tag_542\n        /* \"#utility.yul\":26335:26339   */\n      dup2\n        /* \"#utility.yul\":26209:26340   */\n      tag_289\n      jump\t// in\n    tag_542:\n        /* \"#utility.yul\":26201:26340   */\n      swap1\n      pop\n        /* \"#utility.yul\":25928:26347   */\n      swap2\n      swap1\n      pop\n      jump\t// out\n\n    auxdata: 0xa2646970667358221220f540b87c658eed3e55f4cd56eca79c10266dc09b93f0cf65701c67a4f62e980264736f6c634300080c0033\n}\n",
				"bytecode": {
					"linkReferences": {},
					"object": "608060405260006002553480156200001657600080fd5b50338060008073ffffffffffffffffffffffffffffffffffffffff168273ffffffffffffffffffffffffffffffffffffffff1614156200008d576040517f08c379a00000000000000000000000000000000000000000000000000000000081526004016200008490620002ae565b60405180910390fd5b816000806101000a81548173ffffffffffffffffffffffffffffffffffffffff021916908373ffffffffffffffffffffffffffffffffffffffff160217905550600073ffffffffffffffffffffffffffffffffffffffff168173ffffffffffffffffffffffffffffffffffffffff1614620001145762000113816200011d60201b60201c565b5b50505062000342565b3373ffffffffffffffffffffffffffffffffffffffff168173ffffffffffffffffffffffffffffffffffffffff1614156200018f576040517f08c379a0000000000000000000000000000000000000000000000000000000008152600401620001869062000320565b60405180910390fd5b80600160006101000a81548173ffffffffffffffffffffffffffffffffffffffff021916908373ffffffffffffffffffffffffffffffffffffffff1602179055508073ffffffffffffffffffffffffffffffffffffffff1660008054906101000a900473ffffffffffffffffffffffffffffffffffffffff1673ffffffffffffffffffffffffffffffffffffffff167fed8889f560326eb138920d842192f0eb3dd22b4f139c87a2c57538e05bae127860405160405180910390a350565b600082825260208201905092915050565b7f43616e6e6f7420736574206f776e657220746f207a65726f0000000000000000600082015250565b6000620002966018836200024d565b9150620002a3826200025e565b602082019050919050565b60006020820190508181036000830152620002c98162000287565b9050919050565b7f43616e6e6f74207472616e7366657220746f2073656c66000000000000000000600082015250565b6000620003086017836200024d565b91506200031582620002d0565b602082019050919050565b600060208201905081810360008301526200033b81620002f9565b9050919050565b61214180620003526000396000f3fe608060405234801561001057600080fd5b506004361061009e5760003560e01c806379ba50971161006657806379ba50971461019f57806383e8e6a4146101a95780638da5cb5b146101d9578063a1650043146101f7578063f2fde38b146102275761009e565b80630ab4516d146100a357806324c407b1146100d3578063286f44ef146101035780635ef3fc61146101335780636f522e5014610169575b600080fd5b6100bd60048036038101906100b89190611574565b610243565b6040516100ca9190611618565b60405180910390f35b6100ed60048036038101906100e89190611697565b6104d7565b6040516100fa9190611897565b60405180910390f35b61011d600480360381019061011891906118b9565b61084a565b60405161012a9190611618565b60405180910390f35b61014d60048036038101906101489190611902565b610878565b6040516101609796959493929190611997565b60405180910390f35b610183600480360381019061017e9190611902565b610a07565b6040516101969796959493929190611997565b60405180910390f35b6101a7610b86565b005b6101c360048036038101906101be91906118b9565b610d1b565b6040516101d09190611b79565b60405180910390f35b6101e1611053565b6040516101ee9190611bdc565b60405180910390f35b610211600480360381019061020c9190611902565b61107c565b60405161021e9190611bf7565b60405180910390f35b610241600480360381019061023c9190611c3e565b6110a9565b005b600061024d6110bd565b600061025a85858561114d565b90506000600580549050905060006040518060e001604052808481526020018881526020018781526020018663ffffffff1681526020014281526020018363ffffffff168152602001600060018111156102b7576102b661177d565b5b815250905080600360008581526020019081526020016000206000820151816000015560208201518160010190805190602001906102f69291906112e0565b5060408201518160020190805190602001906103139291906112e0565b5060608201518160030160006101000a81548163ffffffff021916908363ffffffff1602179055506080820151816004015560a08201518160050160006101000a81548163ffffffff021916908363ffffffff16021790555060c08201518160050160046101000a81548160ff021916908360018111156103975761039661177d565b5b02179055509050506004876040516103af9190611ca7565b908152602001604051809103902060008154809291906103ce90611ced565b919050555060058190806001815401808255809150506001900390600052602060002090600602016000909190919091506000820151816000015560208201518160010190805190602001906104259291906112e0565b5060408201518160020190805190602001906104429291906112e0565b5060608201518160030160006101000a81548163ffffffff021916908363ffffffff1602179055506080820151816004015560a08201518160050160006101000a81548163ffffffff021916908363ffffffff16021790555060c08201518160050160046101000a81548160ff021916908360018111156104c6576104c561177d565b5b021790555050505050509392505050565b6104df611366565b6104e76110bd565b81156105ab57600160056003600086815260200190815260200160002060050160009054906101000a900463ffffffff1663ffffffff168154811061052f5761052e611d36565b5b906000526020600020906006020160050160046101000a81548160ff021916908360018111156105625761056161177d565b5b021790555060016003600085815260200190815260200160002060050160046101000a81548160ff021916908360018111156105a1576105a061177d565b5b0217905550610665565b600060056003600086815260200190815260200160002060050160009054906101000a900463ffffffff1663ffffffff16815481106105ed576105ec611d36565b5b906000526020600020906006020160050160046101000a81548160ff021916908360018111156106205761061f61177d565b5b021790555060006003600085815260200190815260200160002060050160046101000a81548160ff0219169083600181111561065f5761065e61177d565b5b02179055505b600360008481526020019081526020016000206040518060e00160405290816000820154815260200160018201805461069d90611d94565b80601f01602080910402602001604051908101604052809291908181526020018280546106c990611d94565b80156107165780601f106106eb57610100808354040283529160200191610716565b820191906000526020600020905b8154815290600101906020018083116106f957829003601f168201915b5050505050815260200160028201805461072f90611d94565b80601f016020809104026020016040519081016040528092919081815260200182805461075b90611d94565b80156107a85780601f1061077d576101008083540402835291602001916107a8565b820191906000526020600020905b81548152906001019060200180831161078b57829003601f168201915b505050505081526020016003820160009054906101000a900463ffffffff1663ffffffff1663ffffffff168152602001600482015481526020016005820160009054906101000a900463ffffffff1663ffffffff1663ffffffff1681526020016005820160049054906101000a900460ff16600181111561082c5761082b61177d565b5b600181111561083e5761083d61177d565b5b81525050905092915050565b6004818051602081018201805184825260208301602085012081835280955050505050506000915090505481565b6005818154811061088857600080fd5b90600052602060002090600602016000915090508060000154908060010180546108b190611d94565b80601f01602080910402602001604051908101604052809291908181526020018280546108dd90611d94565b801561092a5780601f106108ff5761010080835404028352916020019161092a565b820191906000526020600020905b81548152906001019060200180831161090d57829003601f168201915b50505050509080600201805461093f90611d94565b80601f016020809104026020016040519081016040528092919081815260200182805461096b90611d94565b80156109b85780601f1061098d576101008083540402835291602001916109b8565b820191906000526020600020905b81548152906001019060200180831161099b57829003601f168201915b5050505050908060030160009054906101000a900463ffffffff16908060040154908060050160009054906101000a900463ffffffff16908060050160049054906101000a900460ff16905087565b6003602052806000526040600020600091509050806000015490806001018054610a3090611d94565b80601f0160208091040260200160405190810160405280929190818152602001828054610a5c90611d94565b8015610aa95780601f10610a7e57610100808354040283529160200191610aa9565b820191906000526020600020905b815481529060010190602001808311610a8c57829003601f168201915b505050505090806002018054610abe90611d94565b80601f0160208091040260200160405190810160405280929190818152602001828054610aea90611d94565b8015610b375780601f10610b0c57610100808354040283529160200191610b37565b820191906000526020600020905b815481529060010190602001808311610b1a57829003601f168201915b5050505050908060030160009054906101000a900463ffffffff16908060040154908060050160009054906101000a900463ffffffff16908060050160049054906101000a900460ff16905087565b600160009054906101000a900473ffffffffffffffffffffffffffffffffffffffff1673ffffffffffffffffffffffffffffffffffffffff163373ffffffffffffffffffffffffffffffffffffffff1614610c16576040517f08c379a0000000000000000000000000000000000000000000000000000000008152600401610c0d90611e12565b60405180910390fd5b60008060009054906101000a900473ffffffffffffffffffffffffffffffffffffffff169050336000806101000a81548173ffffffffffffffffffffffffffffffffffffffff021916908373ffffffffffffffffffffffffffffffffffffffff1602179055506000600160006101000a81548173ffffffffffffffffffffffffffffffffffffffff021916908373ffffffffffffffffffffffffffffffffffffffff1602179055503373ffffffffffffffffffffffffffffffffffffffff168173ffffffffffffffffffffffffffffffffffffffff167f8be0079c531659141344cd1fd0a4f28419497f9722a3daafe3b4186f6b6457e060405160405180910390a350565b60606000600483604051610d2f9190611ca7565b90815260200160405180910390205467ffffffffffffffff811115610d5757610d5661140d565b5b604051908082528060200260200182016040528015610d9057816020015b610d7d611366565b815260200190600190039081610d755790505b5090506000805b6005805490508110156110485784604051602001610db59190611ca7565b6040516020818303038152906040528051906020012060058281548110610ddf57610dde611d36565b5b9060005260206000209060060201600101604051602001610e009190611ec6565b6040516020818303038152906040528051906020012014156110355760058181548110610e3057610e2f611d36565b5b90600052602060002090600602016040518060e001604052908160008201548152602001600182018054610e6390611d94565b80601f0160208091040260200160405190810160405280929190818152602001828054610e8f90611d94565b8015610edc5780601f10610eb157610100808354040283529160200191610edc565b820191906000526020600020905b815481529060010190602001808311610ebf57829003601f168201915b50505050508152602001600282018054610ef590611d94565b80601f0160208091040260200160405190810160405280929190818152602001828054610f2190611d94565b8015610f6e5780601f10610f4357610100808354040283529160200191610f6e565b820191906000526020600020905b815481529060010190602001808311610f5157829003601f168201915b505050505081526020016003820160009054906101000a900463ffffffff1663ffffffff1663ffffffff168152602001600482015481526020016005820160009054906101000a900463ffffffff1663ffffffff1663ffffffff1681526020016005820160049054906101000a900460ff166001811115610ff257610ff161177d565b5b60018111156110045761100361177d565b5b8152505083838151811061101b5761101a611d36565b5b6020026020010181905250818061103190611ced565b9250505b808061104090611ced565b915050610d97565b508192505050919050565b60008060009054906101000a900473ffffffffffffffffffffffffffffffffffffffff16905090565b60006003600083815260200190815260200160002060050160049054906101000a900460ff169050919050565b6110b16110bd565b6110ba816111b3565b50565b60008054906101000a900473ffffffffffffffffffffffffffffffffffffffff1673ffffffffffffffffffffffffffffffffffffffff163373ffffffffffffffffffffffffffffffffffffffff161461114b576040517f08c379a000000000000000000000000000000000000000000000000000000000815260040161114290611f29565b60405180910390fd5b565b60006002600081548092919061116290611ced565b91905055506305f5e10084848433600254604051602001611187959493929190611fe8565b6040516020818303038152906040528051906020012060001c6111aa919061206e565b90509392505050565b3373ffffffffffffffffffffffffffffffffffffffff168173ffffffffffffffffffffffffffffffffffffffff161415611222576040517f08c379a0000000000000000000000000000000000000000000000000000000008152600401611219906120eb565b60405180910390fd5b80600160006101000a81548173ffffffffffffffffffffffffffffffffffffffff021916908373ffffffffffffffffffffffffffffffffffffffff1602179055508073ffffffffffffffffffffffffffffffffffffffff1660008054906101000a900473ffffffffffffffffffffffffffffffffffffffff1673ffffffffffffffffffffffffffffffffffffffff167fed8889f560326eb138920d842192f0eb3dd22b4f139c87a2c57538e05bae127860405160405180910390a350565b8280546112ec90611d94565b90600052602060002090601f01602090048101928261130e5760008555611355565b82601f1061132757805160ff1916838001178555611355565b82800160010185558215611355579182015b82811115611354578251825591602001919060010190611339565b5b50905061136291906113c1565b5090565b6040518060e00160405280600081526020016060815260200160608152602001600063ffffffff16815260200160008152602001600063ffffffff168152602001600060018111156113bb576113ba61177d565b5b81525090565b5b808211156113da5760008160009055506001016113c2565b5090565b6000604051905090565b600080fd5b600080fd5b600080fd5b600080fd5b6000601f19601f8301169050919050565b7f4e487b7100000000000000000000000000000000000000000000000000000000600052604160045260246000fd5b611445826113fc565b810181811067ffffffffffffffff821117156114645761146361140d565b5b80604052505050565b60006114776113de565b9050611483828261143c565b919050565b600067ffffffffffffffff8211156114a3576114a261140d565b5b6114ac826113fc565b9050602081019050919050565b82818337600083830152505050565b60006114db6114d684611488565b61146d565b9050828152602081018484840111156114f7576114f66113f7565b5b6115028482856114b9565b509392505050565b600082601f83011261151f5761151e6113f2565b5b813561152f8482602086016114c8565b91505092915050565b600063ffffffff82169050919050565b61155181611538565b811461155c57600080fd5b50565b60008135905061156e81611548565b92915050565b60008060006060848603121561158d5761158c6113e8565b5b600084013567ffffffffffffffff8111156115ab576115aa6113ed565b5b6115b78682870161150a565b935050602084013567ffffffffffffffff8111156115d8576115d76113ed565b5b6115e48682870161150a565b92505060406115f58682870161155f565b9150509250925092565b6000819050919050565b611612816115ff565b82525050565b600060208201905061162d6000830184611609565b92915050565b61163c816115ff565b811461164757600080fd5b50565b60008135905061165981611633565b92915050565b60008115159050919050565b6116748161165f565b811461167f57600080fd5b50565b6000813590506116918161166b565b92915050565b600080604083850312156116ae576116ad6113e8565b5b60006116bc8582860161164a565b92505060206116cd85828601611682565b9150509250929050565b6116e0816115ff565b82525050565b600081519050919050565b600082825260208201905092915050565b60005b83811015611720578082015181840152602081019050611705565b8381111561172f576000848401525b50505050565b6000611740826116e6565b61174a81856116f1565b935061175a818560208601611702565b611763816113fc565b840191505092915050565b61177781611538565b82525050565b7f4e487b7100000000000000000000000000000000000000000000000000000000600052602160045260246000fd5b600281106117bd576117bc61177d565b5b50565b60008190506117ce826117ac565b919050565b60006117de826117c0565b9050919050565b6117ee816117d3565b82525050565b600060e08301600083015161180c60008601826116d7565b50602083015184820360208601526118248282611735565b9150506040830151848203604086015261183e8282611735565b9150506060830151611853606086018261176e565b50608083015161186660808601826116d7565b5060a083015161187960a086018261176e565b5060c083015161188c60c08601826117e5565b508091505092915050565b600060208201905081810360008301526118b181846117f4565b905092915050565b6000602082840312156118cf576118ce6113e8565b5b600082013567ffffffffffffffff8111156118ed576118ec6113ed565b5b6118f98482850161150a565b91505092915050565b600060208284031215611918576119176113e8565b5b60006119268482850161164a565b91505092915050565b600082825260208201905092915050565b600061194b826116e6565b611955818561192f565b9350611965818560208601611702565b61196e816113fc565b840191505092915050565b61198281611538565b82525050565b611991816117d3565b82525050565b600060e0820190506119ac600083018a611609565b81810360208301526119be8189611940565b905081810360408301526119d28188611940565b90506119e16060830187611979565b6119ee6080830186611609565b6119fb60a0830185611979565b611a0860c0830184611988565b98975050505050505050565b600081519050919050565b600082825260208201905092915050565b6000819050602082019050919050565b600060e083016000830151611a5860008601826116d7565b5060208301518482036020860152611a708282611735565b91505060408301518482036040860152611a8a8282611735565b9150506060830151611a9f606086018261176e565b506080830151611ab260808601826116d7565b5060a0830151611ac560a086018261176e565b5060c0830151611ad860c08601826117e5565b508091505092915050565b6000611aef8383611a40565b905092915050565b6000602082019050919050565b6000611b0f82611a14565b611b198185611a1f565b935083602082028501611b2b85611a30565b8060005b85811015611b675784840389528151611b488582611ae3565b9450611b5383611af7565b925060208a01995050600181019050611b2f565b50829750879550505050505092915050565b60006020820190508181036000830152611b938184611b04565b905092915050565b600073ffffffffffffffffffffffffffffffffffffffff82169050919050565b6000611bc682611b9b565b9050919050565b611bd681611bbb565b82525050565b6000602082019050611bf16000830184611bcd565b92915050565b6000602082019050611c0c6000830184611988565b92915050565b611c1b81611bbb565b8114611c2657600080fd5b50565b600081359050611c3881611c12565b92915050565b600060208284031215611c5457611c536113e8565b5b6000611c6284828501611c29565b91505092915050565b600081905092915050565b6000611c81826116e6565b611c8b8185611c6b565b9350611c9b818560208601611702565b80840191505092915050565b6000611cb38284611c76565b915081905092915050565b7f4e487b7100000000000000000000000000000000000000000000000000000000600052601160045260246000fd5b6000611cf8826115ff565b91507fffffffffffffffffffffffffffffffffffffffffffffffffffffffffffffffff821415611d2b57611d2a611cbe565b5b600182019050919050565b7f4e487b7100000000000000000000000000000000000000000000000000000000600052603260045260246000fd5b7f4e487b7100000000000000000000000000000000000000000000000000000000600052602260045260246000fd5b60006002820490506001821680611dac57607f821691505b60208210811415611dc057611dbf611d65565b5b50919050565b7f4d7573742062652070726f706f736564206f776e657200000000000000000000600082015250565b6000611dfc60168361192f565b9150611e0782611dc6565b602082019050919050565b60006020820190508181036000830152611e2b81611def565b9050919050565b60008190508160005260206000209050919050565b60008154611e5481611d94565b611e5e8186611c6b565b94506001821660008114611e795760018114611e8a57611ebd565b60ff19831686528186019350611ebd565b611e9385611e32565b60005b83811015611eb557815481890152600182019150602081019050611e96565b838801955050505b50505092915050565b6000611ed28284611e47565b915081905092915050565b7f4f6e6c792063616c6c61626c65206279206f776e657200000000000000000000600082015250565b6000611f1360168361192f565b9150611f1e82611edd565b602082019050919050565b60006020820190508181036000830152611f4281611f06565b9050919050565b60008160e01b9050919050565b6000611f6182611f49565b9050919050565b611f79611f7482611538565b611f56565b82525050565b60008160601b9050919050565b6000611f9782611f7f565b9050919050565b6000611fa982611f8c565b9050919050565b611fc1611fbc82611bbb565b611f9e565b82525050565b6000819050919050565b611fe2611fdd826115ff565b611fc7565b82525050565b6000611ff48288611c76565b91506120008287611c76565b915061200c8286611f68565b60048201915061201c8285611fb0565b60148201915061202c8284611fd1565b6020820191508190509695505050505050565b7f4e487b7100000000000000000000000000000000000000000000000000000000600052601260045260246000fd5b6000612079826115ff565b9150612084836115ff565b9250826120945761209361203f565b5b828206905092915050565b7f43616e6e6f74207472616e7366657220746f2073656c66000000000000000000600082015250565b60006120d560178361192f565b91506120e08261209f565b602082019050919050565b60006020820190508181036000830152612104816120c8565b905091905056fea2646970667358221220f540b87c658eed3e55f4cd56eca79c10266dc09b93f0cf65701c67a4f62e980264736f6c634300080c0033",
					"opcodes": "PUSH1 0x80 PUSH1 0x40 MSTORE PUSH1 0x0 PUSH1 0x2 SSTORE CALLVALUE DUP1 ISZERO PUSH3 0x16 JUMPI PUSH1 0x0 DUP1 REVERT JUMPDEST POP CALLER DUP1 PUSH1 0x0 DUP1 PUSH20 0xFFFFFFFFFFFFFFFFFFFFFFFFFFFFFFFFFFFFFFFF AND DUP3 PUSH20 0xFFFFFFFFFFFFFFFFFFFFFFFFFFFFFFFFFFFFFFFF AND EQ ISZERO PUSH3 0x8D JUMPI PUSH1 0x40 MLOAD PUSH32 0x8C379A000000000000000000000000000000000000000000000000000000000 DUP2 MSTORE PUSH1 0x4 ADD PUSH3 0x84 SWAP1 PUSH3 0x2AE JUMP JUMPDEST PUSH1 0x40 MLOAD DUP1 SWAP2 SUB SWAP1 REVERT JUMPDEST DUP2 PUSH1 0x0 DUP1 PUSH2 0x100 EXP DUP2 SLOAD DUP2 PUSH20 0xFFFFFFFFFFFFFFFFFFFFFFFFFFFFFFFFFFFFFFFF MUL NOT AND SWAP1 DUP4 PUSH20 0xFFFFFFFFFFFFFFFFFFFFFFFFFFFFFFFFFFFFFFFF AND MUL OR SWAP1 SSTORE POP PUSH1 0x0 PUSH20 0xFFFFFFFFFFFFFFFFFFFFFFFFFFFFFFFFFFFFFFFF AND DUP2 PUSH20 0xFFFFFFFFFFFFFFFFFFFFFFFFFFFFFFFFFFFFFFFF AND EQ PUSH3 0x114 JUMPI PUSH3 0x113 DUP2 PUSH3 0x11D PUSH1 0x20 SHL PUSH1 0x20 SHR JUMP JUMPDEST JUMPDEST POP POP POP PUSH3 0x342 JUMP JUMPDEST CALLER PUSH20 0xFFFFFFFFFFFFFFFFFFFFFFFFFFFFFFFFFFFFFFFF AND DUP2 PUSH20 0xFFFFFFFFFFFFFFFFFFFFFFFFFFFFFFFFFFFFFFFF AND EQ ISZERO PUSH3 0x18F JUMPI PUSH1 0x40 MLOAD PUSH32 0x8C379A000000000000000000000000000000000000000000000000000000000 DUP2 MSTORE PUSH1 0x4 ADD PUSH3 0x186 SWAP1 PUSH3 0x320 JUMP JUMPDEST PUSH1 0x40 MLOAD DUP1 SWAP2 SUB SWAP1 REVERT JUMPDEST DUP1 PUSH1 0x1 PUSH1 0x0 PUSH2 0x100 EXP DUP2 SLOAD DUP2 PUSH20 0xFFFFFFFFFFFFFFFFFFFFFFFFFFFFFFFFFFFFFFFF MUL NOT AND SWAP1 DUP4 PUSH20 0xFFFFFFFFFFFFFFFFFFFFFFFFFFFFFFFFFFFFFFFF AND MUL OR SWAP1 SSTORE POP DUP1 PUSH20 0xFFFFFFFFFFFFFFFFFFFFFFFFFFFFFFFFFFFFFFFF AND PUSH1 0x0 DUP1 SLOAD SWAP1 PUSH2 0x100 EXP SWAP1 DIV PUSH20 0xFFFFFFFFFFFFFFFFFFFFFFFFFFFFFFFFFFFFFFFF AND PUSH20 0xFFFFFFFFFFFFFFFFFFFFFFFFFFFFFFFFFFFFFFFF AND PUSH32 0xED8889F560326EB138920D842192F0EB3DD22B4F139C87A2C57538E05BAE1278 PUSH1 0x40 MLOAD PUSH1 0x40 MLOAD DUP1 SWAP2 SUB SWAP1 LOG3 POP JUMP JUMPDEST PUSH1 0x0 DUP3 DUP3 MSTORE PUSH1 0x20 DUP3 ADD SWAP1 POP SWAP3 SWAP2 POP POP JUMP JUMPDEST PUSH32 0x43616E6E6F7420736574206F776E657220746F207A65726F0000000000000000 PUSH1 0x0 DUP3 ADD MSTORE POP JUMP JUMPDEST PUSH1 0x0 PUSH3 0x296 PUSH1 0x18 DUP4 PUSH3 0x24D JUMP JUMPDEST SWAP2 POP PUSH3 0x2A3 DUP3 PUSH3 0x25E JUMP JUMPDEST PUSH1 0x20 DUP3 ADD SWAP1 POP SWAP2 SWAP1 POP JUMP JUMPDEST PUSH1 0x0 PUSH1 0x20 DUP3 ADD SWAP1 POP DUP2 DUP2 SUB PUSH1 0x0 DUP4 ADD MSTORE PUSH3 0x2C9 DUP2 PUSH3 0x287 JUMP JUMPDEST SWAP1 POP SWAP2 SWAP1 POP JUMP JUMPDEST PUSH32 0x43616E6E6F74207472616E7366657220746F2073656C66000000000000000000 PUSH1 0x0 DUP3 ADD MSTORE POP JUMP JUMPDEST PUSH1 0x0 PUSH3 0x308 PUSH1 0x17 DUP4 PUSH3 0x24D JUMP JUMPDEST SWAP2 POP PUSH3 0x315 DUP3 PUSH3 0x2D0 JUMP JUMPDEST PUSH1 0x20 DUP3 ADD SWAP1 POP SWAP2 SWAP1 POP JUMP JUMPDEST PUSH1 0x0 PUSH1 0x20 DUP3 ADD SWAP1 POP DUP2 DUP2 SUB PUSH1 0x0 DUP4 ADD MSTORE PUSH3 0x33B DUP2 PUSH3 0x2F9 JUMP JUMPDEST SWAP1 POP SWAP2 SWAP1 POP JUMP JUMPDEST PUSH2 0x2141 DUP1 PUSH3 0x352 PUSH1 0x0 CODECOPY PUSH1 0x0 RETURN INVALID PUSH1 0x80 PUSH1 0x40 MSTORE CALLVALUE DUP1 ISZERO PUSH2 0x10 JUMPI PUSH1 0x0 DUP1 REVERT JUMPDEST POP PUSH1 0x4 CALLDATASIZE LT PUSH2 0x9E JUMPI PUSH1 0x0 CALLDATALOAD PUSH1 0xE0 SHR DUP1 PUSH4 0x79BA5097 GT PUSH2 0x66 JUMPI DUP1 PUSH4 0x79BA5097 EQ PUSH2 0x19F JUMPI DUP1 PUSH4 0x83E8E6A4 EQ PUSH2 0x1A9 JUMPI DUP1 PUSH4 0x8DA5CB5B EQ PUSH2 0x1D9 JUMPI DUP1 PUSH4 0xA1650043 EQ PUSH2 0x1F7 JUMPI DUP1 PUSH4 0xF2FDE38B EQ PUSH2 0x227 JUMPI PUSH2 0x9E JUMP JUMPDEST DUP1 PUSH4 0xAB4516D EQ PUSH2 0xA3 JUMPI DUP1 PUSH4 0x24C407B1 EQ PUSH2 0xD3 JUMPI DUP1 PUSH4 0x286F44EF EQ PUSH2 0x103 JUMPI DUP1 PUSH4 0x5EF3FC61 EQ PUSH2 0x133 JUMPI DUP1 PUSH4 0x6F522E50 EQ PUSH2 0x169 JUMPI JUMPDEST PUSH1 0x0 DUP1 REVERT JUMPDEST PUSH2 0xBD PUSH1 0x4 DUP1 CALLDATASIZE SUB DUP2 ADD SWAP1 PUSH2 0xB8 SWAP2 SWAP1 PUSH2 0x1574 JUMP JUMPDEST PUSH2 0x243 JUMP JUMPDEST PUSH1 0x40 MLOAD PUSH2 0xCA SWAP2 SWAP1 PUSH2 0x1618 JUMP JUMPDEST PUSH1 0x40 MLOAD DUP1 SWAP2 SUB SWAP1 RETURN JUMPDEST PUSH2 0xED PUSH1 0x4 DUP1 CALLDATASIZE SUB DUP2 ADD SWAP1 PUSH2 0xE8 SWAP2 SWAP1 PUSH2 0x1697 JUMP JUMPDEST PUSH2 0x4D7 JUMP JUMPDEST PUSH1 0x40 MLOAD PUSH2 0xFA SWAP2 SWAP1 PUSH2 0x1897 JUMP JUMPDEST PUSH1 0x40 MLOAD DUP1 SWAP2 SUB SWAP1 RETURN JUMPDEST PUSH2 0x11D PUSH1 0x4 DUP1 CALLDATASIZE SUB DUP2 ADD SWAP1 PUSH2 0x118 SWAP2 SWAP1 PUSH2 0x18B9 JUMP JUMPDEST PUSH2 0x84A JUMP JUMPDEST PUSH1 0x40 MLOAD PUSH2 0x12A SWAP2 SWAP1 PUSH2 0x1618 JUMP JUMPDEST PUSH1 0x40 MLOAD DUP1 SWAP2 SUB SWAP1 RETURN JUMPDEST PUSH2 0x14D PUSH1 0x4 DUP1 CALLDATASIZE SUB DUP2 ADD SWAP1 PUSH2 0x148 SWAP2 SWAP1 PUSH2 0x1902 JUMP JUMPDEST PUSH2 0x878 JUMP JUMPDEST PUSH1 0x40 MLOAD PUSH2 0x160 SWAP8 SWAP7 SWAP6 SWAP5 SWAP4 SWAP3 SWAP2 SWAP1 PUSH2 0x1997 JUMP JUMPDEST PUSH1 0x40 MLOAD DUP1 SWAP2 SUB SWAP1 RETURN JUMPDEST PUSH2 0x183 PUSH1 0x4 DUP1 CALLDATASIZE SUB DUP2 ADD SWAP1 PUSH2 0x17E SWAP2 SWAP1 PUSH2 0x1902 JUMP JUMPDEST PUSH2 0xA07 JUMP JUMPDEST PUSH1 0x40 MLOAD PUSH2 0x196 SWAP8 SWAP7 SWAP6 SWAP5 SWAP4 SWAP3 SWAP2 SWAP1 PUSH2 0x1997 JUMP JUMPDEST PUSH1 0x40 MLOAD DUP1 SWAP2 SUB SWAP1 RETURN JUMPDEST PUSH2 0x1A7 PUSH2 0xB86 JUMP JUMPDEST STOP JUMPDEST PUSH2 0x1C3 PUSH1 0x4 DUP1 CALLDATASIZE SUB DUP2 ADD SWAP1 PUSH2 0x1BE SWAP2 SWAP1 PUSH2 0x18B9 JUMP JUMPDEST PUSH2 0xD1B JUMP JUMPDEST PUSH1 0x40 MLOAD PUSH2 0x1D0 SWAP2 SWAP1 PUSH2 0x1B79 JUMP JUMPDEST PUSH1 0x40 MLOAD DUP1 SWAP2 SUB SWAP1 RETURN JUMPDEST PUSH2 0x1E1 PUSH2 0x1053 JUMP JUMPDEST PUSH1 0x40 MLOAD PUSH2 0x1EE SWAP2 SWAP1 PUSH2 0x1BDC JUMP JUMPDEST PUSH1 0x40 MLOAD DUP1 SWAP2 SUB SWAP1 RETURN JUMPDEST PUSH2 0x211 PUSH1 0x4 DUP1 CALLDATASIZE SUB DUP2 ADD SWAP1 PUSH2 0x20C SWAP2 SWAP1 PUSH2 0x1902 JUMP JUMPDEST PUSH2 0x107C JUMP JUMPDEST PUSH1 0x40 MLOAD PUSH2 0x21E SWAP2 SWAP1 PUSH2 0x1BF7 JUMP JUMPDEST PUSH1 0x40 MLOAD DUP1 SWAP2 SUB SWAP1 RETURN JUMPDEST PUSH2 0x241 PUSH1 0x4 DUP1 CALLDATASIZE SUB DUP2 ADD SWAP1 PUSH2 0x23C SWAP2 SWAP1 PUSH2 0x1C3E JUMP JUMPDEST PUSH2 0x10A9 JUMP JUMPDEST STOP JUMPDEST PUSH1 0x0 PUSH2 0x24D PUSH2 0x10BD JUMP JUMPDEST PUSH1 0x0 PUSH2 0x25A DUP6 DUP6 DUP6 PUSH2 0x114D JUMP JUMPDEST SWAP1 POP PUSH1 0x0 PUSH1 0x5 DUP1 SLOAD SWAP1 POP SWAP1 POP PUSH1 0x0 PUSH1 0x40 MLOAD DUP1 PUSH1 0xE0 ADD PUSH1 0x40 MSTORE DUP1 DUP5 DUP2 MSTORE PUSH1 0x20 ADD DUP9 DUP2 MSTORE PUSH1 0x20 ADD DUP8 DUP2 MSTORE PUSH1 0x20 ADD DUP7 PUSH4 0xFFFFFFFF AND DUP2 MSTORE PUSH1 0x20 ADD TIMESTAMP DUP2 MSTORE PUSH1 0x20 ADD DUP4 PUSH4 0xFFFFFFFF AND DUP2 MSTORE PUSH1 0x20 ADD PUSH1 0x0 PUSH1 0x1 DUP2 GT ISZERO PUSH2 0x2B7 JUMPI PUSH2 0x2B6 PUSH2 0x177D JUMP JUMPDEST JUMPDEST DUP2 MSTORE POP SWAP1 POP DUP1 PUSH1 0x3 PUSH1 0x0 DUP6 DUP2 MSTORE PUSH1 0x20 ADD SWAP1 DUP2 MSTORE PUSH1 0x20 ADD PUSH1 0x0 KECCAK256 PUSH1 0x0 DUP3 ADD MLOAD DUP2 PUSH1 0x0 ADD SSTORE PUSH1 0x20 DUP3 ADD MLOAD DUP2 PUSH1 0x1 ADD SWAP1 DUP1 MLOAD SWAP1 PUSH1 0x20 ADD SWAP1 PUSH2 0x2F6 SWAP3 SWAP2 SWAP1 PUSH2 0x12E0 JUMP JUMPDEST POP PUSH1 0x40 DUP3 ADD MLOAD DUP2 PUSH1 0x2 ADD SWAP1 DUP1 MLOAD SWAP1 PUSH1 0x20 ADD SWAP1 PUSH2 0x313 SWAP3 SWAP2 SWAP1 PUSH2 0x12E0 JUMP JUMPDEST POP PUSH1 0x60 DUP3 ADD MLOAD DUP2 PUSH1 0x3 ADD PUSH1 0x0 PUSH2 0x100 EXP DUP2 SLOAD DUP2 PUSH4 0xFFFFFFFF MUL NOT AND SWAP1 DUP4 PUSH4 0xFFFFFFFF AND MUL OR SWAP1 SSTORE POP PUSH1 0x80 DUP3 ADD MLOAD DUP2 PUSH1 0x4 ADD SSTORE PUSH1 0xA0 DUP3 ADD MLOAD DUP2 PUSH1 0x5 ADD PUSH1 0x0 PUSH2 0x100 EXP DUP2 SLOAD DUP2 PUSH4 0xFFFFFFFF MUL NOT AND SWAP1 DUP4 PUSH4 0xFFFFFFFF AND MUL OR SWAP1 SSTORE POP PUSH1 0xC0 DUP3 ADD MLOAD DUP2 PUSH1 0x5 ADD PUSH1 0x4 PUSH2 0x100 EXP DUP2 SLOAD DUP2 PUSH1 0xFF MUL NOT AND SWAP1 DUP4 PUSH1 0x1 DUP2 GT ISZERO PUSH2 0x397 JUMPI PUSH2 0x396 PUSH2 0x177D JUMP JUMPDEST JUMPDEST MUL OR SWAP1 SSTORE POP SWAP1 POP POP PUSH1 0x4 DUP8 PUSH1 0x40 MLOAD PUSH2 0x3AF SWAP2 SWAP1 PUSH2 0x1CA7 JUMP JUMPDEST SWAP1 DUP2 MSTORE PUSH1 0x20 ADD PUSH1 0x40 MLOAD DUP1 SWAP2 SUB SWAP1 KECCAK256 PUSH1 0x0 DUP2 SLOAD DUP1 SWAP3 SWAP2 SWAP1 PUSH2 0x3CE SWAP1 PUSH2 0x1CED JUMP JUMPDEST SWAP2 SWAP1 POP SSTORE POP PUSH1 0x5 DUP2 SWAP1 DUP1 PUSH1 0x1 DUP2 SLOAD ADD DUP1 DUP3 SSTORE DUP1 SWAP2 POP POP PUSH1 0x1 SWAP1 SUB SWAP1 PUSH1 0x0 MSTORE PUSH1 0x20 PUSH1 0x0 KECCAK256 SWAP1 PUSH1 0x6 MUL ADD PUSH1 0x0 SWAP1 SWAP2 SWAP1 SWAP2 SWAP1 SWAP2 POP PUSH1 0x0 DUP3 ADD MLOAD DUP2 PUSH1 0x0 ADD SSTORE PUSH1 0x20 DUP3 ADD MLOAD DUP2 PUSH1 0x1 ADD SWAP1 DUP1 MLOAD SWAP1 PUSH1 0x20 ADD SWAP1 PUSH2 0x425 SWAP3 SWAP2 SWAP1 PUSH2 0x12E0 JUMP JUMPDEST POP PUSH1 0x40 DUP3 ADD MLOAD DUP2 PUSH1 0x2 ADD SWAP1 DUP1 MLOAD SWAP1 PUSH1 0x20 ADD SWAP1 PUSH2 0x442 SWAP3 SWAP2 SWAP1 PUSH2 0x12E0 JUMP JUMPDEST POP PUSH1 0x60 DUP3 ADD MLOAD DUP2 PUSH1 0x3 ADD PUSH1 0x0 PUSH2 0x100 EXP DUP2 SLOAD DUP2 PUSH4 0xFFFFFFFF MUL NOT AND SWAP1 DUP4 PUSH4 0xFFFFFFFF AND MUL OR SWAP1 SSTORE POP PUSH1 0x80 DUP3 ADD MLOAD DUP2 PUSH1 0x4 ADD SSTORE PUSH1 0xA0 DUP3 ADD MLOAD DUP2 PUSH1 0x5 ADD PUSH1 0x0 PUSH2 0x100 EXP DUP2 SLOAD DUP2 PUSH4 0xFFFFFFFF MUL NOT AND SWAP1 DUP4 PUSH4 0xFFFFFFFF AND MUL OR SWAP1 SSTORE POP PUSH1 0xC0 DUP3 ADD MLOAD DUP2 PUSH1 0x5 ADD PUSH1 0x4 PUSH2 0x100 EXP DUP2 SLOAD DUP2 PUSH1 0xFF MUL NOT AND SWAP1 DUP4 PUSH1 0x1 DUP2 GT ISZERO PUSH2 0x4C6 JUMPI PUSH2 0x4C5 PUSH2 0x177D JUMP JUMPDEST JUMPDEST MUL OR SWAP1 SSTORE POP POP POP POP POP POP SWAP4 SWAP3 POP POP POP JUMP JUMPDEST PUSH2 0x4DF PUSH2 0x1366 JUMP JUMPDEST PUSH2 0x4E7 PUSH2 0x10BD JUMP JUMPDEST DUP2 ISZERO PUSH2 0x5AB JUMPI PUSH1 0x1 PUSH1 0x5 PUSH1 0x3 PUSH1 0x0 DUP7 DUP2 MSTORE PUSH1 0x20 ADD SWAP1 DUP2 MSTORE PUSH1 0x20 ADD PUSH1 0x0 KECCAK256 PUSH1 0x5 ADD PUSH1 0x0 SWAP1 SLOAD SWAP1 PUSH2 0x100 EXP SWAP1 DIV PUSH4 0xFFFFFFFF AND PUSH4 0xFFFFFFFF AND DUP2 SLOAD DUP2 LT PUSH2 0x52F JUMPI PUSH2 0x52E PUSH2 0x1D36 JUMP JUMPDEST JUMPDEST SWAP1 PUSH1 0x0 MSTORE PUSH1 0x20 PUSH1 0x0 KECCAK256 SWAP1 PUSH1 0x6 MUL ADD PUSH1 0x5 ADD PUSH1 0x4 PUSH2 0x100 EXP DUP2 SLOAD DUP2 PUSH1 0xFF MUL NOT AND SWAP1 DUP4 PUSH1 0x1 DUP2 GT ISZERO PUSH2 0x562 JUMPI PUSH2 0x561 PUSH2 0x177D JUMP JUMPDEST JUMPDEST MUL OR SWAP1 SSTORE POP PUSH1 0x1 PUSH1 0x3 PUSH1 0x0 DUP6 DUP2 MSTORE PUSH1 0x20 ADD SWAP1 DUP2 MSTORE PUSH1 0x20 ADD PUSH1 0x0 KECCAK256 PUSH1 0x5 ADD PUSH1 0x4 PUSH2 0x100 EXP DUP2 SLOAD DUP2 PUSH1 0xFF MUL NOT AND SWAP1 DUP4 PUSH1 0x1 DUP2 GT ISZERO PUSH2 0x5A1 JUMPI PUSH2 0x5A0 PUSH2 0x177D JUMP JUMPDEST JUMPDEST MUL OR SWAP1 SSTORE POP PUSH2 0x665 JUMP JUMPDEST PUSH1 0x0 PUSH1 0x5 PUSH1 0x3 PUSH1 0x0 DUP7 DUP2 MSTORE PUSH1 0x20 ADD SWAP1 DUP2 MSTORE PUSH1 0x20 ADD PUSH1 0x0 KECCAK256 PUSH1 0x5 ADD PUSH1 0x0 SWAP1 SLOAD SWAP1 PUSH2 0x100 EXP SWAP1 DIV PUSH4 0xFFFFFFFF AND PUSH4 0xFFFFFFFF AND DUP2 SLOAD DUP2 LT PUSH2 0x5ED JUMPI PUSH2 0x5EC PUSH2 0x1D36 JUMP JUMPDEST JUMPDEST SWAP1 PUSH1 0x0 MSTORE PUSH1 0x20 PUSH1 0x0 KECCAK256 SWAP1 PUSH1 0x6 MUL ADD PUSH1 0x5 ADD PUSH1 0x4 PUSH2 0x100 EXP DUP2 SLOAD DUP2 PUSH1 0xFF MUL NOT AND SWAP1 DUP4 PUSH1 0x1 DUP2 GT ISZERO PUSH2 0x620 JUMPI PUSH2 0x61F PUSH2 0x177D JUMP JUMPDEST JUMPDEST MUL OR SWAP1 SSTORE POP PUSH1 0x0 PUSH1 0x3 PUSH1 0x0 DUP6 DUP2 MSTORE PUSH1 0x20 ADD SWAP1 DUP2 MSTORE PUSH1 0x20 ADD PUSH1 0x0 KECCAK256 PUSH1 0x5 ADD PUSH1 0x4 PUSH2 0x100 EXP DUP2 SLOAD DUP2 PUSH1 0xFF MUL NOT AND SWAP1 DUP4 PUSH1 0x1 DUP2 GT ISZERO PUSH2 0x65F JUMPI PUSH2 0x65E PUSH2 0x177D JUMP JUMPDEST JUMPDEST MUL OR SWAP1 SSTORE POP JUMPDEST PUSH1 0x3 PUSH1 0x0 DUP5 DUP2 MSTORE PUSH1 0x20 ADD SWAP1 DUP2 MSTORE PUSH1 0x20 ADD PUSH1 0x0 KECCAK256 PUSH1 0x40 MLOAD DUP1 PUSH1 0xE0 ADD PUSH1 0x40 MSTORE SWAP1 DUP2 PUSH1 0x0 DUP3 ADD SLOAD DUP2 MSTORE PUSH1 0x20 ADD PUSH1 0x1 DUP3 ADD DUP1 SLOAD PUSH2 0x69D SWAP1 PUSH2 0x1D94 JUMP JUMPDEST DUP1 PUSH1 0x1F ADD PUSH1 0x20 DUP1 SWAP2 DIV MUL PUSH1 0x20 ADD PUSH1 0x40 MLOAD SWAP1 DUP2 ADD PUSH1 0x40 MSTORE DUP1 SWAP3 SWAP2 SWAP1 DUP2 DUP2 MSTORE PUSH1 0x20 ADD DUP3 DUP1 SLOAD PUSH2 0x6C9 SWAP1 PUSH2 0x1D94 JUMP JUMPDEST DUP1 ISZERO PUSH2 0x716 JUMPI DUP1 PUSH1 0x1F LT PUSH2 0x6EB JUMPI PUSH2 0x100 DUP1 DUP4 SLOAD DIV MUL DUP4 MSTORE SWAP2 PUSH1 0x20 ADD SWAP2 PUSH2 0x716 JUMP JUMPDEST DUP3 ADD SWAP2 SWAP1 PUSH1 0x0 MSTORE PUSH1 0x20 PUSH1 0x0 KECCAK256 SWAP1 JUMPDEST DUP2 SLOAD DUP2 MSTORE SWAP1 PUSH1 0x1 ADD SWAP1 PUSH1 0x20 ADD DUP1 DUP4 GT PUSH2 0x6F9 JUMPI DUP3 SWAP1 SUB PUSH1 0x1F AND DUP3 ADD SWAP2 JUMPDEST POP POP POP POP POP DUP2 MSTORE PUSH1 0x20 ADD PUSH1 0x2 DUP3 ADD DUP1 SLOAD PUSH2 0x72F SWAP1 PUSH2 0x1D94 JUMP JUMPDEST DUP1 PUSH1 0x1F ADD PUSH1 0x20 DUP1 SWAP2 DIV MUL PUSH1 0x20 ADD PUSH1 0x40 MLOAD SWAP1 DUP2 ADD PUSH1 0x40 MSTORE DUP1 SWAP3 SWAP2 SWAP1 DUP2 DUP2 MSTORE PUSH1 0x20 ADD DUP3 DUP1 SLOAD PUSH2 0x75B SWAP1 PUSH2 0x1D94 JUMP JUMPDEST DUP1 ISZERO PUSH2 0x7A8 JUMPI DUP1 PUSH1 0x1F LT PUSH2 0x77D JUMPI PUSH2 0x100 DUP1 DUP4 SLOAD DIV MUL DUP4 MSTORE SWAP2 PUSH1 0x20 ADD SWAP2 PUSH2 0x7A8 JUMP JUMPDEST DUP3 ADD SWAP2 SWAP1 PUSH1 0x0 MSTORE PUSH1 0x20 PUSH1 0x0 KECCAK256 SWAP1 JUMPDEST DUP2 SLOAD DUP2 MSTORE SWAP1 PUSH1 0x1 ADD SWAP1 PUSH1 0x20 ADD DUP1 DUP4 GT PUSH2 0x78B JUMPI DUP3 SWAP1 SUB PUSH1 0x1F AND DUP3 ADD SWAP2 JUMPDEST POP POP POP POP POP DUP2 MSTORE PUSH1 0x20 ADD PUSH1 0x3 DUP3 ADD PUSH1 0x0 SWAP1 SLOAD SWAP1 PUSH2 0x100 EXP SWAP1 DIV PUSH4 0xFFFFFFFF AND PUSH4 0xFFFFFFFF AND PUSH4 0xFFFFFFFF AND DUP2 MSTORE PUSH1 0x20 ADD PUSH1 0x4 DUP3 ADD SLOAD DUP2 MSTORE PUSH1 0x20 ADD PUSH1 0x5 DUP3 ADD PUSH1 0x0 SWAP1 SLOAD SWAP1 PUSH2 0x100 EXP SWAP1 DIV PUSH4 0xFFFFFFFF AND PUSH4 0xFFFFFFFF AND PUSH4 0xFFFFFFFF AND DUP2 MSTORE PUSH1 0x20 ADD PUSH1 0x5 DUP3 ADD PUSH1 0x4 SWAP1 SLOAD SWAP1 PUSH2 0x100 EXP SWAP1 DIV PUSH1 0xFF AND PUSH1 0x1 DUP2 GT ISZERO PUSH2 0x82C JUMPI PUSH2 0x82B PUSH2 0x177D JUMP JUMPDEST JUMPDEST PUSH1 0x1 DUP2 GT ISZERO PUSH2 0x83E JUMPI PUSH2 0x83D PUSH2 0x177D JUMP JUMPDEST JUMPDEST DUP2 MSTORE POP POP SWAP1 POP SWAP3 SWAP2 POP POP JUMP JUMPDEST PUSH1 0x4 DUP2 DUP1 MLOAD PUSH1 0x20 DUP2 ADD DUP3 ADD DUP1 MLOAD DUP5 DUP3 MSTORE PUSH1 0x20 DUP4 ADD PUSH1 0x20 DUP6 ADD KECCAK256 DUP2 DUP4 MSTORE DUP1 SWAP6 POP POP POP POP POP POP PUSH1 0x0 SWAP2 POP SWAP1 POP SLOAD DUP2 JUMP JUMPDEST PUSH1 0x5 DUP2 DUP2 SLOAD DUP2 LT PUSH2 0x888 JUMPI PUSH1 0x0 DUP1 REVERT JUMPDEST SWAP1 PUSH1 0x0 MSTORE PUSH1 0x20 PUSH1 0x0 KECCAK256 SWAP1 PUSH1 0x6 MUL ADD PUSH1 0x0 SWAP2 POP SWAP1 POP DUP1 PUSH1 0x0 ADD SLOAD SWAP1 DUP1 PUSH1 0x1 ADD DUP1 SLOAD PUSH2 0x8B1 SWAP1 PUSH2 0x1D94 JUMP JUMPDEST DUP1 PUSH1 0x1F ADD PUSH1 0x20 DUP1 SWAP2 DIV MUL PUSH1 0x20 ADD PUSH1 0x40 MLOAD SWAP1 DUP2 ADD PUSH1 0x40 MSTORE DUP1 SWAP3 SWAP2 SWAP1 DUP2 DUP2 MSTORE PUSH1 0x20 ADD DUP3 DUP1 SLOAD PUSH2 0x8DD SWAP1 PUSH2 0x1D94 JUMP JUMPDEST DUP1 ISZERO PUSH2 0x92A JUMPI DUP1 PUSH1 0x1F LT PUSH2 0x8FF JUMPI PUSH2 0x100 DUP1 DUP4 SLOAD DIV MUL DUP4 MSTORE SWAP2 PUSH1 0x20 ADD SWAP2 PUSH2 0x92A JUMP JUMPDEST DUP3 ADD SWAP2 SWAP1 PUSH1 0x0 MSTORE PUSH1 0x20 PUSH1 0x0 KECCAK256 SWAP1 JUMPDEST DUP2 SLOAD DUP2 MSTORE SWAP1 PUSH1 0x1 ADD SWAP1 PUSH1 0x20 ADD DUP1 DUP4 GT PUSH2 0x90D JUMPI DUP3 SWAP1 SUB PUSH1 0x1F AND DUP3 ADD SWAP2 JUMPDEST POP POP POP POP POP SWAP1 DUP1 PUSH1 0x2 ADD DUP1 SLOAD PUSH2 0x93F SWAP1 PUSH2 0x1D94 JUMP JUMPDEST DUP1 PUSH1 0x1F ADD PUSH1 0x20 DUP1 SWAP2 DIV MUL PUSH1 0x20 ADD PUSH1 0x40 MLOAD SWAP1 DUP2 ADD PUSH1 0x40 MSTORE DUP1 SWAP3 SWAP2 SWAP1 DUP2 DUP2 MSTORE PUSH1 0x20 ADD DUP3 DUP1 SLOAD PUSH2 0x96B SWAP1 PUSH2 0x1D94 JUMP JUMPDEST DUP1 ISZERO PUSH2 0x9B8 JUMPI DUP1 PUSH1 0x1F LT PUSH2 0x98D JUMPI PUSH2 0x100 DUP1 DUP4 SLOAD DIV MUL DUP4 MSTORE SWAP2 PUSH1 0x20 ADD SWAP2 PUSH2 0x9B8 JUMP JUMPDEST DUP3 ADD SWAP2 SWAP1 PUSH1 0x0 MSTORE PUSH1 0x20 PUSH1 0x0 KECCAK256 SWAP1 JUMPDEST DUP2 SLOAD DUP2 MSTORE SWAP1 PUSH1 0x1 ADD SWAP1 PUSH1 0x20 ADD DUP1 DUP4 GT PUSH2 0x99B JUMPI DUP3 SWAP1 SUB PUSH1 0x1F AND DUP3 ADD SWAP2 JUMPDEST POP POP POP POP POP SWAP1 DUP1 PUSH1 0x3 ADD PUSH1 0x0 SWAP1 SLOAD SWAP1 PUSH2 0x100 EXP SWAP1 DIV PUSH4 0xFFFFFFFF AND SWAP1 DUP1 PUSH1 0x4 ADD SLOAD SWAP1 DUP1 PUSH1 0x5 ADD PUSH1 0x0 SWAP1 SLOAD SWAP1 PUSH2 0x100 EXP SWAP1 DIV PUSH4 0xFFFFFFFF AND SWAP1 DUP1 PUSH1 0x5 ADD PUSH1 0x4 SWAP1 SLOAD SWAP1 PUSH2 0x100 EXP SWAP1 DIV PUSH1 0xFF AND SWAP1 POP DUP8 JUMP JUMPDEST PUSH1 0x3 PUSH1 0x20 MSTORE DUP1 PUSH1 0x0 MSTORE PUSH1 0x40 PUSH1 0x0 KECCAK256 PUSH1 0x0 SWAP2 POP SWAP1 POP DUP1 PUSH1 0x0 ADD SLOAD SWAP1 DUP1 PUSH1 0x1 ADD DUP1 SLOAD PUSH2 0xA30 SWAP1 PUSH2 0x1D94 JUMP JUMPDEST DUP1 PUSH1 0x1F ADD PUSH1 0x20 DUP1 SWAP2 DIV MUL PUSH1 0x20 ADD PUSH1 0x40 MLOAD SWAP1 DUP2 ADD PUSH1 0x40 MSTORE DUP1 SWAP3 SWAP2 SWAP1 DUP2 DUP2 MSTORE PUSH1 0x20 ADD DUP3 DUP1 SLOAD PUSH2 0xA5C SWAP1 PUSH2 0x1D94 JUMP JUMPDEST DUP1 ISZERO PUSH2 0xAA9 JUMPI DUP1 PUSH1 0x1F LT PUSH2 0xA7E JUMPI PUSH2 0x100 DUP1 DUP4 SLOAD DIV MUL DUP4 MSTORE SWAP2 PUSH1 0x20 ADD SWAP2 PUSH2 0xAA9 JUMP JUMPDEST DUP3 ADD SWAP2 SWAP1 PUSH1 0x0 MSTORE PUSH1 0x20 PUSH1 0x0 KECCAK256 SWAP1 JUMPDEST DUP2 SLOAD DUP2 MSTORE SWAP1 PUSH1 0x1 ADD SWAP1 PUSH1 0x20 ADD DUP1 DUP4 GT PUSH2 0xA8C JUMPI DUP3 SWAP1 SUB PUSH1 0x1F AND DUP3 ADD SWAP2 JUMPDEST POP POP POP POP POP SWAP1 DUP1 PUSH1 0x2 ADD DUP1 SLOAD PUSH2 0xABE SWAP1 PUSH2 0x1D94 JUMP JUMPDEST DUP1 PUSH1 0x1F ADD PUSH1 0x20 DUP1 SWAP2 DIV MUL PUSH1 0x20 ADD PUSH1 0x40 MLOAD SWAP1 DUP2 ADD PUSH1 0x40 MSTORE DUP1 SWAP3 SWAP2 SWAP1 DUP2 DUP2 MSTORE PUSH1 0x20 ADD DUP3 DUP1 SLOAD PUSH2 0xAEA SWAP1 PUSH2 0x1D94 JUMP JUMPDEST DUP1 ISZERO PUSH2 0xB37 JUMPI DUP1 PUSH1 0x1F LT PUSH2 0xB0C JUMPI PUSH2 0x100 DUP1 DUP4 SLOAD DIV MUL DUP4 MSTORE SWAP2 PUSH1 0x20 ADD SWAP2 PUSH2 0xB37 JUMP JUMPDEST DUP3 ADD SWAP2 SWAP1 PUSH1 0x0 MSTORE PUSH1 0x20 PUSH1 0x0 KECCAK256 SWAP1 JUMPDEST DUP2 SLOAD DUP2 MSTORE SWAP1 PUSH1 0x1 ADD SWAP1 PUSH1 0x20 ADD DUP1 DUP4 GT PUSH2 0xB1A JUMPI DUP3 SWAP1 SUB PUSH1 0x1F AND DUP3 ADD SWAP2 JUMPDEST POP POP POP POP POP SWAP1 DUP1 PUSH1 0x3 ADD PUSH1 0x0 SWAP1 SLOAD SWAP1 PUSH2 0x100 EXP SWAP1 DIV PUSH4 0xFFFFFFFF AND SWAP1 DUP1 PUSH1 0x4 ADD SLOAD SWAP1 DUP1 PUSH1 0x5 ADD PUSH1 0x0 SWAP1 SLOAD SWAP1 PUSH2 0x100 EXP SWAP1 DIV PUSH4 0xFFFFFFFF AND SWAP1 DUP1 PUSH1 0x5 ADD PUSH1 0x4 SWAP1 SLOAD SWAP1 PUSH2 0x100 EXP SWAP1 DIV PUSH1 0xFF AND SWAP1 POP DUP8 JUMP JUMPDEST PUSH1 0x1 PUSH1 0x0 SWAP1 SLOAD SWAP1 PUSH2 0x100 EXP SWAP1 DIV PUSH20 0xFFFFFFFFFFFFFFFFFFFFFFFFFFFFFFFFFFFFFFFF AND PUSH20 0xFFFFFFFFFFFFFFFFFFFFFFFFFFFFFFFFFFFFFFFF AND CALLER PUSH20 0xFFFFFFFFFFFFFFFFFFFFFFFFFFFFFFFFFFFFFFFF AND EQ PUSH2 0xC16 JUMPI PUSH1 0x40 MLOAD PUSH32 0x8C379A000000000000000000000000000000000000000000000000000000000 DUP2 MSTORE PUSH1 0x4 ADD PUSH2 0xC0D SWAP1 PUSH2 0x1E12 JUMP JUMPDEST PUSH1 0x40 MLOAD DUP1 SWAP2 SUB SWAP1 REVERT JUMPDEST PUSH1 0x0 DUP1 PUSH1 0x0 SWAP1 SLOAD SWAP1 PUSH2 0x100 EXP SWAP1 DIV PUSH20 0xFFFFFFFFFFFFFFFFFFFFFFFFFFFFFFFFFFFFFFFF AND SWAP1 POP CALLER PUSH1 0x0 DUP1 PUSH2 0x100 EXP DUP2 SLOAD DUP2 PUSH20 0xFFFFFFFFFFFFFFFFFFFFFFFFFFFFFFFFFFFFFFFF MUL NOT AND SWAP1 DUP4 PUSH20 0xFFFFFFFFFFFFFFFFFFFFFFFFFFFFFFFFFFFFFFFF AND MUL OR SWAP1 SSTORE POP PUSH1 0x0 PUSH1 0x1 PUSH1 0x0 PUSH2 0x100 EXP DUP2 SLOAD DUP2 PUSH20 0xFFFFFFFFFFFFFFFFFFFFFFFFFFFFFFFFFFFFFFFF MUL NOT AND SWAP1 DUP4 PUSH20 0xFFFFFFFFFFFFFFFFFFFFFFFFFFFFFFFFFFFFFFFF AND MUL OR SWAP1 SSTORE POP CALLER PUSH20 0xFFFFFFFFFFFFFFFFFFFFFFFFFFFFFFFFFFFFFFFF AND DUP2 PUSH20 0xFFFFFFFFFFFFFFFFFFFFFFFFFFFFFFFFFFFFFFFF AND PUSH32 0x8BE0079C531659141344CD1FD0A4F28419497F9722A3DAAFE3B4186F6B6457E0 PUSH1 0x40 MLOAD PUSH1 0x40 MLOAD DUP1 SWAP2 SUB SWAP1 LOG3 POP JUMP JUMPDEST PUSH1 0x60 PUSH1 0x0 PUSH1 0x4 DUP4 PUSH1 0x40 MLOAD PUSH2 0xD2F SWAP2 SWAP1 PUSH2 0x1CA7 JUMP JUMPDEST SWAP1 DUP2 MSTORE PUSH1 0x20 ADD PUSH1 0x40 MLOAD DUP1 SWAP2 SUB SWAP1 KECCAK256 SLOAD PUSH8 0xFFFFFFFFFFFFFFFF DUP2 GT ISZERO PUSH2 0xD57 JUMPI PUSH2 0xD56 PUSH2 0x140D JUMP JUMPDEST JUMPDEST PUSH1 0x40 MLOAD SWAP1 DUP1 DUP3 MSTORE DUP1 PUSH1 0x20 MUL PUSH1 0x20 ADD DUP3 ADD PUSH1 0x40 MSTORE DUP1 ISZERO PUSH2 0xD90 JUMPI DUP2 PUSH1 0x20 ADD JUMPDEST PUSH2 0xD7D PUSH2 0x1366 JUMP JUMPDEST DUP2 MSTORE PUSH1 0x20 ADD SWAP1 PUSH1 0x1 SWAP1 SUB SWAP1 DUP2 PUSH2 0xD75 JUMPI SWAP1 POP JUMPDEST POP SWAP1 POP PUSH1 0x0 DUP1 JUMPDEST PUSH1 0x5 DUP1 SLOAD SWAP1 POP DUP2 LT ISZERO PUSH2 0x1048 JUMPI DUP5 PUSH1 0x40 MLOAD PUSH1 0x20 ADD PUSH2 0xDB5 SWAP2 SWAP1 PUSH2 0x1CA7 JUMP JUMPDEST PUSH1 0x40 MLOAD PUSH1 0x20 DUP2 DUP4 SUB SUB DUP2 MSTORE SWAP1 PUSH1 0x40 MSTORE DUP1 MLOAD SWAP1 PUSH1 0x20 ADD KECCAK256 PUSH1 0x5 DUP3 DUP2 SLOAD DUP2 LT PUSH2 0xDDF JUMPI PUSH2 0xDDE PUSH2 0x1D36 JUMP JUMPDEST JUMPDEST SWAP1 PUSH1 0x0 MSTORE PUSH1 0x20 PUSH1 0x0 KECCAK256 SWAP1 PUSH1 0x6 MUL ADD PUSH1 0x1 ADD PUSH1 0x40 MLOAD PUSH1 0x20 ADD PUSH2 0xE00 SWAP2 SWAP1 PUSH2 0x1EC6 JUMP JUMPDEST PUSH1 0x40 MLOAD PUSH1 0x20 DUP2 DUP4 SUB SUB DUP2 MSTORE SWAP1 PUSH1 0x40 MSTORE DUP1 MLOAD SWAP1 PUSH1 0x20 ADD KECCAK256 EQ ISZERO PUSH2 0x1035 JUMPI PUSH1 0x5 DUP2 DUP2 SLOAD DUP2 LT PUSH2 0xE30 JUMPI PUSH2 0xE2F PUSH2 0x1D36 JUMP JUMPDEST JUMPDEST SWAP1 PUSH1 0x0 MSTORE PUSH1 0x20 PUSH1 0x0 KECCAK256 SWAP1 PUSH1 0x6 MUL ADD PUSH1 0x40 MLOAD DUP1 PUSH1 0xE0 ADD PUSH1 0x40 MSTORE SWAP1 DUP2 PUSH1 0x0 DUP3 ADD SLOAD DUP2 MSTORE PUSH1 0x20 ADD PUSH1 0x1 DUP3 ADD DUP1 SLOAD PUSH2 0xE63 SWAP1 PUSH2 0x1D94 JUMP JUMPDEST DUP1 PUSH1 0x1F ADD PUSH1 0x20 DUP1 SWAP2 DIV MUL PUSH1 0x20 ADD PUSH1 0x40 MLOAD SWAP1 DUP2 ADD PUSH1 0x40 MSTORE DUP1 SWAP3 SWAP2 SWAP1 DUP2 DUP2 MSTORE PUSH1 0x20 ADD DUP3 DUP1 SLOAD PUSH2 0xE8F SWAP1 PUSH2 0x1D94 JUMP JUMPDEST DUP1 ISZERO PUSH2 0xEDC JUMPI DUP1 PUSH1 0x1F LT PUSH2 0xEB1 JUMPI PUSH2 0x100 DUP1 DUP4 SLOAD DIV MUL DUP4 MSTORE SWAP2 PUSH1 0x20 ADD SWAP2 PUSH2 0xEDC JUMP JUMPDEST DUP3 ADD SWAP2 SWAP1 PUSH1 0x0 MSTORE PUSH1 0x20 PUSH1 0x0 KECCAK256 SWAP1 JUMPDEST DUP2 SLOAD DUP2 MSTORE SWAP1 PUSH1 0x1 ADD SWAP1 PUSH1 0x20 ADD DUP1 DUP4 GT PUSH2 0xEBF JUMPI DUP3 SWAP1 SUB PUSH1 0x1F AND DUP3 ADD SWAP2 JUMPDEST POP POP POP POP POP DUP2 MSTORE PUSH1 0x20 ADD PUSH1 0x2 DUP3 ADD DUP1 SLOAD PUSH2 0xEF5 SWAP1 PUSH2 0x1D94 JUMP JUMPDEST DUP1 PUSH1 0x1F ADD PUSH1 0x20 DUP1 SWAP2 DIV MUL PUSH1 0x20 ADD PUSH1 0x40 MLOAD SWAP1 DUP2 ADD PUSH1 0x40 MSTORE DUP1 SWAP3 SWAP2 SWAP1 DUP2 DUP2 MSTORE PUSH1 0x20 ADD DUP3 DUP1 SLOAD PUSH2 0xF21 SWAP1 PUSH2 0x1D94 JUMP JUMPDEST DUP1 ISZERO PUSH2 0xF6E JUMPI DUP1 PUSH1 0x1F LT PUSH2 0xF43 JUMPI PUSH2 0x100 DUP1 DUP4 SLOAD DIV MUL DUP4 MSTORE SWAP2 PUSH1 0x20 ADD SWAP2 PUSH2 0xF6E JUMP JUMPDEST DUP3 ADD SWAP2 SWAP1 PUSH1 0x0 MSTORE PUSH1 0x20 PUSH1 0x0 KECCAK256 SWAP1 JUMPDEST DUP2 SLOAD DUP2 MSTORE SWAP1 PUSH1 0x1 ADD SWAP1 PUSH1 0x20 ADD DUP1 DUP4 GT PUSH2 0xF51 JUMPI DUP3 SWAP1 SUB PUSH1 0x1F AND DUP3 ADD SWAP2 JUMPDEST POP POP POP POP POP DUP2 MSTORE PUSH1 0x20 ADD PUSH1 0x3 DUP3 ADD PUSH1 0x0 SWAP1 SLOAD SWAP1 PUSH2 0x100 EXP SWAP1 DIV PUSH4 0xFFFFFFFF AND PUSH4 0xFFFFFFFF AND PUSH4 0xFFFFFFFF AND DUP2 MSTORE PUSH1 0x20 ADD PUSH1 0x4 DUP3 ADD SLOAD DUP2 MSTORE PUSH1 0x20 ADD PUSH1 0x5 DUP3 ADD PUSH1 0x0 SWAP1 SLOAD SWAP1 PUSH2 0x100 EXP SWAP1 DIV PUSH4 0xFFFFFFFF AND PUSH4 0xFFFFFFFF AND PUSH4 0xFFFFFFFF AND DUP2 MSTORE PUSH1 0x20 ADD PUSH1 0x5 DUP3 ADD PUSH1 0x4 SWAP1 SLOAD SWAP1 PUSH2 0x100 EXP SWAP1 DIV PUSH1 0xFF AND PUSH1 0x1 DUP2 GT ISZERO PUSH2 0xFF2 JUMPI PUSH2 0xFF1 PUSH2 0x177D JUMP JUMPDEST JUMPDEST PUSH1 0x1 DUP2 GT ISZERO PUSH2 0x1004 JUMPI PUSH2 0x1003 PUSH2 0x177D JUMP JUMPDEST JUMPDEST DUP2 MSTORE POP POP DUP4 DUP4 DUP2 MLOAD DUP2 LT PUSH2 0x101B JUMPI PUSH2 0x101A PUSH2 0x1D36 JUMP JUMPDEST JUMPDEST PUSH1 0x20 MUL PUSH1 0x20 ADD ADD DUP2 SWAP1 MSTORE POP DUP2 DUP1 PUSH2 0x1031 SWAP1 PUSH2 0x1CED JUMP JUMPDEST SWAP3 POP POP JUMPDEST DUP1 DUP1 PUSH2 0x1040 SWAP1 PUSH2 0x1CED JUMP JUMPDEST SWAP2 POP POP PUSH2 0xD97 JUMP JUMPDEST POP DUP2 SWAP3 POP POP POP SWAP2 SWAP1 POP JUMP JUMPDEST PUSH1 0x0 DUP1 PUSH1 0x0 SWAP1 SLOAD SWAP1 PUSH2 0x100 EXP SWAP1 DIV PUSH20 0xFFFFFFFFFFFFFFFFFFFFFFFFFFFFFFFFFFFFFFFF AND SWAP1 POP SWAP1 JUMP JUMPDEST PUSH1 0x0 PUSH1 0x3 PUSH1 0x0 DUP4 DUP2 MSTORE PUSH1 0x20 ADD SWAP1 DUP2 MSTORE PUSH1 0x20 ADD PUSH1 0x0 KECCAK256 PUSH1 0x5 ADD PUSH1 0x4 SWAP1 SLOAD SWAP1 PUSH2 0x100 EXP SWAP1 DIV PUSH1 0xFF AND SWAP1 POP SWAP2 SWAP1 POP JUMP JUMPDEST PUSH2 0x10B1 PUSH2 0x10BD JUMP JUMPDEST PUSH2 0x10BA DUP2 PUSH2 0x11B3 JUMP JUMPDEST POP JUMP JUMPDEST PUSH1 0x0 DUP1 SLOAD SWAP1 PUSH2 0x100 EXP SWAP1 DIV PUSH20 0xFFFFFFFFFFFFFFFFFFFFFFFFFFFFFFFFFFFFFFFF AND PUSH20 0xFFFFFFFFFFFFFFFFFFFFFFFFFFFFFFFFFFFFFFFF AND CALLER PUSH20 0xFFFFFFFFFFFFFFFFFFFFFFFFFFFFFFFFFFFFFFFF AND EQ PUSH2 0x114B JUMPI PUSH1 0x40 MLOAD PUSH32 0x8C379A000000000000000000000000000000000000000000000000000000000 DUP2 MSTORE PUSH1 0x4 ADD PUSH2 0x1142 SWAP1 PUSH2 0x1F29 JUMP JUMPDEST PUSH1 0x40 MLOAD DUP1 SWAP2 SUB SWAP1 REVERT JUMPDEST JUMP JUMPDEST PUSH1 0x0 PUSH1 0x2 PUSH1 0x0 DUP2 SLOAD DUP1 SWAP3 SWAP2 SWAP1 PUSH2 0x1162 SWAP1 PUSH2 0x1CED JUMP JUMPDEST SWAP2 SWAP1 POP SSTORE POP PUSH4 0x5F5E100 DUP5 DUP5 DUP5 CALLER PUSH1 0x2 SLOAD PUSH1 0x40 MLOAD PUSH1 0x20 ADD PUSH2 0x1187 SWAP6 SWAP5 SWAP4 SWAP3 SWAP2 SWAP1 PUSH2 0x1FE8 JUMP JUMPDEST PUSH1 0x40 MLOAD PUSH1 0x20 DUP2 DUP4 SUB SUB DUP2 MSTORE SWAP1 PUSH1 0x40 MSTORE DUP1 MLOAD SWAP1 PUSH1 0x20 ADD KECCAK256 PUSH1 0x0 SHR PUSH2 0x11AA SWAP2 SWAP1 PUSH2 0x206E JUMP JUMPDEST SWAP1 POP SWAP4 SWAP3 POP POP POP JUMP JUMPDEST CALLER PUSH20 0xFFFFFFFFFFFFFFFFFFFFFFFFFFFFFFFFFFFFFFFF AND DUP2 PUSH20 0xFFFFFFFFFFFFFFFFFFFFFFFFFFFFFFFFFFFFFFFF AND EQ ISZERO PUSH2 0x1222 JUMPI PUSH1 0x40 MLOAD PUSH32 0x8C379A000000000000000000000000000000000000000000000000000000000 DUP2 MSTORE PUSH1 0x4 ADD PUSH2 0x1219 SWAP1 PUSH2 0x20EB JUMP JUMPDEST PUSH1 0x40 MLOAD DUP1 SWAP2 SUB SWAP1 REVERT JUMPDEST DUP1 PUSH1 0x1 PUSH1 0x0 PUSH2 0x100 EXP DUP2 SLOAD DUP2 PUSH20 0xFFFFFFFFFFFFFFFFFFFFFFFFFFFFFFFFFFFFFFFF MUL NOT AND SWAP1 DUP4 PUSH20 0xFFFFFFFFFFFFFFFFFFFFFFFFFFFFFFFFFFFFFFFF AND MUL OR SWAP1 SSTORE POP DUP1 PUSH20 0xFFFFFFFFFFFFFFFFFFFFFFFFFFFFFFFFFFFFFFFF AND PUSH1 0x0 DUP1 SLOAD SWAP1 PUSH2 0x100 EXP SWAP1 DIV PUSH20 0xFFFFFFFFFFFFFFFFFFFFFFFFFFFFFFFFFFFFFFFF AND PUSH20 0xFFFFFFFFFFFFFFFFFFFFFFFFFFFFFFFFFFFFFFFF AND PUSH32 0xED8889F560326EB138920D842192F0EB3DD22B4F139C87A2C57538E05BAE1278 PUSH1 0x40 MLOAD PUSH1 0x40 MLOAD DUP1 SWAP2 SUB SWAP1 LOG3 POP JUMP JUMPDEST DUP3 DUP1 SLOAD PUSH2 0x12EC SWAP1 PUSH2 0x1D94 JUMP JUMPDEST SWAP1 PUSH1 0x0 MSTORE PUSH1 0x20 PUSH1 0x0 KECCAK256 SWAP1 PUSH1 0x1F ADD PUSH1 0x20 SWAP1 DIV DUP2 ADD SWAP3 DUP3 PUSH2 0x130E JUMPI PUSH1 0x0 DUP6 SSTORE PUSH2 0x1355 JUMP JUMPDEST DUP3 PUSH1 0x1F LT PUSH2 0x1327 JUMPI DUP1 MLOAD PUSH1 0xFF NOT AND DUP4 DUP1 ADD OR DUP6 SSTORE PUSH2 0x1355 JUMP JUMPDEST DUP3 DUP1 ADD PUSH1 0x1 ADD DUP6 SSTORE DUP3 ISZERO PUSH2 0x1355 JUMPI SWAP2 DUP3 ADD JUMPDEST DUP3 DUP2 GT ISZERO PUSH2 0x1354 JUMPI DUP3 MLOAD DUP3 SSTORE SWAP2 PUSH1 0x20 ADD SWAP2 SWAP1 PUSH1 0x1 ADD SWAP1 PUSH2 0x1339 JUMP JUMPDEST JUMPDEST POP SWAP1 POP PUSH2 0x1362 SWAP2 SWAP1 PUSH2 0x13C1 JUMP JUMPDEST POP SWAP1 JUMP JUMPDEST PUSH1 0x40 MLOAD DUP1 PUSH1 0xE0 ADD PUSH1 0x40 MSTORE DUP1 PUSH1 0x0 DUP2 MSTORE PUSH1 0x20 ADD PUSH1 0x60 DUP2 MSTORE PUSH1 0x20 ADD PUSH1 0x60 DUP2 MSTORE PUSH1 0x20 ADD PUSH1 0x0 PUSH4 0xFFFFFFFF AND DUP2 MSTORE PUSH1 0x20 ADD PUSH1 0x0 DUP2 MSTORE PUSH1 0x20 ADD PUSH1 0x0 PUSH4 0xFFFFFFFF AND DUP2 MSTORE PUSH1 0x20 ADD PUSH1 0x0 PUSH1 0x1 DUP2 GT ISZERO PUSH2 0x13BB JUMPI PUSH2 0x13BA PUSH2 0x177D JUMP JUMPDEST JUMPDEST DUP2 MSTORE POP SWAP1 JUMP JUMPDEST JUMPDEST DUP1 DUP3 GT ISZERO PUSH2 0x13DA JUMPI PUSH1 0x0 DUP2 PUSH1 0x0 SWAP1 SSTORE POP PUSH1 0x1 ADD PUSH2 0x13C2 JUMP JUMPDEST POP SWAP1 JUMP JUMPDEST PUSH1 0x0 PUSH1 0x40 MLOAD SWAP1 POP SWAP1 JUMP JUMPDEST PUSH1 0x0 DUP1 REVERT JUMPDEST PUSH1 0x0 DUP1 REVERT JUMPDEST PUSH1 0x0 DUP1 REVERT JUMPDEST PUSH1 0x0 DUP1 REVERT JUMPDEST PUSH1 0x0 PUSH1 0x1F NOT PUSH1 0x1F DUP4 ADD AND SWAP1 POP SWAP2 SWAP1 POP JUMP JUMPDEST PUSH32 0x4E487B7100000000000000000000000000000000000000000000000000000000 PUSH1 0x0 MSTORE PUSH1 0x41 PUSH1 0x4 MSTORE PUSH1 0x24 PUSH1 0x0 REVERT JUMPDEST PUSH2 0x1445 DUP3 PUSH2 0x13FC JUMP JUMPDEST DUP2 ADD DUP2 DUP2 LT PUSH8 0xFFFFFFFFFFFFFFFF DUP3 GT OR ISZERO PUSH2 0x1464 JUMPI PUSH2 0x1463 PUSH2 0x140D JUMP JUMPDEST JUMPDEST DUP1 PUSH1 0x40 MSTORE POP POP POP JUMP JUMPDEST PUSH1 0x0 PUSH2 0x1477 PUSH2 0x13DE JUMP JUMPDEST SWAP1 POP PUSH2 0x1483 DUP3 DUP3 PUSH2 0x143C JUMP JUMPDEST SWAP2 SWAP1 POP JUMP JUMPDEST PUSH1 0x0 PUSH8 0xFFFFFFFFFFFFFFFF DUP3 GT ISZERO PUSH2 0x14A3 JUMPI PUSH2 0x14A2 PUSH2 0x140D JUMP JUMPDEST JUMPDEST PUSH2 0x14AC DUP3 PUSH2 0x13FC JUMP JUMPDEST SWAP1 POP PUSH1 0x20 DUP2 ADD SWAP1 POP SWAP2 SWAP1 POP JUMP JUMPDEST DUP3 DUP2 DUP4 CALLDATACOPY PUSH1 0x0 DUP4 DUP4 ADD MSTORE POP POP POP JUMP JUMPDEST PUSH1 0x0 PUSH2 0x14DB PUSH2 0x14D6 DUP5 PUSH2 0x1488 JUMP JUMPDEST PUSH2 0x146D JUMP JUMPDEST SWAP1 POP DUP3 DUP2 MSTORE PUSH1 0x20 DUP2 ADD DUP5 DUP5 DUP5 ADD GT ISZERO PUSH2 0x14F7 JUMPI PUSH2 0x14F6 PUSH2 0x13F7 JUMP JUMPDEST JUMPDEST PUSH2 0x1502 DUP5 DUP3 DUP6 PUSH2 0x14B9 JUMP JUMPDEST POP SWAP4 SWAP3 POP POP POP JUMP JUMPDEST PUSH1 0x0 DUP3 PUSH1 0x1F DUP4 ADD SLT PUSH2 0x151F JUMPI PUSH2 0x151E PUSH2 0x13F2 JUMP JUMPDEST JUMPDEST DUP2 CALLDATALOAD PUSH2 0x152F DUP5 DUP3 PUSH1 0x20 DUP7 ADD PUSH2 0x14C8 JUMP JUMPDEST SWAP2 POP POP SWAP3 SWAP2 POP POP JUMP JUMPDEST PUSH1 0x0 PUSH4 0xFFFFFFFF DUP3 AND SWAP1 POP SWAP2 SWAP1 POP JUMP JUMPDEST PUSH2 0x1551 DUP2 PUSH2 0x1538 JUMP JUMPDEST DUP2 EQ PUSH2 0x155C JUMPI PUSH1 0x0 DUP1 REVERT JUMPDEST POP JUMP JUMPDEST PUSH1 0x0 DUP2 CALLDATALOAD SWAP1 POP PUSH2 0x156E DUP2 PUSH2 0x1548 JUMP JUMPDEST SWAP3 SWAP2 POP POP JUMP JUMPDEST PUSH1 0x0 DUP1 PUSH1 0x0 PUSH1 0x60 DUP5 DUP7 SUB SLT ISZERO PUSH2 0x158D JUMPI PUSH2 0x158C PUSH2 0x13E8 JUMP JUMPDEST JUMPDEST PUSH1 0x0 DUP5 ADD CALLDATALOAD PUSH8 0xFFFFFFFFFFFFFFFF DUP2 GT ISZERO PUSH2 0x15AB JUMPI PUSH2 0x15AA PUSH2 0x13ED JUMP JUMPDEST JUMPDEST PUSH2 0x15B7 DUP7 DUP3 DUP8 ADD PUSH2 0x150A JUMP JUMPDEST SWAP4 POP POP PUSH1 0x20 DUP5 ADD CALLDATALOAD PUSH8 0xFFFFFFFFFFFFFFFF DUP2 GT ISZERO PUSH2 0x15D8 JUMPI PUSH2 0x15D7 PUSH2 0x13ED JUMP JUMPDEST JUMPDEST PUSH2 0x15E4 DUP7 DUP3 DUP8 ADD PUSH2 0x150A JUMP JUMPDEST SWAP3 POP POP PUSH1 0x40 PUSH2 0x15F5 DUP7 DUP3 DUP8 ADD PUSH2 0x155F JUMP JUMPDEST SWAP2 POP POP SWAP3 POP SWAP3 POP SWAP3 JUMP JUMPDEST PUSH1 0x0 DUP2 SWAP1 POP SWAP2 SWAP1 POP JUMP JUMPDEST PUSH2 0x1612 DUP2 PUSH2 0x15FF JUMP JUMPDEST DUP3 MSTORE POP POP JUMP JUMPDEST PUSH1 0x0 PUSH1 0x20 DUP3 ADD SWAP1 POP PUSH2 0x162D PUSH1 0x0 DUP4 ADD DUP5 PUSH2 0x1609 JUMP JUMPDEST SWAP3 SWAP2 POP POP JUMP JUMPDEST PUSH2 0x163C DUP2 PUSH2 0x15FF JUMP JUMPDEST DUP2 EQ PUSH2 0x1647 JUMPI PUSH1 0x0 DUP1 REVERT JUMPDEST POP JUMP JUMPDEST PUSH1 0x0 DUP2 CALLDATALOAD SWAP1 POP PUSH2 0x1659 DUP2 PUSH2 0x1633 JUMP JUMPDEST SWAP3 SWAP2 POP POP JUMP JUMPDEST PUSH1 0x0 DUP2 ISZERO ISZERO SWAP1 POP SWAP2 SWAP1 POP JUMP JUMPDEST PUSH2 0x1674 DUP2 PUSH2 0x165F JUMP JUMPDEST DUP2 EQ PUSH2 0x167F JUMPI PUSH1 0x0 DUP1 REVERT JUMPDEST POP JUMP JUMPDEST PUSH1 0x0 DUP2 CALLDATALOAD SWAP1 POP PUSH2 0x1691 DUP2 PUSH2 0x166B JUMP JUMPDEST SWAP3 SWAP2 POP POP JUMP JUMPDEST PUSH1 0x0 DUP1 PUSH1 0x40 DUP4 DUP6 SUB SLT ISZERO PUSH2 0x16AE JUMPI PUSH2 0x16AD PUSH2 0x13E8 JUMP JUMPDEST JUMPDEST PUSH1 0x0 PUSH2 0x16BC DUP6 DUP3 DUP7 ADD PUSH2 0x164A JUMP JUMPDEST SWAP3 POP POP PUSH1 0x20 PUSH2 0x16CD DUP6 DUP3 DUP7 ADD PUSH2 0x1682 JUMP JUMPDEST SWAP2 POP POP SWAP3 POP SWAP3 SWAP1 POP JUMP JUMPDEST PUSH2 0x16E0 DUP2 PUSH2 0x15FF JUMP JUMPDEST DUP3 MSTORE POP POP JUMP JUMPDEST PUSH1 0x0 DUP2 MLOAD SWAP1 POP SWAP2 SWAP1 POP JUMP JUMPDEST PUSH1 0x0 DUP3 DUP3 MSTORE PUSH1 0x20 DUP3 ADD SWAP1 POP SWAP3 SWAP2 POP POP JUMP JUMPDEST PUSH1 0x0 JUMPDEST DUP4 DUP2 LT ISZERO PUSH2 0x1720 JUMPI DUP1 DUP3 ADD MLOAD DUP2 DUP5 ADD MSTORE PUSH1 0x20 DUP2 ADD SWAP1 POP PUSH2 0x1705 JUMP JUMPDEST DUP4 DUP2 GT ISZERO PUSH2 0x172F JUMPI PUSH1 0x0 DUP5 DUP5 ADD MSTORE JUMPDEST POP POP POP POP JUMP JUMPDEST PUSH1 0x0 PUSH2 0x1740 DUP3 PUSH2 0x16E6 JUMP JUMPDEST PUSH2 0x174A DUP2 DUP6 PUSH2 0x16F1 JUMP JUMPDEST SWAP4 POP PUSH2 0x175A DUP2 DUP6 PUSH1 0x20 DUP7 ADD PUSH2 0x1702 JUMP JUMPDEST PUSH2 0x1763 DUP2 PUSH2 0x13FC JUMP JUMPDEST DUP5 ADD SWAP2 POP POP SWAP3 SWAP2 POP POP JUMP JUMPDEST PUSH2 0x1777 DUP2 PUSH2 0x1538 JUMP JUMPDEST DUP3 MSTORE POP POP JUMP JUMPDEST PUSH32 0x4E487B7100000000000000000000000000000000000000000000000000000000 PUSH1 0x0 MSTORE PUSH1 0x21 PUSH1 0x4 MSTORE PUSH1 0x24 PUSH1 0x0 REVERT JUMPDEST PUSH1 0x2 DUP2 LT PUSH2 0x17BD JUMPI PUSH2 0x17BC PUSH2 0x177D JUMP JUMPDEST JUMPDEST POP JUMP JUMPDEST PUSH1 0x0 DUP2 SWAP1 POP PUSH2 0x17CE DUP3 PUSH2 0x17AC JUMP JUMPDEST SWAP2 SWAP1 POP JUMP JUMPDEST PUSH1 0x0 PUSH2 0x17DE DUP3 PUSH2 0x17C0 JUMP JUMPDEST SWAP1 POP SWAP2 SWAP1 POP JUMP JUMPDEST PUSH2 0x17EE DUP2 PUSH2 0x17D3 JUMP JUMPDEST DUP3 MSTORE POP POP JUMP JUMPDEST PUSH1 0x0 PUSH1 0xE0 DUP4 ADD PUSH1 0x0 DUP4 ADD MLOAD PUSH2 0x180C PUSH1 0x0 DUP7 ADD DUP3 PUSH2 0x16D7 JUMP JUMPDEST POP PUSH1 0x20 DUP4 ADD MLOAD DUP5 DUP3 SUB PUSH1 0x20 DUP7 ADD MSTORE PUSH2 0x1824 DUP3 DUP3 PUSH2 0x1735 JUMP JUMPDEST SWAP2 POP POP PUSH1 0x40 DUP4 ADD MLOAD DUP5 DUP3 SUB PUSH1 0x40 DUP7 ADD MSTORE PUSH2 0x183E DUP3 DUP3 PUSH2 0x1735 JUMP JUMPDEST SWAP2 POP POP PUSH1 0x60 DUP4 ADD MLOAD PUSH2 0x1853 PUSH1 0x60 DUP7 ADD DUP3 PUSH2 0x176E JUMP JUMPDEST POP PUSH1 0x80 DUP4 ADD MLOAD PUSH2 0x1866 PUSH1 0x80 DUP7 ADD DUP3 PUSH2 0x16D7 JUMP JUMPDEST POP PUSH1 0xA0 DUP4 ADD MLOAD PUSH2 0x1879 PUSH1 0xA0 DUP7 ADD DUP3 PUSH2 0x176E JUMP JUMPDEST POP PUSH1 0xC0 DUP4 ADD MLOAD PUSH2 0x188C PUSH1 0xC0 DUP7 ADD DUP3 PUSH2 0x17E5 JUMP JUMPDEST POP DUP1 SWAP2 POP POP SWAP3 SWAP2 POP POP JUMP JUMPDEST PUSH1 0x0 PUSH1 0x20 DUP3 ADD SWAP1 POP DUP2 DUP2 SUB PUSH1 0x0 DUP4 ADD MSTORE PUSH2 0x18B1 DUP2 DUP5 PUSH2 0x17F4 JUMP JUMPDEST SWAP1 POP SWAP3 SWAP2 POP POP JUMP JUMPDEST PUSH1 0x0 PUSH1 0x20 DUP3 DUP5 SUB SLT ISZERO PUSH2 0x18CF JUMPI PUSH2 0x18CE PUSH2 0x13E8 JUMP JUMPDEST JUMPDEST PUSH1 0x0 DUP3 ADD CALLDATALOAD PUSH8 0xFFFFFFFFFFFFFFFF DUP2 GT ISZERO PUSH2 0x18ED JUMPI PUSH2 0x18EC PUSH2 0x13ED JUMP JUMPDEST JUMPDEST PUSH2 0x18F9 DUP5 DUP3 DUP6 ADD PUSH2 0x150A JUMP JUMPDEST SWAP2 POP POP SWAP3 SWAP2 POP POP JUMP JUMPDEST PUSH1 0x0 PUSH1 0x20 DUP3 DUP5 SUB SLT ISZERO PUSH2 0x1918 JUMPI PUSH2 0x1917 PUSH2 0x13E8 JUMP JUMPDEST JUMPDEST PUSH1 0x0 PUSH2 0x1926 DUP5 DUP3 DUP6 ADD PUSH2 0x164A JUMP JUMPDEST SWAP2 POP POP SWAP3 SWAP2 POP POP JUMP JUMPDEST PUSH1 0x0 DUP3 DUP3 MSTORE PUSH1 0x20 DUP3 ADD SWAP1 POP SWAP3 SWAP2 POP POP JUMP JUMPDEST PUSH1 0x0 PUSH2 0x194B DUP3 PUSH2 0x16E6 JUMP JUMPDEST PUSH2 0x1955 DUP2 DUP6 PUSH2 0x192F JUMP JUMPDEST SWAP4 POP PUSH2 0x1965 DUP2 DUP6 PUSH1 0x20 DUP7 ADD PUSH2 0x1702 JUMP JUMPDEST PUSH2 0x196E DUP2 PUSH2 0x13FC JUMP JUMPDEST DUP5 ADD SWAP2 POP POP SWAP3 SWAP2 POP POP JUMP JUMPDEST PUSH2 0x1982 DUP2 PUSH2 0x1538 JUMP JUMPDEST DUP3 MSTORE POP POP JUMP JUMPDEST PUSH2 0x1991 DUP2 PUSH2 0x17D3 JUMP JUMPDEST DUP3 MSTORE POP POP JUMP JUMPDEST PUSH1 0x0 PUSH1 0xE0 DUP3 ADD SWAP1 POP PUSH2 0x19AC PUSH1 0x0 DUP4 ADD DUP11 PUSH2 0x1609 JUMP JUMPDEST DUP2 DUP2 SUB PUSH1 0x20 DUP4 ADD MSTORE PUSH2 0x19BE DUP2 DUP10 PUSH2 0x1940 JUMP JUMPDEST SWAP1 POP DUP2 DUP2 SUB PUSH1 0x40 DUP4 ADD MSTORE PUSH2 0x19D2 DUP2 DUP9 PUSH2 0x1940 JUMP JUMPDEST SWAP1 POP PUSH2 0x19E1 PUSH1 0x60 DUP4 ADD DUP8 PUSH2 0x1979 JUMP JUMPDEST PUSH2 0x19EE PUSH1 0x80 DUP4 ADD DUP7 PUSH2 0x1609 JUMP JUMPDEST PUSH2 0x19FB PUSH1 0xA0 DUP4 ADD DUP6 PUSH2 0x1979 JUMP JUMPDEST PUSH2 0x1A08 PUSH1 0xC0 DUP4 ADD DUP5 PUSH2 0x1988 JUMP JUMPDEST SWAP9 SWAP8 POP POP POP POP POP POP POP POP JUMP JUMPDEST PUSH1 0x0 DUP2 MLOAD SWAP1 POP SWAP2 SWAP1 POP JUMP JUMPDEST PUSH1 0x0 DUP3 DUP3 MSTORE PUSH1 0x20 DUP3 ADD SWAP1 POP SWAP3 SWAP2 POP POP JUMP JUMPDEST PUSH1 0x0 DUP2 SWAP1 POP PUSH1 0x20 DUP3 ADD SWAP1 POP SWAP2 SWAP1 POP JUMP JUMPDEST PUSH1 0x0 PUSH1 0xE0 DUP4 ADD PUSH1 0x0 DUP4 ADD MLOAD PUSH2 0x1A58 PUSH1 0x0 DUP7 ADD DUP3 PUSH2 0x16D7 JUMP JUMPDEST POP PUSH1 0x20 DUP4 ADD MLOAD DUP5 DUP3 SUB PUSH1 0x20 DUP7 ADD MSTORE PUSH2 0x1A70 DUP3 DUP3 PUSH2 0x1735 JUMP JUMPDEST SWAP2 POP POP PUSH1 0x40 DUP4 ADD MLOAD DUP5 DUP3 SUB PUSH1 0x40 DUP7 ADD MSTORE PUSH2 0x1A8A DUP3 DUP3 PUSH2 0x1735 JUMP JUMPDEST SWAP2 POP POP PUSH1 0x60 DUP4 ADD MLOAD PUSH2 0x1A9F PUSH1 0x60 DUP7 ADD DUP3 PUSH2 0x176E JUMP JUMPDEST POP PUSH1 0x80 DUP4 ADD MLOAD PUSH2 0x1AB2 PUSH1 0x80 DUP7 ADD DUP3 PUSH2 0x16D7 JUMP JUMPDEST POP PUSH1 0xA0 DUP4 ADD MLOAD PUSH2 0x1AC5 PUSH1 0xA0 DUP7 ADD DUP3 PUSH2 0x176E JUMP JUMPDEST POP PUSH1 0xC0 DUP4 ADD MLOAD PUSH2 0x1AD8 PUSH1 0xC0 DUP7 ADD DUP3 PUSH2 0x17E5 JUMP JUMPDEST POP DUP1 SWAP2 POP POP SWAP3 SWAP2 POP POP JUMP JUMPDEST PUSH1 0x0 PUSH2 0x1AEF DUP4 DUP4 PUSH2 0x1A40 JUMP JUMPDEST SWAP1 POP SWAP3 SWAP2 POP POP JUMP JUMPDEST PUSH1 0x0 PUSH1 0x20 DUP3 ADD SWAP1 POP SWAP2 SWAP1 POP JUMP JUMPDEST PUSH1 0x0 PUSH2 0x1B0F DUP3 PUSH2 0x1A14 JUMP JUMPDEST PUSH2 0x1B19 DUP2 DUP6 PUSH2 0x1A1F JUMP JUMPDEST SWAP4 POP DUP4 PUSH1 0x20 DUP3 MUL DUP6 ADD PUSH2 0x1B2B DUP6 PUSH2 0x1A30 JUMP JUMPDEST DUP1 PUSH1 0x0 JUMPDEST DUP6 DUP2 LT ISZERO PUSH2 0x1B67 JUMPI DUP5 DUP5 SUB DUP10 MSTORE DUP2 MLOAD PUSH2 0x1B48 DUP6 DUP3 PUSH2 0x1AE3 JUMP JUMPDEST SWAP5 POP PUSH2 0x1B53 DUP4 PUSH2 0x1AF7 JUMP JUMPDEST SWAP3 POP PUSH1 0x20 DUP11 ADD SWAP10 POP POP PUSH1 0x1 DUP2 ADD SWAP1 POP PUSH2 0x1B2F JUMP JUMPDEST POP DUP3 SWAP8 POP DUP8 SWAP6 POP POP POP POP POP POP SWAP3 SWAP2 POP POP JUMP JUMPDEST PUSH1 0x0 PUSH1 0x20 DUP3 ADD SWAP1 POP DUP2 DUP2 SUB PUSH1 0x0 DUP4 ADD MSTORE PUSH2 0x1B93 DUP2 DUP5 PUSH2 0x1B04 JUMP JUMPDEST SWAP1 POP SWAP3 SWAP2 POP POP JUMP JUMPDEST PUSH1 0x0 PUSH20 0xFFFFFFFFFFFFFFFFFFFFFFFFFFFFFFFFFFFFFFFF DUP3 AND SWAP1 POP SWAP2 SWAP1 POP JUMP JUMPDEST PUSH1 0x0 PUSH2 0x1BC6 DUP3 PUSH2 0x1B9B JUMP JUMPDEST SWAP1 POP SWAP2 SWAP1 POP JUMP JUMPDEST PUSH2 0x1BD6 DUP2 PUSH2 0x1BBB JUMP JUMPDEST DUP3 MSTORE POP POP JUMP JUMPDEST PUSH1 0x0 PUSH1 0x20 DUP3 ADD SWAP1 POP PUSH2 0x1BF1 PUSH1 0x0 DUP4 ADD DUP5 PUSH2 0x1BCD JUMP JUMPDEST SWAP3 SWAP2 POP POP JUMP JUMPDEST PUSH1 0x0 PUSH1 0x20 DUP3 ADD SWAP1 POP PUSH2 0x1C0C PUSH1 0x0 DUP4 ADD DUP5 PUSH2 0x1988 JUMP JUMPDEST SWAP3 SWAP2 POP POP JUMP JUMPDEST PUSH2 0x1C1B DUP2 PUSH2 0x1BBB JUMP JUMPDEST DUP2 EQ PUSH2 0x1C26 JUMPI PUSH1 0x0 DUP1 REVERT JUMPDEST POP JUMP JUMPDEST PUSH1 0x0 DUP2 CALLDATALOAD SWAP1 POP PUSH2 0x1C38 DUP2 PUSH2 0x1C12 JUMP JUMPDEST SWAP3 SWAP2 POP POP JUMP JUMPDEST PUSH1 0x0 PUSH1 0x20 DUP3 DUP5 SUB SLT ISZERO PUSH2 0x1C54 JUMPI PUSH2 0x1C53 PUSH2 0x13E8 JUMP JUMPDEST JUMPDEST PUSH1 0x0 PUSH2 0x1C62 DUP5 DUP3 DUP6 ADD PUSH2 0x1C29 JUMP JUMPDEST SWAP2 POP POP SWAP3 SWAP2 POP POP JUMP JUMPDEST PUSH1 0x0 DUP2 SWAP1 POP SWAP3 SWAP2 POP POP JUMP JUMPDEST PUSH1 0x0 PUSH2 0x1C81 DUP3 PUSH2 0x16E6 JUMP JUMPDEST PUSH2 0x1C8B DUP2 DUP6 PUSH2 0x1C6B JUMP JUMPDEST SWAP4 POP PUSH2 0x1C9B DUP2 DUP6 PUSH1 0x20 DUP7 ADD PUSH2 0x1702 JUMP JUMPDEST DUP1 DUP5 ADD SWAP2 POP POP SWAP3 SWAP2 POP POP JUMP JUMPDEST PUSH1 0x0 PUSH2 0x1CB3 DUP3 DUP5 PUSH2 0x1C76 JUMP JUMPDEST SWAP2 POP DUP2 SWAP1 POP SWAP3 SWAP2 POP POP JUMP JUMPDEST PUSH32 0x4E487B7100000000000000000000000000000000000000000000000000000000 PUSH1 0x0 MSTORE PUSH1 0x11 PUSH1 0x4 MSTORE PUSH1 0x24 PUSH1 0x0 REVERT JUMPDEST PUSH1 0x0 PUSH2 0x1CF8 DUP3 PUSH2 0x15FF JUMP JUMPDEST SWAP2 POP PUSH32 0xFFFFFFFFFFFFFFFFFFFFFFFFFFFFFFFFFFFFFFFFFFFFFFFFFFFFFFFFFFFFFFFF DUP3 EQ ISZERO PUSH2 0x1D2B JUMPI PUSH2 0x1D2A PUSH2 0x1CBE JUMP JUMPDEST JUMPDEST PUSH1 0x1 DUP3 ADD SWAP1 POP SWAP2 SWAP1 POP JUMP JUMPDEST PUSH32 0x4E487B7100000000000000000000000000000000000000000000000000000000 PUSH1 0x0 MSTORE PUSH1 0x32 PUSH1 0x4 MSTORE PUSH1 0x24 PUSH1 0x0 REVERT JUMPDEST PUSH32 0x4E487B7100000000000000000000000000000000000000000000000000000000 PUSH1 0x0 MSTORE PUSH1 0x22 PUSH1 0x4 MSTORE PUSH1 0x24 PUSH1 0x0 REVERT JUMPDEST PUSH1 0x0 PUSH1 0x2 DUP3 DIV SWAP1 POP PUSH1 0x1 DUP3 AND DUP1 PUSH2 0x1DAC JUMPI PUSH1 0x7F DUP3 AND SWAP2 POP JUMPDEST PUSH1 0x20 DUP3 LT DUP2 EQ ISZERO PUSH2 0x1DC0 JUMPI PUSH2 0x1DBF PUSH2 0x1D65 JUMP JUMPDEST JUMPDEST POP SWAP2 SWAP1 POP JUMP JUMPDEST PUSH32 0x4D7573742062652070726F706F736564206F776E657200000000000000000000 PUSH1 0x0 DUP3 ADD MSTORE POP JUMP JUMPDEST PUSH1 0x0 PUSH2 0x1DFC PUSH1 0x16 DUP4 PUSH2 0x192F JUMP JUMPDEST SWAP2 POP PUSH2 0x1E07 DUP3 PUSH2 0x1DC6 JUMP JUMPDEST PUSH1 0x20 DUP3 ADD SWAP1 POP SWAP2 SWAP1 POP JUMP JUMPDEST PUSH1 0x0 PUSH1 0x20 DUP3 ADD SWAP1 POP DUP2 DUP2 SUB PUSH1 0x0 DUP4 ADD MSTORE PUSH2 0x1E2B DUP2 PUSH2 0x1DEF JUMP JUMPDEST SWAP1 POP SWAP2 SWAP1 POP JUMP JUMPDEST PUSH1 0x0 DUP2 SWAP1 POP DUP2 PUSH1 0x0 MSTORE PUSH1 0x20 PUSH1 0x0 KECCAK256 SWAP1 POP SWAP2 SWAP1 POP JUMP JUMPDEST PUSH1 0x0 DUP2 SLOAD PUSH2 0x1E54 DUP2 PUSH2 0x1D94 JUMP JUMPDEST PUSH2 0x1E5E DUP2 DUP7 PUSH2 0x1C6B JUMP JUMPDEST SWAP5 POP PUSH1 0x1 DUP3 AND PUSH1 0x0 DUP2 EQ PUSH2 0x1E79 JUMPI PUSH1 0x1 DUP2 EQ PUSH2 0x1E8A JUMPI PUSH2 0x1EBD JUMP JUMPDEST PUSH1 0xFF NOT DUP4 AND DUP7 MSTORE DUP2 DUP7 ADD SWAP4 POP PUSH2 0x1EBD JUMP JUMPDEST PUSH2 0x1E93 DUP6 PUSH2 0x1E32 JUMP JUMPDEST PUSH1 0x0 JUMPDEST DUP4 DUP2 LT ISZERO PUSH2 0x1EB5 JUMPI DUP2 SLOAD DUP2 DUP10 ADD MSTORE PUSH1 0x1 DUP3 ADD SWAP2 POP PUSH1 0x20 DUP2 ADD SWAP1 POP PUSH2 0x1E96 JUMP JUMPDEST DUP4 DUP9 ADD SWAP6 POP POP POP JUMPDEST POP POP POP SWAP3 SWAP2 POP POP JUMP JUMPDEST PUSH1 0x0 PUSH2 0x1ED2 DUP3 DUP5 PUSH2 0x1E47 JUMP JUMPDEST SWAP2 POP DUP2 SWAP1 POP SWAP3 SWAP2 POP POP JUMP JUMPDEST PUSH32 0x4F6E6C792063616C6C61626C65206279206F776E657200000000000000000000 PUSH1 0x0 DUP3 ADD MSTORE POP JUMP JUMPDEST PUSH1 0x0 PUSH2 0x1F13 PUSH1 0x16 DUP4 PUSH2 0x192F JUMP JUMPDEST SWAP2 POP PUSH2 0x1F1E DUP3 PUSH2 0x1EDD JUMP JUMPDEST PUSH1 0x20 DUP3 ADD SWAP1 POP SWAP2 SWAP1 POP JUMP JUMPDEST PUSH1 0x0 PUSH1 0x20 DUP3 ADD SWAP1 POP DUP2 DUP2 SUB PUSH1 0x0 DUP4 ADD MSTORE PUSH2 0x1F42 DUP2 PUSH2 0x1F06 JUMP JUMPDEST SWAP1 POP SWAP2 SWAP1 POP JUMP JUMPDEST PUSH1 0x0 DUP2 PUSH1 0xE0 SHL SWAP1 POP SWAP2 SWAP1 POP JUMP JUMPDEST PUSH1 0x0 PUSH2 0x1F61 DUP3 PUSH2 0x1F49 JUMP JUMPDEST SWAP1 POP SWAP2 SWAP1 POP JUMP JUMPDEST PUSH2 0x1F79 PUSH2 0x1F74 DUP3 PUSH2 0x1538 JUMP JUMPDEST PUSH2 0x1F56 JUMP JUMPDEST DUP3 MSTORE POP POP JUMP JUMPDEST PUSH1 0x0 DUP2 PUSH1 0x60 SHL SWAP1 POP SWAP2 SWAP1 POP JUMP JUMPDEST PUSH1 0x0 PUSH2 0x1F97 DUP3 PUSH2 0x1F7F JUMP JUMPDEST SWAP1 POP SWAP2 SWAP1 POP JUMP JUMPDEST PUSH1 0x0 PUSH2 0x1FA9 DUP3 PUSH2 0x1F8C JUMP JUMPDEST SWAP1 POP SWAP2 SWAP1 POP JUMP JUMPDEST PUSH2 0x1FC1 PUSH2 0x1FBC DUP3 PUSH2 0x1BBB JUMP JUMPDEST PUSH2 0x1F9E JUMP JUMPDEST DUP3 MSTORE POP POP JUMP JUMPDEST PUSH1 0x0 DUP2 SWAP1 POP SWAP2 SWAP1 POP JUMP JUMPDEST PUSH2 0x1FE2 PUSH2 0x1FDD DUP3 PUSH2 0x15FF JUMP JUMPDEST PUSH2 0x1FC7 JUMP JUMPDEST DUP3 MSTORE POP POP JUMP JUMPDEST PUSH1 0x0 PUSH2 0x1FF4 DUP3 DUP9 PUSH2 0x1C76 JUMP JUMPDEST SWAP2 POP PUSH2 0x2000 DUP3 DUP8 PUSH2 0x1C76 JUMP JUMPDEST SWAP2 POP PUSH2 0x200C DUP3 DUP7 PUSH2 0x1F68 JUMP JUMPDEST PUSH1 0x4 DUP3 ADD SWAP2 POP PUSH2 0x201C DUP3 DUP6 PUSH2 0x1FB0 JUMP JUMPDEST PUSH1 0x14 DUP3 ADD SWAP2 POP PUSH2 0x202C DUP3 DUP5 PUSH2 0x1FD1 JUMP JUMPDEST PUSH1 0x20 DUP3 ADD SWAP2 POP DUP2 SWAP1 POP SWAP7 SWAP6 POP POP POP POP POP POP JUMP JUMPDEST PUSH32 0x4E487B7100000000000000000000000000000000000000000000000000000000 PUSH1 0x0 MSTORE PUSH1 0x12 PUSH1 0x4 MSTORE PUSH1 0x24 PUSH1 0x0 REVERT JUMPDEST PUSH1 0x0 PUSH2 0x2079 DUP3 PUSH2 0x15FF JUMP JUMPDEST SWAP2 POP PUSH2 0x2084 DUP4 PUSH2 0x15FF JUMP JUMPDEST SWAP3 POP DUP3 PUSH2 0x2094 JUMPI PUSH2 0x2093 PUSH2 0x203F JUMP JUMPDEST JUMPDEST DUP3 DUP3 MOD SWAP1 POP SWAP3 SWAP2 POP POP JUMP JUMPDEST PUSH32 0x43616E6E6F74207472616E7366657220746F2073656C66000000000000000000 PUSH1 0x0 DUP3 ADD MSTORE POP JUMP JUMPDEST PUSH1 0x0 PUSH2 0x20D5 PUSH1 0x17 DUP4 PUSH2 0x192F JUMP JUMPDEST SWAP2 POP PUSH2 0x20E0 DUP3 PUSH2 0x209F JUMP JUMPDEST PUSH1 0x20 DUP3 ADD SWAP1 POP SWAP2 SWAP1 POP JUMP JUMPDEST PUSH1 0x0 PUSH1 0x20 DUP3 ADD SWAP1 POP DUP2 DUP2 SUB PUSH1 0x0 DUP4 ADD MSTORE PUSH2 0x2104 DUP2 PUSH2 0x20C8 JUMP JUMPDEST SWAP1 POP SWAP2 SWAP1 POP JUMP INVALID LOG2 PUSH5 0x6970667358 0x22 SLT KECCAK256 CREATE2 BLOCKHASH 0xB8 PUSH29 0x658EED3E55F4CD56ECA79C10266DC09B93F0CF65701C67A4F62E980264 PUSH20 0x6F6C634300080C00330000000000000000000000 "
				},
				"gasEstimates": {
					"creation": {
						"codeDepositCost": "1702600",
						"executionCost": "31164",
						"totalCost": "1733764"
					},
					"external": {
						"Invoices(uint256)": "infinite",
						"UpdatePaymentStatus(uint256,bool)": "infinite",
						"_invoiceCreation(string,string,uint32)": "infinite",
						"acceptOwnership()": "54540",
						"buyerPANCount(string)": "infinite",
						"getInvoicesByPan(string)": "infinite",
						"getPaymentStatus(uint256)": "3033",
						"invoiceIdtoInvoice(uint256)": "infinite",
						"owner()": "2566",
						"transferOwnership(address)": "30745"
					},
					"internal": {
						"_genratePseudoRandomInvoiceId(string memory,string memory,uint32)": "infinite"
					}
				},
				"methodIdentifiers": {
					"Invoices(uint256)": "5ef3fc61",
					"UpdatePaymentStatus(uint256,bool)": "24c407b1",
					"_invoiceCreation(string,string,uint32)": "0ab4516d",
					"acceptOwnership()": "79ba5097",
					"buyerPANCount(string)": "286f44ef",
					"getInvoicesByPan(string)": "83e8e6a4",
					"getPaymentStatus(uint256)": "a1650043",
					"invoiceIdtoInvoice(uint256)": "6f522e50",
					"owner()": "8da5cb5b",
					"transferOwnership(address)": "f2fde38b"
				}
			},
			"userdoc": {
				"kind": "user",
				"methods": {
					"acceptOwnership()": {
						"notice": "Allows an ownership transfer to be completed by the recipient."
					},
					"owner()": {
						"notice": "Get the current owner"
					},
					"transferOwnership(address)": {
						"notice": "Allows an owner to begin transferring ownership to a new address, pending."
					}
				},
				"version": 1
			}
		}
	}
}